{"abi":[{"type":"constructor","inputs":[],"stateMutability":"nonpayable"},{"type":"receive","stateMutability":"payable"},{"type":"function","name":"ADMIN_ROLE","inputs":[],"outputs":[{"name":"","type":"bytes32","internalType":"bytes32"}],"stateMutability":"view"},{"type":"function","name":"DEFAULT_ADMIN_ROLE","inputs":[],"outputs":[{"name":"","type":"bytes32","internalType":"bytes32"}],"stateMutability":"view"},{"type":"function","name":"MARKET_BOTH_SCORE","inputs":[],"outputs":[{"name":"","type":"bytes32","internalType":"bytes32"}],"stateMutability":"view"},{"type":"function","name":"MARKET_CORRECT_SCORE","inputs":[],"outputs":[{"name":"","type":"bytes32","internalType":"bytes32"}],"stateMutability":"view"},{"type":"function","name":"MARKET_FIRST_SCORER","inputs":[],"outputs":[{"name":"","type":"bytes32","internalType":"bytes32"}],"stateMutability":"view"},{"type":"function","name":"MARKET_GOALS_TOTAL","inputs":[],"outputs":[{"name":"","type":"bytes32","internalType":"bytes32"}],"stateMutability":"view"},{"type":"function","name":"MARKET_HALFTIME","inputs":[],"outputs":[{"name":"","type":"bytes32","internalType":"bytes32"}],"stateMutability":"view"},{"type":"function","name":"MARKET_WINNER","inputs":[],"outputs":[{"name":"","type":"bytes32","internalType":"bytes32"}],"stateMutability":"view"},{"type":"function","name":"MAX_ODDS","inputs":[],"outputs":[{"name":"","type":"uint32","internalType":"uint32"}],"stateMutability":"view"},{"type":"function","name":"MIN_ODDS","inputs":[],"outputs":[{"name":"","type":"uint32","internalType":"uint32"}],"stateMutability":"view"},{"type":"function","name":"ODDS_PRECISION","inputs":[],"outputs":[{"name":"","type":"uint32","internalType":"uint32"}],"stateMutability":"view"},{"type":"function","name":"ODDS_SETTER_ROLE","inputs":[],"outputs":[{"name":"","type":"bytes32","internalType":"bytes32"}],"stateMutability":"view"},{"type":"function","name":"PAUSER_ROLE","inputs":[],"outputs":[{"name":"","type":"bytes32","internalType":"bytes32"}],"stateMutability":"view"},{"type":"function","name":"RESOLVER_ROLE","inputs":[],"outputs":[{"name":"","type":"bytes32","internalType":"bytes32"}],"stateMutability":"view"},{"type":"function","name":"TREASURY_ROLE","inputs":[],"outputs":[{"name":"","type":"bytes32","internalType":"bytes32"}],"stateMutability":"view"},{"type":"function","name":"UPGRADE_INTERFACE_VERSION","inputs":[],"outputs":[{"name":"","type":"string","internalType":"string"}],"stateMutability":"view"},{"type":"function","name":"addMarket","inputs":[{"name":"marketType","type":"bytes32","internalType":"bytes32"},{"name":"initialOdds","type":"uint32","internalType":"uint32"}],"outputs":[],"stateMutability":"nonpayable"},{"type":"function","name":"addMarketWithLine","inputs":[{"name":"marketType","type":"bytes32","internalType":"bytes32"},{"name":"initialOdds","type":"uint32","internalType":"uint32"},{"name":"line","type":"int16","internalType":"int16"}],"outputs":[],"stateMutability":"nonpayable"},{"type":"function","name":"cancelMarket","inputs":[{"name":"marketId","type":"uint256","internalType":"uint256"},{"name":"reason","type":"string","internalType":"string"}],"outputs":[],"stateMutability":"nonpayable"},{"type":"function","name":"claim","inputs":[{"name":"marketId","type":"uint256","internalType":"uint256"},{"name":"betIndex","type":"uint256","internalType":"uint256"}],"outputs":[],"stateMutability":"nonpayable"},{"type":"function","name":"claimAll","inputs":[{"name":"marketId","type":"uint256","internalType":"uint256"}],"outputs":[],"stateMutability":"nonpayable"},{"type":"function","name":"claimRefund","inputs":[{"name":"marketId","type":"uint256","internalType":"uint256"},{"name":"betIndex","type":"uint256","internalType":"uint256"}],"outputs":[],"stateMutability":"nonpayable"},{"type":"function","name":"closeMarket","inputs":[{"name":"marketId","type":"uint256","internalType":"uint256"}],"outputs":[],"stateMutability":"nonpayable"},{"type":"function","name":"emergencyPause","inputs":[],"outputs":[],"stateMutability":"nonpayable"},{"type":"function","name":"emergencyWithdraw","inputs":[{"name":"amount","type":"uint256","internalType":"uint256"}],"outputs":[],"stateMutability":"nonpayable"},{"type":"function","name":"footballMarkets","inputs":[{"name":"","type":"uint256","internalType":"uint256"}],"outputs":[{"name":"marketType","type":"bytes32","internalType":"bytes32"},{"name":"line","type":"int16","internalType":"int16"},{"name":"maxSelections","type":"uint8","internalType":"uint8"}],"stateMutability":"view"},{"type":"function","name":"getBetDetails","inputs":[{"name":"marketId","type":"uint256","internalType":"uint256"},{"name":"user","type":"address","internalType":"address"},{"name":"betIndex","type":"uint256","internalType":"uint256"}],"outputs":[{"name":"amount","type":"uint256","internalType":"uint256"},{"name":"selection","type":"uint64","internalType":"uint64"},{"name":"odds","type":"uint32","internalType":"uint32"},{"name":"timestamp","type":"uint40","internalType":"uint40"},{"name":"claimed","type":"bool","internalType":"bool"},{"name":"potentialPayout","type":"uint256","internalType":"uint256"}],"stateMutability":"view"},{"type":"function","name":"getCurrentOdds","inputs":[{"name":"marketId","type":"uint256","internalType":"uint256"}],"outputs":[{"name":"","type":"uint32","internalType":"uint32"}],"stateMutability":"view"},{"type":"function","name":"getFootballMarket","inputs":[{"name":"marketId","type":"uint256","internalType":"uint256"}],"outputs":[{"name":"marketTypeStr","type":"string","internalType":"string"},{"name":"line","type":"int16","internalType":"int16"},{"name":"maxSelections","type":"uint8","internalType":"uint8"},{"name":"state","type":"uint8","internalType":"enum BettingMatch.MarketState"},{"name":"currentOdds","type":"uint32","internalType":"uint32"},{"name":"result","type":"uint64","internalType":"uint64"},{"name":"totalPool","type":"uint256","internalType":"uint256"}],"stateMutability":"view"},{"type":"function","name":"getMarketCore","inputs":[{"name":"marketId","type":"uint256","internalType":"uint256"}],"outputs":[{"name":"","type":"tuple","internalType":"struct BettingMatch.MarketCore","components":[{"name":"state","type":"uint8","internalType":"enum BettingMatch.MarketState"},{"name":"result","type":"uint64","internalType":"uint64"},{"name":"createdAt","type":"uint40","internalType":"uint40"},{"name":"resolvedAt","type":"uint40","internalType":"uint40"},{"name":"totalPool","type":"uint256","internalType":"uint256"}]}],"stateMutability":"view"},{"type":"function","name":"getMarketInfo","inputs":[{"name":"marketId","type":"uint256","internalType":"uint256"}],"outputs":[{"name":"marketType","type":"bytes32","internalType":"bytes32"},{"name":"state","type":"uint8","internalType":"enum BettingMatch.MarketState"},{"name":"currentOdds","type":"uint32","internalType":"uint32"},{"name":"result","type":"uint64","internalType":"uint64"},{"name":"totalPool","type":"uint256","internalType":"uint256"}],"stateMutability":"view"},{"type":"function","name":"getOddsHistory","inputs":[{"name":"marketId","type":"uint256","internalType":"uint256"}],"outputs":[{"name":"","type":"uint32[]","internalType":"uint32[]"}],"stateMutability":"view"},{"type":"function","name":"getRoleAdmin","inputs":[{"name":"role","type":"bytes32","internalType":"bytes32"}],"outputs":[{"name":"","type":"bytes32","internalType":"bytes32"}],"stateMutability":"view"},{"type":"function","name":"getUserBets","inputs":[{"name":"marketId","type":"uint256","internalType":"uint256"},{"name":"user","type":"address","internalType":"address"}],"outputs":[{"name":"","type":"tuple[]","internalType":"struct BettingMatch.Bet[]","components":[{"name":"amount","type":"uint256","internalType":"uint256"},{"name":"selection","type":"uint64","internalType":"uint64"},{"name":"oddsIndex","type":"uint16","internalType":"uint16"},{"name":"timestamp","type":"uint40","internalType":"uint40"},{"name":"claimed","type":"bool","internalType":"bool"}]}],"stateMutability":"view"},{"type":"function","name":"grantRole","inputs":[{"name":"role","type":"bytes32","internalType":"bytes32"},{"name":"account","type":"address","internalType":"address"}],"outputs":[],"stateMutability":"nonpayable"},{"type":"function","name":"hasRole","inputs":[{"name":"role","type":"bytes32","internalType":"bytes32"},{"name":"account","type":"address","internalType":"address"}],"outputs":[{"name":"","type":"bool","internalType":"bool"}],"stateMutability":"view"},{"type":"function","name":"initialize","inputs":[{"name":"_matchName","type":"string","internalType":"string"},{"name":"_owner","type":"address","internalType":"address"}],"outputs":[],"stateMutability":"nonpayable"},{"type":"function","name":"marketCount","inputs":[],"outputs":[{"name":"","type":"uint256","internalType":"uint256"}],"stateMutability":"view"},{"type":"function","name":"matchName","inputs":[],"outputs":[{"name":"","type":"string","internalType":"string"}],"stateMutability":"view"},{"type":"function","name":"openMarket","inputs":[{"name":"marketId","type":"uint256","internalType":"uint256"}],"outputs":[],"stateMutability":"nonpayable"},{"type":"function","name":"owner","inputs":[],"outputs":[{"name":"","type":"address","internalType":"address"}],"stateMutability":"view"},{"type":"function","name":"paused","inputs":[],"outputs":[{"name":"","type":"bool","internalType":"bool"}],"stateMutability":"view"},{"type":"function","name":"placeBet","inputs":[{"name":"marketId","type":"uint256","internalType":"uint256"},{"name":"selection","type":"uint64","internalType":"uint64"}],"outputs":[],"stateMutability":"payable"},{"type":"function","name":"proxiableUUID","inputs":[],"outputs":[{"name":"","type":"bytes32","internalType":"bytes32"}],"stateMutability":"view"},{"type":"function","name":"renounceOwnership","inputs":[],"outputs":[],"stateMutability":"nonpayable"},{"type":"function","name":"renounceRole","inputs":[{"name":"role","type":"bytes32","internalType":"bytes32"},{"name":"callerConfirmation","type":"address","internalType":"address"}],"outputs":[],"stateMutability":"nonpayable"},{"type":"function","name":"resolveMarket","inputs":[{"name":"marketId","type":"uint256","internalType":"uint256"},{"name":"result","type":"uint64","internalType":"uint64"}],"outputs":[],"stateMutability":"nonpayable"},{"type":"function","name":"revokeRole","inputs":[{"name":"role","type":"bytes32","internalType":"bytes32"},{"name":"account","type":"address","internalType":"address"}],"outputs":[],"stateMutability":"nonpayable"},{"type":"function","name":"setMarketOdds","inputs":[{"name":"marketId","type":"uint256","internalType":"uint256"},{"name":"newOdds","type":"uint32","internalType":"uint32"}],"outputs":[],"stateMutability":"nonpayable"},{"type":"function","name":"sportType","inputs":[],"outputs":[{"name":"","type":"string","internalType":"string"}],"stateMutability":"view"},{"type":"function","name":"supportsInterface","inputs":[{"name":"interfaceId","type":"bytes4","internalType":"bytes4"}],"outputs":[{"name":"","type":"bool","internalType":"bool"}],"stateMutability":"view"},{"type":"function","name":"suspendMarket","inputs":[{"name":"marketId","type":"uint256","internalType":"uint256"}],"outputs":[],"stateMutability":"nonpayable"},{"type":"function","name":"transferOwnership","inputs":[{"name":"newOwner","type":"address","internalType":"address"}],"outputs":[],"stateMutability":"nonpayable"},{"type":"function","name":"unpause","inputs":[],"outputs":[],"stateMutability":"nonpayable"},{"type":"function","name":"upgradeToAndCall","inputs":[{"name":"newImplementation","type":"address","internalType":"address"},{"name":"data","type":"bytes","internalType":"bytes"}],"outputs":[],"stateMutability":"payable"},{"type":"event","name":"BetPlaced","inputs":[{"name":"marketId","type":"uint256","indexed":true,"internalType":"uint256"},{"name":"user","type":"address","indexed":true,"internalType":"address"},{"name":"betIndex","type":"uint256","indexed":false,"internalType":"uint256"},{"name":"amount","type":"uint256","indexed":false,"internalType":"uint256"},{"name":"selection","type":"uint64","indexed":false,"internalType":"uint64"},{"name":"odds","type":"uint32","indexed":false,"internalType":"uint32"},{"name":"oddsIndex","type":"uint16","indexed":false,"internalType":"uint16"}],"anonymous":false},{"type":"event","name":"Initialized","inputs":[{"name":"version","type":"uint64","indexed":false,"internalType":"uint64"}],"anonymous":false},{"type":"event","name":"MarketCancelled","inputs":[{"name":"marketId","type":"uint256","indexed":true,"internalType":"uint256"},{"name":"reason","type":"string","indexed":false,"internalType":"string"}],"anonymous":false},{"type":"event","name":"MarketCreated","inputs":[{"name":"marketId","type":"uint256","indexed":true,"internalType":"uint256"},{"name":"marketType","type":"string","indexed":false,"internalType":"string"},{"name":"initialOdds","type":"uint32","indexed":false,"internalType":"uint32"}],"anonymous":false},{"type":"event","name":"MarketResolved","inputs":[{"name":"marketId","type":"uint256","indexed":true,"internalType":"uint256"},{"name":"result","type":"uint64","indexed":false,"internalType":"uint64"},{"name":"resolvedAt","type":"uint40","indexed":false,"internalType":"uint40"}],"anonymous":false},{"type":"event","name":"MarketStateChanged","inputs":[{"name":"marketId","type":"uint256","indexed":true,"internalType":"uint256"},{"name":"oldState","type":"uint8","indexed":false,"internalType":"enum BettingMatch.MarketState"},{"name":"newState","type":"uint8","indexed":false,"internalType":"enum BettingMatch.MarketState"}],"anonymous":false},{"type":"event","name":"MatchInitialized","inputs":[{"name":"name","type":"string","indexed":true,"internalType":"string"},{"name":"sportType","type":"string","indexed":false,"internalType":"string"},{"name":"owner","type":"address","indexed":true,"internalType":"address"}],"anonymous":false},{"type":"event","name":"OddsUpdated","inputs":[{"name":"marketId","type":"uint256","indexed":true,"internalType":"uint256"},{"name":"oldOdds","type":"uint32","indexed":false,"internalType":"uint32"},{"name":"newOdds","type":"uint32","indexed":false,"internalType":"uint32"},{"name":"oddsIndex","type":"uint16","indexed":false,"internalType":"uint16"}],"anonymous":false},{"type":"event","name":"OwnershipTransferred","inputs":[{"name":"previousOwner","type":"address","indexed":true,"internalType":"address"},{"name":"newOwner","type":"address","indexed":true,"internalType":"address"}],"anonymous":false},{"type":"event","name":"Paused","inputs":[{"name":"account","type":"address","indexed":false,"internalType":"address"}],"anonymous":false},{"type":"event","name":"Payout","inputs":[{"name":"marketId","type":"uint256","indexed":true,"internalType":"uint256"},{"name":"user","type":"address","indexed":true,"internalType":"address"},{"name":"betIndex","type":"uint256","indexed":false,"internalType":"uint256"},{"name":"amount","type":"uint256","indexed":false,"internalType":"uint256"}],"anonymous":false},{"type":"event","name":"Refund","inputs":[{"name":"marketId","type":"uint256","indexed":true,"internalType":"uint256"},{"name":"user","type":"address","indexed":true,"internalType":"address"},{"name":"betIndex","type":"uint256","indexed":false,"internalType":"uint256"},{"name":"amount","type":"uint256","indexed":false,"internalType":"uint256"}],"anonymous":false},{"type":"event","name":"RoleAdminChanged","inputs":[{"name":"role","type":"bytes32","indexed":true,"internalType":"bytes32"},{"name":"previousAdminRole","type":"bytes32","indexed":true,"internalType":"bytes32"},{"name":"newAdminRole","type":"bytes32","indexed":true,"internalType":"bytes32"}],"anonymous":false},{"type":"event","name":"RoleGranted","inputs":[{"name":"role","type":"bytes32","indexed":true,"internalType":"bytes32"},{"name":"account","type":"address","indexed":true,"internalType":"address"},{"name":"sender","type":"address","indexed":true,"internalType":"address"}],"anonymous":false},{"type":"event","name":"RoleRevoked","inputs":[{"name":"role","type":"bytes32","indexed":true,"internalType":"bytes32"},{"name":"account","type":"address","indexed":true,"internalType":"address"},{"name":"sender","type":"address","indexed":true,"internalType":"address"}],"anonymous":false},{"type":"event","name":"Unpaused","inputs":[{"name":"account","type":"address","indexed":false,"internalType":"address"}],"anonymous":false},{"type":"event","name":"Upgraded","inputs":[{"name":"implementation","type":"address","indexed":true,"internalType":"address"}],"anonymous":false},{"type":"error","name":"AccessControlBadConfirmation","inputs":[]},{"type":"error","name":"AccessControlUnauthorizedAccount","inputs":[{"name":"account","type":"address","internalType":"address"},{"name":"neededRole","type":"bytes32","internalType":"bytes32"}]},{"type":"error","name":"AddressEmptyCode","inputs":[{"name":"target","type":"address","internalType":"address"}]},{"type":"error","name":"AlreadyClaimed","inputs":[{"name":"marketId","type":"uint256","internalType":"uint256"},{"name":"user","type":"address","internalType":"address"},{"name":"betIndex","type":"uint256","internalType":"uint256"}]},{"type":"error","name":"BetLost","inputs":[{"name":"marketId","type":"uint256","internalType":"uint256"},{"name":"user","type":"address","internalType":"address"},{"name":"betIndex","type":"uint256","internalType":"uint256"}]},{"type":"error","name":"BetNotFound","inputs":[{"name":"marketId","type":"uint256","internalType":"uint256"},{"name":"user","type":"address","internalType":"address"},{"name":"betIndex","type":"uint256","internalType":"uint256"}]},{"type":"error","name":"ContractNotPaused","inputs":[]},{"type":"error","name":"ERC1967InvalidImplementation","inputs":[{"name":"implementation","type":"address","internalType":"address"}]},{"type":"error","name":"ERC1967NonPayable","inputs":[]},{"type":"error","name":"EnforcedPause","inputs":[]},{"type":"error","name":"ExpectedPause","inputs":[]},{"type":"error","name":"FailedCall","inputs":[]},{"type":"error","name":"InsufficientContractBalance","inputs":[{"name":"required","type":"uint256","internalType":"uint256"},{"name":"available","type":"uint256","internalType":"uint256"}]},{"type":"error","name":"InvalidInitialization","inputs":[]},{"type":"error","name":"InvalidMarketId","inputs":[{"name":"marketId","type":"uint256","internalType":"uint256"}]},{"type":"error","name":"InvalidMarketState","inputs":[{"name":"marketId","type":"uint256","internalType":"uint256"},{"name":"current","type":"uint8","internalType":"enum BettingMatch.MarketState"},{"name":"required","type":"uint8","internalType":"enum BettingMatch.MarketState"}]},{"type":"error","name":"InvalidMarketType","inputs":[{"name":"marketType","type":"bytes32","internalType":"bytes32"}]},{"type":"error","name":"InvalidOddsValue","inputs":[{"name":"odds","type":"uint32","internalType":"uint32"},{"name":"min","type":"uint32","internalType":"uint32"},{"name":"max","type":"uint32","internalType":"uint32"}]},{"type":"error","name":"InvalidSelection","inputs":[{"name":"marketId","type":"uint256","internalType":"uint256"},{"name":"selection","type":"uint64","internalType":"uint64"},{"name":"maxAllowed","type":"uint8","internalType":"uint8"}]},{"type":"error","name":"MarketNotCancelled","inputs":[{"name":"marketId","type":"uint256","internalType":"uint256"}]},{"type":"error","name":"MaxOddsEntriesReached","inputs":[{"name":"marketId","type":"uint256","internalType":"uint256"}]},{"type":"error","name":"NotInitializing","inputs":[]},{"type":"error","name":"OddsNotSet","inputs":[{"name":"marketId","type":"uint256","internalType":"uint256"}]},{"type":"error","name":"OwnableInvalidOwner","inputs":[{"name":"owner","type":"address","internalType":"address"}]},{"type":"error","name":"OwnableUnauthorizedAccount","inputs":[{"name":"account","type":"address","internalType":"address"}]},{"type":"error","name":"ReentrancyGuardReentrantCall","inputs":[]},{"type":"error","name":"TransferFailed","inputs":[{"name":"to","type":"address","internalType":"address"},{"name":"amount","type":"uint256","internalType":"uint256"}]},{"type":"error","name":"UUPSUnauthorizedCallContext","inputs":[]},{"type":"error","name":"UUPSUnsupportedProxiableUUID","inputs":[{"name":"slot","type":"bytes32","internalType":"bytes32"}]},{"type":"error","name":"ZeroBetAmount","inputs":[]}],"bytecode":{"object":"0x60a06040523060805234801562000014575f80fd5b506200001f62000025565b620000d9565b7ff0c57e16840df040f15088dc2f81fe391c3923bec73e23a9662efc9c229c6a00805468010000000000000000900460ff1615620000765760405163f92ee8a960e01b815260040160405180910390fd5b80546001600160401b0390811614620000d65780546001600160401b0319166001600160401b0390811782556040519081527fc7f505b2f371ae2175ee4913f4499e1f2633a7b5936321eed1cdaeb6115181d29060200160405180910390a15b50565b608051614049620001005f395f8181612a6801528181612a910152612c1a01526140495ff3fe608060405260043610610344575f3560e01c806383e2e9df116101bd578063bef2a6a0116100f2578063e63ab1e911610092578063f2fde38b1161006d578063f2fde38b14610ae3578063f50ee3d514610b02578063f6d105c214610b2e578063fa744dd314610b60575f80fd5b8063e63ab1e914610a85578063ec97908214610ab8578063f014a10814610acd575f80fd5b8063d547741f116100cd578063d547741f146109e1578063dc562ba514610a00578063dd19ed0a14610a1f578063e570d08414610a52575f80fd5b8063bef2a6a01461097b578063c34902631461098f578063d11a57ec146109ae575f80fd5b8063a217fddf1161015d578063ae07d05111610138578063ae07d051146108c2578063ae418095146108d7578063ba269015146108f6578063baa267571461095c575f80fd5b8063a217fddf1461086c578063ab8cc5121461087f578063ad3cb1cc14610892575f80fd5b80638da5cb5b116101985780638da5cb5b1461078657806391d14854146107cc578063931b5466146107eb57806397576c6d1461080a575f80fd5b806383e2e9df146107155780638527d58f146107345780638723eccf14610753575f80fd5b806351858e27116102935780636bcaa9911161023357806375b238fc1161020e57806375b238fc1461067057806378fab260146106905780637ab4339d146106c35780637c0078a4146106e2575f80fd5b80636bcaa99114610608578063715018a61461063b57806371738f8c1461064f575f80fd5b80635c975abb1161026e5780635c975abb1461059257806361bd2ca9146105b55780636930fd2a146105d45780636bc98ba3146105f3575f80fd5b806351858e271461054b57806352d1902d1461055f5780635312ea8e14610573575f80fd5b80632f2ff15d116102fe5780633f4ba83a116102d95780633f4ba83a146104d957806340b16c1e146104ed578063456051f1146105195780634f1ef28614610538575f80fd5b80632f2ff15d1461046b57806336568abe1461048a5780633ec79193146104a9575f80fd5b806301ffc9a71461034f5780630e75a18c1461038357806310dc30fd146103b75780631a095c6e146103f8578063248a9ca3146104195780632e71b70814610438575f80fd5b3661034b57005b5f80fd5b34801561035a575f80fd5b5061036e6103693660046136fa565b610b8c565b60405190151581526020015b60405180910390f35b34801561038e575f80fd5b506103a261039d366004613721565b610bc2565b60405163ffffffff909116815260200161037a565b3480156103c2575f80fd5b506103ea7f0acfcb0f3e3aaa7ab6a53fd6a206e00781cfe5360bc764438c214cb50c97b71181565b60405190815260200161037a565b348015610403575f80fd5b50610417610412366004613738565b610c00565b005b348015610424575f80fd5b506103ea610433366004613721565b610d63565b348015610443575f80fd5b506103ea7f4386abfac67735e8200942a182a9289c4525de8436be890c45f3baa48cfc744a81565b348015610476575f80fd5b5061041761048536600461378c565b610d83565b348015610495575f80fd5b506104176104a436600461378c565b610da5565b3480156104b4575f80fd5b506104c86104c3366004613721565b610ddd565b60405161037a9594939291906137ea565b3480156104e4575f80fd5b50610417610e5d565b3480156104f8575f80fd5b5061050c610507366004613721565b610e7f565b60405161037a9190613829565b348015610524575f80fd5b5061041761053336600461387f565b610f60565b610417610546366004613979565b610fda565b348015610556575f80fd5b50610417610ff9565b34801561056a575f80fd5b506103ea61102b565b34801561057e575f80fd5b5061041761058d366004613721565b611046565b34801561059d575f80fd5b505f80516020613fb48339815191525460ff1661036e565b3480156105c0575f80fd5b506104176105cf3660046139e9565b611138565b3480156105df575f80fd5b506104176105ee366004613721565b611296565b3480156105fe575f80fd5b506103a261271081565b348015610613575f80fd5b506103ea7f5a07719d8a8f4c48bdefa2dac63aa1381b7ddfabbbcde55ac2fce423272e4ade81565b348015610646575f80fd5b50610417611576565b34801561065a575f80fd5b50610663611589565b60405161037a9190613a57565b34801561067b575f80fd5b506103ea5f80516020613ff483398151915281565b34801561069b575f80fd5b506103ea7f92a19c77d2ea87c7f81d50c74403cb2f401780f3ad919571121efe2bdb427eb181565b3480156106ce575f80fd5b506104176106dd366004613a69565b611614565b3480156106ed575f80fd5b506103ea7fdd5dc5e3118ac9f6534abbb8fc3fdcbf37cbac4179d8c4f61f8246428bdc205181565b348015610720575f80fd5b5061041761072f366004613abd565b61172e565b34801561073f575f80fd5b5061041761074e366004613aff565b61191e565b34801561075e575f80fd5b506103ea7f97e9cffa40fd62a888d33fedb0550a0c24b2dab7e942dd2c90f3dc402fe1d9d081565b348015610791575f80fd5b507f9016d09d72d40fdae2fd8ceac6b6234c7706214fd39c1cd1e609a0528c199300546040516001600160a01b03909116815260200161037a565b3480156107d7575f80fd5b5061036e6107e636600461378c565b611b3b565b3480156107f6575f80fd5b50610417610805366004613721565b611b71565b348015610815575f80fd5b5061084b610824366004613721565b602e6020525f908152604090208054600191820154909181900b9062010000900460ff1683565b6040805193845260019290920b602084015260ff169082015260600161037a565b348015610877575f80fd5b506103ea5f81565b61041761088d366004613738565b611bb9565b34801561089d575f80fd5b50610663604051806040016040528060058152602001640352e302e360dc1b81525081565b3480156108cd575f80fd5b506103a261271181565b3480156108e2575f80fd5b506104176108f1366004613721565b611eff565b348015610901575f80fd5b50610915610910366004613b1f565b611f47565b604080519687526001600160401b03909516602087015263ffffffff9093169385019390935264ffffffffff166060840152901515608083015260a082015260c00161037a565b348015610967575f80fd5b50610417610976366004613721565b612063565b348015610986575f80fd5b506106636120ab565b34801561099a575f80fd5b506104176109a9366004613aff565b6120b8565b3480156109b9575f80fd5b506103ea7fe1dcbdb91df27212a29bc27177c840cf2f819ecf2187432e1fac86c2dd5dfca981565b3480156109ec575f80fd5b506104176109fb36600461378c565b61236b565b348015610a0b575f80fd5b50610417610a1a3660046139e9565b612387565b348015610a2a575f80fd5b506103ea7f538ae17682fc5f9b07ae2625134d6d3c26763eb7064ea668cc95acc79d2f669381565b348015610a5d575f80fd5b506103ea7f02cbb70a5b530cc7252a3b919b89cec2559cd41fd531c11606411ffbac8f3ffc81565b348015610a90575f80fd5b506103ea7f65d7a28e3265b37a6474929f336521b332c1681b933f6cb9f3376673440d862a81565b348015610ac3575f80fd5b506103ea60025481565b348015610ad8575f80fd5b506103a2620f424081565b348015610aee575f80fd5b50610417610afd366004613b51565b612566565b348015610b0d575f80fd5b50610b21610b1c366004613721565b6125a0565b60405161037a9190613b6a565b348015610b39575f80fd5b50610b4d610b48366004613721565b612651565b60405161037a9796959493929190613bb3565b348015610b6b575f80fd5b50610b7f610b7a36600461378c565b6126f6565b60405161037a9190613c13565b5f6001600160e01b03198216637965db0b60e01b1480610bbc57506301ffc9a760e01b6001600160e01b03198316145b92915050565b5f816002548110610bee5760405163113b162160e31b8152600481018290526024015b60405180910390fd5b610bf7836127e4565b91505b50919050565b816002548110610c265760405163113b162160e31b815260048101829052602401610be5565b7f92a19c77d2ea87c7f81d50c74403cb2f401780f3ad919571121efe2bdb427eb1610c508161285f565b5f8481526005602052604090206003815460ff166005811115610c7557610c756137b6565b14158015610c9957506001815460ff166005811115610c9657610c966137b6565b14155b15610cc45780546040516327c6314f60e11b8152610be591879160ff90911690600390600401613c96565b805460ff1964ffffffffff428116600160701b90810264ffffffffff60701b196001600160401b038a1661010081029190911672ffffffffff0000000000ffffffffffffffff00199096169590951717929092166004178085556040805194855292900416602083015286917f64ee7dc32a3ab72dbd217f88cab8b17f7d9024f6d8bd70a962cd5f1cbd10abaf91015b60405180910390a25050505050565b5f9081525f80516020613f94833981519152602052604090206001015490565b610d8c82610d63565b610d958161285f565b610d9f8383612869565b50505050565b6001600160a01b0381163314610dce5760405163334bd91960e11b815260040160405180910390fd5b610dd8828261290a565b505050565b5f805f805f856002548110610e085760405163113b162160e31b815260048101829052602401610be5565b5f878152602e6020908152604080832060059092529091208154815490985060ff169650610e35896127e4565b8154600190920154989a979950976101009091046001600160401b0316969095509350505050565b5f80516020613ff4833981519152610e748161285f565b610e7c612983565b50565b6040805160a0810182525f80825260208201819052918101829052606081018290526080810191909152816002548110610ecf5760405163113b162160e31b815260048101829052602401610be5565b5f83815260056020819052604091829020825160a0810190935280549091839160ff1690811115610f0257610f026137b6565b6005811115610f1357610f136137b6565b815281546001600160401b03610100820416602083015264ffffffffff600160481b820481166040840152600160701b909104166060820152600190910154608090910152915050919050565b826002548110610f865760405163113b162160e31b815260048101829052602401610be5565b5f80516020613ff4833981519152610f9d8161285f565b610fa88560056129e2565b847f4c4561c5b0048424071c1115e9f1e325486e21c21333d968f21097b7b72d12ad8585604051610d54929190613cbf565b610fe2612a5d565b610feb82612b01565b610ff58282612b0b565b5050565b7f65d7a28e3265b37a6474929f336521b332c1681b933f6cb9f3376673440d862a6110238161285f565b610e7c612bc7565b5f611034612c0f565b505f80516020613f7483398151915290565b7fe1dcbdb91df27212a29bc27177c840cf2f819ecf2187432e1fac86c2dd5dfca96110708161285f565b5f80516020613fb48339815191525460ff1661109f5760405163dcdde9dd60e01b815260040160405180910390fd5b478211156110c95760405163b7ddd88b60e01b815260048101839052476024820152604401610be5565b6040515f90339084908381818185875af1925050503d805f8114611108576040519150601f19603f3d011682016040523d82523d5f602084013e61110d565b606091505b5050905080610dd857604051630e21dcbb60e11b815233600482015260248101849052604401610be5565b81600254811061115e5760405163113b162160e31b815260048101829052602401610be5565b7f0acfcb0f3e3aaa7ab6a53fd6a206e00781cfe5360bc764438c214cb50c97b7116111888161285f565b61119183612c58565b5f8481526005602052604090206001815460ff1660058111156111b6576111b66137b6565b141580156111d957505f815460ff1660058111156111d6576111d66137b6565b14155b156112045780546040516327c6314f60e11b8152610be591879160ff90911690600190600401613c96565b5f8581526003602052604081209061121b876127e4565b90505f6112288888612cad565b60028401805461ffff191661ffff83169081179091556040805163ffffffff80871682528b1660208201529081019190915290915088907f4574f9eec81dc6826c2d5b08e1292b2b3ad2700b73ad81bb4f24bf90f8296ce19060600160405180910390a25050505050505050565b61129e612d6a565b8060025481106112c45760405163113b162160e31b815260048101829052602401610be5565b6112cc612da1565b5f8281526005602090815260408083206004835281842033855290925282209091805b82548110156114ba575f83828154811061130b5761130b613ced565b905f5260205f209060020201905080600101600f9054906101000a900460ff161561133657506114b2565b5f806004875460ff166005811115611350576113506137b6565b1480156113735750865460018401546001600160401b0390811661010090920416145b156113c5575f6113958a8560010160089054906101000a900461ffff16612dd1565b8454909150612710906113af9063ffffffff841690613d15565b6113b99190613d2c565b915060019250506113ea565b6005875460ff1660058111156113dd576113dd6137b6565b036113ea57505080546001905b81156114ae5760018301805460ff60781b1916600160781b17905561140f8186613d4b565b94506005875460ff166005811115611429576114296137b6565b0361147057604080518581526020810183905233918b917faba4210cad11f1112f31ba136a61cdc0f6ab4c2b478da8c93eec1d9769e97a89910160405180910390a36114ae565b604080518581526020810183905233918b917fa5df5a195b51346b41c715be6896ddef8de524059309701b83d22c7e4ec1aa4c910160405180910390a35b5050505b6001016112ef565b50801561155c57804710156114eb5760405163b7ddd88b60e01b815260048101829052476024820152604401610be5565b6040515f90339083908381818185875af1925050503d805f811461152a576040519150601f19603f3d011682016040523d82523d5f602084013e61152f565b606091505b505090508061155a57604051630e21dcbb60e11b815233600482015260248101839052604401610be5565b505b50505050610e7c60015f80516020613fd483398151915255565b61157e612e4f565b6115875f612eaa565b565b5f805461159590613d5e565b80601f01602080910402602001604051908101604052809291908181526020018280546115c190613d5e565b801561160c5780601f106115e35761010080835404028352916020019161160c565b820191905f5260205f20905b8154815290600101906020018083116115ef57829003601f168201915b505050505081565b5f61161d612f1a565b805490915060ff600160401b82041615906001600160401b03165f811580156116435750825b90505f826001600160401b0316600114801561165e5750303b155b90508115801561166c575080155b1561168a5760405163f92ee8a960e01b815260040160405180910390fd5b845467ffffffffffffffff1916600117855583156116b457845460ff60401b1916600160401b1785555b6116df87604051806040016040528060088152602001671193d3d51090531360c21b81525088612f42565b831561172557845460ff60401b19168555604051600181527fc7f505b2f371ae2175ee4913f4499e1f2633a7b5936321eed1cdaeb6115181d29060200160405180910390a15b50505050505050565b5f80516020613ff48339815191526117458161285f565b61174e83612c58565b5f611758856130b7565b600280549192505f91908261176c83613d90565b909155506040805160a0810182525f808252602080830182905264ffffffffff42168385015260608301829052608083018290528482526005908190529290208151815494955091939092839160ff19169060019084908111156117d2576117d26137b6565b021790555060208281015182546040808601516060808801516dffffffffffffffffffffffffff00199094166101006001600160401b039096169590950264ffffffffff60481b191694909417600160481b64ffffffffff928316021764ffffffffff60701b1916600160701b91909316029190911784556080909401516001938401558351908101845289815287830b81830190815260ff8781168387019081525f888152602e90955295909320915182555192018054935161ffff90931662ffffff19909416939093176201000092909116919091021790556118b78186612cad565b505f818152600360205260409020600201805461ffff19166001179055807f4a21a24162d65cb7c74d895d7c8c53745fcf2fddf8d714fc764cf32c34f296886118ff886131ee565b8760405161190e929190613da8565b60405180910390a2505050505050565b611926612d6a565b81600254811061194c5760405163113b162160e31b815260048101829052602401610be5565b5f8381526005602081905260409091205484919060ff1681816005811115611976576119766137b6565b1461199a578281836040516327c6314f60e11b8152600401610be593929190613c96565b5f8681526004602090815260408083203384529091529020805486106119d957863387604051635b834b8f60e11b8152600401610be593929190613dcf565b5f8187815481106119ec576119ec613ced565b905f5260205f209060020201905080600101600f9054906101000a900460ff1615611a30578733886040516308c52d4160e11b8152600401610be593929190613dcf565b805460018201805460ff60781b1916600160781b17905547811115611a715760405163b7ddd88b60e01b815260048101829052476024820152604401610be5565b6040515f90339083908381818185875af1925050503d805f8114611ab0576040519150601f19603f3d011682016040523d82523d5f602084013e611ab5565b606091505b5050905080611ae057604051630e21dcbb60e11b815233600482015260248101839052604401610be5565b604080518a81526020810184905233918c917faba4210cad11f1112f31ba136a61cdc0f6ab4c2b478da8c93eec1d9769e97a89910160405180910390a35050505050505050610ff560015f80516020613fd483398151915255565b5f9182525f80516020613f94833981519152602090815260408084206001600160a01b0393909316845291905290205460ff1690565b806002548110611b975760405163113b162160e31b815260048101829052602401610be5565b5f80516020613ff4833981519152611bae8161285f565b610dd88360026129e2565b816002548110611bdf5760405163113b162160e31b815260048101829052602401610be5565b5f83815260056020526040902054839060019060ff1681816005811115611c0857611c086137b6565b14611c2c578281836040516327c6314f60e11b8152600401610be593929190613c96565b611c34612da1565b345f03611c5457604051630813eb4360e01b815260040160405180910390fd5b5f8681526003602052604081206002810154909161ffff9091169003611c8f5760405162bc17d160e31b815260048101889052602401610be5565b600281015461ffff165f82611ca5600184613dee565b61ffff1681548110611cb957611cb9613ced565b905f5260205f2090600891828204019190066004029054906101000a900463ffffffff169050611ce989896133e1565b5f6040518060a001604052803481526020018a6001600160401b031681526020018461ffff1681526020014264ffffffffff1681526020015f1515815250905060045f8b81526020019081526020015f205f336001600160a01b03166001600160a01b031681526020019081526020015f2081908060018154018082558091505060019003905f5260205f2090600202015f909190919091505f820151815f01556020820151816001015f6101000a8154816001600160401b0302191690836001600160401b0316021790555060408201518160010160086101000a81548161ffff021916908361ffff160217905550606082015181600101600a6101000a81548164ffffffffff021916908364ffffffffff160217905550608082015181600101600f6101000a81548160ff02191690831515021790555050505f600160045f8d81526020019081526020015f205f336001600160a01b03166001600160a01b031681526020019081526020015f2080549050611e679190613e09565b90503460055f8d81526020019081526020015f206001015f828254611e8c9190613d4b565b9091555050604080518281523460208201526001600160401b038c168183015263ffffffff8516606082015261ffff86166080820152905133918d917f1e20859988181a316b2a230ed2b74a09a98fdec16686057cdbb48def725ff9a49181900360a00190a35050505050505050505050565b806002548110611f255760405163113b162160e31b815260048101829052602401610be5565b5f80516020613ff4833981519152611f3c8161285f565b610dd88360036129e2565b5f805f805f80886002548110611f735760405163113b162160e31b815260048101829052602401610be5565b5f8a81526004602090815260408083206001600160a01b038d168452909152902080548910611fbb578a8a8a604051635b834b8f60e11b8152600401610be593929190613dcf565b5f818a81548110611fce57611fce613ced565b905f5260205f20906002020190505f611ff98d8360010160089054906101000a900461ffff16612dd1565b82546001840154919250906001600160401b038116908390600160501b810464ffffffffff1690600160781b900460ff1661271061203d63ffffffff851687613d15565b6120479190613d2c565b9950995099509950995099505050505093975093979195509350565b8060025481106120895760405163113b162160e31b815260048101829052602401610be5565b5f80516020613ff48339815191526120a08161285f565b610dd88360016129e2565b6001805461159590613d5e565b6120c0612d6a565b8160025481106120e65760405163113b162160e31b815260048101829052602401610be5565b5f83815260056020526040902054839060049060ff168181600581111561210f5761210f6137b6565b14612133578281836040516327c6314f60e11b8152600401610be593929190613c96565b61213b612da1565b5f86815260046020908152604080832033845290915290208054861061217a57863387604051635b834b8f60e11b8152600401610be593929190613dcf565b5f81878154811061218d5761218d613ced565b905f5260205f209060020201905080600101600f9054906101000a900460ff16156121d1578733886040516308c52d4160e11b8152600401610be593929190613dcf565b5f888152600560205260409020805460018301546001600160401b03908116610100909204161461221b57883389604051638bf5a6c560e01b8152600401610be593929190613dcf565b5f6122388a8460010160089054906101000a900461ffff16612dd1565b83549091505f90612710906122549063ffffffff851690613d15565b61225e9190613d2c565b60018501805460ff60781b1916600160781b17905590504781111561229f5760405163b7ddd88b60e01b815260048101829052476024820152604401610be5565b6040515f90339083908381818185875af1925050503d805f81146122de576040519150601f19603f3d011682016040523d82523d5f602084013e6122e3565b606091505b505090508061230e57604051630e21dcbb60e11b815233600482015260248101839052604401610be5565b604080518c81526020810184905233918e917fa5df5a195b51346b41c715be6896ddef8de524059309701b83d22c7e4ec1aa4c910160405180910390a350505050505050505050610ff560015f80516020613fd483398151915255565b61237482610d63565b61237d8161285f565b610d9f838361290a565b5f80516020613ff483398151915261239e8161285f565b6123a782612c58565b5f6123b1846130b7565b600280549192505f9190826123c583613d90565b909155506040805160a0810182525f808252602080830182905264ffffffffff42168385015260608301829052608083018290528482526005908190529290208151815494955091939092839160ff191690600190849081111561242b5761242b6137b6565b0217905550602082810151825460408086015160608088015164ffffffffff908116600160701b0264ffffffffff60701b1991909316600160481b0264ffffffffff60481b196001600160401b0390971661010002969096166dffffffffffffffffffffffffff0019909516949094179490941792909216919091178455608090940151600193840155835190810184528881525f81830181815260ff808916848801908152888452602e909552959091209151825551920180549151909316620100000262ffffff1990911661ffff9092169190911717905561250f8185612cad565b505f818152600360205260409020600201805461ffff19166001179055807f4a21a24162d65cb7c74d895d7c8c53745fcf2fddf8d714fc764cf32c34f29688612557876131ee565b86604051610d54929190613da8565b61256e612e4f565b6001600160a01b03811661259757604051631e4fbdf760e01b81525f6004820152602401610be5565b610e7c81612eaa565b60608160025481106125c85760405163113b162160e31b815260048101829052602401610be5565b5f838152600360209081526040918290208054835181840281018401909452808452909183018282801561264457602002820191905f5260205f20905f905b82829054906101000a900463ffffffff1663ffffffff16815260200190600401906020826003010492830192600103820291508084116126075790505b5050505050915050919050565b60605f805f805f8087600254811061267f5760405163113b162160e31b815260048101829052602401610be5565b5f898152602e60209081526040808320600590925290912081546126a2906131ee565b6001808401548354929c509081900b9a5060ff62010000909104811699501696506126cc8b6127e4565b81546001909201549a9c999b50979996986101009091046001600160401b03169695509350505050565b606082600254811061271e5760405163113b162160e31b815260048101829052602401610be5565b5f8481526004602090815260408083206001600160a01b0387168452825280832080548251818502810185019093528083529193909284015b828210156127d6575f8481526020908190206040805160a08101825260028602909201805483526001908101546001600160401b03811684860152600160401b810461ffff1692840192909252600160501b820464ffffffffff166060840152600160781b90910460ff16151560808301529083529092019101612757565b5050505091505b5092915050565b5f818152600360205260408120600281015461ffff16820361280857505f92915050565b6002810154819061281f9060019061ffff16613dee565b61ffff168154811061283357612833613ced565b905f5260205f2090600891828204019190066004029054906101000a900463ffffffff16915050919050565b610e7c813361344b565b5f5f80516020613f948339815191526128828484611b3b565b612901575f848152602082815260408083206001600160a01b03871684529091529020805460ff191660011790556128b73390565b6001600160a01b0316836001600160a01b0316857f2f8788117e7eff1d82e926ec794901d17c78024a50270940304540a733656f0d60405160405180910390a46001915050610bbc565b5f915050610bbc565b5f5f80516020613f948339815191526129238484611b3b565b15612901575f848152602082815260408083206001600160a01b0387168085529252808320805460ff1916905551339287917ff6391f5c32d9c69d2a47ea670b442974b53935d1edc7fd64eb21e047a839171b9190a46001915050610bbc565b61298b613484565b5f80516020613fb4833981519152805460ff191681557f5db9ee0a495bf2e6ff9c91a7834c1ba4fdd244a5e8aa4e537bd38aeae4b073aa335b6040516001600160a01b03909116815260200160405180910390a150565b5f8281526005602081905260409091208054909160ff8216918491849160ff1916906001908490811115612a1857612a186137b6565b0217905550837f3fda72f0a1439a9047288d6140aad7d37a71b660b5229783c8a637ebd0631c0b8285604051612a4f929190613e1c565b60405180910390a250505050565b306001600160a01b037f0000000000000000000000000000000000000000000000000000000000000000161480612ae357507f00000000000000000000000000000000000000000000000000000000000000006001600160a01b0316612ad75f80516020613f74833981519152546001600160a01b031690565b6001600160a01b031614155b156115875760405163703e46dd60e11b815260040160405180910390fd5b5f610ff58161285f565b816001600160a01b03166352d1902d6040518163ffffffff1660e01b8152600401602060405180830381865afa925050508015612b65575060408051601f3d908101601f19168201909252612b6291810190613e37565b60015b612b8d57604051634c9c8ce360e01b81526001600160a01b0383166004820152602401610be5565b5f80516020613f748339815191528114612bbd57604051632a87526960e21b815260048101829052602401610be5565b610dd883836134b3565b612bcf612da1565b5f80516020613fb4833981519152805460ff191660011781557f62e78cea01bee320cd4e420270b5ea74000d11b0c9f74754ebdbfc544b05a258336129c4565b306001600160a01b037f000000000000000000000000000000000000000000000000000000000000000016146115875760405163703e46dd60e11b815260040160405180910390fd5b61271163ffffffff82161080612c765750620f424063ffffffff8216115b15610e7c57604051637231c80760e01b815263ffffffff821660048201526127116024820152620f42406044820152606401610be5565b5f82815260036020908152604080832063ffffffff85168452600181019092529091205461ffff16908115612ce25750610bbc565b805461fffe11612d0857604051634d3deb8160e01b815260048101859052602401610be5565b8054600180820183555f83815260208082206008850401805460079095166004026101000a63ffffffff8181021990961698909516948502979097179096558354928152920190935260409020805461ffff191661ffff841617905550919050565b5f80516020613fd4833981519152805460011901612d9b57604051633ee5aeb560e01b815260040160405180910390fd5b60029055565b5f80516020613fb48339815191525460ff16156115875760405163d93c066560e01b815260040160405180910390fd5b5f8161ffff165f03612de457505f610bbc565b5f838152600360205260409020612dfc600184613dee565b61ffff1681548110612e1057612e10613ced565b905f5260205f2090600891828204019190066004029054906101000a900463ffffffff16905092915050565b60015f80516020613fd483398151915255565b33612e817f9016d09d72d40fdae2fd8ceac6b6234c7706214fd39c1cd1e609a0528c199300546001600160a01b031690565b6001600160a01b0316146115875760405163118cdaa760e01b8152336004820152602401610be5565b7f9016d09d72d40fdae2fd8ceac6b6234c7706214fd39c1cd1e609a0528c19930080546001600160a01b031981166001600160a01b03848116918217845560405192169182907f8be0079c531659141344cd1fd0a4f28419497f9722a3daafe3b4186f6b6457e0905f90a3505050565b5f807ff0c57e16840df040f15088dc2f81fe391c3923bec73e23a9662efc9c229c6a00610bbc565b612f4a613508565b612f538161352d565b612f5b61353e565b612f6361353e565b612f6b613546565b612f7361353e565b612f7d5f82612869565b50612f955f80516020613ff483398151915282612869565b50612fc07f92a19c77d2ea87c7f81d50c74403cb2f401780f3ad919571121efe2bdb427eb182612869565b50612feb7f65d7a28e3265b37a6474929f336521b332c1681b933f6cb9f3376673440d862a82612869565b506130167fe1dcbdb91df27212a29bc27177c840cf2f819ecf2187432e1fac86c2dd5dfca982612869565b506130417f0acfcb0f3e3aaa7ab6a53fd6a206e00781cfe5360bc764438c214cb50c97b71182612869565b505f61304d8482613e99565b50600161305a8382613e99565b50806001600160a01b0316836040516130739190613f58565b60405180910390207fb88a0148d0785022bedeff8dc0f55ccbb709825d7109265ebe5ca3325f191b42846040516130aa9190613a57565b60405180910390a3505050565b5f7f97e9cffa40fd62a888d33fedb0550a0c24b2dab7e942dd2c90f3dc402fe1d9d082036130e757506002919050565b7f02cbb70a5b530cc7252a3b919b89cec2559cd41fd531c11606411ffbac8f3ffc820361311657506001919050565b7f538ae17682fc5f9b07ae2625134d6d3c26763eb7064ea668cc95acc79d2f6693820361314557506001919050565b7fdd5dc5e3118ac9f6534abbb8fc3fdcbf37cbac4179d8c4f61f8246428bdc2051820361317457506002919050565b7f5a07719d8a8f4c48bdefa2dac63aa1381b7ddfabbbcde55ac2fce423272e4ade82036131a357506063919050565b7f4386abfac67735e8200942a182a9289c4525de8436be890c45f3baa48cfc744a82036131d2575060ff919050565b604051630d330d2760e01b815260048101839052602401610be5565b60607f97e9cffa40fd62a888d33fedb0550a0c24b2dab7e942dd2c90f3dc402fe1d9d082036132395750506040805180820190915260068152652ba4a72722a960d11b602082015290565b7f02cbb70a5b530cc7252a3b919b89cec2559cd41fd531c11606411ffbac8f3ffc820361328757505060408051808201909152600b81526a11d3d05314d7d513d5105360aa1b602082015290565b7f538ae17682fc5f9b07ae2625134d6d3c26763eb7064ea668cc95acc79d2f669382036132d457505060408051808201909152600a815269424f54485f53434f524560b01b602082015290565b7fdd5dc5e3118ac9f6534abbb8fc3fdcbf37cbac4179d8c4f61f8246428bdc2051820361331f57505060408051808201909152600881526748414c4654494d4560c01b602082015290565b7f5a07719d8a8f4c48bdefa2dac63aa1381b7ddfabbbcde55ac2fce423272e4ade820361336f57505060408051808201909152600d81526c434f52524543545f53434f524560981b602082015290565b7f4386abfac67735e8200942a182a9289c4525de8436be890c45f3baa48cfc744a82036133be57505060408051808201909152600c81526b2324a929aa2fa9a1a7a922a960a11b602082015290565b50506040805180820190915260078152662aa725a727aba760c91b602082015290565b5f828152602e60205260409020600181015462010000900460ff166001600160401b0383161115610dd85760018101546040516382a2dff360e01b8152600481018590526001600160401b03841660248201526201000090910460ff166044820152606401610be5565b6134558282611b3b565b610ff55760405163e2517d3f60e01b81526001600160a01b038216600482015260248101839052604401610be5565b5f80516020613fb48339815191525460ff1661158757604051638dfc202b60e01b815260040160405180910390fd5b6134bc82613556565b6040516001600160a01b038316907fbc7cd75a20ee27fd9adebab32041f755214dbc6bffa90cc0225b39da2e5c2d3b905f90a280511561350057610dd882826135b9565b610ff561362b565b61351061364a565b61158757604051631afcd79f60e31b815260040160405180910390fd5b613535613508565b610e7c81613663565b611587613508565b61354e613508565b61158761366b565b806001600160a01b03163b5f0361358b57604051634c9c8ce360e01b81526001600160a01b0382166004820152602401610be5565b5f80516020613f7483398151915280546001600160a01b0319166001600160a01b0392909216919091179055565b60605f80846001600160a01b0316846040516135d59190613f58565b5f60405180830381855af49150503d805f811461360d576040519150601f19603f3d011682016040523d82523d5f602084013e613612565b606091505b5091509150613622858383613673565b95945050505050565b34156115875760405163b398979f60e01b815260040160405180910390fd5b5f613653612f1a565b54600160401b900460ff16919050565b61256e613508565b612e3c613508565b60608261368857613683826136d2565b6136cb565b815115801561369f57506001600160a01b0384163b155b156136c857604051639996b31560e01b81526001600160a01b0385166004820152602401610be5565b50805b9392505050565b8051156136e157805160208201fd5b60405163d6bda27560e01b815260040160405180910390fd5b5f6020828403121561370a575f80fd5b81356001600160e01b0319811681146136cb575f80fd5b5f60208284031215613731575f80fd5b5035919050565b5f8060408385031215613749575f80fd5b8235915060208301356001600160401b0381168114613766575f80fd5b809150509250929050565b80356001600160a01b0381168114613787575f80fd5b919050565b5f806040838503121561379d575f80fd5b823591506137ad60208401613771565b90509250929050565b634e487b7160e01b5f52602160045260245ffd5b600681106137e657634e487b7160e01b5f52602160045260245ffd5b9052565b85815260a081016137fe60208301876137ca565b63ffffffff851660408301526001600160401b03841660608301528260808301529695505050505050565b5f60a08201905061383b8284516137ca565b6001600160401b036020840151166020830152604083015164ffffffffff808216604085015280606086015116606085015250506080830151608083015292915050565b5f805f60408486031215613891575f80fd5b8335925060208401356001600160401b03808211156138ae575f80fd5b818601915086601f8301126138c1575f80fd5b8135818111156138cf575f80fd5b8760208285010111156138e0575f80fd5b6020830194508093505050509250925092565b634e487b7160e01b5f52604160045260245ffd5b5f6001600160401b0380841115613920576139206138f3565b604051601f8501601f19908116603f01168101908282118183101715613948576139486138f3565b81604052809350858152868686011115613960575f80fd5b858560208301375f602087830101525050509392505050565b5f806040838503121561398a575f80fd5b61399383613771565b915060208301356001600160401b038111156139ad575f80fd5b8301601f810185136139bd575f80fd5b6139cc85823560208401613907565b9150509250929050565b803563ffffffff81168114613787575f80fd5b5f80604083850312156139fa575f80fd5b823591506137ad602084016139d6565b5f5b83811015613a24578181015183820152602001613a0c565b50505f910152565b5f8151808452613a43816020860160208601613a0a565b601f01601f19169290920160200192915050565b602081525f6136cb6020830184613a2c565b5f8060408385031215613a7a575f80fd5b82356001600160401b03811115613a8f575f80fd5b8301601f81018513613a9f575f80fd5b613aae85823560208401613907565b9250506137ad60208401613771565b5f805f60608486031215613acf575f80fd5b83359250613adf602085016139d6565b915060408401358060010b8114613af4575f80fd5b809150509250925092565b5f8060408385031215613b10575f80fd5b50508035926020909101359150565b5f805f60608486031215613b31575f80fd5b83359250613b4160208501613771565b9150604084013590509250925092565b5f60208284031215613b61575f80fd5b6136cb82613771565b602080825282518282018190525f9190848201906040850190845b81811015613ba757835163ffffffff1683529284019291840191600101613b85565b50909695505050505050565b60e081525f613bc560e083018a613a2c565b90508760010b602083015260ff87166040830152613be660608301876137ca565b63ffffffff851660808301526001600160401b03841660a08301528260c083015298975050505050505050565b602080825282518282018190525f919060409081850190868401855b82811015613c8957815180518552868101516001600160401b0316878601528581015161ffff168686015260608082015164ffffffffff169086015260809081015115159085015260a09093019290850190600101613c2f565b5091979650505050505050565b83815260608101613caa60208301856137ca565b613cb760408301846137ca565b949350505050565b60208152816020820152818360408301375f818301604090810191909152601f909201601f19160101919050565b634e487b7160e01b5f52603260045260245ffd5b634e487b7160e01b5f52601160045260245ffd5b8082028115828204841417610bbc57610bbc613d01565b5f82613d4657634e487b7160e01b5f52601260045260245ffd5b500490565b80820180821115610bbc57610bbc613d01565b600181811c90821680613d7257607f821691505b602082108103610bfa57634e487b7160e01b5f52602260045260245ffd5b5f60018201613da157613da1613d01565b5060010190565b604081525f613dba6040830185613a2c565b905063ffffffff831660208301529392505050565b9283526001600160a01b03919091166020830152604082015260600190565b61ffff8281168282160390808211156127dd576127dd613d01565b81810381811115610bbc57610bbc613d01565b60408101613e2a82856137ca565b6136cb60208301846137ca565b5f60208284031215613e47575f80fd5b5051919050565b601f821115610dd857805f5260205f20601f840160051c81016020851015613e735750805b601f840160051c820191505b81811015613e92575f8155600101613e7f565b5050505050565b81516001600160401b03811115613eb257613eb26138f3565b613ec681613ec08454613d5e565b84613e4e565b602080601f831160018114613ef9575f8415613ee25750858301515b5f19600386901b1c1916600185901b178555613f50565b5f85815260208120601f198616915b82811015613f2757888601518255948401946001909101908401613f08565b5085821015613f4457878501515f19600388901b60f8161c191681555b505060018460011b0185555b505050505050565b5f8251613f69818460208701613a0a565b919091019291505056fe360894a13ba1a3210667c828492db98dca3e2076cc3735a920a3ca505d382bbc02dd7bc7dec4dceedda775e58dd541e08a116c6c53815c0bd028192f7b626800cd5ed15c6e187e77e9aee88184c21f4f2182ab5827cb3b7e07fbedcd63f033009b779b17422d0df92223018b32b4d1fa46e071723d6817e2486d003becc55f00a49807205ce4d355092ef5a8a18f56e8913cf4a201fbe287825b095693c21775a26469706673582212207030303a34df34a0476cbbfea05445bce32974fbd9bd39cae36da6e8535d064e64736f6c63430008180033","linkReferences":{}},"methodIdentifiers":{"ADMIN_ROLE()":"75b238fc","DEFAULT_ADMIN_ROLE()":"a217fddf","MARKET_BOTH_SCORE()":"dd19ed0a","MARKET_CORRECT_SCORE()":"6bcaa991","MARKET_FIRST_SCORER()":"2e71b708","MARKET_GOALS_TOTAL()":"e570d084","MARKET_HALFTIME()":"7c0078a4","MARKET_WINNER()":"8723eccf","MAX_ODDS()":"f014a108","MIN_ODDS()":"ae07d051","ODDS_PRECISION()":"6bc98ba3","ODDS_SETTER_ROLE()":"10dc30fd","PAUSER_ROLE()":"e63ab1e9","RESOLVER_ROLE()":"78fab260","TREASURY_ROLE()":"d11a57ec","UPGRADE_INTERFACE_VERSION()":"ad3cb1cc","addMarket(bytes32,uint32)":"dc562ba5","addMarketWithLine(bytes32,uint32,int16)":"83e2e9df","cancelMarket(uint256,string)":"456051f1","claim(uint256,uint256)":"c3490263","claimAll(uint256)":"6930fd2a","claimRefund(uint256,uint256)":"8527d58f","closeMarket(uint256)":"ae418095","emergencyPause()":"51858e27","emergencyWithdraw(uint256)":"5312ea8e","footballMarkets(uint256)":"97576c6d","getBetDetails(uint256,address,uint256)":"ba269015","getCurrentOdds(uint256)":"0e75a18c","getFootballMarket(uint256)":"f6d105c2","getMarketCore(uint256)":"40b16c1e","getMarketInfo(uint256)":"3ec79193","getOddsHistory(uint256)":"f50ee3d5","getRoleAdmin(bytes32)":"248a9ca3","getUserBets(uint256,address)":"fa744dd3","grantRole(bytes32,address)":"2f2ff15d","hasRole(bytes32,address)":"91d14854","initialize(string,address)":"7ab4339d","marketCount()":"ec979082","matchName()":"71738f8c","openMarket(uint256)":"baa26757","owner()":"8da5cb5b","paused()":"5c975abb","placeBet(uint256,uint64)":"ab8cc512","proxiableUUID()":"52d1902d","renounceOwnership()":"715018a6","renounceRole(bytes32,address)":"36568abe","resolveMarket(uint256,uint64)":"1a095c6e","revokeRole(bytes32,address)":"d547741f","setMarketOdds(uint256,uint32)":"61bd2ca9","sportType()":"bef2a6a0","supportsInterface(bytes4)":"01ffc9a7","suspendMarket(uint256)":"931b5466","transferOwnership(address)":"f2fde38b","unpause()":"3f4ba83a","upgradeToAndCall(address,bytes)":"4f1ef286"},"id":48}