{"abi":[{"type":"constructor","inputs":[],"stateMutability":"nonpayable"},{"type":"function","name":"allMatches","inputs":[{"name":"","type":"uint256","internalType":"uint256"}],"outputs":[{"name":"","type":"address","internalType":"address"}],"stateMutability":"view"},{"type":"function","name":"createBasketballMatch","inputs":[{"name":"_matchName","type":"string","internalType":"string"},{"name":"_owner","type":"address","internalType":"address"}],"outputs":[{"name":"proxy","type":"address","internalType":"address"}],"stateMutability":"nonpayable"},{"type":"function","name":"createFootballMatch","inputs":[{"name":"_matchName","type":"string","internalType":"string"},{"name":"_owner","type":"address","internalType":"address"}],"outputs":[{"name":"proxy","type":"address","internalType":"address"}],"stateMutability":"nonpayable"},{"type":"function","name":"getAllMatches","inputs":[],"outputs":[{"name":"","type":"address[]","internalType":"address[]"}],"stateMutability":"view"},{"type":"function","name":"getSportType","inputs":[{"name":"matchAddress","type":"address","internalType":"address"}],"outputs":[{"name":"","type":"uint8","internalType":"enum BettingMatchFactory.SportType"}],"stateMutability":"view"},{"type":"function","name":"matchSportType","inputs":[{"name":"","type":"address","internalType":"address"}],"outputs":[{"name":"","type":"uint8","internalType":"enum BettingMatchFactory.SportType"}],"stateMutability":"view"},{"type":"function","name":"owner","inputs":[],"outputs":[{"name":"","type":"address","internalType":"address"}],"stateMutability":"view"},{"type":"function","name":"renounceOwnership","inputs":[],"outputs":[],"stateMutability":"nonpayable"},{"type":"function","name":"transferOwnership","inputs":[{"name":"newOwner","type":"address","internalType":"address"}],"outputs":[],"stateMutability":"nonpayable"},{"type":"event","name":"MatchCreated","inputs":[{"name":"proxy","type":"address","indexed":true,"internalType":"address"},{"name":"sportType","type":"uint8","indexed":false,"internalType":"enum BettingMatchFactory.SportType"},{"name":"owner","type":"address","indexed":true,"internalType":"address"}],"anonymous":false},{"type":"event","name":"OwnershipTransferred","inputs":[{"name":"previousOwner","type":"address","indexed":true,"internalType":"address"},{"name":"newOwner","type":"address","indexed":true,"internalType":"address"}],"anonymous":false},{"type":"error","name":"OwnableInvalidOwner","inputs":[{"name":"owner","type":"address","internalType":"address"}]},{"type":"error","name":"OwnableUnauthorizedAccount","inputs":[{"name":"account","type":"address","internalType":"address"}]}],"bytecode":{"object":"0x60c060405234801561000f575f80fd5b50338061003557604051631e4fbdf760e01b81525f600482015260240160405180910390fd5b61003e816100a8565b5060405161004b906100f7565b604051809103905ff080158015610064573d5f803e3d5ffd5b506001600160a01b031660805260405161007d90610104565b604051809103905ff080158015610096573d5f803e3d5ffd5b506001600160a01b031660a052610111565b5f80546001600160a01b038381166001600160a01b0319831681178455604051919092169283917f8be0079c531659141344cd1fd0a4f28419497f9722a3daafe3b4186f6b6457e09190a35050565b61414980610d0383390190565b61420c80614e4c83390190565b60805160a051610bd16101325f395f61040001525f6102490152610bd15ff3fe608060405234801562000010575f80fd5b50600436106200009c575f3560e01c8063afa71d11116200006b578063afa71d11146200013c578063b5bc68241462000153578063c17c5a45146200016a578063ee5a2dbd1462000183578063f2fde38b146200019a575f80fd5b80635d64453914620000a0578063715018a614620000dd5780638da5cb5b14620000e957806393ecc4b7146200010e575b5f80fd5b620000c5620000b1366004620005dd565b60026020525f908152604090205460ff1681565b604051620000d4919062000600565b60405180910390f35b620000e7620001b1565b005b5f546001600160a01b03165b6040516001600160a01b039091168152602001620000d4565b620000c56200011f366004620005dd565b6001600160a01b03165f9081526002602052604090205460ff1690565b620000f56200014d36600462000627565b620001c8565b620000f5620001643660046200063f565b620001f1565b6200017462000346565b604051620000d49190620006c0565b620000f5620001943660046200063f565b620003a8565b620000e7620001ab366004620005dd565b620004ef565b620001bb62000536565b620001c65f62000564565b565b60018181548110620001d8575f80fd5b5f918252602090912001546001600160a01b0316905081565b5f80637ab4339d60e01b85858560405160240162000212939291906200070e565b604051602081830303815290604052906001600160e01b0319166020820180516001600160e01b03838183161783525050505090507f0000000000000000000000000000000000000000000000000000000000000000816040516200027790620005b3565b620002849291906200074e565b604051809103905ff0801580156200029e573d5f803e3d5ffd5b50600180548082019091557fb10e2d527612073b26eecdfd717e6a320cf44b4afac2b0732d9fcbe2b7fa0cf60180546001600160a01b0319166001600160a01b038381169182179092555f81815260026020526040808220805460ff19169055519395509186169290917f5969a2068f5fa459c1b0f8d90549ffd48273691f337cf3200090f8c4ded08d169162000336919062000600565b60405180910390a3509392505050565b606060018054806020026020016040519081016040528092919081815260200182805480156200039e57602002820191905f5260205f20905b81546001600160a01b031681526001909101906020018083116200037f575b5050505050905090565b5f80637ab4339d60e01b858585604051602401620003c9939291906200070e565b604051602081830303815290604052906001600160e01b0319166020820180516001600160e01b03838183161783525050505090507f0000000000000000000000000000000000000000000000000000000000000000816040516200042e90620005b3565b6200043b9291906200074e565b604051809103905ff08015801562000455573d5f803e3d5ffd5b506001805480820182557fb10e2d527612073b26eecdfd717e6a320cf44b4afac2b0732d9fcbe2b7fa0cf60180546001600160a01b0319166001600160a01b038481169182179092555f8181526002602052604090819020805460ff191685179055519395509086169290917f5969a2068f5fa459c1b0f8d90549ffd48273691f337cf3200090f8c4ded08d169162000336919062000600565b620004f962000536565b6001600160a01b0381166200052857604051631e4fbdf760e01b81525f60048201526024015b60405180910390fd5b620005338162000564565b50565b5f546001600160a01b03163314620001c65760405163118cdaa760e01b81523360048201526024016200051f565b5f80546001600160a01b038381166001600160a01b0319831681178455604051919092169283917f8be0079c531659141344cd1fd0a4f28419497f9722a3daafe3b4186f6b6457e09190a35050565b6103ef80620007ad83390190565b80356001600160a01b0381168114620005d8575f80fd5b919050565b5f60208284031215620005ee575f80fd5b620005f982620005c1565b9392505050565b60208101600283106200062157634e487b7160e01b5f52602160045260245ffd5b91905290565b5f6020828403121562000638575f80fd5b5035919050565b5f805f6040848603121562000652575f80fd5b833567ffffffffffffffff808211156200066a575f80fd5b818601915086601f8301126200067e575f80fd5b8135818111156200068d575f80fd5b8760208285010111156200069f575f80fd5b602092830195509350620006b79186019050620005c1565b90509250925092565b602080825282518282018190525f9190848201906040850190845b81811015620007025783516001600160a01b031683529284019291840191600101620006db565b50909695505050505050565b60408152826040820152828460608301375f60608483018101919091526001600160a01b03929092166020820152601f909201601f191690910101919050565b60018060a01b03831681525f60206040602084015283518060408501525f5b818110156200078b578581018301518582016060015282016200076d565b505f606082860101526060601f19601f83011685010192505050939250505056fe60806040526040516103ef3803806103ef8339810160408190526100229161025d565b61002c8282610033565b5050610340565b61003c82610091565b6040516001600160a01b038316907fbc7cd75a20ee27fd9adebab32041f755214dbc6bffa90cc0225b39da2e5c2d3b905f90a280511561008557610080828261010c565b505050565b61008d61017f565b5050565b806001600160a01b03163b5f036100cb57604051634c9c8ce360e01b81526001600160a01b03821660048201526024015b60405180910390fd5b7f360894a13ba1a3210667c828492db98dca3e2076cc3735a920a3ca505d382bbc80546001600160a01b0319166001600160a01b0392909216919091179055565b60605f80846001600160a01b0316846040516101289190610325565b5f60405180830381855af49150503d805f8114610160576040519150601f19603f3d011682016040523d82523d5f602084013e610165565b606091505b5090925090506101768583836101a0565b95945050505050565b341561019e5760405163b398979f60e01b815260040160405180910390fd5b565b6060826101b5576101b0826101ff565b6101f8565b81511580156101cc57506001600160a01b0384163b155b156101f557604051639996b31560e01b81526001600160a01b03851660048201526024016100c2565b50805b9392505050565b80511561020e57805160208201fd5b60405163d6bda27560e01b815260040160405180910390fd5b634e487b7160e01b5f52604160045260245ffd5b5f5b8381101561025557818101518382015260200161023d565b50505f910152565b5f806040838503121561026e575f80fd5b82516001600160a01b0381168114610284575f80fd5b60208401519092506001600160401b03808211156102a0575f80fd5b818501915085601f8301126102b3575f80fd5b8151818111156102c5576102c5610227565b604051601f8201601f19908116603f011681019083821181831017156102ed576102ed610227565b81604052828152886020848701011115610305575f80fd5b61031683602083016020880161023b565b80955050505050509250929050565b5f825161033681846020870161023b565b9190910192915050565b60a38061034c5f395ff3fe6080604052600a600c565b005b60186014601a565b6050565b565b5f604b7f360894a13ba1a3210667c828492db98dca3e2076cc3735a920a3ca505d382bbc546001600160a01b031690565b905090565b365f80375f80365f845af43d5f803e8080156069573d5ff35b3d5ffdfea264697066735822122007ebc72230be0cef701531d881f8fdb2be6f5c5e86a956aebd96b153c26f704e64736f6c63430008180033a26469706673582212206b8f2ab919e13d0afb56c91f931a7450ae6e66ba6f3149f961bd9c3243d2666e64736f6c6343000818003360a06040523060805234801562000014575f80fd5b506200001f62000025565b620000d9565b7ff0c57e16840df040f15088dc2f81fe391c3923bec73e23a9662efc9c229c6a00805468010000000000000000900460ff1615620000765760405163f92ee8a960e01b815260040160405180910390fd5b80546001600160401b0390811614620000d65780546001600160401b0319166001600160401b0390811782556040519081527fc7f505b2f371ae2175ee4913f4499e1f2633a7b5936321eed1cdaeb6115181d29060200160405180910390a15b50565b608051614049620001005f395f8181612a6801528181612a910152612c1a01526140495ff3fe608060405260043610610344575f3560e01c806383e2e9df116101bd578063bef2a6a0116100f2578063e63ab1e911610092578063f2fde38b1161006d578063f2fde38b14610ae3578063f50ee3d514610b02578063f6d105c214610b2e578063fa744dd314610b60575f80fd5b8063e63ab1e914610a85578063ec97908214610ab8578063f014a10814610acd575f80fd5b8063d547741f116100cd578063d547741f146109e1578063dc562ba514610a00578063dd19ed0a14610a1f578063e570d08414610a52575f80fd5b8063bef2a6a01461097b578063c34902631461098f578063d11a57ec146109ae575f80fd5b8063a217fddf1161015d578063ae07d05111610138578063ae07d051146108c2578063ae418095146108d7578063ba269015146108f6578063baa267571461095c575f80fd5b8063a217fddf1461086c578063ab8cc5121461087f578063ad3cb1cc14610892575f80fd5b80638da5cb5b116101985780638da5cb5b1461078657806391d14854146107cc578063931b5466146107eb57806397576c6d1461080a575f80fd5b806383e2e9df146107155780638527d58f146107345780638723eccf14610753575f80fd5b806351858e27116102935780636bcaa9911161023357806375b238fc1161020e57806375b238fc1461067057806378fab260146106905780637ab4339d146106c35780637c0078a4146106e2575f80fd5b80636bcaa99114610608578063715018a61461063b57806371738f8c1461064f575f80fd5b80635c975abb1161026e5780635c975abb1461059257806361bd2ca9146105b55780636930fd2a146105d45780636bc98ba3146105f3575f80fd5b806351858e271461054b57806352d1902d1461055f5780635312ea8e14610573575f80fd5b80632f2ff15d116102fe5780633f4ba83a116102d95780633f4ba83a146104d957806340b16c1e146104ed578063456051f1146105195780634f1ef28614610538575f80fd5b80632f2ff15d1461046b57806336568abe1461048a5780633ec79193146104a9575f80fd5b806301ffc9a71461034f5780630e75a18c1461038357806310dc30fd146103b75780631a095c6e146103f8578063248a9ca3146104195780632e71b70814610438575f80fd5b3661034b57005b5f80fd5b34801561035a575f80fd5b5061036e6103693660046136fa565b610b8c565b60405190151581526020015b60405180910390f35b34801561038e575f80fd5b506103a261039d366004613721565b610bc2565b60405163ffffffff909116815260200161037a565b3480156103c2575f80fd5b506103ea7f0acfcb0f3e3aaa7ab6a53fd6a206e00781cfe5360bc764438c214cb50c97b71181565b60405190815260200161037a565b348015610403575f80fd5b50610417610412366004613738565b610c00565b005b348015610424575f80fd5b506103ea610433366004613721565b610d63565b348015610443575f80fd5b506103ea7f4386abfac67735e8200942a182a9289c4525de8436be890c45f3baa48cfc744a81565b348015610476575f80fd5b5061041761048536600461378c565b610d83565b348015610495575f80fd5b506104176104a436600461378c565b610da5565b3480156104b4575f80fd5b506104c86104c3366004613721565b610ddd565b60405161037a9594939291906137ea565b3480156104e4575f80fd5b50610417610e5d565b3480156104f8575f80fd5b5061050c610507366004613721565b610e7f565b60405161037a9190613829565b348015610524575f80fd5b5061041761053336600461387f565b610f60565b610417610546366004613979565b610fda565b348015610556575f80fd5b50610417610ff9565b34801561056a575f80fd5b506103ea61102b565b34801561057e575f80fd5b5061041761058d366004613721565b611046565b34801561059d575f80fd5b505f80516020613fb48339815191525460ff1661036e565b3480156105c0575f80fd5b506104176105cf3660046139e9565b611138565b3480156105df575f80fd5b506104176105ee366004613721565b611296565b3480156105fe575f80fd5b506103a261271081565b348015610613575f80fd5b506103ea7f5a07719d8a8f4c48bdefa2dac63aa1381b7ddfabbbcde55ac2fce423272e4ade81565b348015610646575f80fd5b50610417611576565b34801561065a575f80fd5b50610663611589565b60405161037a9190613a57565b34801561067b575f80fd5b506103ea5f80516020613ff483398151915281565b34801561069b575f80fd5b506103ea7f92a19c77d2ea87c7f81d50c74403cb2f401780f3ad919571121efe2bdb427eb181565b3480156106ce575f80fd5b506104176106dd366004613a69565b611614565b3480156106ed575f80fd5b506103ea7fdd5dc5e3118ac9f6534abbb8fc3fdcbf37cbac4179d8c4f61f8246428bdc205181565b348015610720575f80fd5b5061041761072f366004613abd565b61172e565b34801561073f575f80fd5b5061041761074e366004613aff565b61191e565b34801561075e575f80fd5b506103ea7f97e9cffa40fd62a888d33fedb0550a0c24b2dab7e942dd2c90f3dc402fe1d9d081565b348015610791575f80fd5b507f9016d09d72d40fdae2fd8ceac6b6234c7706214fd39c1cd1e609a0528c199300546040516001600160a01b03909116815260200161037a565b3480156107d7575f80fd5b5061036e6107e636600461378c565b611b3b565b3480156107f6575f80fd5b50610417610805366004613721565b611b71565b348015610815575f80fd5b5061084b610824366004613721565b602e6020525f908152604090208054600191820154909181900b9062010000900460ff1683565b6040805193845260019290920b602084015260ff169082015260600161037a565b348015610877575f80fd5b506103ea5f81565b61041761088d366004613738565b611bb9565b34801561089d575f80fd5b50610663604051806040016040528060058152602001640352e302e360dc1b81525081565b3480156108cd575f80fd5b506103a261271181565b3480156108e2575f80fd5b506104176108f1366004613721565b611eff565b348015610901575f80fd5b50610915610910366004613b1f565b611f47565b604080519687526001600160401b03909516602087015263ffffffff9093169385019390935264ffffffffff166060840152901515608083015260a082015260c00161037a565b348015610967575f80fd5b50610417610976366004613721565b612063565b348015610986575f80fd5b506106636120ab565b34801561099a575f80fd5b506104176109a9366004613aff565b6120b8565b3480156109b9575f80fd5b506103ea7fe1dcbdb91df27212a29bc27177c840cf2f819ecf2187432e1fac86c2dd5dfca981565b3480156109ec575f80fd5b506104176109fb36600461378c565b61236b565b348015610a0b575f80fd5b50610417610a1a3660046139e9565b612387565b348015610a2a575f80fd5b506103ea7f538ae17682fc5f9b07ae2625134d6d3c26763eb7064ea668cc95acc79d2f669381565b348015610a5d575f80fd5b506103ea7f02cbb70a5b530cc7252a3b919b89cec2559cd41fd531c11606411ffbac8f3ffc81565b348015610a90575f80fd5b506103ea7f65d7a28e3265b37a6474929f336521b332c1681b933f6cb9f3376673440d862a81565b348015610ac3575f80fd5b506103ea60025481565b348015610ad8575f80fd5b506103a2620f424081565b348015610aee575f80fd5b50610417610afd366004613b51565b612566565b348015610b0d575f80fd5b50610b21610b1c366004613721565b6125a0565b60405161037a9190613b6a565b348015610b39575f80fd5b50610b4d610b48366004613721565b612651565b60405161037a9796959493929190613bb3565b348015610b6b575f80fd5b50610b7f610b7a36600461378c565b6126f6565b60405161037a9190613c13565b5f6001600160e01b03198216637965db0b60e01b1480610bbc57506301ffc9a760e01b6001600160e01b03198316145b92915050565b5f816002548110610bee5760405163113b162160e31b8152600481018290526024015b60405180910390fd5b610bf7836127e4565b91505b50919050565b816002548110610c265760405163113b162160e31b815260048101829052602401610be5565b7f92a19c77d2ea87c7f81d50c74403cb2f401780f3ad919571121efe2bdb427eb1610c508161285f565b5f8481526005602052604090206003815460ff166005811115610c7557610c756137b6565b14158015610c9957506001815460ff166005811115610c9657610c966137b6565b14155b15610cc45780546040516327c6314f60e11b8152610be591879160ff90911690600390600401613c96565b805460ff1964ffffffffff428116600160701b90810264ffffffffff60701b196001600160401b038a1661010081029190911672ffffffffff0000000000ffffffffffffffff00199096169590951717929092166004178085556040805194855292900416602083015286917f64ee7dc32a3ab72dbd217f88cab8b17f7d9024f6d8bd70a962cd5f1cbd10abaf91015b60405180910390a25050505050565b5f9081525f80516020613f94833981519152602052604090206001015490565b610d8c82610d63565b610d958161285f565b610d9f8383612869565b50505050565b6001600160a01b0381163314610dce5760405163334bd91960e11b815260040160405180910390fd5b610dd8828261290a565b505050565b5f805f805f856002548110610e085760405163113b162160e31b815260048101829052602401610be5565b5f878152602e6020908152604080832060059092529091208154815490985060ff169650610e35896127e4565b8154600190920154989a979950976101009091046001600160401b0316969095509350505050565b5f80516020613ff4833981519152610e748161285f565b610e7c612983565b50565b6040805160a0810182525f80825260208201819052918101829052606081018290526080810191909152816002548110610ecf5760405163113b162160e31b815260048101829052602401610be5565b5f83815260056020819052604091829020825160a0810190935280549091839160ff1690811115610f0257610f026137b6565b6005811115610f1357610f136137b6565b815281546001600160401b03610100820416602083015264ffffffffff600160481b820481166040840152600160701b909104166060820152600190910154608090910152915050919050565b826002548110610f865760405163113b162160e31b815260048101829052602401610be5565b5f80516020613ff4833981519152610f9d8161285f565b610fa88560056129e2565b847f4c4561c5b0048424071c1115e9f1e325486e21c21333d968f21097b7b72d12ad8585604051610d54929190613cbf565b610fe2612a5d565b610feb82612b01565b610ff58282612b0b565b5050565b7f65d7a28e3265b37a6474929f336521b332c1681b933f6cb9f3376673440d862a6110238161285f565b610e7c612bc7565b5f611034612c0f565b505f80516020613f7483398151915290565b7fe1dcbdb91df27212a29bc27177c840cf2f819ecf2187432e1fac86c2dd5dfca96110708161285f565b5f80516020613fb48339815191525460ff1661109f5760405163dcdde9dd60e01b815260040160405180910390fd5b478211156110c95760405163b7ddd88b60e01b815260048101839052476024820152604401610be5565b6040515f90339084908381818185875af1925050503d805f8114611108576040519150601f19603f3d011682016040523d82523d5f602084013e61110d565b606091505b5050905080610dd857604051630e21dcbb60e11b815233600482015260248101849052604401610be5565b81600254811061115e5760405163113b162160e31b815260048101829052602401610be5565b7f0acfcb0f3e3aaa7ab6a53fd6a206e00781cfe5360bc764438c214cb50c97b7116111888161285f565b61119183612c58565b5f8481526005602052604090206001815460ff1660058111156111b6576111b66137b6565b141580156111d957505f815460ff1660058111156111d6576111d66137b6565b14155b156112045780546040516327c6314f60e11b8152610be591879160ff90911690600190600401613c96565b5f8581526003602052604081209061121b876127e4565b90505f6112288888612cad565b60028401805461ffff191661ffff83169081179091556040805163ffffffff80871682528b1660208201529081019190915290915088907f4574f9eec81dc6826c2d5b08e1292b2b3ad2700b73ad81bb4f24bf90f8296ce19060600160405180910390a25050505050505050565b61129e612d6a565b8060025481106112c45760405163113b162160e31b815260048101829052602401610be5565b6112cc612da1565b5f8281526005602090815260408083206004835281842033855290925282209091805b82548110156114ba575f83828154811061130b5761130b613ced565b905f5260205f209060020201905080600101600f9054906101000a900460ff161561133657506114b2565b5f806004875460ff166005811115611350576113506137b6565b1480156113735750865460018401546001600160401b0390811661010090920416145b156113c5575f6113958a8560010160089054906101000a900461ffff16612dd1565b8454909150612710906113af9063ffffffff841690613d15565b6113b99190613d2c565b915060019250506113ea565b6005875460ff1660058111156113dd576113dd6137b6565b036113ea57505080546001905b81156114ae5760018301805460ff60781b1916600160781b17905561140f8186613d4b565b94506005875460ff166005811115611429576114296137b6565b0361147057604080518581526020810183905233918b917faba4210cad11f1112f31ba136a61cdc0f6ab4c2b478da8c93eec1d9769e97a89910160405180910390a36114ae565b604080518581526020810183905233918b917fa5df5a195b51346b41c715be6896ddef8de524059309701b83d22c7e4ec1aa4c910160405180910390a35b5050505b6001016112ef565b50801561155c57804710156114eb5760405163b7ddd88b60e01b815260048101829052476024820152604401610be5565b6040515f90339083908381818185875af1925050503d805f811461152a576040519150601f19603f3d011682016040523d82523d5f602084013e61152f565b606091505b505090508061155a57604051630e21dcbb60e11b815233600482015260248101839052604401610be5565b505b50505050610e7c60015f80516020613fd483398151915255565b61157e612e4f565b6115875f612eaa565b565b5f805461159590613d5e565b80601f01602080910402602001604051908101604052809291908181526020018280546115c190613d5e565b801561160c5780601f106115e35761010080835404028352916020019161160c565b820191905f5260205f20905b8154815290600101906020018083116115ef57829003601f168201915b505050505081565b5f61161d612f1a565b805490915060ff600160401b82041615906001600160401b03165f811580156116435750825b90505f826001600160401b0316600114801561165e5750303b155b90508115801561166c575080155b1561168a5760405163f92ee8a960e01b815260040160405180910390fd5b845467ffffffffffffffff1916600117855583156116b457845460ff60401b1916600160401b1785555b6116df87604051806040016040528060088152602001671193d3d51090531360c21b81525088612f42565b831561172557845460ff60401b19168555604051600181527fc7f505b2f371ae2175ee4913f4499e1f2633a7b5936321eed1cdaeb6115181d29060200160405180910390a15b50505050505050565b5f80516020613ff48339815191526117458161285f565b61174e83612c58565b5f611758856130b7565b600280549192505f91908261176c83613d90565b909155506040805160a0810182525f808252602080830182905264ffffffffff42168385015260608301829052608083018290528482526005908190529290208151815494955091939092839160ff19169060019084908111156117d2576117d26137b6565b021790555060208281015182546040808601516060808801516dffffffffffffffffffffffffff00199094166101006001600160401b039096169590950264ffffffffff60481b191694909417600160481b64ffffffffff928316021764ffffffffff60701b1916600160701b91909316029190911784556080909401516001938401558351908101845289815287830b81830190815260ff8781168387019081525f888152602e90955295909320915182555192018054935161ffff90931662ffffff19909416939093176201000092909116919091021790556118b78186612cad565b505f818152600360205260409020600201805461ffff19166001179055807f4a21a24162d65cb7c74d895d7c8c53745fcf2fddf8d714fc764cf32c34f296886118ff886131ee565b8760405161190e929190613da8565b60405180910390a2505050505050565b611926612d6a565b81600254811061194c5760405163113b162160e31b815260048101829052602401610be5565b5f8381526005602081905260409091205484919060ff1681816005811115611976576119766137b6565b1461199a578281836040516327c6314f60e11b8152600401610be593929190613c96565b5f8681526004602090815260408083203384529091529020805486106119d957863387604051635b834b8f60e11b8152600401610be593929190613dcf565b5f8187815481106119ec576119ec613ced565b905f5260205f209060020201905080600101600f9054906101000a900460ff1615611a30578733886040516308c52d4160e11b8152600401610be593929190613dcf565b805460018201805460ff60781b1916600160781b17905547811115611a715760405163b7ddd88b60e01b815260048101829052476024820152604401610be5565b6040515f90339083908381818185875af1925050503d805f8114611ab0576040519150601f19603f3d011682016040523d82523d5f602084013e611ab5565b606091505b5050905080611ae057604051630e21dcbb60e11b815233600482015260248101839052604401610be5565b604080518a81526020810184905233918c917faba4210cad11f1112f31ba136a61cdc0f6ab4c2b478da8c93eec1d9769e97a89910160405180910390a35050505050505050610ff560015f80516020613fd483398151915255565b5f9182525f80516020613f94833981519152602090815260408084206001600160a01b0393909316845291905290205460ff1690565b806002548110611b975760405163113b162160e31b815260048101829052602401610be5565b5f80516020613ff4833981519152611bae8161285f565b610dd88360026129e2565b816002548110611bdf5760405163113b162160e31b815260048101829052602401610be5565b5f83815260056020526040902054839060019060ff1681816005811115611c0857611c086137b6565b14611c2c578281836040516327c6314f60e11b8152600401610be593929190613c96565b611c34612da1565b345f03611c5457604051630813eb4360e01b815260040160405180910390fd5b5f8681526003602052604081206002810154909161ffff9091169003611c8f5760405162bc17d160e31b815260048101889052602401610be5565b600281015461ffff165f82611ca5600184613dee565b61ffff1681548110611cb957611cb9613ced565b905f5260205f2090600891828204019190066004029054906101000a900463ffffffff169050611ce989896133e1565b5f6040518060a001604052803481526020018a6001600160401b031681526020018461ffff1681526020014264ffffffffff1681526020015f1515815250905060045f8b81526020019081526020015f205f336001600160a01b03166001600160a01b031681526020019081526020015f2081908060018154018082558091505060019003905f5260205f2090600202015f909190919091505f820151815f01556020820151816001015f6101000a8154816001600160401b0302191690836001600160401b0316021790555060408201518160010160086101000a81548161ffff021916908361ffff160217905550606082015181600101600a6101000a81548164ffffffffff021916908364ffffffffff160217905550608082015181600101600f6101000a81548160ff02191690831515021790555050505f600160045f8d81526020019081526020015f205f336001600160a01b03166001600160a01b031681526020019081526020015f2080549050611e679190613e09565b90503460055f8d81526020019081526020015f206001015f828254611e8c9190613d4b565b9091555050604080518281523460208201526001600160401b038c168183015263ffffffff8516606082015261ffff86166080820152905133918d917f1e20859988181a316b2a230ed2b74a09a98fdec16686057cdbb48def725ff9a49181900360a00190a35050505050505050505050565b806002548110611f255760405163113b162160e31b815260048101829052602401610be5565b5f80516020613ff4833981519152611f3c8161285f565b610dd88360036129e2565b5f805f805f80886002548110611f735760405163113b162160e31b815260048101829052602401610be5565b5f8a81526004602090815260408083206001600160a01b038d168452909152902080548910611fbb578a8a8a604051635b834b8f60e11b8152600401610be593929190613dcf565b5f818a81548110611fce57611fce613ced565b905f5260205f20906002020190505f611ff98d8360010160089054906101000a900461ffff16612dd1565b82546001840154919250906001600160401b038116908390600160501b810464ffffffffff1690600160781b900460ff1661271061203d63ffffffff851687613d15565b6120479190613d2c565b9950995099509950995099505050505093975093979195509350565b8060025481106120895760405163113b162160e31b815260048101829052602401610be5565b5f80516020613ff48339815191526120a08161285f565b610dd88360016129e2565b6001805461159590613d5e565b6120c0612d6a565b8160025481106120e65760405163113b162160e31b815260048101829052602401610be5565b5f83815260056020526040902054839060049060ff168181600581111561210f5761210f6137b6565b14612133578281836040516327c6314f60e11b8152600401610be593929190613c96565b61213b612da1565b5f86815260046020908152604080832033845290915290208054861061217a57863387604051635b834b8f60e11b8152600401610be593929190613dcf565b5f81878154811061218d5761218d613ced565b905f5260205f209060020201905080600101600f9054906101000a900460ff16156121d1578733886040516308c52d4160e11b8152600401610be593929190613dcf565b5f888152600560205260409020805460018301546001600160401b03908116610100909204161461221b57883389604051638bf5a6c560e01b8152600401610be593929190613dcf565b5f6122388a8460010160089054906101000a900461ffff16612dd1565b83549091505f90612710906122549063ffffffff851690613d15565b61225e9190613d2c565b60018501805460ff60781b1916600160781b17905590504781111561229f5760405163b7ddd88b60e01b815260048101829052476024820152604401610be5565b6040515f90339083908381818185875af1925050503d805f81146122de576040519150601f19603f3d011682016040523d82523d5f602084013e6122e3565b606091505b505090508061230e57604051630e21dcbb60e11b815233600482015260248101839052604401610be5565b604080518c81526020810184905233918e917fa5df5a195b51346b41c715be6896ddef8de524059309701b83d22c7e4ec1aa4c910160405180910390a350505050505050505050610ff560015f80516020613fd483398151915255565b61237482610d63565b61237d8161285f565b610d9f838361290a565b5f80516020613ff483398151915261239e8161285f565b6123a782612c58565b5f6123b1846130b7565b600280549192505f9190826123c583613d90565b909155506040805160a0810182525f808252602080830182905264ffffffffff42168385015260608301829052608083018290528482526005908190529290208151815494955091939092839160ff191690600190849081111561242b5761242b6137b6565b0217905550602082810151825460408086015160608088015164ffffffffff908116600160701b0264ffffffffff60701b1991909316600160481b0264ffffffffff60481b196001600160401b0390971661010002969096166dffffffffffffffffffffffffff0019909516949094179490941792909216919091178455608090940151600193840155835190810184528881525f81830181815260ff808916848801908152888452602e909552959091209151825551920180549151909316620100000262ffffff1990911661ffff9092169190911717905561250f8185612cad565b505f818152600360205260409020600201805461ffff19166001179055807f4a21a24162d65cb7c74d895d7c8c53745fcf2fddf8d714fc764cf32c34f29688612557876131ee565b86604051610d54929190613da8565b61256e612e4f565b6001600160a01b03811661259757604051631e4fbdf760e01b81525f6004820152602401610be5565b610e7c81612eaa565b60608160025481106125c85760405163113b162160e31b815260048101829052602401610be5565b5f838152600360209081526040918290208054835181840281018401909452808452909183018282801561264457602002820191905f5260205f20905f905b82829054906101000a900463ffffffff1663ffffffff16815260200190600401906020826003010492830192600103820291508084116126075790505b5050505050915050919050565b60605f805f805f8087600254811061267f5760405163113b162160e31b815260048101829052602401610be5565b5f898152602e60209081526040808320600590925290912081546126a2906131ee565b6001808401548354929c509081900b9a5060ff62010000909104811699501696506126cc8b6127e4565b81546001909201549a9c999b50979996986101009091046001600160401b03169695509350505050565b606082600254811061271e5760405163113b162160e31b815260048101829052602401610be5565b5f8481526004602090815260408083206001600160a01b0387168452825280832080548251818502810185019093528083529193909284015b828210156127d6575f8481526020908190206040805160a08101825260028602909201805483526001908101546001600160401b03811684860152600160401b810461ffff1692840192909252600160501b820464ffffffffff166060840152600160781b90910460ff16151560808301529083529092019101612757565b5050505091505b5092915050565b5f818152600360205260408120600281015461ffff16820361280857505f92915050565b6002810154819061281f9060019061ffff16613dee565b61ffff168154811061283357612833613ced565b905f5260205f2090600891828204019190066004029054906101000a900463ffffffff16915050919050565b610e7c813361344b565b5f5f80516020613f948339815191526128828484611b3b565b612901575f848152602082815260408083206001600160a01b03871684529091529020805460ff191660011790556128b73390565b6001600160a01b0316836001600160a01b0316857f2f8788117e7eff1d82e926ec794901d17c78024a50270940304540a733656f0d60405160405180910390a46001915050610bbc565b5f915050610bbc565b5f5f80516020613f948339815191526129238484611b3b565b15612901575f848152602082815260408083206001600160a01b0387168085529252808320805460ff1916905551339287917ff6391f5c32d9c69d2a47ea670b442974b53935d1edc7fd64eb21e047a839171b9190a46001915050610bbc565b61298b613484565b5f80516020613fb4833981519152805460ff191681557f5db9ee0a495bf2e6ff9c91a7834c1ba4fdd244a5e8aa4e537bd38aeae4b073aa335b6040516001600160a01b03909116815260200160405180910390a150565b5f8281526005602081905260409091208054909160ff8216918491849160ff1916906001908490811115612a1857612a186137b6565b0217905550837f3fda72f0a1439a9047288d6140aad7d37a71b660b5229783c8a637ebd0631c0b8285604051612a4f929190613e1c565b60405180910390a250505050565b306001600160a01b037f0000000000000000000000000000000000000000000000000000000000000000161480612ae357507f00000000000000000000000000000000000000000000000000000000000000006001600160a01b0316612ad75f80516020613f74833981519152546001600160a01b031690565b6001600160a01b031614155b156115875760405163703e46dd60e11b815260040160405180910390fd5b5f610ff58161285f565b816001600160a01b03166352d1902d6040518163ffffffff1660e01b8152600401602060405180830381865afa925050508015612b65575060408051601f3d908101601f19168201909252612b6291810190613e37565b60015b612b8d57604051634c9c8ce360e01b81526001600160a01b0383166004820152602401610be5565b5f80516020613f748339815191528114612bbd57604051632a87526960e21b815260048101829052602401610be5565b610dd883836134b3565b612bcf612da1565b5f80516020613fb4833981519152805460ff191660011781557f62e78cea01bee320cd4e420270b5ea74000d11b0c9f74754ebdbfc544b05a258336129c4565b306001600160a01b037f000000000000000000000000000000000000000000000000000000000000000016146115875760405163703e46dd60e11b815260040160405180910390fd5b61271163ffffffff82161080612c765750620f424063ffffffff8216115b15610e7c57604051637231c80760e01b815263ffffffff821660048201526127116024820152620f42406044820152606401610be5565b5f82815260036020908152604080832063ffffffff85168452600181019092529091205461ffff16908115612ce25750610bbc565b805461fffe11612d0857604051634d3deb8160e01b815260048101859052602401610be5565b8054600180820183555f83815260208082206008850401805460079095166004026101000a63ffffffff8181021990961698909516948502979097179096558354928152920190935260409020805461ffff191661ffff841617905550919050565b5f80516020613fd4833981519152805460011901612d9b57604051633ee5aeb560e01b815260040160405180910390fd5b60029055565b5f80516020613fb48339815191525460ff16156115875760405163d93c066560e01b815260040160405180910390fd5b5f8161ffff165f03612de457505f610bbc565b5f838152600360205260409020612dfc600184613dee565b61ffff1681548110612e1057612e10613ced565b905f5260205f2090600891828204019190066004029054906101000a900463ffffffff16905092915050565b60015f80516020613fd483398151915255565b33612e817f9016d09d72d40fdae2fd8ceac6b6234c7706214fd39c1cd1e609a0528c199300546001600160a01b031690565b6001600160a01b0316146115875760405163118cdaa760e01b8152336004820152602401610be5565b7f9016d09d72d40fdae2fd8ceac6b6234c7706214fd39c1cd1e609a0528c19930080546001600160a01b031981166001600160a01b03848116918217845560405192169182907f8be0079c531659141344cd1fd0a4f28419497f9722a3daafe3b4186f6b6457e0905f90a3505050565b5f807ff0c57e16840df040f15088dc2f81fe391c3923bec73e23a9662efc9c229c6a00610bbc565b612f4a613508565b612f538161352d565b612f5b61353e565b612f6361353e565b612f6b613546565b612f7361353e565b612f7d5f82612869565b50612f955f80516020613ff483398151915282612869565b50612fc07f92a19c77d2ea87c7f81d50c74403cb2f401780f3ad919571121efe2bdb427eb182612869565b50612feb7f65d7a28e3265b37a6474929f336521b332c1681b933f6cb9f3376673440d862a82612869565b506130167fe1dcbdb91df27212a29bc27177c840cf2f819ecf2187432e1fac86c2dd5dfca982612869565b506130417f0acfcb0f3e3aaa7ab6a53fd6a206e00781cfe5360bc764438c214cb50c97b71182612869565b505f61304d8482613e99565b50600161305a8382613e99565b50806001600160a01b0316836040516130739190613f58565b60405180910390207fb88a0148d0785022bedeff8dc0f55ccbb709825d7109265ebe5ca3325f191b42846040516130aa9190613a57565b60405180910390a3505050565b5f7f97e9cffa40fd62a888d33fedb0550a0c24b2dab7e942dd2c90f3dc402fe1d9d082036130e757506002919050565b7f02cbb70a5b530cc7252a3b919b89cec2559cd41fd531c11606411ffbac8f3ffc820361311657506001919050565b7f538ae17682fc5f9b07ae2625134d6d3c26763eb7064ea668cc95acc79d2f6693820361314557506001919050565b7fdd5dc5e3118ac9f6534abbb8fc3fdcbf37cbac4179d8c4f61f8246428bdc2051820361317457506002919050565b7f5a07719d8a8f4c48bdefa2dac63aa1381b7ddfabbbcde55ac2fce423272e4ade82036131a357506063919050565b7f4386abfac67735e8200942a182a9289c4525de8436be890c45f3baa48cfc744a82036131d2575060ff919050565b604051630d330d2760e01b815260048101839052602401610be5565b60607f97e9cffa40fd62a888d33fedb0550a0c24b2dab7e942dd2c90f3dc402fe1d9d082036132395750506040805180820190915260068152652ba4a72722a960d11b602082015290565b7f02cbb70a5b530cc7252a3b919b89cec2559cd41fd531c11606411ffbac8f3ffc820361328757505060408051808201909152600b81526a11d3d05314d7d513d5105360aa1b602082015290565b7f538ae17682fc5f9b07ae2625134d6d3c26763eb7064ea668cc95acc79d2f669382036132d457505060408051808201909152600a815269424f54485f53434f524560b01b602082015290565b7fdd5dc5e3118ac9f6534abbb8fc3fdcbf37cbac4179d8c4f61f8246428bdc2051820361331f57505060408051808201909152600881526748414c4654494d4560c01b602082015290565b7f5a07719d8a8f4c48bdefa2dac63aa1381b7ddfabbbcde55ac2fce423272e4ade820361336f57505060408051808201909152600d81526c434f52524543545f53434f524560981b602082015290565b7f4386abfac67735e8200942a182a9289c4525de8436be890c45f3baa48cfc744a82036133be57505060408051808201909152600c81526b2324a929aa2fa9a1a7a922a960a11b602082015290565b50506040805180820190915260078152662aa725a727aba760c91b602082015290565b5f828152602e60205260409020600181015462010000900460ff166001600160401b0383161115610dd85760018101546040516382a2dff360e01b8152600481018590526001600160401b03841660248201526201000090910460ff166044820152606401610be5565b6134558282611b3b565b610ff55760405163e2517d3f60e01b81526001600160a01b038216600482015260248101839052604401610be5565b5f80516020613fb48339815191525460ff1661158757604051638dfc202b60e01b815260040160405180910390fd5b6134bc82613556565b6040516001600160a01b038316907fbc7cd75a20ee27fd9adebab32041f755214dbc6bffa90cc0225b39da2e5c2d3b905f90a280511561350057610dd882826135b9565b610ff561362b565b61351061364a565b61158757604051631afcd79f60e31b815260040160405180910390fd5b613535613508565b610e7c81613663565b611587613508565b61354e613508565b61158761366b565b806001600160a01b03163b5f0361358b57604051634c9c8ce360e01b81526001600160a01b0382166004820152602401610be5565b5f80516020613f7483398151915280546001600160a01b0319166001600160a01b0392909216919091179055565b60605f80846001600160a01b0316846040516135d59190613f58565b5f60405180830381855af49150503d805f811461360d576040519150601f19603f3d011682016040523d82523d5f602084013e613612565b606091505b5091509150613622858383613673565b95945050505050565b34156115875760405163b398979f60e01b815260040160405180910390fd5b5f613653612f1a565b54600160401b900460ff16919050565b61256e613508565b612e3c613508565b60608261368857613683826136d2565b6136cb565b815115801561369f57506001600160a01b0384163b155b156136c857604051639996b31560e01b81526001600160a01b0385166004820152602401610be5565b50805b9392505050565b8051156136e157805160208201fd5b60405163d6bda27560e01b815260040160405180910390fd5b5f6020828403121561370a575f80fd5b81356001600160e01b0319811681146136cb575f80fd5b5f60208284031215613731575f80fd5b5035919050565b5f8060408385031215613749575f80fd5b8235915060208301356001600160401b0381168114613766575f80fd5b809150509250929050565b80356001600160a01b0381168114613787575f80fd5b919050565b5f806040838503121561379d575f80fd5b823591506137ad60208401613771565b90509250929050565b634e487b7160e01b5f52602160045260245ffd5b600681106137e657634e487b7160e01b5f52602160045260245ffd5b9052565b85815260a081016137fe60208301876137ca565b63ffffffff851660408301526001600160401b03841660608301528260808301529695505050505050565b5f60a08201905061383b8284516137ca565b6001600160401b036020840151166020830152604083015164ffffffffff808216604085015280606086015116606085015250506080830151608083015292915050565b5f805f60408486031215613891575f80fd5b8335925060208401356001600160401b03808211156138ae575f80fd5b818601915086601f8301126138c1575f80fd5b8135818111156138cf575f80fd5b8760208285010111156138e0575f80fd5b6020830194508093505050509250925092565b634e487b7160e01b5f52604160045260245ffd5b5f6001600160401b0380841115613920576139206138f3565b604051601f8501601f19908116603f01168101908282118183101715613948576139486138f3565b81604052809350858152868686011115613960575f80fd5b858560208301375f602087830101525050509392505050565b5f806040838503121561398a575f80fd5b61399383613771565b915060208301356001600160401b038111156139ad575f80fd5b8301601f810185136139bd575f80fd5b6139cc85823560208401613907565b9150509250929050565b803563ffffffff81168114613787575f80fd5b5f80604083850312156139fa575f80fd5b823591506137ad602084016139d6565b5f5b83811015613a24578181015183820152602001613a0c565b50505f910152565b5f8151808452613a43816020860160208601613a0a565b601f01601f19169290920160200192915050565b602081525f6136cb6020830184613a2c565b5f8060408385031215613a7a575f80fd5b82356001600160401b03811115613a8f575f80fd5b8301601f81018513613a9f575f80fd5b613aae85823560208401613907565b9250506137ad60208401613771565b5f805f60608486031215613acf575f80fd5b83359250613adf602085016139d6565b915060408401358060010b8114613af4575f80fd5b809150509250925092565b5f8060408385031215613b10575f80fd5b50508035926020909101359150565b5f805f60608486031215613b31575f80fd5b83359250613b4160208501613771565b9150604084013590509250925092565b5f60208284031215613b61575f80fd5b6136cb82613771565b602080825282518282018190525f9190848201906040850190845b81811015613ba757835163ffffffff1683529284019291840191600101613b85565b50909695505050505050565b60e081525f613bc560e083018a613a2c565b90508760010b602083015260ff87166040830152613be660608301876137ca565b63ffffffff851660808301526001600160401b03841660a08301528260c083015298975050505050505050565b602080825282518282018190525f919060409081850190868401855b82811015613c8957815180518552868101516001600160401b0316878601528581015161ffff168686015260608082015164ffffffffff169086015260809081015115159085015260a09093019290850190600101613c2f565b5091979650505050505050565b83815260608101613caa60208301856137ca565b613cb760408301846137ca565b949350505050565b60208152816020820152818360408301375f818301604090810191909152601f909201601f19160101919050565b634e487b7160e01b5f52603260045260245ffd5b634e487b7160e01b5f52601160045260245ffd5b8082028115828204841417610bbc57610bbc613d01565b5f82613d4657634e487b7160e01b5f52601260045260245ffd5b500490565b80820180821115610bbc57610bbc613d01565b600181811c90821680613d7257607f821691505b602082108103610bfa57634e487b7160e01b5f52602260045260245ffd5b5f60018201613da157613da1613d01565b5060010190565b604081525f613dba6040830185613a2c565b905063ffffffff831660208301529392505050565b9283526001600160a01b03919091166020830152604082015260600190565b61ffff8281168282160390808211156127dd576127dd613d01565b81810381811115610bbc57610bbc613d01565b60408101613e2a82856137ca565b6136cb60208301846137ca565b5f60208284031215613e47575f80fd5b5051919050565b601f821115610dd857805f5260205f20601f840160051c81016020851015613e735750805b601f840160051c820191505b81811015613e92575f8155600101613e7f565b5050505050565b81516001600160401b03811115613eb257613eb26138f3565b613ec681613ec08454613d5e565b84613e4e565b602080601f831160018114613ef9575f8415613ee25750858301515b5f19600386901b1c1916600185901b178555613f50565b5f85815260208120601f198616915b82811015613f2757888601518255948401946001909101908401613f08565b5085821015613f4457878501515f19600388901b60f8161c191681555b505060018460011b0185555b505050505050565b5f8251613f69818460208701613a0a565b919091019291505056fe360894a13ba1a3210667c828492db98dca3e2076cc3735a920a3ca505d382bbc02dd7bc7dec4dceedda775e58dd541e08a116c6c53815c0bd028192f7b626800cd5ed15c6e187e77e9aee88184c21f4f2182ab5827cb3b7e07fbedcd63f033009b779b17422d0df92223018b32b4d1fa46e071723d6817e2486d003becc55f00a49807205ce4d355092ef5a8a18f56e8913cf4a201fbe287825b095693c21775a26469706673582212207030303a34df34a0476cbbfea05445bce32974fbd9bd39cae36da6e8535d064e64736f6c6343000818003360a06040523060805234801562000014575f80fd5b506200001f62000025565b620000d9565b7ff0c57e16840df040f15088dc2f81fe391c3923bec73e23a9662efc9c229c6a00805468010000000000000000900460ff1615620000765760405163f92ee8a960e01b815260040160405180910390fd5b80546001600160401b0390811614620000d65780546001600160401b0319166001600160401b0390811782556040519081527fc7f505b2f371ae2175ee4913f4499e1f2633a7b5936321eed1cdaeb6115181d29060200160405180910390a15b50565b60805161410c620001005f395f8181612b0001528181612b290152612cb2015261410c5ff3fe608060405260043610610344575f3560e01c80638527d58f116101bd578063bef2a6a0116100f2578063e63ab1e911610092578063f014a1081161006d578063f014a10814610b15578063f2fde38b14610b2b578063f50ee3d514610b4a578063fa744dd314610b76575f80fd5b8063e63ab1e914610a56578063e8b02f1414610a89578063ec97908214610b00575f80fd5b8063d11a57ec116100cd578063d11a57ec146109b2578063d547741f146109e5578063d9063afa14610a04578063dc562ba514610a37575f80fd5b8063bef2a6a014610960578063c349026314610974578063cf75b79b14610993575f80fd5b8063ad3cb1cc1161015d578063af4a52ec11610138578063af4a52ec14610875578063ba269015146108a8578063baa267571461090e578063bdc69bd91461092d575f80fd5b8063ad3cb1cc14610811578063ae07d05114610841578063ae41809514610856575f80fd5b806391d148541161019857806391d14854146107ad578063931b5466146107cc578063a217fddf146107eb578063ab8cc512146107fe575f80fd5b80638527d58f146107155780638723eccf146107345780638da5cb5b14610767575f80fd5b80634f1ef286116102935780636930fd2a1161023357806371738f8c1161020e57806371738f8c1461068257806375b238fc146106a357806378fab260146106c35780637ab4339d146106f6575f80fd5b80636930fd2a1461063a5780636bc98ba314610659578063715018a61461066e575f80fd5b806352d1902d1161026e57806352d1902d146105c55780635312ea8e146105d95780635c975abb146105f857806361bd2ca91461061b575f80fd5b80634f1ef2861461056b57806351487dc01461057e57806351858e27146105b1575f80fd5b8063330b82fe116102fe5780633ec79193116102d95780633ec79193146104dc5780633f4ba83a1461050c57806340b16c1e14610520578063456051f11461054c575f80fd5b8063330b82fe1461045757806336568abe1461048a57806337c6ef85146104a9575f80fd5b806301ffc9a71461034f5780630e75a18c1461038357806310dc30fd146103b75780631a095c6e146103f8578063248a9ca3146104195780632f2ff15d14610438575f80fd5b3661034b57005b5f80fd5b34801561035a575f80fd5b5061036e61036936600461379b565b610ba2565b60405190151581526020015b60405180910390f35b34801561038e575f80fd5b506103a261039d3660046137c2565b610bd8565b60405163ffffffff909116815260200161037a565b3480156103c2575f80fd5b506103ea7f0acfcb0f3e3aaa7ab6a53fd6a206e00781cfe5360bc764438c214cb50c97b71181565b60405190815260200161037a565b348015610403575f80fd5b506104176104123660046137d9565b610c16565b005b348015610424575f80fd5b506103ea6104333660046137c2565b610d79565b348015610443575f80fd5b5061041761045236600461382d565b610d99565b348015610462575f80fd5b506103ea7fc48889a7f50eeb47325f8695e80998d47bc82fe412832d723b6bf2a0773c062281565b348015610495575f80fd5b506104176104a436600461382d565b610dbb565b3480156104b4575f80fd5b506103ea7f62aa64c00e0b702d538c65ffc672e53ec0721fe8dd54c3223175a2051bd2e8f481565b3480156104e7575f80fd5b506104fb6104f63660046137c2565b610df3565b60405161037a95949392919061388b565b348015610517575f80fd5b50610417610e73565b34801561052b575f80fd5b5061053f61053a3660046137c2565b610e95565b60405161037a91906138ca565b348015610557575f80fd5b50610417610566366004613920565b610f76565b610417610579366004613a1a565b610ff0565b348015610589575f80fd5b506103ea7fd88b64b65dd27d7ee406fd2a617824a69990aac83ed75494fd137e43d8007cad81565b3480156105bc575f80fd5b5061041761100f565b3480156105d0575f80fd5b506103ea611041565b3480156105e4575f80fd5b506104176105f33660046137c2565b61105c565b348015610603575f80fd5b505f805160206140778339815191525460ff1661036e565b348015610626575f80fd5b50610417610635366004613a8a565b61114e565b348015610645575f80fd5b506104176106543660046137c2565b6112ac565b348015610664575f80fd5b506103a261271081565b348015610679575f80fd5b5061041761158c565b34801561068d575f80fd5b5061069661159f565b60405161037a9190613af8565b3480156106ae575f80fd5b506103ea5f805160206140b783398151915281565b3480156106ce575f80fd5b506103ea7f92a19c77d2ea87c7f81d50c74403cb2f401780f3ad919571121efe2bdb427eb181565b348015610701575f80fd5b50610417610710366004613b0a565b61162a565b348015610720575f80fd5b5061041761072f366004613b5e565b611746565b34801561073f575f80fd5b506103ea7f97e9cffa40fd62a888d33fedb0550a0c24b2dab7e942dd2c90f3dc402fe1d9d081565b348015610772575f80fd5b507f9016d09d72d40fdae2fd8ceac6b6234c7706214fd39c1cd1e609a0528c199300546040516001600160a01b03909116815260200161037a565b3480156107b8575f80fd5b5061036e6107c736600461382d565b611963565b3480156107d7575f80fd5b506104176107e63660046137c2565b611999565b3480156107f6575f80fd5b506103ea5f81565b61041761080c3660046137d9565b6119e1565b34801561081c575f80fd5b50610696604051806040016040528060058152602001640352e302e360dc1b81525081565b34801561084c575f80fd5b506103a261271181565b348015610861575f80fd5b506104176108703660046137c2565b611d27565b348015610880575f80fd5b506103ea7fa73a6ddf2a0b1203f387e9ac295532c1f565ac9e2c5919248bcb5fa7c41bb62781565b3480156108b3575f80fd5b506108c76108c2366004613b7e565b611d6f565b604080519687526001600160401b03909516602087015263ffffffff9093169385019390935264ffffffffff166060840152901515608083015260a082015260c00161037a565b348015610919575f80fd5b506104176109283660046137c2565b611e8b565b348015610938575f80fd5b506103ea7fc21332dfdbce391fb79bb93cb3bdd389a3887e8ed803e48301c3b92f7095d3f181565b34801561096b575f80fd5b50610696611ed3565b34801561097f575f80fd5b5061041761098e366004613b5e565b611ee0565b34801561099e575f80fd5b506104176109ad366004613bb0565b612193565b3480156109bd575f80fd5b506103ea7fe1dcbdb91df27212a29bc27177c840cf2f819ecf2187432e1fac86c2dd5dfca981565b3480156109f0575f80fd5b506104176109ff36600461382d565b6123d2565b348015610a0f575f80fd5b50610a23610a1e3660046137c2565b6123ee565b60405161037a989796959493929190613c08565b348015610a42575f80fd5b50610417610a51366004613a8a565b6124a5565b348015610a61575f80fd5b506103ea7f65d7a28e3265b37a6474929f336521b332c1681b933f6cb9f3376673440d862a81565b348015610a94575f80fd5b50610ad4610aa33660046137c2565b602e6020525f908152604090208054600191820154909181900b9060ff620100008204811691630100000090041684565b6040805194855260019390930b602085015260ff9182169284019290925216606082015260800161037a565b348015610b0b575f80fd5b506103ea60025481565b348015610b20575f80fd5b506103a2620f424081565b348015610b36575f80fd5b50610417610b45366004613c74565b6126a3565b348015610b55575f80fd5b50610b69610b643660046137c2565b6126dd565b60405161037a9190613c8d565b348015610b81575f80fd5b50610b95610b9036600461382d565b61278e565b60405161037a9190613cd6565b5f6001600160e01b03198216637965db0b60e01b1480610bd257506301ffc9a760e01b6001600160e01b03198316145b92915050565b5f816002548110610c045760405163113b162160e31b8152600481018290526024015b60405180910390fd5b610c0d8361287c565b91505b50919050565b816002548110610c3c5760405163113b162160e31b815260048101829052602401610bfb565b7f92a19c77d2ea87c7f81d50c74403cb2f401780f3ad919571121efe2bdb427eb1610c66816128f7565b5f8481526005602052604090206003815460ff166005811115610c8b57610c8b613857565b14158015610caf57506001815460ff166005811115610cac57610cac613857565b14155b15610cda5780546040516327c6314f60e11b8152610bfb91879160ff90911690600390600401613d59565b805460ff1964ffffffffff428116600160701b90810264ffffffffff60701b196001600160401b038a1661010081029190911672ffffffffff0000000000ffffffffffffffff00199096169590951717929092166004178085556040805194855292900416602083015286917f64ee7dc32a3ab72dbd217f88cab8b17f7d9024f6d8bd70a962cd5f1cbd10abaf91015b60405180910390a25050505050565b5f9081525f80516020614057833981519152602052604090206001015490565b610da282610d79565b610dab816128f7565b610db58383612901565b50505050565b6001600160a01b0381163314610de45760405163334bd91960e11b815260040160405180910390fd5b610dee82826129a2565b505050565b5f805f805f856002548110610e1e5760405163113b162160e31b815260048101829052602401610bfb565b5f878152602e6020908152604080832060059092529091208154815490985060ff169650610e4b8961287c565b8154600190920154989a979950976101009091046001600160401b0316969095509350505050565b5f805160206140b7833981519152610e8a816128f7565b610e92612a1b565b50565b6040805160a0810182525f80825260208201819052918101829052606081018290526080810191909152816002548110610ee55760405163113b162160e31b815260048101829052602401610bfb565b5f83815260056020819052604091829020825160a0810190935280549091839160ff1690811115610f1857610f18613857565b6005811115610f2957610f29613857565b815281546001600160401b03610100820416602083015264ffffffffff600160481b820481166040840152600160701b909104166060820152600190910154608090910152915050919050565b826002548110610f9c5760405163113b162160e31b815260048101829052602401610bfb565b5f805160206140b7833981519152610fb3816128f7565b610fbe856005612a7a565b847f4c4561c5b0048424071c1115e9f1e325486e21c21333d968f21097b7b72d12ad8585604051610d6a929190613d82565b610ff8612af5565b61100182612b99565b61100b8282612ba3565b5050565b7f65d7a28e3265b37a6474929f336521b332c1681b933f6cb9f3376673440d862a611039816128f7565b610e92612c5f565b5f61104a612ca7565b505f8051602061403783398151915290565b7fe1dcbdb91df27212a29bc27177c840cf2f819ecf2187432e1fac86c2dd5dfca9611086816128f7565b5f805160206140778339815191525460ff166110b55760405163dcdde9dd60e01b815260040160405180910390fd5b478211156110df5760405163b7ddd88b60e01b815260048101839052476024820152604401610bfb565b6040515f90339084908381818185875af1925050503d805f811461111e576040519150601f19603f3d011682016040523d82523d5f602084013e611123565b606091505b5050905080610dee57604051630e21dcbb60e11b815233600482015260248101849052604401610bfb565b8160025481106111745760405163113b162160e31b815260048101829052602401610bfb565b7f0acfcb0f3e3aaa7ab6a53fd6a206e00781cfe5360bc764438c214cb50c97b71161119e816128f7565b6111a783612cf0565b5f8481526005602052604090206001815460ff1660058111156111cc576111cc613857565b141580156111ef57505f815460ff1660058111156111ec576111ec613857565b14155b1561121a5780546040516327c6314f60e11b8152610bfb91879160ff90911690600190600401613d59565b5f858152600360205260408120906112318761287c565b90505f61123e8888612d45565b60028401805461ffff191661ffff83169081179091556040805163ffffffff80871682528b1660208201529081019190915290915088907f4574f9eec81dc6826c2d5b08e1292b2b3ad2700b73ad81bb4f24bf90f8296ce19060600160405180910390a25050505050505050565b6112b4612e02565b8060025481106112da5760405163113b162160e31b815260048101829052602401610bfb565b6112e2612e39565b5f8281526005602090815260408083206004835281842033855290925282209091805b82548110156114d0575f83828154811061132157611321613db0565b905f5260205f209060020201905080600101600f9054906101000a900460ff161561134c57506114c8565b5f806004875460ff16600581111561136657611366613857565b1480156113895750865460018401546001600160401b0390811661010090920416145b156113db575f6113ab8a8560010160089054906101000a900461ffff16612e69565b8454909150612710906113c59063ffffffff841690613dd8565b6113cf9190613def565b91506001925050611400565b6005875460ff1660058111156113f3576113f3613857565b0361140057505080546001905b81156114c45760018301805460ff60781b1916600160781b1790556114258186613e0e565b94506005875460ff16600581111561143f5761143f613857565b0361148657604080518581526020810183905233918b917faba4210cad11f1112f31ba136a61cdc0f6ab4c2b478da8c93eec1d9769e97a89910160405180910390a36114c4565b604080518581526020810183905233918b917fa5df5a195b51346b41c715be6896ddef8de524059309701b83d22c7e4ec1aa4c910160405180910390a35b5050505b600101611305565b50801561157257804710156115015760405163b7ddd88b60e01b815260048101829052476024820152604401610bfb565b6040515f90339083908381818185875af1925050503d805f8114611540576040519150601f19603f3d011682016040523d82523d5f602084013e611545565b606091505b505090508061157057604051630e21dcbb60e11b815233600482015260248101839052604401610bfb565b505b50505050610e9260015f8051602061409783398151915255565b611594612ee7565b61159d5f612f42565b565b5f80546115ab90613e21565b80601f01602080910402602001604051908101604052809291908181526020018280546115d790613e21565b80156116225780601f106115f957610100808354040283529160200191611622565b820191905f5260205f20905b81548152906001019060200180831161160557829003601f168201915b505050505081565b5f611633612fb2565b805490915060ff600160401b82041615906001600160401b03165f811580156116595750825b90505f826001600160401b031660011480156116745750303b155b905081158015611682575080155b156116a05760405163f92ee8a960e01b815260040160405180910390fd5b845467ffffffffffffffff1916600117855583156116ca57845460ff60401b1916600160401b1785555b6116f7876040518060400160405280600a815260200169109054d2d1551090531360b21b81525088612fda565b831561173d57845460ff60401b19168555604051600181527fc7f505b2f371ae2175ee4913f4499e1f2633a7b5936321eed1cdaeb6115181d29060200160405180910390a15b50505050505050565b61174e612e02565b8160025481106117745760405163113b162160e31b815260048101829052602401610bfb565b5f8381526005602081905260409091205484919060ff168181600581111561179e5761179e613857565b146117c2578281836040516327c6314f60e11b8152600401610bfb93929190613d59565b5f86815260046020908152604080832033845290915290208054861061180157863387604051635b834b8f60e11b8152600401610bfb93929190613e53565b5f81878154811061181457611814613db0565b905f5260205f209060020201905080600101600f9054906101000a900460ff1615611858578733886040516308c52d4160e11b8152600401610bfb93929190613e53565b805460018201805460ff60781b1916600160781b179055478111156118995760405163b7ddd88b60e01b815260048101829052476024820152604401610bfb565b6040515f90339083908381818185875af1925050503d805f81146118d8576040519150601f19603f3d011682016040523d82523d5f602084013e6118dd565b606091505b505090508061190857604051630e21dcbb60e11b815233600482015260248101839052604401610bfb565b604080518a81526020810184905233918c917faba4210cad11f1112f31ba136a61cdc0f6ab4c2b478da8c93eec1d9769e97a89910160405180910390a3505050505050505061100b60015f8051602061409783398151915255565b5f9182525f80516020614057833981519152602090815260408084206001600160a01b0393909316845291905290205460ff1690565b8060025481106119bf5760405163113b162160e31b815260048101829052602401610bfb565b5f805160206140b78339815191526119d6816128f7565b610dee836002612a7a565b816002548110611a075760405163113b162160e31b815260048101829052602401610bfb565b5f83815260056020526040902054839060019060ff1681816005811115611a3057611a30613857565b14611a54578281836040516327c6314f60e11b8152600401610bfb93929190613d59565b611a5c612e39565b345f03611a7c57604051630813eb4360e01b815260040160405180910390fd5b5f8681526003602052604081206002810154909161ffff9091169003611ab75760405162bc17d160e31b815260048101889052602401610bfb565b600281015461ffff165f82611acd600184613e72565b61ffff1681548110611ae157611ae1613db0565b905f5260205f2090600891828204019190066004029054906101000a900463ffffffff169050611b11898961314f565b5f6040518060a001604052803481526020018a6001600160401b031681526020018461ffff1681526020014264ffffffffff1681526020015f1515815250905060045f8b81526020019081526020015f205f336001600160a01b03166001600160a01b031681526020019081526020015f2081908060018154018082558091505060019003905f5260205f2090600202015f909190919091505f820151815f01556020820151816001015f6101000a8154816001600160401b0302191690836001600160401b0316021790555060408201518160010160086101000a81548161ffff021916908361ffff160217905550606082015181600101600a6101000a81548164ffffffffff021916908364ffffffffff160217905550608082015181600101600f6101000a81548160ff02191690831515021790555050505f600160045f8d81526020019081526020015f205f336001600160a01b03166001600160a01b031681526020019081526020015f2080549050611c8f9190613e8d565b90503460055f8d81526020019081526020015f206001015f828254611cb49190613e0e565b9091555050604080518281523460208201526001600160401b038c168183015263ffffffff8516606082015261ffff86166080820152905133918d917f1e20859988181a316b2a230ed2b74a09a98fdec16686057cdbb48def725ff9a49181900360a00190a35050505050505050505050565b806002548110611d4d5760405163113b162160e31b815260048101829052602401610bfb565b5f805160206140b7833981519152611d64816128f7565b610dee836003612a7a565b5f805f805f80886002548110611d9b5760405163113b162160e31b815260048101829052602401610bfb565b5f8a81526004602090815260408083206001600160a01b038d168452909152902080548910611de3578a8a8a604051635b834b8f60e11b8152600401610bfb93929190613e53565b5f818a81548110611df657611df6613db0565b905f5260205f20906002020190505f611e218d8360010160089054906101000a900461ffff16612e69565b82546001840154919250906001600160401b038116908390600160501b810464ffffffffff1690600160781b900460ff16612710611e6563ffffffff851687613dd8565b611e6f9190613def565b9950995099509950995099505050505093975093979195509350565b806002548110611eb15760405163113b162160e31b815260048101829052602401610bfb565b5f805160206140b7833981519152611ec8816128f7565b610dee836001612a7a565b600180546115ab90613e21565b611ee8612e02565b816002548110611f0e5760405163113b162160e31b815260048101829052602401610bfb565b5f83815260056020526040902054839060049060ff1681816005811115611f3757611f37613857565b14611f5b578281836040516327c6314f60e11b8152600401610bfb93929190613d59565b611f63612e39565b5f868152600460209081526040808320338452909152902080548610611fa257863387604051635b834b8f60e11b8152600401610bfb93929190613e53565b5f818781548110611fb557611fb5613db0565b905f5260205f209060020201905080600101600f9054906101000a900460ff1615611ff9578733886040516308c52d4160e11b8152600401610bfb93929190613e53565b5f888152600560205260409020805460018301546001600160401b03908116610100909204161461204357883389604051638bf5a6c560e01b8152600401610bfb93929190613e53565b5f6120608a8460010160089054906101000a900461ffff16612e69565b83549091505f906127109061207c9063ffffffff851690613dd8565b6120869190613def565b60018501805460ff60781b1916600160781b1790559050478111156120c75760405163b7ddd88b60e01b815260048101829052476024820152604401610bfb565b6040515f90339083908381818185875af1925050503d805f8114612106576040519150601f19603f3d011682016040523d82523d5f602084013e61210b565b606091505b505090508061213657604051630e21dcbb60e11b815233600482015260248101839052604401610bfb565b604080518c81526020810184905233918e917fa5df5a195b51346b41c715be6896ddef8de524059309701b83d22c7e4ec1aa4c910160405180910390a35050505050505050505061100b60015f8051602061409783398151915255565b5f805160206140b78339815191526121aa816128f7565b6121b384612cf0565b60048260ff1611156121dd5760405163fef0e19760e01b815260ff83166004820152602401610bfb565b5f6121e7866131bb565b600280549192505f9190826121fb83613ea0565b909155506040805160a0810182525f808252602080830182905264ffffffffff42168385015260608301829052608083018290528482526005908190529290208151815494955091939092839160ff191690600190849081111561226157612261613857565b021790555060208281015182546040808601516060808801516dffffffffffffffffffffffffff00199094166101006001600160401b039096169590950264ffffffffff60481b191694909417600160481b64ffffffffff928316021764ffffffffff60701b1916600160701b9190931602919091178455608094850151600194850155805194850181528b855289840b85840190815260ff8a81168784019081528982169488019485525f898152602e9096529290942095518655519490930180549351915161ffff90951662ffffff199094169390931762010000918316919091021763ff00000019166301000000939091169290920291909117905561236a8187612d45565b505f818152600360205260409020600201805461ffff19166001179055807f4a21a24162d65cb7c74d895d7c8c53745fcf2fddf8d714fc764cf32c34f296886123b2896132f2565b886040516123c1929190613eb8565b60405180910390a250505050505050565b6123db82610d79565b6123e4816128f7565b610db583836129a2565b60605f805f805f805f88600254811061241d5760405163113b162160e31b815260048101829052602401610bfb565b5f8a8152602e6020908152604080832060059092529091208154612440906132f2565b6001808401548354929d509081900b9b5060ff62010000820481169b506301000000909104811699501696506124758c61287c565b9550805f0160019054906101000a90046001600160401b0316945080600101549350505050919395975091939597565b5f805160206140b78339815191526124bc816128f7565b6124c582612cf0565b5f6124cf846131bb565b600280549192505f9190826124e383613ea0565b909155506040805160a0810182525f808252602080830182905264ffffffffff42168385015260608301829052608083018290528482526005908190529290208151815494955091939092839160ff191690600190849081111561254957612549613857565b021790555060208281015182546040808601516060808801516dffffffffffffffffffffffffff00199094166101006001600160401b039096169590950264ffffffffff60481b191694909417600160481b64ffffffffff928316021764ffffffffff60701b1916600160701b9190931602919091178455608094850151600194850155805194850181528985525f85840181815286830182815260ff8a8116958901958652898452602e9096529290912095518655519490930180549351915161ffff90951662ffffff199094169390931762010000918316919091021763ff00000019166301000000939091169290920291909117905561264c8185612d45565b505f818152600360205260409020600201805461ffff19166001179055807f4a21a24162d65cb7c74d895d7c8c53745fcf2fddf8d714fc764cf32c34f29688612694876132f2565b86604051610d6a929190613eb8565b6126ab612ee7565b6001600160a01b0381166126d457604051631e4fbdf760e01b81525f6004820152602401610bfb565b610e9281612f42565b60608160025481106127055760405163113b162160e31b815260048101829052602401610bfb565b5f838152600360209081526040918290208054835181840281018401909452808452909183018282801561278157602002820191905f5260205f20905f905b82829054906101000a900463ffffffff1663ffffffff16815260200190600401906020826003010492830192600103820291508084116127445790505b5050505050915050919050565b60608260025481106127b65760405163113b162160e31b815260048101829052602401610bfb565b5f8481526004602090815260408083206001600160a01b0387168452825280832080548251818502810185019093528083529193909284015b8282101561286e575f8481526020908190206040805160a08101825260028602909201805483526001908101546001600160401b03811684860152600160401b810461ffff1692840192909252600160501b820464ffffffffff166060840152600160781b90910460ff161515608083015290835290920191016127ef565b5050505091505b5092915050565b5f818152600360205260408120600281015461ffff1682036128a057505f92915050565b600281015481906128b79060019061ffff16613e72565b61ffff16815481106128cb576128cb613db0565b905f5260205f2090600891828204019190066004029054906101000a900463ffffffff16915050919050565b610e9281336134ec565b5f5f8051602061405783398151915261291a8484611963565b612999575f848152602082815260408083206001600160a01b03871684529091529020805460ff1916600117905561294f3390565b6001600160a01b0316836001600160a01b0316857f2f8788117e7eff1d82e926ec794901d17c78024a50270940304540a733656f0d60405160405180910390a46001915050610bd2565b5f915050610bd2565b5f5f805160206140578339815191526129bb8484611963565b15612999575f848152602082815260408083206001600160a01b0387168085529252808320805460ff1916905551339287917ff6391f5c32d9c69d2a47ea670b442974b53935d1edc7fd64eb21e047a839171b9190a46001915050610bd2565b612a23613525565b5f80516020614077833981519152805460ff191681557f5db9ee0a495bf2e6ff9c91a7834c1ba4fdd244a5e8aa4e537bd38aeae4b073aa335b6040516001600160a01b03909116815260200160405180910390a150565b5f8281526005602081905260409091208054909160ff8216918491849160ff1916906001908490811115612ab057612ab0613857565b0217905550837f3fda72f0a1439a9047288d6140aad7d37a71b660b5229783c8a637ebd0631c0b8285604051612ae7929190613edf565b60405180910390a250505050565b306001600160a01b037f0000000000000000000000000000000000000000000000000000000000000000161480612b7b57507f00000000000000000000000000000000000000000000000000000000000000006001600160a01b0316612b6f5f80516020614037833981519152546001600160a01b031690565b6001600160a01b031614155b1561159d5760405163703e46dd60e11b815260040160405180910390fd5b5f61100b816128f7565b816001600160a01b03166352d1902d6040518163ffffffff1660e01b8152600401602060405180830381865afa925050508015612bfd575060408051601f3d908101601f19168201909252612bfa91810190613efa565b60015b612c2557604051634c9c8ce360e01b81526001600160a01b0383166004820152602401610bfb565b5f805160206140378339815191528114612c5557604051632a87526960e21b815260048101829052602401610bfb565b610dee8383613554565b612c67612e39565b5f80516020614077833981519152805460ff191660011781557f62e78cea01bee320cd4e420270b5ea74000d11b0c9f74754ebdbfc544b05a25833612a5c565b306001600160a01b037f0000000000000000000000000000000000000000000000000000000000000000161461159d5760405163703e46dd60e11b815260040160405180910390fd5b61271163ffffffff82161080612d0e5750620f424063ffffffff8216115b15610e9257604051637231c80760e01b815263ffffffff821660048201526127116024820152620f42406044820152606401610bfb565b5f82815260036020908152604080832063ffffffff85168452600181019092529091205461ffff16908115612d7a5750610bd2565b805461fffe11612da057604051634d3deb8160e01b815260048101859052602401610bfb565b8054600180820183555f83815260208082206008850401805460079095166004026101000a63ffffffff8181021990961698909516948502979097179096558354928152920190935260409020805461ffff191661ffff841617905550919050565b5f80516020614097833981519152805460011901612e3357604051633ee5aeb560e01b815260040160405180910390fd5b60029055565b5f805160206140778339815191525460ff161561159d5760405163d93c066560e01b815260040160405180910390fd5b5f8161ffff165f03612e7c57505f610bd2565b5f838152600360205260409020612e94600184613e72565b61ffff1681548110612ea857612ea8613db0565b905f5260205f2090600891828204019190066004029054906101000a900463ffffffff16905092915050565b60015f8051602061409783398151915255565b33612f197f9016d09d72d40fdae2fd8ceac6b6234c7706214fd39c1cd1e609a0528c199300546001600160a01b031690565b6001600160a01b03161461159d5760405163118cdaa760e01b8152336004820152602401610bfb565b7f9016d09d72d40fdae2fd8ceac6b6234c7706214fd39c1cd1e609a0528c19930080546001600160a01b031981166001600160a01b03848116918217845560405192169182907f8be0079c531659141344cd1fd0a4f28419497f9722a3daafe3b4186f6b6457e0905f90a3505050565b5f807ff0c57e16840df040f15088dc2f81fe391c3923bec73e23a9662efc9c229c6a00610bd2565b612fe26135a9565b612feb816135ce565b612ff36135df565b612ffb6135df565b6130036135e7565b61300b6135df565b6130155f82612901565b5061302d5f805160206140b783398151915282612901565b506130587f92a19c77d2ea87c7f81d50c74403cb2f401780f3ad919571121efe2bdb427eb182612901565b506130837f65d7a28e3265b37a6474929f336521b332c1681b933f6cb9f3376673440d862a82612901565b506130ae7fe1dcbdb91df27212a29bc27177c840cf2f819ecf2187432e1fac86c2dd5dfca982612901565b506130d97f0acfcb0f3e3aaa7ab6a53fd6a206e00781cfe5360bc764438c214cb50c97b71182612901565b505f6130e58482613f5c565b5060016130f28382613f5c565b50806001600160a01b03168360405161310b919061401b565b60405180910390207fb88a0148d0785022bedeff8dc0f55ccbb709825d7109265ebe5ca3325f191b42846040516131429190613af8565b60405180910390a3505050565b5f828152602e6020526040902060018101546301000000900460ff166001600160401b0383161115610dee5760018101546040516382a2dff360e01b8152600481018590526001600160401b0384166024820152630100000090910460ff166044820152606401610bfb565b5f7f97e9cffa40fd62a888d33fedb0550a0c24b2dab7e942dd2c90f3dc402fe1d9d082036131eb57506001919050565b7fc48889a7f50eeb47325f8695e80998d47bc82fe412832d723b6bf2a0773c0622820361321a57506001919050565b7fd88b64b65dd27d7ee406fd2a617824a69990aac83ed75494fd137e43d8007cad820361324957506001919050565b7fa73a6ddf2a0b1203f387e9ac295532c1f565ac9e2c5919248bcb5fa7c41bb627820361327857506001919050565b7fc21332dfdbce391fb79bb93cb3bdd389a3887e8ed803e48301c3b92f7095d3f182036132a757506001919050565b7f62aa64c00e0b702d538c65ffc672e53ec0721fe8dd54c3223175a2051bd2e8f482036132d657506003919050565b604051630d330d2760e01b815260048101839052602401610bfb565b60607f97e9cffa40fd62a888d33fedb0550a0c24b2dab7e942dd2c90f3dc402fe1d9d0820361333d5750506040805180820190915260068152652ba4a72722a960d11b602082015290565b7fc48889a7f50eeb47325f8695e80998d47bc82fe412832d723b6bf2a0773c0622820361338c57505060408051808201909152600c81526b544f54414c5f504f494e545360a01b602082015290565b7fd88b64b65dd27d7ee406fd2a617824a69990aac83ed75494fd137e43d8007cad82036133d557505060408051808201909152600681526514d41491505160d21b602082015290565b7fa73a6ddf2a0b1203f387e9ac295532c1f565ac9e2c5919248bcb5fa7c41bb627820361342657505060408051808201909152600e81526d28aaa0a92a22a92faba4a72722a960911b602082015290565b7fc21332dfdbce391fb79bb93cb3bdd389a3887e8ed803e48301c3b92f7095d3f1820361347757505060408051808201909152600e81526d46495253545f544f5f53434f524560901b602082015290565b7f62aa64c00e0b702d538c65ffc672e53ec0721fe8dd54c3223175a2051bd2e8f482036134c957505060408051808201909152600f81526e2424a3a422a9aa2fa8aaa0a92a22a960891b602082015290565b50506040805180820190915260078152662aa725a727aba760c91b602082015290565b6134f68282611963565b61100b5760405163e2517d3f60e01b81526001600160a01b038216600482015260248101839052604401610bfb565b5f805160206140778339815191525460ff1661159d57604051638dfc202b60e01b815260040160405180910390fd5b61355d826135f7565b6040516001600160a01b038316907fbc7cd75a20ee27fd9adebab32041f755214dbc6bffa90cc0225b39da2e5c2d3b905f90a28051156135a157610dee828261365a565b61100b6136cc565b6135b16136eb565b61159d57604051631afcd79f60e31b815260040160405180910390fd5b6135d66135a9565b610e9281613704565b61159d6135a9565b6135ef6135a9565b61159d61370c565b806001600160a01b03163b5f0361362c57604051634c9c8ce360e01b81526001600160a01b0382166004820152602401610bfb565b5f8051602061403783398151915280546001600160a01b0319166001600160a01b0392909216919091179055565b60605f80846001600160a01b031684604051613676919061401b565b5f60405180830381855af49150503d805f81146136ae576040519150601f19603f3d011682016040523d82523d5f602084013e6136b3565b606091505b50915091506136c3858383613714565b95945050505050565b341561159d5760405163b398979f60e01b815260040160405180910390fd5b5f6136f4612fb2565b54600160401b900460ff16919050565b6126ab6135a9565b612ed46135a9565b6060826137295761372482613773565b61376c565b815115801561374057506001600160a01b0384163b155b1561376957604051639996b31560e01b81526001600160a01b0385166004820152602401610bfb565b50805b9392505050565b80511561378257805160208201fd5b60405163d6bda27560e01b815260040160405180910390fd5b5f602082840312156137ab575f80fd5b81356001600160e01b03198116811461376c575f80fd5b5f602082840312156137d2575f80fd5b5035919050565b5f80604083850312156137ea575f80fd5b8235915060208301356001600160401b0381168114613807575f80fd5b809150509250929050565b80356001600160a01b0381168114613828575f80fd5b919050565b5f806040838503121561383e575f80fd5b8235915061384e60208401613812565b90509250929050565b634e487b7160e01b5f52602160045260245ffd5b6006811061388757634e487b7160e01b5f52602160045260245ffd5b9052565b85815260a0810161389f602083018761386b565b63ffffffff851660408301526001600160401b03841660608301528260808301529695505050505050565b5f60a0820190506138dc82845161386b565b6001600160401b036020840151166020830152604083015164ffffffffff808216604085015280606086015116606085015250506080830151608083015292915050565b5f805f60408486031215613932575f80fd5b8335925060208401356001600160401b038082111561394f575f80fd5b818601915086601f830112613962575f80fd5b813581811115613970575f80fd5b876020828501011115613981575f80fd5b6020830194508093505050509250925092565b634e487b7160e01b5f52604160045260245ffd5b5f6001600160401b03808411156139c1576139c1613994565b604051601f8501601f19908116603f011681019082821181831017156139e9576139e9613994565b81604052809350858152868686011115613a01575f80fd5b858560208301375f602087830101525050509392505050565b5f8060408385031215613a2b575f80fd5b613a3483613812565b915060208301356001600160401b03811115613a4e575f80fd5b8301601f81018513613a5e575f80fd5b613a6d858235602084016139a8565b9150509250929050565b803563ffffffff81168114613828575f80fd5b5f8060408385031215613a9b575f80fd5b8235915061384e60208401613a77565b5f5b83811015613ac5578181015183820152602001613aad565b50505f910152565b5f8151808452613ae4816020860160208601613aab565b601f01601f19169290920160200192915050565b602081525f61376c6020830184613acd565b5f8060408385031215613b1b575f80fd5b82356001600160401b03811115613b30575f80fd5b8301601f81018513613b40575f80fd5b613b4f858235602084016139a8565b92505061384e60208401613812565b5f8060408385031215613b6f575f80fd5b50508035926020909101359150565b5f805f60608486031215613b90575f80fd5b83359250613ba060208501613812565b9150604084013590509250925092565b5f805f8060808587031215613bc3575f80fd5b84359350613bd360208601613a77565b925060408501358060010b8114613be8575f80fd5b9150606085013560ff81168114613bfd575f80fd5b939692955090935050565b5f610100808352613c1b8184018c613acd565b9150508860010b602083015260ff8816604083015260ff87166060830152613c46608083018761386b565b63ffffffff851660a08301526001600160401b03841660c08301528260e08301529998505050505050505050565b5f60208284031215613c84575f80fd5b61376c82613812565b602080825282518282018190525f9190848201906040850190845b81811015613cca57835163ffffffff1683529284019291840191600101613ca8565b50909695505050505050565b602080825282518282018190525f919060409081850190868401855b82811015613d4c57815180518552868101516001600160401b0316878601528581015161ffff168686015260608082015164ffffffffff169086015260809081015115159085015260a09093019290850190600101613cf2565b5091979650505050505050565b83815260608101613d6d602083018561386b565b613d7a604083018461386b565b949350505050565b60208152816020820152818360408301375f818301604090810191909152601f909201601f19160101919050565b634e487b7160e01b5f52603260045260245ffd5b634e487b7160e01b5f52601160045260245ffd5b8082028115828204841417610bd257610bd2613dc4565b5f82613e0957634e487b7160e01b5f52601260045260245ffd5b500490565b80820180821115610bd257610bd2613dc4565b600181811c90821680613e3557607f821691505b602082108103610c1057634e487b7160e01b5f52602260045260245ffd5b9283526001600160a01b03919091166020830152604082015260600190565b61ffff82811682821603908082111561287557612875613dc4565b81810381811115610bd257610bd2613dc4565b5f60018201613eb157613eb1613dc4565b5060010190565b604081525f613eca6040830185613acd565b905063ffffffff831660208301529392505050565b60408101613eed828561386b565b61376c602083018461386b565b5f60208284031215613f0a575f80fd5b5051919050565b601f821115610dee57805f5260205f20601f840160051c81016020851015613f365750805b601f840160051c820191505b81811015613f55575f8155600101613f42565b5050505050565b81516001600160401b03811115613f7557613f75613994565b613f8981613f838454613e21565b84613f11565b602080601f831160018114613fbc575f8415613fa55750858301515b5f19600386901b1c1916600185901b178555614013565b5f85815260208120601f198616915b82811015613fea57888601518255948401946001909101908401613fcb565b508582101561400757878501515f19600388901b60f8161c191681555b505060018460011b0185555b505050505050565b5f825161402c818460208701613aab565b919091019291505056fe360894a13ba1a3210667c828492db98dca3e2076cc3735a920a3ca505d382bbc02dd7bc7dec4dceedda775e58dd541e08a116c6c53815c0bd028192f7b626800cd5ed15c6e187e77e9aee88184c21f4f2182ab5827cb3b7e07fbedcd63f033009b779b17422d0df92223018b32b4d1fa46e071723d6817e2486d003becc55f00a49807205ce4d355092ef5a8a18f56e8913cf4a201fbe287825b095693c21775a264697066735822122062e8a8d9d497ce3f6306561bc052b61720b2b0df3be2dc3755e5165315d1449364736f6c63430008180033","linkReferences":{}},"methodIdentifiers":{"allMatches(uint256)":"afa71d11","createBasketballMatch(string,address)":"ee5a2dbd","createFootballMatch(string,address)":"b5bc6824","getAllMatches()":"c17c5a45","getSportType(address)":"93ecc4b7","matchSportType(address)":"5d644539","owner()":"8da5cb5b","renounceOwnership()":"715018a6","transferOwnership(address)":"f2fde38b"},"id":47}