{"abi":[{"type":"constructor","inputs":[],"stateMutability":"nonpayable"},{"type":"function","name":"BASKETBALL","inputs":[],"outputs":[{"name":"","type":"uint8","internalType":"uint8"}],"stateMutability":"view"},{"type":"function","name":"FOOTBALL","inputs":[],"outputs":[{"name":"","type":"uint8","internalType":"uint8"}],"stateMutability":"view"},{"type":"function","name":"allMatches","inputs":[{"name":"","type":"uint256","internalType":"uint256"}],"outputs":[{"name":"","type":"address","internalType":"address"}],"stateMutability":"view"},{"type":"function","name":"basketballImplementation","inputs":[],"outputs":[{"name":"","type":"address","internalType":"address"}],"stateMutability":"view"},{"type":"function","name":"createBasketballMatch","inputs":[{"name":"_matchName","type":"string","internalType":"string"},{"name":"_owner","type":"address","internalType":"address"},{"name":"_oracle","type":"address","internalType":"address"}],"outputs":[{"name":"proxy","type":"address","internalType":"address"}],"stateMutability":"nonpayable"},{"type":"function","name":"createFootballMatch","inputs":[{"name":"_matchName","type":"string","internalType":"string"},{"name":"_owner","type":"address","internalType":"address"},{"name":"_oracle","type":"address","internalType":"address"}],"outputs":[{"name":"proxy","type":"address","internalType":"address"}],"stateMutability":"nonpayable"},{"type":"function","name":"footballImplementation","inputs":[],"outputs":[{"name":"","type":"address","internalType":"address"}],"stateMutability":"view"},{"type":"function","name":"getAllMatches","inputs":[],"outputs":[{"name":"","type":"address[]","internalType":"address[]"}],"stateMutability":"view"},{"type":"function","name":"getSportType","inputs":[{"name":"matchAddress","type":"address","internalType":"address"}],"outputs":[{"name":"","type":"uint8","internalType":"enum BettingMatchFactory.SportType"}],"stateMutability":"view"},{"type":"function","name":"implementations","inputs":[{"name":"sport","type":"uint8","internalType":"uint8"}],"outputs":[{"name":"","type":"address","internalType":"address"}],"stateMutability":"view"},{"type":"function","name":"isMatch","inputs":[{"name":"","type":"address","internalType":"address"}],"outputs":[{"name":"","type":"bool","internalType":"bool"}],"stateMutability":"view"},{"type":"function","name":"liquidityPool","inputs":[],"outputs":[{"name":"","type":"address","internalType":"address"}],"stateMutability":"view"},{"type":"function","name":"matchSportType","inputs":[{"name":"","type":"address","internalType":"address"}],"outputs":[{"name":"","type":"uint8","internalType":"enum BettingMatchFactory.SportType"}],"stateMutability":"view"},{"type":"function","name":"owner","inputs":[],"outputs":[{"name":"","type":"address","internalType":"address"}],"stateMutability":"view"},{"type":"function","name":"renounceOwnership","inputs":[],"outputs":[],"stateMutability":"nonpayable"},{"type":"function","name":"setBasketballImplementation","inputs":[{"name":"newImpl","type":"address","internalType":"address"}],"outputs":[],"stateMutability":"nonpayable"},{"type":"function","name":"setFootballImplementation","inputs":[{"name":"newImpl","type":"address","internalType":"address"}],"outputs":[],"stateMutability":"nonpayable"},{"type":"function","name":"setWiring","inputs":[{"name":"_liquidityPool","type":"address","internalType":"address"},{"name":"_usdcToken","type":"address","internalType":"address"},{"name":"_swapRouter","type":"address","internalType":"address"}],"outputs":[],"stateMutability":"nonpayable"},{"type":"function","name":"swapRouter","inputs":[],"outputs":[{"name":"","type":"address","internalType":"address"}],"stateMutability":"view"},{"type":"function","name":"transferOwnership","inputs":[{"name":"newOwner","type":"address","internalType":"address"}],"outputs":[],"stateMutability":"nonpayable"},{"type":"function","name":"usdcToken","inputs":[],"outputs":[{"name":"","type":"address","internalType":"address"}],"stateMutability":"view"},{"type":"event","name":"BasketballImplementationUpdated","inputs":[{"name":"oldImpl","type":"address","indexed":true,"internalType":"address"},{"name":"newImpl","type":"address","indexed":true,"internalType":"address"}],"anonymous":false},{"type":"event","name":"FootballImplementationUpdated","inputs":[{"name":"oldImpl","type":"address","indexed":true,"internalType":"address"},{"name":"newImpl","type":"address","indexed":true,"internalType":"address"}],"anonymous":false},{"type":"event","name":"MatchCreated","inputs":[{"name":"proxy","type":"address","indexed":true,"internalType":"address"},{"name":"sportType","type":"uint8","indexed":false,"internalType":"enum BettingMatchFactory.SportType"},{"name":"owner","type":"address","indexed":true,"internalType":"address"}],"anonymous":false},{"type":"event","name":"OwnershipTransferred","inputs":[{"name":"previousOwner","type":"address","indexed":true,"internalType":"address"},{"name":"newOwner","type":"address","indexed":true,"internalType":"address"}],"anonymous":false},{"type":"event","name":"WiringSet","inputs":[{"name":"liquidityPool","type":"address","indexed":true,"internalType":"address"},{"name":"usdcToken","type":"address","indexed":true,"internalType":"address"},{"name":"swapRouter","type":"address","indexed":true,"internalType":"address"}],"anonymous":false},{"type":"error","name":"InvalidAddress","inputs":[]},{"type":"error","name":"MatchNotFound","inputs":[{"name":"matchAddress","type":"address","internalType":"address"}]},{"type":"error","name":"OwnableInvalidOwner","inputs":[{"name":"owner","type":"address","internalType":"address"}]},{"type":"error","name":"OwnableUnauthorizedAccount","inputs":[{"name":"account","type":"address","internalType":"address"}]},{"type":"error","name":"WiringNotConfigured","inputs":[]}],"bytecode":{"object":"0x6080604090808252346101105733156100fb57505f80546001600160a01b0319808216339081178455845191936001600160a01b03938416907f8be0079c531659141344cd1fd0a4f28419497f9722a3daafe3b4186f6b6457e09080a36001600160401b0390614c29818101838111838210176100dd57829162006729833903905ff080156100f1578216836004541617600455835190614ded9081830190838210908211176100dd5782916200193c833903905ff080156100d35716906005541617600555516118279081620001158239f35b83513d5f823e3d90fd5b634e487b7160e01b5f52604160045260245ffd5b84513d5f823e3d90fd5b631e4fbdf760e01b81525f6004820152602490fd5b5f80fdfe60806040908082526004908136101562000017575f80fd5b5f3560e01c90816311eac855146200095a575080631f47ac39146200083d5780633989b9e614620008205780633a82bc3914620007f65780635429caa014620007b75780635839eb4e14620007415780635d64453914620006fb578063665a11ca14620006d1578063715018a61462000688578063856756f3146200052a5780638da5cb5b14620005015780638eb855c514620004e557806393ecc4b7146200046f578063a5e317e314620003f6578063afa71d1114620003a9578063bd09e8fa1462000369578063c17c5a4514620002c2578063c31c9c071462000298578063deee748214620001c3578063e13da35f14620001995763f2fde38b146200011d575f80fd5b346200019557602036600319011262000195576200013a6200097f565b906200014562000bba565b6001600160a01b039182169283156200017f5750505f548260018060a01b03198216175f55165f80516020620017928339815191525f80a3005b905f6024925191631e4fbdf760e01b8352820152fd5b5f80fd5b50903462000195575f3660031901126200019557905490516001600160a01b039091168152602090f35b5034620001955760603660031901126200019557620001e16200097f565b916024356001600160a01b03818116939184900362000195576044359481861680960362000195576200021362000bba565b1691821580156200028f575b801562000286575b620002795750508260018060a01b0319828160065416176006558381600754161760075560085416176008557fe108f976e86db9692d819e24f1879a8b07011df2c6652a992bb25877a19e01915f80a4005b5163e6c4247b60e01b8152fd5b50841562000227565b5083156200021f565b823462000195575f366003190112620001955760085490516001600160a01b039091168152602090f35b823462000195575f366003190112620001955780519081600190600154938482526020809201809560015f52835f20905f5b8181106200034c57505050816200030d91038262000a92565b8351938285019183865251809252840194915f5b8281106200032f5785870386f35b83516001600160a01b031687529581019592810192840162000321565b82546001600160a01b0316845292850192918601918601620002f4565b82346200019557602036600319011262000195576020906001600160a01b03620003926200097f565b165f526003825260ff815f20541690519015158152f35b50346200019557602036600319011262000195573590600154821015620001955760015f525f80516020620017d28339815191529091015490516001600160a01b03919091168152602090f35b5034620001955760203660031901126200019557620004146200097f565b906200041f62000bba565b6001600160a01b0391821692831562000279575050600580546001600160a01b031981168417909155167ffd0875c02d32d5231ee3b187069c16ec4d5676b5f346e86bb075ba10dd5155835f80a3005b5090346200019557602036600319011262000195576001600160a01b03620004966200097f565b16805f52600360205260ff825f20541615620004d057620004cc92505f52600260205260ff815f20541690519182918262000a0a565b0390f35b9051637bf8388f60e11b815291820152602490fd5b823462000195575f3660031901126200019557602090515f8152f35b823462000195575f36600319011262000195575f5490516001600160a01b039091168152602090f35b503462000195576200053c3662000996565b949290936200054a62000bba565b6200055462000be6565b6001600160a01b0385811693909290841580156200067d575b6200066d578551637ab4339d60e01b602082015291620005a99183916200059a9130916024850162000a32565b03601f19810183528262000a92565b600554855192908416906102c8808501916001600160401b038311868410176200065a575091849391620005e393620014ca863962000ab6565b03905ff0801562000650579462000632916020961694620006048662000b10565b855f5260038752845f2060ff1990600182825416179055600288526001865f20918254161790558562000c55565b825f80516020620017b283398151915285845160018152a351908152f35b83513d5f823e3d90fd5b604190634e487b7160e01b5f525260245ffd5b855163e6c4247b60e01b81528390fd5b50838816156200056d565b3462000195575f3660031901126200019557620006a462000bba565b5f80546001600160a01b0319811682556001600160a01b03165f80516020620017928339815191528280a3005b823462000195575f366003190112620001955760065490516001600160a01b039091168152602090f35b8234620001955760203660031901126200019557620004cc906001600160a01b03620007266200097f565b165f52600260205260ff815f20541690519182918262000a0a565b50346200019557602036600319011262000195576200075f6200097f565b906200076a62000bba565b6001600160a01b0391821692831562000279575080546001600160a01b031981168417909155167feb7245792eed00c9526f97ac1db9e4723b24501e4d5b7cfb20288cd8085778775f80a3005b5034620001955760203660031901126200019557359060ff821682036200019557620007e560209262000b77565b90516001600160a01b039091168152f35b823462000195575f366003190112620001955760055490516001600160a01b039091168152602090f35b823462000195575f36600319011262000195576020905160018152f35b503462000195576200084f3662000996565b949290936200085d62000bba565b6200086762000be6565b6001600160a01b0385811693909290841580156200094f575b6200066d578551637ab4339d60e01b602082015291620008ad9183916200059a9130916024850162000a32565b8154855192908416906102c8808501916001600160401b038311868410176200065a575091849391620008e693620014ca863962000ab6565b03905ff0801562000650579462000932916020961694620009078662000b10565b855f5260038752845f2060ff199060018282541617905560028852855f209081541690558562000c55565b825f80516020620017b28339815191528584515f8152a351908152f35b508388161562000880565b3462000195575f36600319011262000195576007546001600160a01b03168152602090f35b600435906001600160a01b03821682036200019557565b90606060031983011262000195576001600160401b039160043590838211620001955780602383011215620001955781600401359384116200019557602484830101116200019557602490810192916001600160a01b03913582811681036200019557916044359081168103620001955790565b91906020830192600282101562000a1e5752565b634e487b7160e01b5f52602160045260245ffd5b918060609160209396959660408652816040870152838601375f828286010152601f80199101168301019360018060a01b0316910152565b6001600160401b03811162000a7e57604052565b634e487b7160e01b5f52604160045260245ffd5b601f909101601f19168101906001600160401b0382119082101762000a7e57604052565b6001600160a01b03909116815260406020808301829052835191830182905293925f5b82811062000afb57505060609293505f838284010152601f8019910116010190565b81810186015184820160600152850162000ad9565b600154600160401b81101562000a7e57600181018060015581101562000b635760015f525f80516020620017d28339815191520180546001600160a01b0319166001600160a01b03909216919091179055565b634e487b7160e01b5f52603260045260245ffd5b60ff16801562000baa5760011462000b9b5760405163e6c4247b60e01b8152600490fd5b6005546001600160a01b031690565b506004546001600160a01b031690565b5f546001600160a01b0316330362000bce57565b60405163118cdaa760e01b8152336004820152602490fd5b6006546001600160a01b039081161590811562000c2e575b811562000c20575b5062000c0e57565b604051631218f72d60e31b8152600490fd5b905060085416155f62000c06565b600754811615915062000bfe565b9081526001600160a01b03909116602082015260400190565b6007545f9390916001600160a01b039081169190823b1562000195576040948551630f5a9d0160e01b81528260049616868201525f8160248183895af18015620014bf57620014a9575b508160065416843b156200118657865190620c3b8160e51b825286820152878160248183895af180156200117c5790889162001491575b505085516331a21b6d60e21b815260209384828881895afa918215620011d55789926200145c575b508360085416863b1562001285578962000d2d918a5180938192632f2ff15d60e01b978884528d840162000c3c565b0381838b5af180156200122e57908a9162001444575b505087516303c7d59360e51b8152858189818a5afa9081156200122e578a9162001411575b50863b15620012855762000d8b918a918a5193849283928784528c840162000c3c565b0381838a5af18015620011d557908991620013f9575b5050865163a217fddf60e01b8082529290858189818a5afa9081156200122e578a91620013c6575b50863b156200128557898262000dec928b5193849283928884528d840162000c3c565b0381838b5af180156200122e57908a91620013ae575b50508751631d6c8e3f60e21b808252949086818a818b5afa908115620012a1578b916200137b575b50873b15620012ab578a83918a62000e4d8d5194859384938a8552840162000c3c565b0381838c5af18015620012a157908b9162001363575b5050885163e63ab1e960e01b808252929087818b818c5afa908115620012c7578c9162001330575b50883b156200132c578b82918b62000eae8e5194859384938b8552840162000c3c565b0381838d5af18015620012c757908c9162001314575b505089516310dc30fd60e01b8082529488828c818d5afa9182156200130a578d92620012d5575b50893b15620012d1578a8d9162000f0d858f5195869485948552840162000c3c565b0381838d5af18015620012c757908c91620012af575b5050873b15620012ab57895163f2fde38b60e01b8152908216898201528a81602481838c5af18015620012a157908b9162001289575b505060065416803b156200128557898760248a838d5195869485936310107f0760e11b85528401525af180156200122e57908a916200126d575b5050875193845284848881895afa938415620011d557899462001238575b50853b15620011df57875189818062000fda631b2b455f60e11b9889835230908d840162000c3c565b0381838b5af180156200122e57908a9162001216575b5050875190815284818881895afa908115620011d5578991620011e3575b50853b15620011df5788620010319189518093819288835230908c840162000c3c565b0381838a5af18015620011d557908991620011bd575b5050865190815283818781885afa9081156200117c5788916200118a575b50843b15620011865787620010889188518093819287835230908b840162000c3c565b038183895af180156200117c5790889162001160575b5050855190815282818681875afa9283156200115657879362001120575b5050823b156200111c5791849391868094620010e697519788958694859384523091840162000c3c565b03925af1908115620011135750620010fc575050565b62001108829162000a6a565b620011105750565b80fd5b513d84823e3d90fd5b8580fd5b9080929350813d83116200114e575b6200113b818362000a92565b81010312620001955751905f80620010bc565b503d6200112f565b86513d89823e3d90fd5b6200116b9062000a6a565b6200117857865f6200109e565b8680fd5b87513d8a823e3d90fd5b8780fd5b90508381813d8311620011b5575b620011a4818362000a92565b810103126200019557515f62001065565b503d62001198565b620011c89062000a6a565b6200118657875f62001047565b88513d8b823e3d90fd5b8880fd5b90508481813d83116200120e575b620011fd818362000a92565b810103126200019557515f6200100e565b503d620011f1565b620012219062000a6a565b620011df57885f62000ff0565b89513d8c823e3d90fd5b9093508481813d831162001265575b62001253818362000a92565b81010312620001955751925f62000fb1565b503d62001247565b620012789062000a6a565b620011df57885f62000f93565b8980fd5b620012949062000a6a565b6200128557895f62000f59565b8a513d8d823e3d90fd5b8a80fd5b620012ba9062000a6a565b620012ab578a5f62000f23565b8b513d8e823e3d90fd5b8c80fd5b9091508881813d831162001302575b620012f0818362000a92565b81010312620001955751905f62000eeb565b503d620012e4565b8c513d8f823e3d90fd5b6200131f9062000a6a565b620012ab578a5f62000ec4565b8b80fd5b90508781813d83116200135b575b6200134a818362000a92565b810103126200019557515f62000e8b565b503d6200133e565b6200136e9062000a6a565b6200128557895f62000e63565b90508681813d8311620013a6575b62001395818362000a92565b810103126200019557515f62000e2a565b503d62001389565b620013b99062000a6a565b620011df57885f62000e02565b90508581813d8311620013f1575b620013e0818362000a92565b810103126200019557515f62000dc9565b503d620013d4565b620014049062000a6a565b6200118657875f62000da1565b90508581813d83116200143c575b6200142b818362000a92565b810103126200019557515f62000d68565b503d6200141f565b6200144f9062000a6a565b620011df57885f62000d43565b9091508481813d831162001489575b62001477818362000a92565b81010312620001955751905f62000cfe565b503d6200146b565b6200149c9062000a6a565b6200117857865f62000cd6565b620014b691975062000a6a565b5f955f62000c9f565b87513d5f823e3d90fdfe60806040526102c8803803806100148161018e565b92833981019060408183031261018a5780516001600160a01b03811680820361018a5760208381015190936001600160401b03821161018a570184601f8201121561018a5780519061006d610068836101c7565b61018e565b9582875285838301011161018a5784905f5b8381106101765750505f9186010152813b1561015e577f360894a13ba1a3210667c828492db98dca3e2076cc3735a920a3ca505d382bbc80546001600160a01b03191682179055604051907fbc7cd75a20ee27fd9adebab32041f755214dbc6bffa90cc0225b39da2e5c2d3b5f80a283511561014057505f80848461012796519101845af4903d15610137573d610118610068826101c7565b9081525f81943d92013e6101e2565b505b604051608290816102468239f35b606092506101e2565b925050503461014f5750610129565b63b398979f60e01b8152600490fd5b60249060405190634c9c8ce360e01b82526004820152fd5b81810183015188820184015286920161007f565b5f80fd5b6040519190601f01601f191682016001600160401b038111838210176101b357604052565b634e487b7160e01b5f52604160045260245ffd5b6001600160401b0381116101b357601f01601f191660200190565b9061020957508051156101f757602081519101fd5b60405163d6bda27560e01b8152600490fd5b8151158061023c575b61021a575090565b604051639996b31560e01b81526001600160a01b039091166004820152602490fd5b50803b1561021256fe60806040527f360894a13ba1a3210667c828492db98dca3e2076cc3735a920a3ca505d382bbc545f9081906001600160a01b0316368280378136915af43d5f803e156048573d5ff35b3d5ffdfea26469706673582212204ece896b3d09cf1a7d3a0105518504a1119ffa7d6764d35b7a0fe672abc2556264736f6c634300081800338be0079c531659141344cd1fd0a4f28419497f9722a3daafe3b4186f6b6457e05969a2068f5fa459c1b0f8d90549ffd48273691f337cf3200090f8c4ded08d16b10e2d527612073b26eecdfd717e6a320cf44b4afac2b0732d9fcbe2b7fa0cf6a264697066735822122045d2ea2b10d073fdb81083717ed27a02ff8095dda4005068f7f8ba3b869097c964736f6c6343000818003360a08060405234620000d157306080527ff0c57e16840df040f15088dc2f81fe391c3923bec73e23a9662efc9c229c6a009081549060ff8260401c16620000c257506001600160401b036002600160401b0319828216016200007c575b604051614d179081620000d68239608051818181612a250152612b860152f35b6001600160401b031990911681179091556040519081527fc7f505b2f371ae2175ee4913f4499e1f2633a7b5936321eed1cdaeb6115181d290602090a15f80806200005c565b63f92ee8a960e01b8152600490fd5b5f80fdfe60806040526004361015610011575f80fd5b5f60e05f3560e01c9081630187702014613bb657816301ffc9a714613b605781630e75a18c14613b2b5781630f5a9d0114613ac5578163106190351461394957816310dc30fd1461392257816311eac855146138fa57816319d0ec1f146138945781631a095c6e1461365a578163248a9ca3146136215781632cfe63a5146136035781632f2ff15d146135b9578163330b82fe1461359157816336568abe1461354957816337c6ef85146135215781633ec791931461349e5781633eccfc96146130775781633f4ba83a1461300057816340b16c1e14612f23578163456051f114612da95781634644161f14612d765781634f1ef28614612b3657816351487dc014612b0e57816351858e2714612a7c57816352d1902d14612a125781635c975abb146129e357816361bd2ca914612897578163665a11ca1461286e5781636930fd2a146124925781636bc98ba314612475578163715018a61461241f57816371738f8c1461239457816375b238fc1461236c57816378fab260146123445781637ab4339d14611e9e57816383e2e9df14611cc75781638527d58f14611ac25781638723eccf14611a9a5781638da5cb5b14611a6557816391d1485414611a0f578163931b5466146119655781639ebfee81146118a8578163a217fddf1461188c578163a4b8195c146113af578163a890c99714610f3a578163ad3cb1cc14610ef4578163ae07d05114610ed7578163ae41809514610e1b578163af4a52ec14610df3578163ba26901514610d08578163baa2675714610c4e578163bdc69bd914610c26578163bef2a6a014610b61578163c3490263146108b8578163c6886db414610890578163d547741f14610842578163d9063afa14610782578163e63ab1e91461075a578163e8b02f141461070a578163ec979082146106ec578163f014a108146106ce578163f2fde38b146106a1578163f50ee3d51461048257508063fa744dd31461030f5763ff40596c146102e9575f80fd5b3461030c578060031936011261030c57602063ffffffff600e5416604051908152f35b80fd5b503461030c57604036600319011261030c576004359061032d613c32565b9161033781613fd5565b81526004602090815260408083206001600160a01b039094165f90815293825290922080546001600160401b039384821161046e57929060405190610381858260051b0183613d08565b8082528482018094845285842084915b83831061040c57505050506040519380850191818652518092526040850193925b8281106103bf5785850386f35b8351805186528083015188168684015260408082015161ffff169087015260608082015164ffffffffff169087015260809081015115159086015260a090940193928101926001016103b2565b60028860019260409a97989a5161042281613cb7565b8554815260ff8d868801549081168584015261ffff8160401c16604084015264ffffffffff8160501c16606084015260781c161515608082015281520192019201919096949396610391565b634e487b7160e01b84526041600452602484fd5b90503461069d576020908160031936011261069957906004356104a481613fd5565b8352600381528060408420926040519081938491818754948581520190819789528289209489915b816007840110610629575061052c95549184828210610613575b8282106105fb575b8282106105e2575b8282106105c9575b8282106105b0575b828210610597575b82821061057e575b5010610570575b50905095929493950385613d08565b60405193838594850191818652518092526040850193925b82811061055357505050500390f35b835163ffffffff1685528695509381019392810192600101610544565b60e01c81520183905f61051d565b6001919463ffffffff8560c01c16815201930184610516565b6001919463ffffffff8560a01c1681520193018461050e565b6001919463ffffffff8560801c16815201930184610506565b6001919463ffffffff8560601c168152019301846104fe565b6001919463ffffffff8560401c168152019301846104f6565b6001919463ffffffff85831c168152019301846104ee565b6001919463ffffffff85168152019301846104e6565b94509250906001610100600892875463ffffffff808216835280828c1c168b840152808260401c16604084015260608183821c169084015260808183821c169084015260a08183821c169084015260c09082821c1690830152871c878201520195019101859287949592956104cc565b8280fd5b5080fd5b823461030c57602036600319011261030c576106cb6106be613c1c565b6106c6614565565b613f14565b80f35b823461030c578060031936011261030c576020604051620f42408152f35b823461030c578060031936011261030c576020600254604051908152f35b823461030c57602036600319011261030c576040608091600435815260326020522060ff600182549201546040519283528060010b6020840152818160101c16604084015260181c166060820152f35b823461030c578060031936011261030c5760206040515f80516020614a628339815191528152f35b823461030c57602036600319011261030c576107f4906004356107a481613fd5565b808252603260205260408083209260056020522060016107c484546145c5565b9301549163ffffffff60016107da84549361402e565b9301549260ff604051978897610100808a52890190613dd5565b958060010b6020890152818160101c16604089015260181c1660608701526108226080870160ff8516613c97565b1660a085015260081c6001600160401b031660c084015260e08301520390f35b823461030c57604036600319011261030c5761088c600435610862613c32565b908084525f80516020614ac28339815191526020526108876001604086200154613fa7565b614322565b5080f35b823461030c578060031936011261030c5760206040515f80516020614c828339815191528152f35b823461030c576108c736613c6b565b906108d0614536565b6108d981613fd5565b805f5260206005815260ff60405f2054166006811015610b4d5760048103610b1f57506109046143ea565b8184526004815260408420335f52815260405f208054841015610aff578361092b91613e9d565b5090600182019182549260ff8460781c16610ae2578487526005835260408720546001600160401b03929060081c831685841603610ac157906109e588939261271061099061098161ffff8a60401c168b61459d565b63ffffffff8454911690613dfa565b0496600160781b9060ff60781b191617835587855260088652604085206109b8888254613e0d565b90558785526009865260408520848454165f52865260405f206109dc888254613e0d565b90555486613e0d565b91868452600a8552604084206109fc848254613e0d565b9055868452600b8552604084209154165f52835260405f20610a1f828254613e0d565b90556007546001600160a01b0316803b1561069957604051631fabc62960e31b81529183918391829084908290610a5d908b338e3060048701613ee7565b03925af18015610ab657610a9e575b50506040519384528301525f80516020614c6283398151915260403393a360015f80516020614b828339815191525580f35b610aa790613ca4565b610ab2578486610a6c565b8480fd5b6040513d84823e3d90fd5b604051638bf5a6c560e01b815280610ade89338a60048501613e7c565b0390fd5b6040516308c52d4160e11b815280610ade88338960048501613e7c565b5050610ade604051928392635b834b8f60e11b8452339060048501613e7c565b6040516327c6314f60e11b815260048101849052606491610b44906024830190613c97565b60046044820152fd5b634e487b7160e01b5f52602160045260245ffd5b823461030c578060031936011261030c576040515f60018260015492610b8684613d7c565b92838352602094856001821691825f14610c06575050600114610bc9575b50610bb192500383613d08565b610bc5604051928284938452830190613dd5565b0390f35b84915060015f52815f20905f915b858310610bee575050610bb1935082010185610ba4565b80548389018501528794508693909201918101610bd7565b60ff191685820152610bb195151560051b8501019250879150610ba49050565b823461030c578060031936011261030c5760206040515f80516020614ae28339815191528152f35b823461030c57602036600319011261030c57600435610c6c81613fd5565b610c74613f72565b805f52600560205260405f2080549060ff8216916006831015610b4d5782151580610cfd575b610cd05760ff19166001179055604080515f80516020614a4283398151915292610cc5908290613c97565b60016020820152a280f35b6040516327c6314f60e11b815260048101859052606490610cf46024820186613c97565b60016044820152fd5b506002831415610c9a565b823461030c57606036600319011261030c57600435610d25613c32565b604060443593610d3484613fd5565b83815260046020522060018060a01b0382165f5260205260405f20908154841015610dd5575060c092610d6691613e9d565b509060ff63ffffffff610d8660018501549361ffff8560401c169061459d565b9354931691612710610d988486613dfa565b049260405194855260018060401b0382166020860152604085015264ffffffffff8160501c16606085015260781c161515608083015260a0820152f35b82610ade85604051938493635b834b8f60e11b855260048501613e7c565b823461030c578060031936011261030c5760206040515f80516020614c028339815191528152f35b823461030c57602036600319011261030c57600435610e3981613fd5565b610e41613f72565b805f52600560205260405f2080549060ff8216916006831015610b4d57600183141580610ecc575b610e9f5760ff19166003179055604080515f80516020614a4283398151915292610e94908290613c97565b60036020820152a280f35b6040516327c6314f60e11b815260048101859052606490610ec36024820186613c97565b60036044820152fd5b506002831415610e69565b823461030c578060031936011261030c5760206040516127118152f35b823461030c578060031936011261030c57610bc5604051610f1481613ced565b60058152640352e302e360dc1b6020820152604051918291602083526020830190613dd5565b823461030c57606036600319011261030c57602435604435610f5a614536565b610f65600435613fd5565b610f6d6143ea565b6004358352600560205260ff604084205416600681101561139b57600481141580611390575b61136a57506004358352600460205260408320335f5260205260405f2054908181115f1461136357505b808210610fda575b8260015f80516020614b828339815191525580f35b6004355f52600560205260405f2091600460205260405f20335f5260205260405f20905b82811061100c575050610fc5565b6110168183613e9d565b5090600182015460ff8160781c166111d6578554600660ff82161015610b4d57600460ff82161480611349575b156111c857505060018201549161106361ffff8460401c1660043561459d565b9061108461271061107c63ffffffff8454951685613dfa565b049283613e0d565b60ff60781b19909416600160781b1760018201556004355f90815260086020526040902080546110b5908490613e0d565b90556004355f52600960205260405f2060018060401b0390816001840154165f5260205260405f206110e8848254613e0d565b90556004355f52600a60205260405f20611103868254613e0d565b90556004355f52600b602052600160405f20920154165f5260205260405f2061112d848254613e0d565b90556007546001600160a01b0316803b156111c45761116c5f94918592604051968780948193631fabc62960e31b835288336004353060048701613ee7565b03925af19283156111b9576001936111aa575b5060405190828252602082015233905f80516020614c62833981519152604060043592a35b01610ffe565b6111b390613ca4565b8761117f565b6040513d5f823e3d90fd5b5f80fd5b90929060ff166005146111e0575b50600191506111a4565b6111f361ffff8460401c1660043561459d565b9061271061120963ffffffff8354941684613dfa565b046112148382613e0d565b60ff60781b19909516600160781b1760018301556004355f9081526008602052604090208054611245908390613e0d565b90556004355f52600960205260405f209060018060401b0391826001850154165f5260205261127960405f20918254613e0d565b90556004355f52600a60205260405f20611294868254613e0d565b90556004355f52600b602052600160405f20920154165f5260205260405f206112be848254613e0d565b90556007546001600160a01b0316803b156111c4576112fd5f949185926040519687809481936321d2aaf360e11b835288336004353060048701613ee7565b03925af19283156111b95760019361133a575b5060405190828252602082015233905f80516020614a22833981519152604060043592a3866111d6565b61134390613ca4565b87611310565b506001600160401b03828116600883901c90911614611043565b9050610fbd565b6040516327c6314f60e11b81526004803590820152606491610b44906024830190613c97565b506005811415610f93565b634e487b7160e01b84526021600452602484fd5b823461030c57606036600319011261030c576004356113cc613c81565b906044356113d982613fd5565b6113e2826143a1565b6113ea6143ea565b6007545f936001600160a01b03918216801561187a57831561186857845f526020936003855260405f20600281019061ffff95868354161561185057611430868a61406b565b8060065416801561183e576040516306acb3f760e31b81529489866004818a5afa80156111b95789965f91611800575b5061147d906114756127109b8c921684613dfa565b048092613e0d565b968a8261178c575b5050505061149f85826006541683600754169033906147eb565b620186a080861061176e575063ffffffff6114c785855416936114c185613ffa565b9061400d565b90549060031b1c16966114da8887613dfa565b046114e58682613e0d565b928315611755578a5f5260048a5260405f20335f528a5260405f20906040519161150e83613cb7565b8883528b83019160018060401b03809b169a8b845260408501918252606085019064ffffffffff4216825260808601935f85528054600160401b8110156117415761155e91600182018155613e9d565b96909661172e576115aa966001915181550194511684549261ffff60401b905160401b169164ffffffffff60501b905160501b169260018060781b031916171717825551151590613eca565b895f5260058952600160405f20016115c3878254614414565b9055895f526008895260405f206115db828254614414565b9055895f526009895260405f20875f5289526115fc60405f20918254614414565b9055885f52600a885260405f20611614838254614414565b9055885f52600b885260405f20865f52885260405f20611635838254614414565b9055885f52600c885260405f2061164d868254614414565b9055885f52600d885260405f20865f52885260405f2061166e868254614414565b905560075416803b156111c4576116a4915f9186838c60405196879586948593631613163360e11b855233903060048701613ee7565b03925af180156111b95761171b575b508688526004865260408820335f52865260405f2054975f19890198891161170757505416936040519687528601526040850152606084015260808301525f80516020614b6283398151915260a03393a380f35b634e487b7160e01b81526011600452602490fd5b611726919850613ca4565b5f96896116b3565b634e487b7160e01b5f525f60045260245ffd5b634e487b7160e01b5f52604160045260245ffd5b604051631a048a7f60e11b8152600481018c9052602490fd5b85604491604051916378e030db60e01b835260048301526024820152fd5b6040516361d027b360e01b815291829060049082905afa9081156111b9575f916117c6575b506117bd9233906147eb565b8b80808a611485565b90508a81813d83116117f9575b6117dd8183613d08565b810103126111c457519183831683036111c457916117bd6117b1565b503d6117d3565b809297508b8092503d8311611837575b61181a8183613d08565b810103126111c457519488861686036111c457889561147d611460565b503d611810565b604051639554dd1160e01b8152600490fd5b60405162bc17d160e31b8152600481018a9052602490fd5b604051630813eb4360e01b8152600490fd5b60405163b8b5ff1560e01b8152600490fd5b823461030c578060031936011261030c57602090604051908152f35b823461030c57602036600319011261030c5760043563ffffffff8082168092036111c4576118d4613f72565b8115158061194e575b611924577f93e70e5656ae122d798afc18b8341c8562c767d894018b7e4b1f34d319507c6f6040600e549281519084168152846020820152a163ffffffff191617600e5580f35b604051637231c80760e01b8152600481018390526127116024820152620f42406044820152606490fd5b506127118210806118dd5750620f424082116118dd565b823461030c57602036600319011261030c5760043561198381613fd5565b61198b613f72565b805f52600560205260405f2080549060ff8216916006831015610b4d57600183036119e25760ff19166002179055604080515f80516020614a42833981519152926119d7908290613c97565b60026020820152a280f35b6040516327c6314f60e11b815260048101859052606490611a066024820186613c97565b60026044820152fd5b823461030c57604036600319011261030c576040611a2b613c32565b9160043581525f80516020614ac2833981519152602052209060018060a01b03165f52602052602060ff60405f2054166040519015158152f35b823461030c578060031936011261030c575f80516020614982833981519152546040516001600160a01b039091168152602090f35b823461030c578060031936011261030c5760206040515f805160206149628339815191528152f35b823461030c57611ad136613c6b565b90611ada614536565b611ae381613fd5565b805f5260206005815260ff60405f2054166006811015610b4d5760058103611c9957508184526004815260408420335f52815260405f208054841015610aff5783611b2d91613e9d565b5090600182019182549060ff8260781c16610ae2579086915493612710611b6a63ffffffff611b6361ffff8660401c168a61459d565b1687613dfa565b04611b758682613e0d565b60ff60781b19909316600160781b17825586845260088552604084208054611b9e908390613e0d565b905586845260098552604084209060018060401b0391828454165f528652611bcb60405f20918254613e0d565b9055868452600a855260408420611be3848254613e0d565b9055868452600b8552604084209154165f52835260405f20611c06828254613e0d565b90556007546001600160a01b0316803b15610699576040516321d2aaf360e11b81529183918391829084908290611c44908b338e3060048701613ee7565b03925af18015610ab657611c85575b50506040519384528301525f80516020614a2283398151915260403393a360015f80516020614b828339815191525580f35b611c8e90613ca4565b610ab2578486611c53565b6040516327c6314f60e11b815260048101849052606491611cbe906024830190613c97565b60056044820152fd5b823461030c57606036600319011261030c57600435611ce4613c48565b90611ced613c5b565b611cf5613f72565b611cfe83614421565b611d078261474f565b90600254935f198514611e8a576001850160025560405164ffffffffff94611d2e82613cb7565b5f8252602093848301955f87526040840193884216855260608101975f8952608082015f81528b5f526005895260405f209251916006831015610b4d575f80516020614ca28339815191529b611e7e9b611e6499611da4611dcd94611d956001988a613e64565b878060401b0390511688613e1a565b51865464ffffffffff60481b191660489190911b64ffffffffff60481b16178655511684613e3f565b5191015560405190611dde82613cd2565b8382528682019260010b8352600160408301925f845260ff60608201931683528b5f526032895260405f20905181550192519161ffff63ff00000062ff00008654935160101b16935160181b1693169063ffffffff19161717179055611e448388614489565b50865f5260038452600260405f2001600161ffff198254161790556145c5565b9163ffffffff604051948594604086526040860190613dd5565b9216908301520390a280f35b634e487b7160e01b5f52601160045260245ffd5b823461030c57604036600319011261030c576004356001600160401b03811161069d573660238201121561069d57611ee0903690602481600401359101613d46565b90611ee9613c32565b5f80516020614c2283398151915254906001600160401b03821680159081612334575b600114908161232a575b159081612321575b5061230f576001600160401b031982166001175f80516020614c2283398151915255604082901c60ff16156122e7575b60405190611f5b82613ced565b600a825269109054d2d1551090531360b21b6020830152611f7a614870565b611f82614870565b611f8a614870565b611f9381613f14565b611f9b614870565b611fa3614870565b611fab614870565b611fb3614870565b60015f80516020614b8283398151915255611fcc614870565b611fd5816140ba565b50611fdf8161412b565b50611fe9816141b2565b50611ff381614232565b5084516001600160401b0381116122225761200e8554613d7c565b601f81116122a2575b50806020601f8211600114612241578691612236575b508160011b915f199060031b1c19161784555b8151946001600160401b0386116122225761205c600154613d7c565b601f81116121d2575b50602095601f811160011461214e576120be5f80516020614aa283398151915292826120e193899a60ff9a91612143575b508160011b915f199060031b1c1916176001555b602060405192828480945193849201613db4565b8101039020926040519182916020835260018060a01b0316956020830190613dd5565b0390a360401c16156120f05780f35b60ff60401b195f80516020614c2283398151915254165f80516020614c22833981519152557fc7f505b2f371ae2175ee4913f4499e1f2633a7b5936321eed1cdaeb6115181d2602060405160018152a180f35b90508701518b612096565b600186525f80516020614b2283398151915296601f198216875b8181106121ba57509260018360ff999a6120be946120e1965f80516020614aa283398151915298106121a2575b5050811b016001556120aa565b8901515f1960f88460031b161c191690558b80612195565b868301518a5560019099019860209283019201612168565b600186525f80516020614b22833981519152601f880160051c81019160208910612218575b601f0160051c01905b81811061220d5750612065565b868155600101612200565b90915081906121f7565b634e487b7160e01b85526041600452602485fd5b90508601518761202d565b868052602087209150601f198316875b81811061228a57509083600194939210612272575b5050811b018455612040565b8801515f1960f88460031b161c191690558780612266565b9192602060018192868d015181550194019201612251565b85805260208620601f830160051c810191602084106122dd575b601f0160051c01905b8181106122d25750612017565b8681556001016122c5565b90915081906122bc565b6001600160481b031982166001600160401b01175f80516020614c2283398151915255611f4e565b60405163f92ee8a960e01b8152600490fd5b90501585611f1e565b303b159150611f16565b604084901c60ff16159150611f0c565b823461030c578060031936011261030c5760206040515f805160206149228339815191528152f35b823461030c578060031936011261030c5760206040515f80516020614ba28339815191528152f35b823461030c578060031936011261030c576040515f805490826123b683613d7c565b91828252602093600190856001821691825f14610c065750506001146123e35750610bb192500383613d08565b8491505f8052815f20905f915b858310612407575050610bb1935082010185610ba4565b805483890185015287945086939092019181016123f0565b823461030c578060031936011261030c57612438614565565b5f8051602061498283398151915280546001600160a01b031981169091555f906001600160a01b03165f80516020614a828339815191528280a380f35b823461030c578060031936011261030c5760206040516127108152f35b823461030c5760208060031936011261069d57600435906124b1614536565b6124ba82613fd5565b6124c26143ea565b8183526005906005815260ff9260ff604086205416600690600681101561285a5760048114158061284f575b610b1f57508186526004835260408620335f52835260405f20549384612524575b8660015f80516020614b828339815191525580f35b825f526005845260405f20906004855260405f20335f52855260405f205f5b8781106125525750505061250f565b61255c8183613e9d565b5090600182019182548b8160781c166126e05786548c811689811015610b4d578791600482149081612835575b50156126d7575050508254926125bf61271061107c63ffffffff6125b58d61ffff8a60401c169061459d565b9554951685613dfa565b60ff60781b19909416600160781b1781555f89815260088b526040902080546125e9908490613e0d565b9055885f5260098a5260405f2060018060401b0390818354165f528b5260405f20612615848254613e0d565b9055895f52600a8b5260405f2061262d868254613e0d565b9055895f52600b8b5260405f209154165f52895260405f20612650848254613e0d565b90556007546001600160a01b0316803b156111c45761268e935f9183838c60405198899586948593631fabc62960e31b855233903060048701613ee7565b03925af19283156111b9576001936126c8575b506040519082825289820152875f80516020614c6283398151915260403393a35b01612543565b6126d190613ca4565b8c6126a1565b949194146126eb575b5050600191506126c2565b61271061271163ffffffff61270761ffff8860401c168d61459d565b9454941684613dfa565b0461271c8382613e0d565b60ff60781b19909516600160781b1782555f8a815260088c52604090208054612746908390613e0d565b9055895f5260098b5260405f209060018060401b0391828454165f528c5261277360405f20918254613e0d565b9055895f52600a8b5260405f2061278b868254613e0d565b9055895f52600b8b5260405f209154165f52895260405f206127ae848254613e0d565b90556007546001600160a01b0316803b156111c4576127ec935f9183838c604051988995869485936321d2aaf360e11b855233903060048701613ee7565b03925af19283156111b957600193612826575b506040519082825289820152875f80516020614a2283398151915260403393a38b806126e0565b61282f90613ca4565b8c6127ff565b60081c6001600160401b039081169085161490505f612589565b5060058114156124ee565b634e487b7160e01b87526021600452602487fd5b823461030c578060031936011261030c576007546040516001600160a01b039091168152602090f35b823461030c57604036600319011261030c576004356128b4613c48565b6128bd82613fd5565b335f9081525f80516020614be283398151915260205260409020545f80516020614cc28339815191529060ff16156129c557506128f981614421565b818352600560205260ff604084205416600681101561139b576001811415806129bc575b612997575060607f4574f9eec81dc6826c2d5b08e1292b2b3ad2700b73ad81bb4f24bf90f8296ce19183855260036020526040852061295b8561402e565b61ffff600261296a8589614489565b93019216918261ffff198254161790556040519263ffffffff80921684521660208301526040820152a280f35b6040516327c6314f60e11b815260048101849052606491610cf4906024830190613c97565b5080151561291d565b6044906040519063e2517d3f60e01b82523360048301526024820152fd5b823461030c578060031936011261030c57602060ff5f80516020614b4283398151915254166040519015158152f35b823461030c578060031936011261030c577f00000000000000000000000000000000000000000000000000000000000000006001600160a01b03163003612a6a5760206040515f805160206149c28339815191528152f35b60405163703e46dd60e11b8152600490fd5b823461030c578060031936011261030c57335f9081525f805160206149e283398151915260205260409020545f80516020614a628339815191529060ff16156129c55750612ac86143ea565b5f80516020614b42833981519152600160ff198254161790557f62e78cea01bee320cd4e420270b5ea74000d11b0c9f74754ebdbfc544b05a2586020604051338152a180f35b823461030c578060031936011261030c5760206040515f80516020614a028339815191528152f35b82604036600319011261030c57612b4b613c1c565b60249182356001600160401b03811161069d573660238201121561069d57612b7c9036908581600401359101613d46565b6001600160a01b037f00000000000000000000000000000000000000000000000000000000000000008116308114908115612d5b575b50612a6a57335f9081525f805160206149a2833981519152602090815260409091205490919060ff1615612d3e578416936040516352d1902d60e01b81528281600481895afa859181612d0b575b50612c1d57604051634c9c8ce360e01b8152600481018790528790fd5b8590875f805160206149c283398151915291828103612cf65750833b15612ce0575080546001600160a01b0319168217905560405185917fbc7cd75a20ee27fd9adebab32041f755214dbc6bffa90cc0225b39da2e5c2d3b8380a2845115612cc3575080848461088c96519101845af4903d15612cba573d612c9e81613d2b565b90612cac6040519283613d08565b81528581943d92013e61489e565b6060925061489e565b935050505034612cd1575080f35b63b398979f60e01b8152600490fd5b604051634c9c8ce360e01b815260048101849052fd5b60405190632a87526960e21b82526004820152fd5b9091508381813d8311612d37575b612d238183613d08565b81010312612d3357519088612c00565b8580fd5b503d612d19565b60405163e2517d3f60e01b81523360048201525f81880152604490fd5b9050815f805160206149c28339815191525416141586612bb2565b823461030c57602036600319011261030c576040602091600435612d9981613fd5565b8152600883522054604051908152f35b823461030c57604036600319011261030c57600435602480356001600160401b03808211610ab25736602383011215610ab2578160040135908111610ab25736838284010111610ab257612dfc84613fd5565b612e04613f72565b835f52600560205260405f2080549060ff821691600683101580612f105760018414159081612f03575b81612edf575b50612ebc575f80516020614a4283398151915260407f4c4561c5b0048424071c1115e9f1e325486e21c21333d968f21097b7b72d12ad97969481969460058b9560ff1916179055612e8782518092613c97565b60056020820152a28083519485936020855282602086015201848401378181018301879052601f01601f19168101030190a280f35b6040516327c6314f60e11b815260048101889052606490611cbe81890186613c97565b9050612ef057600383141589612e34565b85634e487b7160e01b5f5260216004525ffd5b505060028314155f612e2e565b86634e487b7160e01b5f5260216004525ffd5b823461030c57602036600319011261030c576040906004358160808451612f4981613cb7565b82815282602082015282868201528260608201520152612f6881613fd5565b815260056020522060405190612f7d82613cb7565b80549160ff8316916006831015610b4d5760a09383835260018060401b03916020840190838360081c16825264ffffffffff938492608060016040890194868860481c1686528660608b019860701c16885201549701968752612fe36040518099613c97565b511660208701525116604085015251166060830152516080820152f35b823461030c578060031936011261030c57613019613f72565b5f80516020614b42833981519152805460ff8116156130655760ff191690557f5db9ee0a495bf2e6ff9c91a7834c1ba4fdd244a5e8aa4e537bd38aeae4b073aa6020604051338152a180f35b604051638dfc202b60e01b8152600490fd5b823461030c57608036600319011261030c57613091613c1c565b604435906001600160401b03821682036111c4576130b0602435613fd5565b6130bb6024356143a1565b6130c36143ea565b335f9081527fe8b78168ec8e2131dc4e1d7c2dfefc344af84453ab10dcca54b267514c8ca32260205260409020545f80516020614c828339815191529060ff16156129c557506007546001600160a01b03161561187a5760643515611868576024355f52600360205260405f209161ffff60028401541680156134865761314c8260243561406b565b620186a08060643510613466575063ffffffff61317161316b83613ffa565b8661400d565b90549060031b1c169061271061318983606435613dfa565b0461319660643582613e0d565b91821561344d576024355f52600460205260405f2060018060a01b0387165f5260205260405f2090604051916131cb83613cb7565b6064358352602083019160018060401b0388168352604084019081526060840164ffffffffff4216815260808501925f84528054600160401b8110156117415761321a91600182018155613e9d565b95909561172e5761326e95600191518155019360018060401b0390511684549261ffff60401b905160401b169164ffffffffff60501b905160501b169260018060781b031916171717825551151590613eca565b6024355f526005602052600160405f200161328c6064358254614414565b90556024355f52600860205260405f206132a7828254614414565b90556024355f52600960205260405f2060018060401b0385165f526020526132d460405f20918254614414565b90556024355f52600a60205260405f206132ef828254614414565b90556024355f52600b60205260405f2060018060401b0384165f5260205260405f2061331c828254614414565b90556024355f52600c60205260405f206133396064358254614414565b90556024355f52600d60205260405f2060018060401b0384165f5260205260405f206133686064358254614414565b90556007546001600160a01b0316803b156111c457604051631613163360e11b8152915f9183918290849082906133aa906064358c6024353060048701613ee7565b03925af180156111b95761343e575b506024355f52600460205260405f2060018060a01b0384165f5260205260405f2054935f198501948511611e8a57600201546040805195865260643560208701526001600160401b0390931692850192909252606084015261ffff1660808301526001600160a01b031690602435905f80516020614b628339815191529060a090a380f35b61344790613ca4565b856133b9565b604051631a048a7f60e11b815260248035600483015290fd5b604490604051906378e030db60e01b825260643560048301526024820152fd5b60405162bc17d160e31b815260248035600483015290fd5b823461030c57602036600319011261030c5760a090600435906134c082613fd5565b818152603260205260408082209160056020522090549163ffffffff60016134e984549361402e565b930154926040519485526135036020860160ff8516613c97565b16604084015260081c6001600160401b031660608301526080820152f35b823461030c578060031936011261030c5760206040515f80516020614b028339815191528152f35b823461030c57604036600319011261030c57613563613c32565b336001600160a01b0382160361357f5761088c90600435614322565b60405163334bd91960e11b8152600490fd5b823461030c578060031936011261030c5760206040515f80516020614bc28339815191528152f35b823461030c57604036600319011261030c5761088c6004356135d9613c32565b908084525f80516020614ac28339815191526020526135fe6001604086200154613fa7565b6142b2565b823461030c578060031936011261030c576020604051620186a08152f35b823461030c57602036600319011261030c576001604060209260043581525f80516020614ac28339815191528452200154604051908152f35b82346111c45760403660031901126111c457600435613677613c81565b61368082613fd5565b335f9081527f756534422b3cb82a54d88d2dca71cfb1a3297222856e6ddc952d9ca5a7fc4b8860209081526040909120545f805160206149228339815191529060ff16156129c55750825f526005815260405f2060ff8154166006811015610b4d576003810361386f57506136f5838561406b565b6136ff8382613e1a565b64ffffffffff9061371282421682613e3f565b805460ff191660041781555f858152600a8452604080822054600b86528183206001600160401b0390971680845296865291205461374f91613e0d565b855f526008845261377660405f20546009865260405f20875f52865260405f205490613e0d565b90865f52600c855261379e60405f2054600d875260405f20885f52875260405f205490613e0d565b91875f52600a865260405f206137b5838254613e0d565b9055875f52600886526137cd60405f20918254613e0d565b90556007546001600160a01b031691823b156111c45760845f928360405195869485936309da1e8d60e21b85523060048601528d6024860152604485015260648401525af180156111b957613844575b50915f80516020614c4283398151915293916040935460701c16908351928352820152a280f35b604093919650916138635f80516020614c428339815191529593613ca4565b5f96919350919361381d565b6040516327c6314f60e11b815260048101869052606491610ec3906024830190613c97565b346111c4576138a236613c6b565b906138ac81613fd5565b63ffffffff6138ba8261402e565b169081156138e35760206138db846127106138d58683613dfa565b04613e0d565b604051908152f35b6024906040519062bc17d160e31b82526004820152fd5b346111c4575f3660031901126111c4576006546040516001600160a01b039091168152602090f35b346111c4575f3660031901126111c45760206040515f80516020614cc28339815191528152f35b346111c45760803660031901126111c457600435613965613c48565b9061396e613c5b565b9160643560ff81168091036111c457613985613f72565b61398e82614421565b60048111613aad5761399f8361474f565b91600254945f198614611e8a576001860160025564ffffffffff94604051916139c783613cb7565b5f8352602094858401965f88526040850194894216865260608101985f8a52608082015f81528c5f5260058a5260405f209251916006831015610b4d575f80516020614ca28339815191529c613aa29c611e649a611da4613a2e94611d956001988a613e64565b519101556001604051613a4081613cd2565b85815288810194820b85526040810193845260ff60608201931683528b5f526032895260405f20905181550192519161ffff63ff00000062ff00008654935160101b16935160181b1693169063ffffffff19161717179055611e448388614489565b9216908301520390a2005b6024906040519063fef0e19760e01b82526004820152fd5b346111c45760203660031901126111c457613ade613c1c565b613ae6613f72565b600680546001600160a01b0319166001600160a01b039290921691821790557f9317e3e59b11620f482b4bb292374da6e5cb9e7ef23cf3f121cacca9a5428f785f80a2005b346111c45760203660031901126111c4576020613b52600435613b4d81613fd5565b61402e565b63ffffffff60405191168152f35b346111c45760203660031901126111c45760043563ffffffff60e01b81168091036111c457602090637965db0b60e01b8114908115613ba5575b506040519015158152f35b6301ffc9a760e01b14905082613b9a565b346111c45760203660031901126111c457613bcf613c1c565b613bd7613f72565b600780546001600160a01b0319166001600160a01b039290921691821790557fe57f71636571365571c0eaeaeb54e1d9e0065804f056a57a2a29448524f7d18a5f80a2005b600435906001600160a01b03821682036111c457565b602435906001600160a01b03821682036111c457565b6024359063ffffffff821682036111c457565b604435908160010b82036111c457565b60409060031901126111c4576004359060243590565b602435906001600160401b03821682036111c457565b906006821015610b4d5752565b6001600160401b03811161174157604052565b60a081019081106001600160401b0382111761174157604052565b608081019081106001600160401b0382111761174157604052565b604081019081106001600160401b0382111761174157604052565b601f909101601f19168101906001600160401b0382119082101761174157604052565b6001600160401b03811161174157601f01601f191660200190565b929192613d5282613d2b565b91613d606040519384613d08565b8294818452818301116111c4578281602093845f960137010152565b90600182811c92168015613daa575b6020831014613d9657565b634e487b7160e01b5f52602260045260245ffd5b91607f1691613d8b565b5f5b838110613dc55750505f910152565b8181015183820152602001613db6565b90602091613dee81518092818552858086019101613db4565b601f01601f1916010190565b81810292918115918404141715611e8a57565b91908203918211611e8a57565b8054610100600160481b03191660089290921b610100600160481b0316919091179055565b805464ffffffffff60701b191660709290921b64ffffffffff60701b16919091179055565b906006811015610b4d5760ff80198354169116179055565b9081526001600160a01b039091166020820152604081019190915260600190565b8054821015613eb6575f5260205f209060011b01905f90565b634e487b7160e01b5f52603260045260245ffd5b805460ff60781b191691151560781b60ff60781b16919091179055565b919594939060809360a084019760018060a01b038093168552602085015216604083015260608201520152565b6001600160a01b03908116908115613f5a575f8051602061498283398151915280546001600160a01b031981168417909155165f80516020614a828339815191525f80a3565b604051631e4fbdf760e01b81525f6004820152602490fd5b335f9081525f8051602061494283398151915260205260409020545f80516020614ba28339815191529060ff16156129c55750565b805f525f80516020614ac283398151915260205260405f20335f5260205260ff60405f205416156129c55750565b600254811015613fe25750565b6024906040519063113b162160e31b82526004820152fd5b61ffff9081165f190191908211611e8a57565b9190918054831015613eb6575f52601c60205f208360031c019260021b1690565b5f52600360205260405f2061ffff60028201541680156140655763ffffffff916114c161405a92613ffa565b90549060031b1c1690565b50505f90565b90815f52603260205260ff600160405f20015460181c169060018060401b031681811161409757505050565b60649350604051926382a2dff360e01b8452600484015260248301526044820152fd5b6001600160a01b03165f8181525f805160206149a283398151915260205260409020545f80516020614ac28339815191529060ff16614065575f805260205260405f20815f5260205260405f20600160ff1982541617905533905f5f805160206149028339815191528180a4600190565b6001600160a01b03165f8181525f8051602061494283398151915260205260409020545f80516020614ba283398151915291905f80516020614ac28339815191529060ff166141ab57825f5260205260405f20815f5260205260405f20600160ff1982541617905533915f805160206149028339815191525f80a4600190565b5050505f90565b6001600160a01b03165f8181525f805160206149e283398151915260205260409020545f80516020614a6283398151915291905f80516020614ac28339815191529060ff166141ab57825f5260205260405f20815f5260205260405f20600160ff1982541617905533915f805160206149028339815191525f80a4600190565b6001600160a01b03165f8181525f80516020614be283398151915260205260409020545f80516020614cc283398151915291905f80516020614ac28339815191529060ff166141ab57825f5260205260405f20815f5260205260405f20600160ff1982541617905533915f805160206149028339815191525f80a4600190565b90815f525f80516020614ac28339815191528060205260405f209160018060a01b031691825f5260205260ff60405f205416155f146141ab57825f5260205260405f20815f5260205260405f20600160ff1982541617905533915f805160206149028339815191525f80a4600190565b90815f525f80516020614ac28339815191528060205260405f209160018060a01b031691825f5260205260ff60405f2054165f146141ab57825f5260205260405f20815f5260205260405f2060ff19815416905533917ff6391f5c32d9c69d2a47ea670b442974b53935d1edc7fd64eb21e047a839171b5f80a4600190565b805f52600560205260ff60405f2054166006811015610b4d57600181036143c6575050565b90610cf4606492604051926327c6314f60e11b845260048401526024830190613c97565b60ff5f80516020614b42833981519152541661440257565b60405163d93c066560e01b8152600490fd5b91908201809211611e8a57565b63ffffffff8080600e541680155f146144835750620f4240925b16916127118084108015614478575b6144545750505050565b6064945060405193637231c80760e01b855260048501526024840152166044820152fd5b50828216841161444a565b9261443b565b919091805f52600360205260405f2090600182019163ffffffff80951694855f528360205261ffff928360405f2054168061452d575082549061fffe8210156145155750600160401b811015611741578060016144e9920184558361400d565b819291549060031b9188831b921b19161790555416925f5260205260405f208261ffff19825416179055565b60249060405190634d3deb8160e01b82526004820152fd5b96505050505050565b5f80516020614b8283398151915260028154146145535760029055565b604051633ee5aeb560e01b8152600490fd5b5f80516020614982833981519152546001600160a01b0316330361458557565b60405163118cdaa760e01b8152336004820152602490fd5b61ffff8216156140655763ffffffff9161405a915f5260036020526114c160405f2091613ffa565b5f80516020614962833981519152811461472c575f80516020614bc28339815191528114614703575f80516020614a0283398151915281146146e0575f80516020614c0283398151915281146146b5575f80516020614ae2833981519152811461468a575f80516020614b028339815191521461465f5760405161464881613ced565b60078152662aa725a727aba760c91b602082015290565b60405161466b81613ced565b600f81526e2424a3a422a9aa2fa8aaa0a92a22a960891b602082015290565b5060405161469781613ced565b600e81526d46495253545f544f5f53434f524560901b602082015290565b506040516146c281613ced565b600e81526d28aaa0a92a22a92faba4a72722a960911b602082015290565b506040516146ed81613ced565b600681526514d41491505160d21b602082015290565b5060405161471081613ced565b600c81526b544f54414c5f504f494e545360a01b602082015290565b5060405161473981613ced565b60068152652ba4a72722a960d11b602082015290565b5f8051602061496283398151915281146147e5575f80516020614bc283398151915281146147e5575f80516020614a0283398151915281146147e5575f80516020614c0283398151915281146147e5575f80516020614ae283398151915281146147e5575f80516020614b0283398151915281146147df5760249060405190630d330d2760e01b82526004820152fd5b50600390565b50600190565b926020915f9160405190848201926323b872dd60e01b845260018060a01b039687809216602485015216604483015260648201526064815261482c81613cb7565b519082865af1156111b9575f513d61486757508082163b155b61484d575050565b604051635274afe760e01b81529116600482015260249150fd5b60011415614845565b60ff5f80516020614c228339815191525460401c161561488c57565b604051631afcd79f60e31b8152600490fd5b906148c557508051156148b357602081519101fd5b60405163d6bda27560e01b8152600490fd5b815115806148f8575b6148d6575090565b604051639996b31560e01b81526001600160a01b039091166004820152602490fd5b50803b156148ce56fe2f8788117e7eff1d82e926ec794901d17c78024a50270940304540a733656f0d92a19c77d2ea87c7f81d50c74403cb2f401780f3ad919571121efe2bdb427eb1b16e88c42fd4e48df2dd6a2eabd6bc9aec654ec170056b470819f8892cc6431c97e9cffa40fd62a888d33fedb0550a0c24b2dab7e942dd2c90f3dc402fe1d9d09016d09d72d40fdae2fd8ceac6b6234c7706214fd39c1cd1e609a0528c199300b7db2dd08fcb62d0c9e08c51941cae53c267786a0b75803fb7960902fc8ef97d360894a13ba1a3210667c828492db98dca3e2076cc3735a920a3ca505d382bbc75442b0a96088b5456bc4ed01394c96a4feec0f883c9494257d76b96ab1c9b6bd88b64b65dd27d7ee406fd2a617824a69990aac83ed75494fd137e43d8007cadaba4210cad11f1112f31ba136a61cdc0f6ab4c2b478da8c93eec1d9769e97a893fda72f0a1439a9047288d6140aad7d37a71b660b5229783c8a637ebd0631c0b65d7a28e3265b37a6474929f336521b332c1681b933f6cb9f3376673440d862a8be0079c531659141344cd1fd0a4f28419497f9722a3daafe3b4186f6b6457e0b88a0148d0785022bedeff8dc0f55ccbb709825d7109265ebe5ca3325f191b4202dd7bc7dec4dceedda775e58dd541e08a116c6c53815c0bd028192f7b626800c21332dfdbce391fb79bb93cb3bdd389a3887e8ed803e48301c3b92f7095d3f162aa64c00e0b702d538c65ffc672e53ec0721fe8dd54c3223175a2051bd2e8f4b10e2d527612073b26eecdfd717e6a320cf44b4afac2b0732d9fcbe2b7fa0cf6cd5ed15c6e187e77e9aee88184c21f4f2182ab5827cb3b7e07fbedcd63f033001e20859988181a316b2a230ed2b74a09a98fdec16686057cdbb48def725ff9a49b779b17422d0df92223018b32b4d1fa46e071723d6817e2486d003becc55f00a49807205ce4d355092ef5a8a18f56e8913cf4a201fbe287825b095693c21775c48889a7f50eeb47325f8695e80998d47bc82fe412832d723b6bf2a0773c06222310b325392e40fb40cbb815e26771d7a037d125fab58e321be31508c0e7cabba73a6ddf2a0b1203f387e9ac295532c1f565ac9e2c5919248bcb5fa7c41bb627f0c57e16840df040f15088dc2f81fe391c3923bec73e23a9662efc9c229c6a0064ee7dc32a3ab72dbd217f88cab8b17f7d9024f6d8bd70a962cd5f1cbd10abafa5df5a195b51346b41c715be6896ddef8de524059309701b83d22c7e4ec1aa4ca903a5200a3509510da557615994ebd7dbb3d8b122c2190f01477c128da2cfcb4a21a24162d65cb7c74d895d7c8c53745fcf2fddf8d714fc764cf32c34f296880acfcb0f3e3aaa7ab6a53fd6a206e00781cfe5360bc764438c214cb50c97b711a2646970667358221220b3bb2216070f905d5d99c3d6d30cb45e4cdbf71c6e0e9567068fbb615fd6f2a164736f6c6343000818003360a08060405234620000d157306080527ff0c57e16840df040f15088dc2f81fe391c3923bec73e23a9662efc9c229c6a009081549060ff8260401c16620000c257506001600160401b036002600160401b0319828216016200007c575b604051614b539081620000d68239608051818181612a770152612bb00152f35b6001600160401b031990911681179091556040519081527fc7f505b2f371ae2175ee4913f4499e1f2633a7b5936321eed1cdaeb6115181d290602090a15f80806200005c565b63f92ee8a960e01b8152600490fd5b5f80fdfe60806040526004361015610011575f80fd5b5f60e05f35811c9081630187702014613a5057816301ffc9a7146139fa5781630e75a18c146139c55781630f5a9d011461395f57816310dc30fd1461393857816311eac8551461391057816319d0ec1f146138aa5781631a095c6e14613670578163248a9ca3146136375781632cfe63a5146136195781632e71b708146135f15781632f2ff15d146135a757816336568abe1461355f5781633ec79193146134dc5781633eccfc96146130a15781633f4ba83a1461302a57816340b16c1e14612f4d578163456051f114612dd35781634644161f14612da05781634f1ef28614612b6057816351858e2714612ace57816352d1902d14612a645781635c975abb14612a3557816361bd2ca9146128e9578163665a11ca146128c05781636930fd2a146124e45781636bc98ba3146124c75781636bcaa9911461249f578163715018a61461244957816371738f8c146123be57816375b238fc1461239657816378fab2601461236e5781637ab4339d14611eca5781637c0078a414611ea257816383e2e9df14611ca15781638527d58f14611a9c5781638723eccf14611a745781638da5cb5b14611a3f57816391d14854146119e9578163931b54661461193f57816397576c6d146118fa5781639ebfee811461183d578163a217fddf14611821578163a4b8195c14611344578163a890c99714610ecf578163ad3cb1cc14610e89578163ae07d05114610e6c578163ae41809514610db0578163ba26901514610cc5578163baa2675714610c0b578163bef2a6a014610b46578163c34902631461089d578163c6886db414610875578163d547741f14610827578163dd19ed0a146107ff578163e570d084146107d7578163e63ab1e9146107af578163ec97908214610791578163f014a10814610773578163f2fde38b14610746578163f50ee3d51461052c578163f6d105c21461047657508063fa744dd3146103035763ff40596c146102dd575f80fd5b34610300578060031936011261030057602063ffffffff600e5416604051908152f35b80fd5b50346103005760403660031901126103005760043590610321613acc565b9161032b81613e2c565b81526004602090815260408083206001600160a01b039094165f90815293825290922080546001600160401b039384821161046257929060405190610375858260051b0183613b64565b8082528482018094845285842084915b83831061040057505050506040519380850191818652518092526040850193925b8281106103b35785850386f35b8351805186528083015188168684015260408082015161ffff169087015260608082015164ffffffffff169087015260809081015115159086015260a090940193928101926001016103a6565b60028860019260409a97989a5161041681613b2e565b8554815260ff8d868801549081168584015261ffff8160401c16604084015264ffffffffff8160501c16606084015260781c161515608082015281520192019201919096949396610385565b634e487b7160e01b84526041600452602484fd5b9050346105285760203660031901126105285760043561049581613e2c565b808352603260205260408084209360056020522060016104b5855461449c565b9401549163ffffffff60016104cb845493613e85565b9301549260ff6104e560405198888a998a52890190613c44565b958060010b602089015260101c1660408701526105086060870160ff8516613b0e565b16608085015260081c6001600160401b031660a084015260c08301520390f35b5080fd5b9050346105285760209081600319360112610742579060043561054e81613e2c565b83526003815280604084209260405180938491818754918281520190819789528289209489915b8060078401106106d1576105d5965492858282106106bb575b8282106106a3575b82821061068a575b828210610671575b828210610658575b82821061063f575b828210610626575b5010610619575b5050905095929493950385613b64565b60405193838594850191818652518092526040850193925b8281106105fc57505050500390f35b835163ffffffff16855286955093810193928101926001016105ed565b1c81520183905f806105c5565b6001919563ffffffff8660c01c168152019401856105be565b6001919563ffffffff8660a01c168152019401856105b6565b6001919563ffffffff8660801c168152019401856105ae565b6001919563ffffffff8660601c168152019401856105a6565b6001919563ffffffff8660401c1681520194018561059e565b6001919563ffffffff86831c16815201940185610596565b6001919563ffffffff861681520194018561058e565b926008929550600191945061010090875463ffffffff808216835280828c1c168b840152808260401c16604084015260608183821c169084015260808183821c169084015260a08183821c169084015260c09082821c1690830152861c868201520195019301859287949592610575565b8280fd5b823461030057602036600319011261030057610770610763613ab6565b61076b6143bc565b613d6b565b80f35b82346103005780600319360112610300576020604051620f42408152f35b82346103005780600319360112610300576020600254604051908152f35b823461030057806003193601126103005760206040515f8051602061491e8339815191528152f35b823461030057806003193601126103005760206040515f805160206149be8339815191528152f35b823461030057806003193601126103005760206040515f8051602061481e8339815191528152f35b823461030057604036600319011261030057610871600435610847613acc565b908084525f8051602061497e83398151915260205261086c6001604086200154613dfe565b614179565b5080f35b823461030057806003193601126103005760206040515f80516020614ade8339815191528152f35b8234610300576108ac36613ae2565b906108b561438d565b6108be81613e2c565b805f5260206005815260ff60405f2054166006811015610b325760048103610b0457506108e9614241565b8184526004815260408420335f52815260405f208054841015610ae4578361091091613cf4565b5090600182019182549260ff8460781c16610ac7578487526005835260408720546001600160401b03929060081c831685841603610aa657906109ca88939261271061097561096661ffff8a60401c168b61461f565b63ffffffff8454911690613c69565b0496600160781b9060ff60781b1916178355878552600886526040852061099d888254613c7c565b90558785526009865260408520848454165f52865260405f206109c1888254613c7c565b90555486613c7c565b91868452600a8552604084206109e1848254613c7c565b9055868452600b8552604084209154165f52835260405f20610a04828254613c7c565b90556007546001600160a01b0316803b1561074257604051631fabc62960e31b81529183918391829084908290610a42908b338e3060048701613d3e565b03925af18015610a9b57610a83575b50506040519384528301525f80516020614abe83398151915260403393a360015f80516020614a1e8339815191525580f35b610a8c90613b1b565b610a97578486610a51565b8480fd5b6040513d84823e3d90fd5b604051638bf5a6c560e01b815280610ac389338a60048501613cd3565b0390fd5b6040516308c52d4160e11b815280610ac388338960048501613cd3565b5050610ac3604051928392635b834b8f60e11b8452339060048501613cd3565b6040516327c6314f60e11b815260048101849052606491610b29906024830190613b0e565b60046044820152fd5b634e487b7160e01b5f52602160045260245ffd5b82346103005780600319360112610300576040515f60018260015492610b6b84613beb565b92838352602094856001821691825f14610beb575050600114610bae575b50610b9692500383613b64565b610baa604051928284938452830190613c44565b0390f35b84915060015f52815f20905f915b858310610bd3575050610b96935082010185610b89565b80548389018501528794508693909201918101610bbc565b60ff191685820152610b9695151560051b8501019250879150610b899050565b823461030057602036600319011261030057600435610c2981613e2c565b610c31613dc9565b805f52600560205260405f2080549060ff8216916006831015610b325782151580610cba575b610c8d5760ff19166001179055604080515f805160206148fe83398151915292610c82908290613b0e565b60016020820152a280f35b6040516327c6314f60e11b815260048101859052606490610cb16024820186613b0e565b60016044820152fd5b506002831415610c57565b823461030057606036600319011261030057600435610ce2613acc565b604060443593610cf184613e2c565b83815260046020522060018060a01b0382165f5260205260405f20908154841015610d92575060c092610d2391613cf4565b509060ff63ffffffff610d4360018501549361ffff8560401c169061461f565b9354931691612710610d558486613c69565b049260405194855260018060401b0382166020860152604085015264ffffffffff8160501c16606085015260781c161515608083015260a0820152f35b82610ac385604051938493635b834b8f60e11b855260048501613cd3565b823461030057602036600319011261030057600435610dce81613e2c565b610dd6613dc9565b805f52600560205260405f2080549060ff8216916006831015610b3257600183141580610e61575b610e345760ff19166003179055604080515f805160206148fe83398151915292610e29908290613b0e565b60036020820152a280f35b6040516327c6314f60e11b815260048101859052606490610e586024820186613b0e565b60036044820152fd5b506002831415610dfe565b823461030057806003193601126103005760206040516127118152f35b8234610300578060031936011261030057610baa604051610ea981613b49565b60058152640352e302e360dc1b6020820152604051918291602083526020830190613c44565b823461030057606036600319011261030057602435604435610eef61438d565b610efa600435613e2c565b610f02614241565b6004358352600560205260ff604084205416600681101561133057600481141580611325575b6112ff57506004358352600460205260408320335f5260205260405f2054908181115f146112f857505b808210610f6f575b8260015f80516020614a1e8339815191525580f35b6004355f52600560205260405f2091600460205260405f20335f5260205260405f20905b828110610fa1575050610f5a565b610fab8183613cf4565b5090600182015460ff8160781c1661116b578554600660ff82161015610b3257600460ff821614806112de575b1561115d575050600182015491610ff861ffff8460401c1660043561461f565b9061101961271061101163ffffffff8454951685613c69565b049283613c7c565b60ff60781b19909416600160781b1760018201556004355f908152600860205260409020805461104a908490613c7c565b90556004355f52600960205260405f2060018060401b0390816001840154165f5260205260405f2061107d848254613c7c565b90556004355f52600a60205260405f20611098868254613c7c565b90556004355f52600b602052600160405f20920154165f5260205260405f206110c2848254613c7c565b90556007546001600160a01b0316803b15611159576111015f94918592604051968780948193631fabc62960e31b835288336004353060048701613d3e565b03925af192831561114e5760019361113f575b5060405190828252602082015233905f80516020614abe833981519152604060043592a35b01610f93565b61114890613b1b565b87611114565b6040513d5f823e3d90fd5b5f80fd5b90929060ff16600514611175575b5060019150611139565b61118861ffff8460401c1660043561461f565b9061271061119e63ffffffff8354941684613c69565b046111a98382613c7c565b60ff60781b19909516600160781b1760018301556004355f90815260086020526040902080546111da908390613c7c565b90556004355f52600960205260405f209060018060401b0391826001850154165f5260205261120e60405f20918254613c7c565b90556004355f52600a60205260405f20611229868254613c7c565b90556004355f52600b602052600160405f20920154165f5260205260405f20611253848254613c7c565b90556007546001600160a01b0316803b15611159576112925f949185926040519687809481936321d2aaf360e11b835288336004353060048701613d3e565b03925af192831561114e576001936112cf575b5060405190828252602082015233905f805160206148be833981519152604060043592a38661116b565b6112d890613b1b565b876112a5565b506001600160401b03828116600883901c90911614610fd8565b9050610f52565b6040516327c6314f60e11b81526004803590820152606491610b29906024830190613b0e565b506005811415610f28565b634e487b7160e01b84526021600452602484fd5b823461030057606036600319011261030057600435611361613af8565b9060443561136e82613e2c565b611377826141f8565b61137f614241565b6007545f936001600160a01b03918216801561180f5783156117fd57845f526020936003855260405f20600281019061ffff9586835416156117e5576113c5868a613ec2565b806006541680156117d3576040516306acb3f760e31b81529489866004818a5afa801561114e5789965f91611795575b506114129061140a6127109b8c921684613c69565b048092613c7c565b968a82611721575b505050506114348582600654168360075416903390614647565b620186a0808610611703575063ffffffff61145c858554169361145685613e51565b90613e64565b90549060031b1c169661146f8887613c69565b0461147a8682613c7c565b9283156116ea578a5f5260048a5260405f20335f528a5260405f2090604051916114a383613b2e565b8883528b83019160018060401b03809b169a8b845260408501918252606085019064ffffffffff4216825260808601935f85528054600160401b8110156116d6576114f391600182018155613cf4565b9690966116c35761153f966001915181550194511684549261ffff60401b905160401b169164ffffffffff60501b905160501b169260018060781b031916171717825551151590613d21565b895f5260058952600160405f200161155887825461426b565b9055895f526008895260405f2061157082825461426b565b9055895f526009895260405f20875f52895261159160405f2091825461426b565b9055885f52600a885260405f206115a983825461426b565b9055885f52600b885260405f20865f52885260405f206115ca83825461426b565b9055885f52600c885260405f206115e286825461426b565b9055885f52600d885260405f20865f52885260405f2061160386825461426b565b905560075416803b1561115957611639915f9186838c60405196879586948593631613163360e11b855233903060048701613d3e565b03925af1801561114e576116b0575b508688526004865260408820335f52865260405f2054975f19890198891161169c57505416936040519687528601526040850152606084015260808301525f805160206149fe83398151915260a03393a380f35b634e487b7160e01b81526011600452602490fd5b6116bb919850613b1b565b5f9689611648565b634e487b7160e01b5f525f60045260245ffd5b634e487b7160e01b5f52604160045260245ffd5b604051631a048a7f60e11b8152600481018c9052602490fd5b85604491604051916378e030db60e01b835260048301526024820152fd5b6040516361d027b360e01b815291829060049082905afa90811561114e575f9161175b575b50611752923390614647565b8b80808a61141a565b90508a81813d831161178e575b6117728183613b64565b8101031261115957519183831683036111595791611752611746565b503d611768565b809297508b8092503d83116117cc575b6117af8183613b64565b8101031261115957519488861686036111595788956114126113f5565b503d6117a5565b604051639554dd1160e01b8152600490fd5b60405162bc17d160e31b8152600481018a9052602490fd5b604051630813eb4360e01b8152600490fd5b60405163b8b5ff1560e01b8152600490fd5b8234610300578060031936011261030057602090604051908152f35b82346103005760203660031901126103005760043563ffffffff80821680920361115957611869613dc9565b811515806118e3575b6118b9577f93e70e5656ae122d798afc18b8341c8562c767d894018b7e4b1f34d319507c6f6040600e549281519084168152846020820152a163ffffffff191617600e5580f35b604051637231c80760e01b8152600481018390526127116024820152620f42406044820152606490fd5b506127118210806118725750620f42408211611872565b8234610300576020366003190112610300576040606091600435815260326020522060ff600182549201546040519283528060010b602084015260101c166040820152f35b82346103005760203660031901126103005760043561195d81613e2c565b611965613dc9565b805f52600560205260405f2080549060ff8216916006831015610b3257600183036119bc5760ff19166002179055604080515f805160206148fe833981519152926119b1908290613b0e565b60026020820152a280f35b6040516327c6314f60e11b8152600481018590526064906119e06024820186613b0e565b60026044820152fd5b8234610300576040366003190112610300576040611a05613acc565b9160043581525f8051602061497e833981519152602052209060018060a01b03165f52602052602060ff60405f2054166040519015158152f35b82346103005780600319360112610300575f805160206147de833981519152546040516001600160a01b039091168152602090f35b823461030057806003193601126103005760206040515f805160206147be8339815191528152f35b823461030057611aab36613ae2565b90611ab461438d565b611abd81613e2c565b805f5260206005815260ff60405f2054166006811015610b325760058103611c7357508184526004815260408420335f52815260405f208054841015610ae45783611b0791613cf4565b5090600182019182549060ff8260781c16610ac7579086915493612710611b4463ffffffff611b3d61ffff8660401c168a61461f565b1687613c69565b04611b4f8682613c7c565b60ff60781b19909316600160781b17825586845260088552604084208054611b78908390613c7c565b905586845260098552604084209060018060401b0391828454165f528652611ba560405f20918254613c7c565b9055868452600a855260408420611bbd848254613c7c565b9055868452600b8552604084209154165f52835260405f20611be0828254613c7c565b90556007546001600160a01b0316803b15610742576040516321d2aaf360e11b81529183918391829084908290611c1e908b338e3060048701613d3e565b03925af18015610a9b57611c5f575b50506040519384528301525f805160206148be83398151915260403393a360015f80516020614a1e8339815191525580f35b611c6890613b1b565b610a97578486611c2d565b6040516327c6314f60e11b815260048101849052606491611c98906024830190613b0e565b60056044820152fd5b823461030057606036600319011261030057600435611cbe613bd8565b906044358060010b809103611e9e57611cd5613dc9565b611cde83614278565b611ce7826143f4565b91600254935f198514611e8a576001850160025564ffffffffff9260405192611d0f84613b2e565b8784526020938481019589875260408201908042168252606083018b815260808401928c84528b8d526005895260408d2094516006811015611e7657916001949391611d9d9360ff80198954169116178755611d74868060401b03809d511688613c89565b51865464ffffffffff60481b191660489190911b64ffffffffff60481b16178655511684613cae565b51910155604051916060830195838710908711176116d6577f4a21a24162d65cb7c74d895d7c8c53745fcf2fddf8d714fc764cf32c34f29688966001611e5094611e6a9860405284815287810193845260ff60408201931683528a8c526032885260408c20905181550191519061ffff62ff00008454925160101b1692169062ffffff191617179055611e3083886142e0565b508688526003845260408820600201805461ffff1916600117905561449c565b9163ffffffff604051948594604086526040860190613c44565b9216908301520390a280f35b634e487b7160e01b8e52602160045260248efd5b634e487b7160e01b86526011600452602486fd5b8380fd5b823461030057806003193601126103005760206040515f805160206148de8339815191528152f35b8234610300576040366003190112610300576004356001600160401b038111610528573660238201121561052857611f0c903690602481600401359101613ba2565b90611f15613acc565b5f80516020614a7e83398151915254906001600160401b0382168015908161235e575b6001149081612354575b15908161234b575b50612339576001600160401b031982166001175f80516020614a7e83398151915255604082901c60ff1615612311575b60405190611f8782613b49565b60088252671193d3d51090531360c21b6020830152611fa46146cc565b611fac6146cc565b611fb46146cc565b611fbd81613d6b565b611fc56146cc565b611fcd6146cc565b611fd56146cc565b611fdd6146cc565b60015f80516020614a1e83398151915255611ff66146cc565b611fff81613f11565b5061200981613f82565b5061201381614009565b5061201d81614089565b5084516001600160401b03811161224c576120388554613beb565b601f81116122cc575b50806020601f821160011461226b578691612260575b508160011b915f199060031b1c19161784555b8151946001600160401b03861161224c57612086600154613beb565b601f81116121fc575b50602095601f8111600114612178576120e85f8051602061495e833981519152928261210b93899a60ff9a9161216d575b508160011b915f199060031b1c1916176001555b602060405192828480945193849201613c23565b8101039020926040519182916020835260018060a01b0316956020830190613c44565b0390a360401c161561211a5780f35b60ff60401b195f80516020614a7e83398151915254165f80516020614a7e833981519152557fc7f505b2f371ae2175ee4913f4499e1f2633a7b5936321eed1cdaeb6115181d2602060405160018152a180f35b90508701518b6120c0565b600186525f8051602061499e83398151915296601f198216875b8181106121e457509260018360ff999a6120e89461210b965f8051602061495e83398151915298106121cc575b5050811b016001556120d4565b8901515f1960f88460031b161c191690558b806121bf565b868301518a5560019099019860209283019201612192565b600186525f8051602061499e833981519152601f880160051c81019160208910612242575b601f0160051c01905b818110612237575061208f565b86815560010161222a565b9091508190612221565b634e487b7160e01b85526041600452602485fd5b905086015187612057565b868052602087209150601f198316875b8181106122b45750908360019493921061229c575b5050811b01845561206a565b8801515f1960f88460031b161c191690558780612290565b9192602060018192868d01518155019401920161227b565b85805260208620601f830160051c81019160208410612307575b601f0160051c01905b8181106122fc5750612041565b8681556001016122ef565b90915081906122e6565b6001600160481b031982166001600160401b01175f80516020614a7e83398151915255611f7a565b60405163f92ee8a960e01b8152600490fd5b90501585611f4a565b303b159150611f42565b604084901c60ff16159150611f38565b823461030057806003193601126103005760206040515f8051602061477e8339815191528152f35b823461030057806003193601126103005760206040515f80516020614a3e8339815191528152f35b82346103005780600319360112610300576040515f805490826123e083613beb565b91828252602093600190856001821691825f14610beb57505060011461240d5750610b9692500383613b64565b8491505f8052815f20905f915b858310612431575050610b96935082010185610b89565b8054838901850152879450869390920191810161241a565b82346103005780600319360112610300576124626143bc565b5f805160206147de83398151915280546001600160a01b031981169091555f906001600160a01b03165f8051602061493e8339815191528280a380f35b823461030057806003193601126103005760206040515f805160206147fe8339815191528152f35b823461030057806003193601126103005760206040516127108152f35b823461030057602080600319360112610528576004359061250361438d565b61250c82613e2c565b612514614241565b8183526005906005815260ff9260ff60408620541660069060068110156128ac576004811415806128a1575b610b0457508186526004835260408620335f52835260405f20549384612576575b8660015f80516020614a1e8339815191525580f35b825f526005845260405f20906004855260405f20335f52855260405f205f5b8781106125a457505050612561565b6125ae8183613cf4565b5090600182019182548b8160781c166127325786548c811689811015610b32578791600482149081612887575b50156127295750505082549261261161271061101163ffffffff6126078d61ffff8a60401c169061461f565b9554951685613c69565b60ff60781b19909416600160781b1781555f89815260088b5260409020805461263b908490613c7c565b9055885f5260098a5260405f2060018060401b0390818354165f528b5260405f20612667848254613c7c565b9055895f52600a8b5260405f2061267f868254613c7c565b9055895f52600b8b5260405f209154165f52895260405f206126a2848254613c7c565b90556007546001600160a01b0316803b15611159576126e0935f9183838c60405198899586948593631fabc62960e31b855233903060048701613d3e565b03925af192831561114e5760019361271a575b506040519082825289820152875f80516020614abe83398151915260403393a35b01612595565b61272390613b1b565b8c6126f3565b9491941461273d575b505060019150612714565b61271061276363ffffffff61275961ffff8860401c168d61461f565b9454941684613c69565b0461276e8382613c7c565b60ff60781b19909516600160781b1782555f8a815260088c52604090208054612798908390613c7c565b9055895f5260098b5260405f209060018060401b0391828454165f528c526127c560405f20918254613c7c565b9055895f52600a8b5260405f206127dd868254613c7c565b9055895f52600b8b5260405f209154165f52895260405f20612800848254613c7c565b90556007546001600160a01b0316803b156111595761283e935f9183838c604051988995869485936321d2aaf360e11b855233903060048701613d3e565b03925af192831561114e57600193612878575b506040519082825289820152875f805160206148be83398151915260403393a38b80612732565b61288190613b1b565b8c612851565b60081c6001600160401b039081169085161490505f6125db565b506005811415612540565b634e487b7160e01b87526021600452602487fd5b82346103005780600319360112610300576007546040516001600160a01b039091168152602090f35b823461030057604036600319011261030057600435612906613bd8565b61290f82613e2c565b335f9081525f80516020614a5e83398151915260205260409020545f80516020614afe8339815191529060ff1615612a17575061294b81614278565b818352600560205260ff604084205416600681101561133057600181141580612a0e575b6129e9575060607f4574f9eec81dc6826c2d5b08e1292b2b3ad2700b73ad81bb4f24bf90f8296ce1918385526003602052604085206129ad85613e85565b61ffff60026129bc85896142e0565b93019216918261ffff198254161790556040519263ffffffff80921684521660208301526040820152a280f35b6040516327c6314f60e11b815260048101849052606491610cb1906024830190613b0e565b5080151561296f565b6044906040519063e2517d3f60e01b82523360048301526024820152fd5b8234610300578060031936011261030057602060ff5f805160206149de83398151915254166040519015158152f35b82346103005780600319360112610300577f00000000000000000000000000000000000000000000000000000000000000006001600160a01b03163003612abc5760206040515f8051602061487e8339815191528152f35b60405163703e46dd60e11b8152600490fd5b8234610300578060031936011261030057335f9081525f8051602061489e83398151915260205260409020545f8051602061491e8339815191529060ff1615612a175750612b1a614241565b5f805160206149de833981519152600160ff198254161790557f62e78cea01bee320cd4e420270b5ea74000d11b0c9f74754ebdbfc544b05a2586020604051338152a180f35b82604036600319011261030057612b75613ab6565b60249182356001600160401b038111610528573660238201121561052857612ba69036908581600401359101613ba2565b6001600160a01b037f00000000000000000000000000000000000000000000000000000000000000008116308114908115612d85575b50612abc57335f9081525f8051602061485e833981519152602090815260409091205490919060ff1615612d68578416936040516352d1902d60e01b81528281600481895afa859181612d35575b50612c4757604051634c9c8ce360e01b8152600481018790528790fd5b8590875f8051602061487e83398151915291828103612d205750833b15612d0a575080546001600160a01b0319168217905560405185917fbc7cd75a20ee27fd9adebab32041f755214dbc6bffa90cc0225b39da2e5c2d3b8380a2845115612ced575080848461087196519101845af4903d15612ce4573d612cc881613b87565b90612cd66040519283613b64565b81528581943d92013e6146fa565b606092506146fa565b935050505034612cfb575080f35b63b398979f60e01b8152600490fd5b604051634c9c8ce360e01b815260048101849052fd5b60405190632a87526960e21b82526004820152fd5b9091508381813d8311612d61575b612d4d8183613b64565b81010312612d5d57519088612c2a565b8580fd5b503d612d43565b60405163e2517d3f60e01b81523360048201525f81880152604490fd5b9050815f8051602061487e8339815191525416141586612bdc565b8234610300576020366003190112610300576040602091600435612dc381613e2c565b8152600883522054604051908152f35b823461030057604036600319011261030057600435602480356001600160401b03808211610a975736602383011215610a97578160040135908111610a975736838284010111610a9757612e2684613e2c565b612e2e613dc9565b835f52600560205260405f2080549060ff821691600683101580612f3a5760018414159081612f2d575b81612f09575b50612ee6575f805160206148fe83398151915260407f4c4561c5b0048424071c1115e9f1e325486e21c21333d968f21097b7b72d12ad97969481969460058b9560ff1916179055612eb182518092613b0e565b60056020820152a28083519485936020855282602086015201848401378181018301879052601f01601f19168101030190a280f35b6040516327c6314f60e11b815260048101889052606490611c9881890186613b0e565b9050612f1a57600383141589612e5e565b85634e487b7160e01b5f5260216004525ffd5b505060028314155f612e58565b86634e487b7160e01b5f5260216004525ffd5b8234610300576020366003190112610300576040906004358160808451612f7381613b2e565b82815282602082015282868201528260608201520152612f9281613e2c565b815260056020522060405190612fa782613b2e565b80549160ff8316916006831015610b325760a09383835260018060401b03916020840190838360081c16825264ffffffffff938492608060016040890194868860481c1686528660608b019860701c1688520154970196875261300d6040518099613b0e565b511660208701525116604085015251166060830152516080820152f35b8234610300578060031936011261030057613043613dc9565b5f805160206149de833981519152805460ff81161561308f5760ff191690557f5db9ee0a495bf2e6ff9c91a7834c1ba4fdd244a5e8aa4e537bd38aeae4b073aa6020604051338152a180f35b604051638dfc202b60e01b8152600490fd5b8234610300576080366003190112610300576130bb613ab6565b604435906001600160401b0382168203611159576130da602435613e2c565b6130e56024356141f8565b6130ed614241565b335f9081527fe8b78168ec8e2131dc4e1d7c2dfefc344af84453ab10dcca54b267514c8ca32260205260409020545f80516020614ade8339815191529060ff1615612a1757506007546001600160a01b03161561180f57606435156117fd576024355f52600360205260405f209161ffff60028401541680156134c45761317682602435613ec2565b620186a080606435106134a4575063ffffffff61319b61319583613e51565b86613e64565b90549060031b1c16906127106131b383606435613c69565b046131c060643582613c7c565b91821561348b576024355f52600460205260405f2060018060a01b0387165f5260205260405f2090604051916131f583613b2e565b6064358352602083019160018060401b0388168352604084019081526060840164ffffffffff4216815260808501925f84528054600160401b8110156116d65761324491600182018155613cf4565b9590956116c35761329895600191518155019360018060401b0390511684549261ffff60401b905160401b169164ffffffffff60501b905160501b169260018060781b031916171717825551151590613d21565b6024355f526005602052600160405f20016132b6606435825461426b565b90556024355f52600860205260405f206132d182825461426b565b90556024355f52600960205260405f2060018060401b0385165f526020526132fe60405f2091825461426b565b90556024355f52600a60205260405f2061331982825461426b565b90556024355f52600b60205260405f2060018060401b0384165f5260205260405f2061334682825461426b565b90556024355f52600c60205260405f20613363606435825461426b565b90556024355f52600d60205260405f2060018060401b0384165f5260205260405f20613392606435825461426b565b90556007546001600160a01b0316803b1561115957604051631613163360e11b8152915f9183918290849082906133d4906064358c6024353060048701613d3e565b03925af1801561114e5761347c575b506024355f52600460205260405f2060018060a01b0384165f5260205260405f2054935f19850194851161346857600201546040805195865260643560208701526001600160401b0390931692850192909252606084015261ffff1660808301526001600160a01b031690602435905f805160206149fe8339815191529060a090a380f35b634e487b7160e01b5f52601160045260245ffd5b61348590613b1b565b856133e3565b604051631a048a7f60e11b815260248035600483015290fd5b604490604051906378e030db60e01b825260643560048301526024820152fd5b60405162bc17d160e31b815260248035600483015290fd5b82346103005760203660031901126103005760a090600435906134fe82613e2c565b818152603260205260408082209160056020522090549163ffffffff6001613527845493613e85565b930154926040519485526135416020860160ff8516613b0e565b16604084015260081c6001600160401b031660608301526080820152f35b823461030057604036600319011261030057613579613acc565b336001600160a01b038216036135955761087190600435614179565b60405163334bd91960e11b8152600490fd5b8234610300576040366003190112610300576108716004356135c7613acc565b908084525f8051602061497e8339815191526020526135ec6001604086200154613dfe565b614109565b823461030057806003193601126103005760206040515f8051602061483e8339815191528152f35b82346103005780600319360112610300576020604051620186a08152f35b8234610300576020366003190112610300576001604060209260043581525f8051602061497e8339815191528452200154604051908152f35b82346111595760403660031901126111595760043561368d613af8565b61369682613e2c565b335f9081527f756534422b3cb82a54d88d2dca71cfb1a3297222856e6ddc952d9ca5a7fc4b8860209081526040909120545f8051602061477e8339815191529060ff1615612a175750825f526005815260405f2060ff8154166006811015610b325760038103613885575061370b8385613ec2565b6137158382613c89565b64ffffffffff9061372882421682613cae565b805460ff191660041781555f858152600a8452604080822054600b86528183206001600160401b0390971680845296865291205461376591613c7c565b855f526008845261378c60405f20546009865260405f20875f52865260405f205490613c7c565b90865f52600c85526137b460405f2054600d875260405f20885f52875260405f205490613c7c565b91875f52600a865260405f206137cb838254613c7c565b9055875f52600886526137e360405f20918254613c7c565b90556007546001600160a01b031691823b156111595760845f928360405195869485936309da1e8d60e21b85523060048601528d6024860152604485015260648401525af1801561114e5761385a575b50915f80516020614a9e83398151915293916040935460701c16908351928352820152a280f35b604093919650916138795f80516020614a9e8339815191529593613b1b565b5f969193509193613833565b6040516327c6314f60e11b815260048101869052606491610e58906024830190613b0e565b34611159576138b836613ae2565b906138c281613e2c565b63ffffffff6138d082613e85565b169081156138f95760206138f1846127106138eb8683613c69565b04613c7c565b604051908152f35b6024906040519062bc17d160e31b82526004820152fd5b34611159575f366003190112611159576006546040516001600160a01b039091168152602090f35b34611159575f3660031901126111595760206040515f80516020614afe8339815191528152f35b3461115957602036600319011261115957613978613ab6565b613980613dc9565b600680546001600160a01b0319166001600160a01b039290921691821790557f9317e3e59b11620f482b4bb292374da6e5cb9e7ef23cf3f121cacca9a5428f785f80a2005b346111595760203660031901126111595760206139ec6004356139e781613e2c565b613e85565b63ffffffff60405191168152f35b346111595760203660031901126111595760043563ffffffff60e01b811680910361115957602090637965db0b60e01b8114908115613a3f575b506040519015158152f35b6301ffc9a760e01b14905082613a34565b3461115957602036600319011261115957613a69613ab6565b613a71613dc9565b600780546001600160a01b0319166001600160a01b039290921691821790557fe57f71636571365571c0eaeaeb54e1d9e0065804f056a57a2a29448524f7d18a5f80a2005b600435906001600160a01b038216820361115957565b602435906001600160a01b038216820361115957565b6040906003190112611159576004359060243590565b602435906001600160401b038216820361115957565b906006821015610b325752565b6001600160401b0381116116d657604052565b60a081019081106001600160401b038211176116d657604052565b604081019081106001600160401b038211176116d657604052565b601f909101601f19168101906001600160401b038211908210176116d657604052565b6001600160401b0381116116d657601f01601f191660200190565b929192613bae82613b87565b91613bbc6040519384613b64565b829481845281830111611159578281602093845f960137010152565b6024359063ffffffff8216820361115957565b90600182811c92168015613c19575b6020831014613c0557565b634e487b7160e01b5f52602260045260245ffd5b91607f1691613bfa565b5f5b838110613c345750505f910152565b8181015183820152602001613c25565b90602091613c5d81518092818552858086019101613c23565b601f01601f1916010190565b8181029291811591840414171561346857565b9190820391821161346857565b8054610100600160481b03191660089290921b610100600160481b0316919091179055565b805464ffffffffff60701b191660709290921b64ffffffffff60701b16919091179055565b9081526001600160a01b039091166020820152604081019190915260600190565b8054821015613d0d575f5260205f209060011b01905f90565b634e487b7160e01b5f52603260045260245ffd5b805460ff60781b191691151560781b60ff60781b16919091179055565b919594939060809360a084019760018060a01b038093168552602085015216604083015260608201520152565b6001600160a01b03908116908115613db1575f805160206147de83398151915280546001600160a01b031981168417909155165f8051602061493e8339815191525f80a3565b604051631e4fbdf760e01b81525f6004820152602490fd5b335f9081525f8051602061479e83398151915260205260409020545f80516020614a3e8339815191529060ff1615612a175750565b805f525f8051602061497e83398151915260205260405f20335f5260205260ff60405f20541615612a175750565b600254811015613e395750565b6024906040519063113b162160e31b82526004820152fd5b61ffff9081165f19019190821161346857565b9190918054831015613d0d575f52601c60205f208360031c019260021b1690565b5f52600360205260405f2061ffff6002820154168015613ebc5763ffffffff91611456613eb192613e51565b90549060031b1c1690565b50505f90565b90815f52603260205260ff600160405f20015460101c169060018060401b0316818111613eee57505050565b60649350604051926382a2dff360e01b8452600484015260248301526044820152fd5b6001600160a01b03165f8181525f8051602061485e83398151915260205260409020545f8051602061497e8339815191529060ff16613ebc575f805260205260405f20815f5260205260405f20600160ff1982541617905533905f5f8051602061475e8339815191528180a4600190565b6001600160a01b03165f8181525f8051602061479e83398151915260205260409020545f80516020614a3e83398151915291905f8051602061497e8339815191529060ff1661400257825f5260205260405f20815f5260205260405f20600160ff1982541617905533915f8051602061475e8339815191525f80a4600190565b5050505f90565b6001600160a01b03165f8181525f8051602061489e83398151915260205260409020545f8051602061491e83398151915291905f8051602061497e8339815191529060ff1661400257825f5260205260405f20815f5260205260405f20600160ff1982541617905533915f8051602061475e8339815191525f80a4600190565b6001600160a01b03165f8181525f80516020614a5e83398151915260205260409020545f80516020614afe83398151915291905f8051602061497e8339815191529060ff1661400257825f5260205260405f20815f5260205260405f20600160ff1982541617905533915f8051602061475e8339815191525f80a4600190565b90815f525f8051602061497e8339815191528060205260405f209160018060a01b031691825f5260205260ff60405f205416155f1461400257825f5260205260405f20815f5260205260405f20600160ff1982541617905533915f8051602061475e8339815191525f80a4600190565b90815f525f8051602061497e8339815191528060205260405f209160018060a01b031691825f5260205260ff60405f2054165f1461400257825f5260205260405f20815f5260205260405f2060ff19815416905533917ff6391f5c32d9c69d2a47ea670b442974b53935d1edc7fd64eb21e047a839171b5f80a4600190565b805f52600560205260ff60405f2054166006811015610b32576001810361421d575050565b90610cb1606492604051926327c6314f60e11b845260048401526024830190613b0e565b60ff5f805160206149de833981519152541661425957565b60405163d93c066560e01b8152600490fd5b9190820180921161346857565b63ffffffff8080600e541680155f146142da5750620f4240925b169161271180841080156142cf575b6142ab5750505050565b6064945060405193637231c80760e01b855260048501526024840152166044820152fd5b5082821684116142a1565b92614292565b919091805f52600360205260405f2090600182019163ffffffff80951694855f528360205261ffff928360405f20541680614384575082549061fffe82101561436c5750600160401b8110156116d6578060016143409201845583613e64565b819291549060031b9188831b921b19161790555416925f5260205260405f208261ffff19825416179055565b60249060405190634d3deb8160e01b82526004820152fd5b96505050505050565b5f80516020614a1e83398151915260028154146143aa5760029055565b604051633ee5aeb560e01b8152600490fd5b5f805160206147de833981519152546001600160a01b031633036143dc57565b60405163118cdaa760e01b8152336004820152602490fd5b5f805160206147be8339815191528114614490575f805160206149be8339815191528114614496575f8051602061481e8339815191528114614496575f805160206148de8339815191528114614490575f805160206147fe833981519152811461448a575f8051602061483e83398151915281146144845760249060405190630d330d2760e01b82526004820152fd5b5060ff90565b50606390565b50600290565b50600190565b5f805160206147be83398151915281146145fc575f805160206149be83398151915281146145d4575f8051602061481e83398151915281146145ad575f805160206148de8339815191528114614588575f805160206147fe833981519152811461455e575f8051602061483e833981519152146145365760405161451f81613b49565b60078152662aa725a727aba760c91b602082015290565b60405161454281613b49565b600c81526b2324a929aa2fa9a1a7a922a960a11b602082015290565b5060405161456b81613b49565b600d81526c434f52524543545f53434f524560981b602082015290565b5060405161459581613b49565b600881526748414c4654494d4560c01b602082015290565b506040516145ba81613b49565b600a815269424f54485f53434f524560b01b602082015290565b506040516145e181613b49565b600b81526a11d3d05314d7d513d5105360aa1b602082015290565b5060405161460981613b49565b60068152652ba4a72722a960d11b602082015290565b61ffff821615613ebc5763ffffffff91613eb1915f52600360205261145660405f2091613e51565b926020915f9160405190848201926323b872dd60e01b845260018060a01b039687809216602485015216604483015260648201526064815261468881613b2e565b519082865af11561114e575f513d6146c357508082163b155b6146a9575050565b604051635274afe760e01b81529116600482015260249150fd5b600114156146a1565b60ff5f80516020614a7e8339815191525460401c16156146e857565b604051631afcd79f60e31b8152600490fd5b90614721575080511561470f57602081519101fd5b60405163d6bda27560e01b8152600490fd5b81511580614754575b614732575090565b604051639996b31560e01b81526001600160a01b039091166004820152602490fd5b50803b1561472a56fe2f8788117e7eff1d82e926ec794901d17c78024a50270940304540a733656f0d92a19c77d2ea87c7f81d50c74403cb2f401780f3ad919571121efe2bdb427eb1b16e88c42fd4e48df2dd6a2eabd6bc9aec654ec170056b470819f8892cc6431c97e9cffa40fd62a888d33fedb0550a0c24b2dab7e942dd2c90f3dc402fe1d9d09016d09d72d40fdae2fd8ceac6b6234c7706214fd39c1cd1e609a0528c1993005a07719d8a8f4c48bdefa2dac63aa1381b7ddfabbbcde55ac2fce423272e4ade538ae17682fc5f9b07ae2625134d6d3c26763eb7064ea668cc95acc79d2f66934386abfac67735e8200942a182a9289c4525de8436be890c45f3baa48cfc744ab7db2dd08fcb62d0c9e08c51941cae53c267786a0b75803fb7960902fc8ef97d360894a13ba1a3210667c828492db98dca3e2076cc3735a920a3ca505d382bbc75442b0a96088b5456bc4ed01394c96a4feec0f883c9494257d76b96ab1c9b6baba4210cad11f1112f31ba136a61cdc0f6ab4c2b478da8c93eec1d9769e97a89dd5dc5e3118ac9f6534abbb8fc3fdcbf37cbac4179d8c4f61f8246428bdc20513fda72f0a1439a9047288d6140aad7d37a71b660b5229783c8a637ebd0631c0b65d7a28e3265b37a6474929f336521b332c1681b933f6cb9f3376673440d862a8be0079c531659141344cd1fd0a4f28419497f9722a3daafe3b4186f6b6457e0b88a0148d0785022bedeff8dc0f55ccbb709825d7109265ebe5ca3325f191b4202dd7bc7dec4dceedda775e58dd541e08a116c6c53815c0bd028192f7b626800b10e2d527612073b26eecdfd717e6a320cf44b4afac2b0732d9fcbe2b7fa0cf602cbb70a5b530cc7252a3b919b89cec2559cd41fd531c11606411ffbac8f3ffccd5ed15c6e187e77e9aee88184c21f4f2182ab5827cb3b7e07fbedcd63f033001e20859988181a316b2a230ed2b74a09a98fdec16686057cdbb48def725ff9a49b779b17422d0df92223018b32b4d1fa46e071723d6817e2486d003becc55f00a49807205ce4d355092ef5a8a18f56e8913cf4a201fbe287825b095693c217752310b325392e40fb40cbb815e26771d7a037d125fab58e321be31508c0e7cabbf0c57e16840df040f15088dc2f81fe391c3923bec73e23a9662efc9c229c6a0064ee7dc32a3ab72dbd217f88cab8b17f7d9024f6d8bd70a962cd5f1cbd10abafa5df5a195b51346b41c715be6896ddef8de524059309701b83d22c7e4ec1aa4ca903a5200a3509510da557615994ebd7dbb3d8b122c2190f01477c128da2cfcb0acfcb0f3e3aaa7ab6a53fd6a206e00781cfe5360bc764438c214cb50c97b711a26469706673582212208eb219ecc1f369bff11c7eb88faf79aba89e510e82be72dada7249935b3ee7ba64736f6c63430008180033","linkReferences":{}},"methodIdentifiers":{"BASKETBALL()":"3989b9e6","FOOTBALL()":"8eb855c5","allMatches(uint256)":"afa71d11","basketballImplementation()":"3a82bc39","createBasketballMatch(string,address,address)":"856756f3","createFootballMatch(string,address,address)":"1f47ac39","footballImplementation()":"e13da35f","getAllMatches()":"c17c5a45","getSportType(address)":"93ecc4b7","implementations(uint8)":"5429caa0","isMatch(address)":"bd09e8fa","liquidityPool()":"665a11ca","matchSportType(address)":"5d644539","owner()":"8da5cb5b","renounceOwnership()":"715018a6","setBasketballImplementation(address)":"a5e317e3","setFootballImplementation(address)":"5839eb4e","setWiring(address,address,address)":"deee7482","swapRouter()":"c31c9c07","transferOwnership(address)":"f2fde38b","usdcToken()":"11eac855"},"id":53}