{"abi":[{"type":"constructor","inputs":[{"name":"_masterRouter","type":"address","internalType":"address"},{"name":"_tokenRouter","type":"address","internalType":"address"},{"name":"_usdc","type":"address","internalType":"address"},{"name":"_wchz","type":"address","internalType":"address"},{"name":"_treasury","type":"address","internalType":"address"},{"name":"_platformFeeBps","type":"uint16","internalType":"uint16"}],"stateMutability":"nonpayable"},{"type":"receive","stateMutability":"payable"},{"type":"function","name":"bettingMatchFactory","inputs":[],"outputs":[{"name":"","type":"address","internalType":"contract BettingMatchFactory"}],"stateMutability":"view"},{"type":"function","name":"donateWithCHZ","inputs":[{"name":"streamer","type":"address","internalType":"address"},{"name":"message","type":"string","internalType":"string"},{"name":"amountOutMin","type":"uint256","internalType":"uint256"},{"name":"deadline","type":"uint256","internalType":"uint256"}],"outputs":[],"stateMutability":"payable"},{"type":"function","name":"donateWithToken","inputs":[{"name":"token","type":"address","internalType":"address"},{"name":"amount","type":"uint256","internalType":"uint256"},{"name":"streamer","type":"address","internalType":"address"},{"name":"message","type":"string","internalType":"string"},{"name":"amountOutMin","type":"uint256","internalType":"uint256"},{"name":"deadline","type":"uint256","internalType":"uint256"}],"outputs":[],"stateMutability":"nonpayable"},{"type":"function","name":"donateWithUSDC","inputs":[{"name":"streamer","type":"address","internalType":"address"},{"name":"message","type":"string","internalType":"string"},{"name":"amount","type":"uint256","internalType":"uint256"}],"outputs":[],"stateMutability":"nonpayable"},{"type":"function","name":"masterRouter","inputs":[],"outputs":[{"name":"","type":"address","internalType":"contract IKayenMasterRouterV2"}],"stateMutability":"view"},{"type":"function","name":"owner","inputs":[],"outputs":[{"name":"","type":"address","internalType":"address"}],"stateMutability":"view"},{"type":"function","name":"placeBetWithCHZ","inputs":[{"name":"bettingMatch","type":"address","internalType":"address"},{"name":"marketId","type":"uint256","internalType":"uint256"},{"name":"selection","type":"uint64","internalType":"uint64"},{"name":"amountOutMin","type":"uint256","internalType":"uint256"},{"name":"deadline","type":"uint256","internalType":"uint256"}],"outputs":[],"stateMutability":"payable"},{"type":"function","name":"placeBetWithToken","inputs":[{"name":"token","type":"address","internalType":"address"},{"name":"amount","type":"uint256","internalType":"uint256"},{"name":"bettingMatch","type":"address","internalType":"address"},{"name":"marketId","type":"uint256","internalType":"uint256"},{"name":"selection","type":"uint64","internalType":"uint64"},{"name":"amountOutMin","type":"uint256","internalType":"uint256"},{"name":"deadline","type":"uint256","internalType":"uint256"}],"outputs":[],"stateMutability":"nonpayable"},{"type":"function","name":"placeBetWithUSDC","inputs":[{"name":"bettingMatch","type":"address","internalType":"address"},{"name":"marketId","type":"uint256","internalType":"uint256"},{"name":"selection","type":"uint64","internalType":"uint64"},{"name":"amount","type":"uint256","internalType":"uint256"}],"outputs":[],"stateMutability":"nonpayable"},{"type":"function","name":"platformFeeBps","inputs":[],"outputs":[{"name":"","type":"uint16","internalType":"uint16"}],"stateMutability":"view"},{"type":"function","name":"renounceOwnership","inputs":[],"outputs":[],"stateMutability":"nonpayable"},{"type":"function","name":"setMatchFactory","inputs":[{"name":"_factory","type":"address","internalType":"address"}],"outputs":[],"stateMutability":"nonpayable"},{"type":"function","name":"setPlatformFeeBps","inputs":[{"name":"_feeBps","type":"uint16","internalType":"uint16"}],"outputs":[],"stateMutability":"nonpayable"},{"type":"function","name":"setStreamWalletFactory","inputs":[{"name":"_factory","type":"address","internalType":"address"}],"outputs":[],"stateMutability":"nonpayable"},{"type":"function","name":"setTreasury","inputs":[{"name":"_treasury","type":"address","internalType":"address"}],"outputs":[],"stateMutability":"nonpayable"},{"type":"function","name":"streamWalletFactory","inputs":[],"outputs":[{"name":"","type":"address","internalType":"contract StreamWalletFactory"}],"stateMutability":"view"},{"type":"function","name":"subscribeWithCHZ","inputs":[{"name":"streamer","type":"address","internalType":"address"},{"name":"duration","type":"uint256","internalType":"uint256"},{"name":"amountOutMin","type":"uint256","internalType":"uint256"},{"name":"deadline","type":"uint256","internalType":"uint256"}],"outputs":[],"stateMutability":"payable"},{"type":"function","name":"subscribeWithToken","inputs":[{"name":"token","type":"address","internalType":"address"},{"name":"amount","type":"uint256","internalType":"uint256"},{"name":"streamer","type":"address","internalType":"address"},{"name":"duration","type":"uint256","internalType":"uint256"},{"name":"amountOutMin","type":"uint256","internalType":"uint256"},{"name":"deadline","type":"uint256","internalType":"uint256"}],"outputs":[],"stateMutability":"nonpayable"},{"type":"function","name":"subscribeWithUSDC","inputs":[{"name":"streamer","type":"address","internalType":"address"},{"name":"duration","type":"uint256","internalType":"uint256"},{"name":"amount","type":"uint256","internalType":"uint256"}],"outputs":[],"stateMutability":"nonpayable"},{"type":"function","name":"tokenRouter","inputs":[],"outputs":[{"name":"","type":"address","internalType":"contract IKayenRouter"}],"stateMutability":"view"},{"type":"function","name":"transferOwnership","inputs":[{"name":"newOwner","type":"address","internalType":"address"}],"outputs":[],"stateMutability":"nonpayable"},{"type":"function","name":"treasury","inputs":[],"outputs":[{"name":"","type":"address","internalType":"address"}],"stateMutability":"view"},{"type":"function","name":"usdc","inputs":[],"outputs":[{"name":"","type":"address","internalType":"contract IERC20"}],"stateMutability":"view"},{"type":"function","name":"wchz","inputs":[],"outputs":[{"name":"","type":"address","internalType":"address"}],"stateMutability":"view"},{"type":"event","name":"BetPlacedViaCHZ","inputs":[{"name":"bettingMatch","type":"address","indexed":true,"internalType":"address"},{"name":"user","type":"address","indexed":true,"internalType":"address"},{"name":"chzSpent","type":"uint256","indexed":false,"internalType":"uint256"},{"name":"usdcReceived","type":"uint256","indexed":false,"internalType":"uint256"},{"name":"marketId","type":"uint256","indexed":false,"internalType":"uint256"},{"name":"selection","type":"uint64","indexed":false,"internalType":"uint64"}],"anonymous":false},{"type":"event","name":"BetPlacedViaToken","inputs":[{"name":"bettingMatch","type":"address","indexed":true,"internalType":"address"},{"name":"user","type":"address","indexed":true,"internalType":"address"},{"name":"token","type":"address","indexed":true,"internalType":"address"},{"name":"tokenSpent","type":"uint256","indexed":false,"internalType":"uint256"},{"name":"usdcReceived","type":"uint256","indexed":false,"internalType":"uint256"},{"name":"marketId","type":"uint256","indexed":false,"internalType":"uint256"},{"name":"selection","type":"uint64","indexed":false,"internalType":"uint64"}],"anonymous":false},{"type":"event","name":"BetPlacedWithUSDC","inputs":[{"name":"bettingMatch","type":"address","indexed":true,"internalType":"address"},{"name":"user","type":"address","indexed":true,"internalType":"address"},{"name":"amount","type":"uint256","indexed":false,"internalType":"uint256"},{"name":"marketId","type":"uint256","indexed":false,"internalType":"uint256"},{"name":"selection","type":"uint64","indexed":false,"internalType":"uint64"}],"anonymous":false},{"type":"event","name":"DonationWithCHZ","inputs":[{"name":"donor","type":"address","indexed":true,"internalType":"address"},{"name":"streamer","type":"address","indexed":true,"internalType":"address"},{"name":"chzSpent","type":"uint256","indexed":false,"internalType":"uint256"},{"name":"usdcDonated","type":"uint256","indexed":false,"internalType":"uint256"},{"name":"platformFee","type":"uint256","indexed":false,"internalType":"uint256"},{"name":"message","type":"string","indexed":false,"internalType":"string"}],"anonymous":false},{"type":"event","name":"DonationWithToken","inputs":[{"name":"donor","type":"address","indexed":true,"internalType":"address"},{"name":"streamer","type":"address","indexed":true,"internalType":"address"},{"name":"token","type":"address","indexed":true,"internalType":"address"},{"name":"tokenSpent","type":"uint256","indexed":false,"internalType":"uint256"},{"name":"usdcDonated","type":"uint256","indexed":false,"internalType":"uint256"},{"name":"platformFee","type":"uint256","indexed":false,"internalType":"uint256"},{"name":"message","type":"string","indexed":false,"internalType":"string"}],"anonymous":false},{"type":"event","name":"DonationWithUSDCEvent","inputs":[{"name":"donor","type":"address","indexed":true,"internalType":"address"},{"name":"streamer","type":"address","indexed":true,"internalType":"address"},{"name":"amount","type":"uint256","indexed":false,"internalType":"uint256"},{"name":"platformFee","type":"uint256","indexed":false,"internalType":"uint256"},{"name":"message","type":"string","indexed":false,"internalType":"string"}],"anonymous":false},{"type":"event","name":"MatchFactorySet","inputs":[{"name":"oldFactory","type":"address","indexed":true,"internalType":"address"},{"name":"newFactory","type":"address","indexed":true,"internalType":"address"}],"anonymous":false},{"type":"event","name":"OwnershipTransferred","inputs":[{"name":"previousOwner","type":"address","indexed":true,"internalType":"address"},{"name":"newOwner","type":"address","indexed":true,"internalType":"address"}],"anonymous":false},{"type":"event","name":"PlatformFeeBpsSet","inputs":[{"name":"oldFeeBps","type":"uint16","indexed":false,"internalType":"uint16"},{"name":"newFeeBps","type":"uint16","indexed":false,"internalType":"uint16"}],"anonymous":false},{"type":"event","name":"StreamWalletFactorySet","inputs":[{"name":"oldFactory","type":"address","indexed":true,"internalType":"address"},{"name":"newFactory","type":"address","indexed":true,"internalType":"address"}],"anonymous":false},{"type":"event","name":"SubscriptionWithCHZ","inputs":[{"name":"subscriber","type":"address","indexed":true,"internalType":"address"},{"name":"streamer","type":"address","indexed":true,"internalType":"address"},{"name":"chzSpent","type":"uint256","indexed":false,"internalType":"uint256"},{"name":"usdcPaid","type":"uint256","indexed":false,"internalType":"uint256"},{"name":"platformFee","type":"uint256","indexed":false,"internalType":"uint256"},{"name":"duration","type":"uint256","indexed":false,"internalType":"uint256"}],"anonymous":false},{"type":"event","name":"SubscriptionWithToken","inputs":[{"name":"subscriber","type":"address","indexed":true,"internalType":"address"},{"name":"streamer","type":"address","indexed":true,"internalType":"address"},{"name":"token","type":"address","indexed":true,"internalType":"address"},{"name":"tokenSpent","type":"uint256","indexed":false,"internalType":"uint256"},{"name":"usdcPaid","type":"uint256","indexed":false,"internalType":"uint256"},{"name":"platformFee","type":"uint256","indexed":false,"internalType":"uint256"},{"name":"duration","type":"uint256","indexed":false,"internalType":"uint256"}],"anonymous":false},{"type":"event","name":"SubscriptionWithUSDCEvent","inputs":[{"name":"subscriber","type":"address","indexed":true,"internalType":"address"},{"name":"streamer","type":"address","indexed":true,"internalType":"address"},{"name":"amount","type":"uint256","indexed":false,"internalType":"uint256"},{"name":"platformFee","type":"uint256","indexed":false,"internalType":"uint256"},{"name":"duration","type":"uint256","indexed":false,"internalType":"uint256"}],"anonymous":false},{"type":"event","name":"TreasurySet","inputs":[{"name":"oldTreasury","type":"address","indexed":true,"internalType":"address"},{"name":"newTreasury","type":"address","indexed":true,"internalType":"address"}],"anonymous":false},{"type":"error","name":"BettingMatchFactoryNotSet","inputs":[]},{"type":"error","name":"DeadlinePassed","inputs":[]},{"type":"error","name":"InvalidFeeBps","inputs":[]},{"type":"error","name":"OwnableInvalidOwner","inputs":[{"name":"owner","type":"address","internalType":"address"}]},{"type":"error","name":"OwnableUnauthorizedAccount","inputs":[{"name":"account","type":"address","internalType":"address"}]},{"type":"error","name":"ReentrancyGuardReentrantCall","inputs":[]},{"type":"error","name":"RouterNotConfiguredOnFactory","inputs":[]},{"type":"error","name":"SafeERC20FailedOperation","inputs":[{"name":"token","type":"address","internalType":"address"}]},{"type":"error","name":"TokenIsUSDC","inputs":[]},{"type":"error","name":"UnauthorizedBettingMatch","inputs":[{"name":"bettingMatch","type":"address","internalType":"address"}]},{"type":"error","name":"ZeroAddress","inputs":[]},{"type":"error","name":"ZeroValue","inputs":[]}],"bytecode":{"object":"0x610100346200025157601f62001d8238819003918201601f191683019291906001600160401b0384118385101762000255578160c092849260409687528339810103126200025157620000528162000269565b620000606020830162000269565b906200006e84840162000269565b6200007c6060850162000269565b9060a06200008d6080870162000269565b9501519361ffff8516808603620002515760015f5533156200023a5760018054336001600160a01b03198216811790925589516001600160a01b0397909392889283167f8be0079c531659141344cd1fd0a4f28419497f9722a3daafe3b4186f6b6457e05f80a31691821580156200022f575b801562000224575b801562000219575b80156200020e575b620001ff575061271010620001ee5784929183916080521660a0521660c05260e0526002549161ffff60a01b9060a01b1692169060018060b01b031916171760025551611b0390816200027f8239608051818181610cea01526112a6015260a0518181816106d60152611614015260c0518181816102b70152818161053d015281816108110152818161098101528181610a9e01528181610bd101528181610d2d0152818161123b0152818161135c01528181611391015281816115e70152611913015260e0518181816104bd01526112140152f35b8751638bff87cf60e01b8152600490fd5b63d92e233d60e01b8152600490fd5b508689161562000118565b508686161562000110565b508685161562000108565b508684161562000100565b8751631e4fbdf760e01b81525f6004820152602490fd5b5f80fd5b634e487b7160e01b5f52604160045260245ffd5b51906001600160a01b0382168203620002515756fe60406080815260048036101561001e575b5050361561001c575f80fd5b005b5f3560e01c8063088543ad14610e8357806322dcd13e14610e5e57806339fd251f14610def5780633bc1f7b314610d5c5780633e413bee14610d195780635e9658d214610cd657806361d027b314610cae5780636fe21ef814610b5c578063715018a614610b14578063828daa8f14610a0d57806384d63b0c146109275780638da5cb5b146108ff5780638dfe99f5146107b8578063a4ecb73d14610705578063a562bdba146106c2578063ad915789146105de578063b12661de146104ec578063d62ef179146104a9578063d90a4dd3146103b7578063dbe3cdde1461038f578063e574157914610249578063eebdb2d114610221578063f0f44260146101a25763f2fde38b03610010573461019e57602036600319011261019e57610143610f26565b9061014c611485565b6001600160a01b03918216928315610188575050600180546001600160a01b031981168417909155165f80516020611aae8339815191525f80a3005b905f6024925191631e4fbdf760e01b8352820152fd5b5f80fd5b503461019e57602036600319011261019e576101bc610f26565b906101c5611485565b6001600160a01b03918216928315610214575050600280546001600160a01b031981168417909155167f21eb548722a564f6e09f039f7aa858ae94c911910f3823b37af2250eeca4f4035f80a3005b5163d92e233d60e01b8152fd5b50903461019e575f36600319011261019e57905490516001600160a01b039091168152602090f35b50903461019e5760e036600319011261019e57610264610f26565b60243591610270610f3c565b926084356064356001600160401b038216820361019e5760c4356102926110a4565b831561037f576001600160a01b038681169890949089158015610375575b61036757857f0000000000000000000000000000000000000000000000000000000000000000168a146103595782421161034b5750916103277f413ecf4f434c01411be5fd6890328285467413741046f5f9cfa1d0f09df94e559695949261031c61034295338d6114b1565b988960a435916115ae565b946103348684848c6118ba565b519485943399169785610ff7565b0390a460015f55005b865163387b2e5560e11b8152fd5b8651633cab8add60e01b8152fd5b865163d92e233d60e01b8152fd5b50858916156102b0565b8451637c946ed760e01b81528890fd5b823461019e575f36600319011261019e5760035490516001600160a01b039091168152602090f35b5090608036600319011261019e576103cd610f26565b6024356001600160401b03811161019e576103eb9036908501610f52565b6064929192356103f96110a4565b3415610499576001600160a01b03831695861561048b5781421161047d57507f733e4f35c3bdfdaa2c527ebea9d7a8ab9bcb3ba4303be10072ffb1adce02c76b93929161044c61047492604435346111e2565b9561046782868961045d818961131e565b9181993390611774565b5193849333973486610fd1565b0390a360015f55005b855163387b2e5560e11b8152fd5b855163d92e233d60e01b8152fd5b8451637c946ed760e01b81528690fd5b823461019e575f36600319011261019e57517f00000000000000000000000000000000000000000000000000000000000000006001600160a01b03168152602090f35b50903461019e57606036600319011261019e57610507610f26565b60443591602435916105176110a4565b83156105ce576001600160a01b0381169485156105c05783156105b257506105618430337f0000000000000000000000000000000000000000000000000000000000000000611862565b6105798385610570818561131e565b509333906113bc565b815193845260208401528201527fee7380f12277f6789499f9661b3b5ffaa63272a5f30929f7868eecbab29b933e60603392a360015f55005b8251637c946ed760e01b8152fd5b825163d92e233d60e01b8152fd5b8151637c946ed760e01b81528590fd5b503461019e57602036600319011261019e576105f8610f26565b90610601611485565b6001600160a01b0391821692831561021457805163c31c9c0760e01b81526020818481885afa9081156106b8575f91610689575b50833091160361067c575050600380546001600160a01b031981168417909155167f68363bd4295d4fd5169ecae965d59364bc9a3a98c52f38d35714a71f2a89606a5f80a3005b51632d1024d960e21b8152fd5b6106ab915060203d6020116106b1575b6106a38183611062565b810190611085565b5f610635565b503d610699565b82513d5f823e3d90fd5b823461019e575f36600319011261019e57517f00000000000000000000000000000000000000000000000000000000000000006001600160a01b03168152602090f35b509060a036600319011261019e5761071b610f26565b91602435610727610f7f565b91608435906107346110a4565b34156107aa5781421161079c5750906104746107757f2693a855098264c47021fc24775003a0f6e964de309a2627cf8d59b553c182aa9493606435346111e2565b946107828685858a6118ba565b5133966001600160a01b0316959093849390913485610ff7565b845163387b2e5560e11b8152fd5b8451637c946ed760e01b8152fd5b50903461019e5760c036600319011261019e576107d3610f26565b6024356107de610f3c565b60643560a4356107ec6110a4565b83156108ef576001600160a01b0385811697909490881580156108e5575b6108d757857f00000000000000000000000000000000000000000000000000000000000000001689146108c95783156108bb578242116108ad5750916108866103429261087b7f84e17840062c90c4ffb369d6f8db32867d1a450b43e7fd5f7314ebf04c59700a979695338c6114b1565b9788608435916115ae565b96610891888561131e565b509061089f838a33886113bc565b519485941697339785610f95565b875163387b2e5560e11b8152fd5b8751637c946ed760e01b8152fd5b8751633cab8add60e01b8152fd5b875163d92e233d60e01b8152fd5b508585161561080a565b8551637c946ed760e01b81528790fd5b823461019e575f36600319011261019e5760015490516001600160a01b039091168152602090f35b503461019e57608036600319011261019e57610941610f26565b9160243561094d610f7f565b906064359461095a6110a4565b85156109fd576001600160a01b0381169485156109ef57508583836109aa936109a58430337f0000000000000000000000000000000000000000000000000000000000000000611862565b6118ba565b825194855260208501526001600160401b03169083015233917f2fe4050ae77ccba94c6b75e837427748651360a3ad3db5b5a3dfb2f00996c72890606090a360015f55005b845163d92e233d60e01b8152fd5b50505051637c946ed760e01b8152fd5b50903461019e57606036600319011261019e57610a28610f26565b6024356001600160401b03811161019e57610a469036908501610f52565b929060443591610a546110a4565b8215610b05576001600160a01b038416958615610af757508291606061047492610ac27fd987dc728f5e92ce6014c57834fab4ee8729c0571709f318d7d1e7f463396d00979630337f0000000000000000000000000000000000000000000000000000000000000000611862565b610adc888487610ad2818b61131e565b91819b3390611774565b80519586958652602086015284015233956060840191610fb1565b905163d92e233d60e01b8152fd5b51637c946ed760e01b81528590fd5b3461019e575f36600319011261019e57610b2c611485565b600180546001600160a01b031981169091555f906001600160a01b03165f80516020611aae8339815191528280a3005b50903461019e5760c036600319011261019e57610b77610f26565b602435610b82610f3c565b6064356001600160401b03811161019e57610ba09036908701610f52565b9060a435610bac6110a4565b8415610c9e576001600160a01b038681169890959089158015610c94575b610c8657867f0000000000000000000000000000000000000000000000000000000000000000168a14610c7857824211610c6a575091610c417f6616f02402feb57d4d1b866a093e4b8c48ce3ea2693a903f1e480aa2a0bb036096959492610c3661034295338d6114b1565b9889608435916115ae565b8098610c5c8484610c52858a61131e565b908096338c611774565b519586951698339886610fd1565b885163387b2e5560e11b8152fd5b8851633cab8add60e01b8152fd5b885163d92e233d60e01b8152fd5b5086861615610bca565b8651637c946ed760e01b81528890fd5b823461019e575f36600319011261019e5760025490516001600160a01b039091168152602090f35b823461019e575f36600319011261019e57517f00000000000000000000000000000000000000000000000000000000000000006001600160a01b03168152602090f35b823461019e575f36600319011261019e57517f00000000000000000000000000000000000000000000000000000000000000006001600160a01b03168152602090f35b50903461019e57602036600319011261019e57813561ffff8082169081830361019e57610d87611485565b6127108211610ddf576002805461ffff60a01b19811660a095861b61ffff60a01b16179091558451931c16825260208201527f618639ce1b408b8d88f2fc2b3c356e214fb156027a898b42acf6b261c032ac439250a1005b50505051638bff87cf60e01b8152fd5b503461019e57602036600319011261019e57610e09610f26565b90610e12611485565b6001600160a01b03918216928315610214575080546001600160a01b031981168417909155167fd2b9a93e02c6747376a75eab1c562c38dbd0043742a32037b252a08a6dc466595f80a3005b823461019e575f36600319011261019e5760209061ffff60025460a01c169051908152f35b5090608036600319011261019e57610e99610f26565b60243590606435610ea86110a4565b34156109fd576001600160a01b0382169485156109ef5783156107aa5781421161079c575090610474610f007f1bcc7e25c7f4745c9e121284151849222420cf1bc61ea76483d10b7c281de4a99493604435346111e2565b94610f198487610f10818761131e565b509533906113bc565b5192839233963485610f95565b600435906001600160a01b038216820361019e57565b604435906001600160a01b038216820361019e57565b9181601f8401121561019e578235916001600160401b03831161019e576020838186019501011161019e57565b604435906001600160401b038216820361019e57565b9094939260609260808301968352602083015260408201520152565b908060209392818452848401375f828201840152601f01601f1916010190565b9092608092610ff496948352602083015260408201528160608201520191610fb1565b90565b908152602081019190915260408101919091526001600160401b03909116606082015260800190565b6001600160401b03811161103357604052565b634e487b7160e01b5f52604160045260245ffd5b606081019081106001600160401b0382111761103357604052565b601f909101601f19168101906001600160401b0382119082101761103357604052565b9081602091031261019e57516001600160a01b038116810361019e5790565b60025f54146110b35760025f55565b604051633ee5aeb560e01b8152600490fd5b8051156110d25760200190565b634e487b7160e01b5f52603260045260245ffd5b8051600110156110d25760400190565b80518210156110d25760209160051b010190565b90602090818382031261019e5782516001600160401b039384821161019e570181601f8201121561019e578051938411611033578360051b906040519461115385840187611062565b8552838086019282010192831161019e578301905b828210611176575050505090565b81518152908301908301611168565b9081518082526020808093019301915f5b8281106111a4575050505090565b83516001600160a01b031685529381019392810192600101611196565b919082039182116111ce57565b634e487b7160e01b5f52601160045260245ffd5b5f9161129091604051906111f582611047565b60028252604036602084013761120a826110c5565b6001600160a01b037f00000000000000000000000000000000000000000000000000000000000000008116909152927f00000000000000000000000000000000000000000000000000000000000000008416611265846110e6565b52604051968795869485936315aea31160e21b8552600485015260a0602485015260a4840190611185565b90876044840152306064840152608483015203927f0000000000000000000000000000000000000000000000000000000000000000165af1908115611313575f916112f1575b5080515f1981019081116111ce576112ed916110f6565b5190565b61130d91503d805f833e6113058183611062565b81019061110a565b5f6112d6565b6040513d5f823e3d90fd5b909160025461ffff8160a01c16908185029185830414851517156111ce5761134e612710611380930480966111c1565b9384918680611382575b50507f0000000000000000000000000000000000000000000000000000000000000000611a1e565b565b6113b5916001600160a01b03167f0000000000000000000000000000000000000000000000000000000000000000611a1e565b5f86611358565b6003549293926001600160a01b03929190831690816113de575b505050505050565b8360246020925f60405195869485936303aada7f60e11b85521660048401525af180156113135783915f91611466575b501690813b1561019e575f606492819560405197889687956335f487e560e11b8752166004860152602485015260448401525af1801561131357611457575b80808080806113d6565b61146090611020565b5f61144d565b61147f915060203d6020116106b1576106a38183611062565b5f61140e565b6001546001600160a01b0316330361149957565b60405163118cdaa760e01b8152336004820152602490fd5b6040516370a0823160e01b8082523060048301526001600160a01b0383169493919260209283856024818a5afa948515611313575f95611573575b50946114fc918495963091611862565b60246040518096819382523060048301525afa908115611313575f91611543575b5061152892506111c1565b90811561153157565b604051637c946ed760e01b8152600490fd5b905082813d831161156c575b6115598183611062565b8101031261019e5761152891515f61151d565b503d61154f565b919380955082819792973d83116115a7575b61158f8183611062565b8101031261019e5790519094909392906114fc6114ec565b503d611585565b919290926040938451926115c184611047565b60028452853660208601376115d5846110c5565b6001600160a01b0395861690819052947f00000000000000000000000000000000000000000000000000000000000000008116611611866110e6565b527f000000000000000000000000000000000000000000000000000000000000000016948651908660205f81850161166a8661165c8a63095ea7b360e01b9788865260248401611a03565b03601f198101885287611062565b85519082865af15f513d82611758575b5050156116fb575b505050915f6116bd95928195948851978896879586946338ed173960e01b86526004860152602485015260a0604485015260a4840190611185565b90306064840152608483015203925af19182156116f257505f916112f1575080515f1981019081116111ce576112ed916110f6565b513d5f823e3d90fd5b9196939095949288519260208401528460248401525f604484015260448352608083019280841060018060401b03851117611033576116bd985f9861174761174c938b978e5282611a53565b611a53565b92949581949750611682565b90915061176c5750813b15155b5f8061167a565b600114611765565b60035493969294936001600160a01b03939291908416908161179c575b505050505050505050565b8460246020925f60405195869485936303aada7f60e11b85521660048401525af180156113135784915f91611843575b501693843b1561019e575f968793611818926040519a8b998a98899763f04b74ab60e01b895216600488015260248701526044860152606485015260a0608485015260a4840191610fb1565b03925af1801561131357611834575b8080808080808080611791565b61183d90611020565b5f611827565b61185c915060203d6020116106b1576106a38183611062565b5f6117cc565b6040516323b872dd60e01b60208201526001600160a01b03928316602482015292909116604483015260648083019390935291815260a08101918183106001600160401b038411176110335761138092604052611a53565b9091906001600160a01b03808216919082156119f1576004541680156119df57602060249160405192838092635e84f47d60e11b82528760048301525afa908115611313575f916119a4575b501561198b5784611937917f0000000000000000000000000000000000000000000000000000000000000000611a1e565b803b1561019e575f92836084926040519687958694631f667e4b60e11b8652336004870152602486015260018060401b0316604485015260648401525af18015611313576119825750565b61138090611020565b604051630a87ad9f60e21b815260048101839052602490fd5b90506020813d6020116119d7575b816119bf60209383611062565b8101031261019e5751801515810361019e575f611906565b3d91506119b2565b604051630bd69dbb60e21b8152600490fd5b60405163d92e233d60e01b8152600490fd5b6001600160a01b039091168152602081019190915260400190565b6117476113809392611a4560405194859263a9059cbb60e01b602085015260248401611a03565b03601f198101845283611062565b905f602091828151910182855af115611313575f513d611aa457506001600160a01b0381163b155b611a825750565b604051635274afe760e01b81526001600160a01b039091166004820152602490fd5b60011415611a7b56fe8be0079c531659141344cd1fd0a4f28419497f9722a3daafe3b4186f6b6457e0a2646970667358221220a29d67ca488c066aafe6739acc581d250d599179f9cafd6715f9cb628c8b9f0364736f6c63430008180033","linkReferences":{}},"methodIdentifiers":{"bettingMatchFactory()":"eebdb2d1","donateWithCHZ(address,string,uint256,uint256)":"d90a4dd3","donateWithToken(address,uint256,address,string,uint256,uint256)":"6fe21ef8","donateWithUSDC(address,string,uint256)":"828daa8f","masterRouter()":"5e9658d2","owner()":"8da5cb5b","placeBetWithCHZ(address,uint256,uint64,uint256,uint256)":"a4ecb73d","placeBetWithToken(address,uint256,address,uint256,uint64,uint256,uint256)":"e5741579","placeBetWithUSDC(address,uint256,uint64,uint256)":"84d63b0c","platformFeeBps()":"22dcd13e","renounceOwnership()":"715018a6","setMatchFactory(address)":"39fd251f","setPlatformFeeBps(uint16)":"3bc1f7b3","setStreamWalletFactory(address)":"ad915789","setTreasury(address)":"f0f44260","streamWalletFactory()":"dbe3cdde","subscribeWithCHZ(address,uint256,uint256,uint256)":"088543ad","subscribeWithToken(address,uint256,address,uint256,uint256,uint256)":"8dfe99f5","subscribeWithUSDC(address,uint256,uint256)":"b12661de","tokenRouter()":"a562bdba","transferOwnership(address)":"f2fde38b","treasury()":"61d027b3","usdc()":"3e413bee","wchz()":"d62ef179"},"id":62}