{"abi":[{"type":"constructor","inputs":[],"stateMutability":"nonpayable"},{"type":"function","name":"ADMIN_ROLE","inputs":[],"outputs":[{"name":"","type":"bytes32","internalType":"bytes32"}],"stateMutability":"view"},{"type":"function","name":"DEFAULT_ADMIN_ROLE","inputs":[],"outputs":[{"name":"","type":"bytes32","internalType":"bytes32"}],"stateMutability":"view"},{"type":"function","name":"MARKET_BOTH_SCORE","inputs":[],"outputs":[{"name":"","type":"bytes32","internalType":"bytes32"}],"stateMutability":"view"},{"type":"function","name":"MARKET_CORRECT_SCORE","inputs":[],"outputs":[{"name":"","type":"bytes32","internalType":"bytes32"}],"stateMutability":"view"},{"type":"function","name":"MARKET_FIRST_SCORER","inputs":[],"outputs":[{"name":"","type":"bytes32","internalType":"bytes32"}],"stateMutability":"view"},{"type":"function","name":"MARKET_GOALS_TOTAL","inputs":[],"outputs":[{"name":"","type":"bytes32","internalType":"bytes32"}],"stateMutability":"view"},{"type":"function","name":"MARKET_HALFTIME","inputs":[],"outputs":[{"name":"","type":"bytes32","internalType":"bytes32"}],"stateMutability":"view"},{"type":"function","name":"MARKET_WINNER","inputs":[],"outputs":[{"name":"","type":"bytes32","internalType":"bytes32"}],"stateMutability":"view"},{"type":"function","name":"MAX_ODDS","inputs":[],"outputs":[{"name":"","type":"uint32","internalType":"uint32"}],"stateMutability":"view"},{"type":"function","name":"MIN_NET_STAKE","inputs":[],"outputs":[{"name":"","type":"uint256","internalType":"uint256"}],"stateMutability":"view"},{"type":"function","name":"MIN_ODDS","inputs":[],"outputs":[{"name":"","type":"uint32","internalType":"uint32"}],"stateMutability":"view"},{"type":"function","name":"ODDS_PRECISION","inputs":[],"outputs":[{"name":"","type":"uint32","internalType":"uint32"}],"stateMutability":"view"},{"type":"function","name":"ODDS_SETTER_ROLE","inputs":[],"outputs":[{"name":"","type":"bytes32","internalType":"bytes32"}],"stateMutability":"view"},{"type":"function","name":"PAUSER_ROLE","inputs":[],"outputs":[{"name":"","type":"bytes32","internalType":"bytes32"}],"stateMutability":"view"},{"type":"function","name":"RESOLVER_ROLE","inputs":[],"outputs":[{"name":"","type":"bytes32","internalType":"bytes32"}],"stateMutability":"view"},{"type":"function","name":"SWAP_ROUTER_ROLE","inputs":[],"outputs":[{"name":"","type":"bytes32","internalType":"bytes32"}],"stateMutability":"view"},{"type":"function","name":"UPGRADE_INTERFACE_VERSION","inputs":[],"outputs":[{"name":"","type":"string","internalType":"string"}],"stateMutability":"view"},{"type":"function","name":"addMarketWithLine","inputs":[{"name":"marketType","type":"bytes32","internalType":"bytes32"},{"name":"initialOdds","type":"uint32","internalType":"uint32"},{"name":"line","type":"int16","internalType":"int16"}],"outputs":[],"stateMutability":"nonpayable"},{"type":"function","name":"cancelMarket","inputs":[{"name":"marketId","type":"uint256","internalType":"uint256"},{"name":"reason","type":"string","internalType":"string"}],"outputs":[],"stateMutability":"nonpayable"},{"type":"function","name":"claim","inputs":[{"name":"marketId","type":"uint256","internalType":"uint256"},{"name":"betIndex","type":"uint256","internalType":"uint256"}],"outputs":[],"stateMutability":"nonpayable"},{"type":"function","name":"claimAll","inputs":[{"name":"marketId","type":"uint256","internalType":"uint256"}],"outputs":[],"stateMutability":"nonpayable"},{"type":"function","name":"claimRange","inputs":[{"name":"marketId","type":"uint256","internalType":"uint256"},{"name":"start","type":"uint256","internalType":"uint256"},{"name":"end","type":"uint256","internalType":"uint256"}],"outputs":[],"stateMutability":"nonpayable"},{"type":"function","name":"claimRefund","inputs":[{"name":"marketId","type":"uint256","internalType":"uint256"},{"name":"betIndex","type":"uint256","internalType":"uint256"}],"outputs":[],"stateMutability":"nonpayable"},{"type":"function","name":"closeMarket","inputs":[{"name":"marketId","type":"uint256","internalType":"uint256"}],"outputs":[],"stateMutability":"nonpayable"},{"type":"function","name":"emergencyPause","inputs":[],"outputs":[],"stateMutability":"nonpayable"},{"type":"function","name":"footballMarkets","inputs":[{"name":"","type":"uint256","internalType":"uint256"}],"outputs":[{"name":"marketType","type":"bytes32","internalType":"bytes32"},{"name":"line","type":"int16","internalType":"int16"},{"name":"maxSelections","type":"uint8","internalType":"uint8"}],"stateMutability":"view"},{"type":"function","name":"getBetDetails","inputs":[{"name":"marketId","type":"uint256","internalType":"uint256"},{"name":"user","type":"address","internalType":"address"},{"name":"betIndex","type":"uint256","internalType":"uint256"}],"outputs":[{"name":"amount","type":"uint256","internalType":"uint256"},{"name":"selection","type":"uint64","internalType":"uint64"},{"name":"odds","type":"uint32","internalType":"uint32"},{"name":"timestamp","type":"uint40","internalType":"uint40"},{"name":"claimed","type":"bool","internalType":"bool"},{"name":"potentialPayout","type":"uint256","internalType":"uint256"}],"stateMutability":"view"},{"type":"function","name":"getCurrentOdds","inputs":[{"name":"marketId","type":"uint256","internalType":"uint256"}],"outputs":[{"name":"","type":"uint32","internalType":"uint32"}],"stateMutability":"view"},{"type":"function","name":"getFootballMarket","inputs":[{"name":"marketId","type":"uint256","internalType":"uint256"}],"outputs":[{"name":"marketTypeStr","type":"string","internalType":"string"},{"name":"line","type":"int16","internalType":"int16"},{"name":"maxSelections","type":"uint8","internalType":"uint8"},{"name":"state","type":"uint8","internalType":"enum BettingMatch.MarketState"},{"name":"currentOdds","type":"uint32","internalType":"uint32"},{"name":"result","type":"uint64","internalType":"uint64"},{"name":"totalPool","type":"uint256","internalType":"uint256"}],"stateMutability":"view"},{"type":"function","name":"getMarketCore","inputs":[{"name":"marketId","type":"uint256","internalType":"uint256"}],"outputs":[{"name":"","type":"tuple","internalType":"struct BettingMatch.MarketCore","components":[{"name":"state","type":"uint8","internalType":"enum BettingMatch.MarketState"},{"name":"result","type":"uint64","internalType":"uint64"},{"name":"createdAt","type":"uint40","internalType":"uint40"},{"name":"resolvedAt","type":"uint40","internalType":"uint40"},{"name":"totalPool","type":"uint256","internalType":"uint256"}]}],"stateMutability":"view"},{"type":"function","name":"getMarketInfo","inputs":[{"name":"marketId","type":"uint256","internalType":"uint256"}],"outputs":[{"name":"marketType","type":"bytes32","internalType":"bytes32"},{"name":"state","type":"uint8","internalType":"enum BettingMatch.MarketState"},{"name":"currentOdds","type":"uint32","internalType":"uint32"},{"name":"result","type":"uint64","internalType":"uint64"},{"name":"totalPool","type":"uint256","internalType":"uint256"}],"stateMutability":"view"},{"type":"function","name":"getMarketLiability","inputs":[{"name":"marketId","type":"uint256","internalType":"uint256"}],"outputs":[{"name":"","type":"uint256","internalType":"uint256"}],"stateMutability":"view"},{"type":"function","name":"getOddsHistory","inputs":[{"name":"marketId","type":"uint256","internalType":"uint256"}],"outputs":[{"name":"","type":"uint32[]","internalType":"uint32[]"}],"stateMutability":"view"},{"type":"function","name":"getRoleAdmin","inputs":[{"name":"role","type":"bytes32","internalType":"bytes32"}],"outputs":[{"name":"","type":"bytes32","internalType":"bytes32"}],"stateMutability":"view"},{"type":"function","name":"getUserBets","inputs":[{"name":"marketId","type":"uint256","internalType":"uint256"},{"name":"user","type":"address","internalType":"address"}],"outputs":[{"name":"","type":"tuple[]","internalType":"struct BettingMatch.Bet[]","components":[{"name":"amount","type":"uint256","internalType":"uint256"},{"name":"selection","type":"uint64","internalType":"uint64"},{"name":"oddsIndex","type":"uint16","internalType":"uint16"},{"name":"timestamp","type":"uint40","internalType":"uint40"},{"name":"claimed","type":"bool","internalType":"bool"}]}],"stateMutability":"view"},{"type":"function","name":"grantRole","inputs":[{"name":"role","type":"bytes32","internalType":"bytes32"},{"name":"account","type":"address","internalType":"address"}],"outputs":[],"stateMutability":"nonpayable"},{"type":"function","name":"hasRole","inputs":[{"name":"role","type":"bytes32","internalType":"bytes32"},{"name":"account","type":"address","internalType":"address"}],"outputs":[{"name":"","type":"bool","internalType":"bool"}],"stateMutability":"view"},{"type":"function","name":"initialize","inputs":[{"name":"_matchName","type":"string","internalType":"string"},{"name":"_owner","type":"address","internalType":"address"}],"outputs":[],"stateMutability":"nonpayable"},{"type":"function","name":"liquidityPool","inputs":[],"outputs":[{"name":"","type":"address","internalType":"contract ILiquidityPool"}],"stateMutability":"view"},{"type":"function","name":"marketCount","inputs":[],"outputs":[{"name":"","type":"uint256","internalType":"uint256"}],"stateMutability":"view"},{"type":"function","name":"matchName","inputs":[],"outputs":[{"name":"","type":"string","internalType":"string"}],"stateMutability":"view"},{"type":"function","name":"maxAllowedOdds","inputs":[],"outputs":[{"name":"","type":"uint32","internalType":"uint32"}],"stateMutability":"view"},{"type":"function","name":"openMarket","inputs":[{"name":"marketId","type":"uint256","internalType":"uint256"}],"outputs":[],"stateMutability":"nonpayable"},{"type":"function","name":"owner","inputs":[],"outputs":[{"name":"","type":"address","internalType":"address"}],"stateMutability":"view"},{"type":"function","name":"paused","inputs":[],"outputs":[{"name":"","type":"bool","internalType":"bool"}],"stateMutability":"view"},{"type":"function","name":"placeBetUSDC","inputs":[{"name":"marketId","type":"uint256","internalType":"uint256"},{"name":"selection","type":"uint64","internalType":"uint64"},{"name":"grossAmount","type":"uint256","internalType":"uint256"}],"outputs":[],"stateMutability":"nonpayable"},{"type":"function","name":"placeBetUSDCFor","inputs":[{"name":"user","type":"address","internalType":"address"},{"name":"marketId","type":"uint256","internalType":"uint256"},{"name":"selection","type":"uint64","internalType":"uint64"},{"name":"netStake","type":"uint256","internalType":"uint256"}],"outputs":[],"stateMutability":"nonpayable"},{"type":"function","name":"proxiableUUID","inputs":[],"outputs":[{"name":"","type":"bytes32","internalType":"bytes32"}],"stateMutability":"view"},{"type":"function","name":"quoteNetExposure","inputs":[{"name":"marketId","type":"uint256","internalType":"uint256"},{"name":"amount","type":"uint256","internalType":"uint256"}],"outputs":[{"name":"netExposure","type":"uint256","internalType":"uint256"}],"stateMutability":"view"},{"type":"function","name":"renounceOwnership","inputs":[],"outputs":[],"stateMutability":"nonpayable"},{"type":"function","name":"renounceRole","inputs":[{"name":"role","type":"bytes32","internalType":"bytes32"},{"name":"callerConfirmation","type":"address","internalType":"address"}],"outputs":[],"stateMutability":"nonpayable"},{"type":"function","name":"resolveMarket","inputs":[{"name":"marketId","type":"uint256","internalType":"uint256"},{"name":"result","type":"uint64","internalType":"uint64"}],"outputs":[],"stateMutability":"nonpayable"},{"type":"function","name":"revokeRole","inputs":[{"name":"role","type":"bytes32","internalType":"bytes32"},{"name":"account","type":"address","internalType":"address"}],"outputs":[],"stateMutability":"nonpayable"},{"type":"function","name":"setLiquidityPool","inputs":[{"name":"_pool","type":"address","internalType":"address"}],"outputs":[],"stateMutability":"nonpayable"},{"type":"function","name":"setMarketOdds","inputs":[{"name":"marketId","type":"uint256","internalType":"uint256"},{"name":"newOdds","type":"uint32","internalType":"uint32"}],"outputs":[],"stateMutability":"nonpayable"},{"type":"function","name":"setMaxAllowedOdds","inputs":[{"name":"newMax","type":"uint32","internalType":"uint32"}],"outputs":[],"stateMutability":"nonpayable"},{"type":"function","name":"setUSDCToken","inputs":[{"name":"_usdcToken","type":"address","internalType":"address"}],"outputs":[],"stateMutability":"nonpayable"},{"type":"function","name":"sportType","inputs":[],"outputs":[{"name":"","type":"string","internalType":"string"}],"stateMutability":"view"},{"type":"function","name":"supportsInterface","inputs":[{"name":"interfaceId","type":"bytes4","internalType":"bytes4"}],"outputs":[{"name":"","type":"bool","internalType":"bool"}],"stateMutability":"view"},{"type":"function","name":"suspendMarket","inputs":[{"name":"marketId","type":"uint256","internalType":"uint256"}],"outputs":[],"stateMutability":"nonpayable"},{"type":"function","name":"transferOwnership","inputs":[{"name":"newOwner","type":"address","internalType":"address"}],"outputs":[],"stateMutability":"nonpayable"},{"type":"function","name":"unpause","inputs":[],"outputs":[],"stateMutability":"nonpayable"},{"type":"function","name":"upgradeToAndCall","inputs":[{"name":"newImplementation","type":"address","internalType":"address"},{"name":"data","type":"bytes","internalType":"bytes"}],"outputs":[],"stateMutability":"payable"},{"type":"function","name":"usdcToken","inputs":[],"outputs":[{"name":"","type":"address","internalType":"contract IERC20"}],"stateMutability":"view"},{"type":"event","name":"BetPlaced","inputs":[{"name":"marketId","type":"uint256","indexed":true,"internalType":"uint256"},{"name":"user","type":"address","indexed":true,"internalType":"address"},{"name":"betIndex","type":"uint256","indexed":false,"internalType":"uint256"},{"name":"amount","type":"uint256","indexed":false,"internalType":"uint256"},{"name":"selection","type":"uint64","indexed":false,"internalType":"uint64"},{"name":"odds","type":"uint32","indexed":false,"internalType":"uint32"},{"name":"oddsIndex","type":"uint16","indexed":false,"internalType":"uint16"}],"anonymous":false},{"type":"event","name":"Initialized","inputs":[{"name":"version","type":"uint64","indexed":false,"internalType":"uint64"}],"anonymous":false},{"type":"event","name":"LiquidityPoolSet","inputs":[{"name":"pool","type":"address","indexed":true,"internalType":"address"}],"anonymous":false},{"type":"event","name":"MarketCancelled","inputs":[{"name":"marketId","type":"uint256","indexed":true,"internalType":"uint256"},{"name":"reason","type":"string","indexed":false,"internalType":"string"}],"anonymous":false},{"type":"event","name":"MarketCreated","inputs":[{"name":"marketId","type":"uint256","indexed":true,"internalType":"uint256"},{"name":"marketType","type":"string","indexed":false,"internalType":"string"},{"name":"initialOdds","type":"uint32","indexed":false,"internalType":"uint32"}],"anonymous":false},{"type":"event","name":"MarketResolved","inputs":[{"name":"marketId","type":"uint256","indexed":true,"internalType":"uint256"},{"name":"result","type":"uint64","indexed":false,"internalType":"uint64"},{"name":"resolvedAt","type":"uint40","indexed":false,"internalType":"uint40"}],"anonymous":false},{"type":"event","name":"MarketStateChanged","inputs":[{"name":"marketId","type":"uint256","indexed":true,"internalType":"uint256"},{"name":"oldState","type":"uint8","indexed":false,"internalType":"enum BettingMatch.MarketState"},{"name":"newState","type":"uint8","indexed":false,"internalType":"enum BettingMatch.MarketState"}],"anonymous":false},{"type":"event","name":"MatchInitialized","inputs":[{"name":"name","type":"string","indexed":true,"internalType":"string"},{"name":"sportType","type":"string","indexed":false,"internalType":"string"},{"name":"owner","type":"address","indexed":true,"internalType":"address"}],"anonymous":false},{"type":"event","name":"MaxAllowedOddsSet","inputs":[{"name":"oldMax","type":"uint32","indexed":false,"internalType":"uint32"},{"name":"newMax","type":"uint32","indexed":false,"internalType":"uint32"}],"anonymous":false},{"type":"event","name":"OddsUpdated","inputs":[{"name":"marketId","type":"uint256","indexed":true,"internalType":"uint256"},{"name":"oldOdds","type":"uint32","indexed":false,"internalType":"uint32"},{"name":"newOdds","type":"uint32","indexed":false,"internalType":"uint32"},{"name":"oddsIndex","type":"uint16","indexed":false,"internalType":"uint16"}],"anonymous":false},{"type":"event","name":"OwnershipTransferred","inputs":[{"name":"previousOwner","type":"address","indexed":true,"internalType":"address"},{"name":"newOwner","type":"address","indexed":true,"internalType":"address"}],"anonymous":false},{"type":"event","name":"Paused","inputs":[{"name":"account","type":"address","indexed":false,"internalType":"address"}],"anonymous":false},{"type":"event","name":"Payout","inputs":[{"name":"marketId","type":"uint256","indexed":true,"internalType":"uint256"},{"name":"user","type":"address","indexed":true,"internalType":"address"},{"name":"betIndex","type":"uint256","indexed":false,"internalType":"uint256"},{"name":"amount","type":"uint256","indexed":false,"internalType":"uint256"}],"anonymous":false},{"type":"event","name":"Refund","inputs":[{"name":"marketId","type":"uint256","indexed":true,"internalType":"uint256"},{"name":"user","type":"address","indexed":true,"internalType":"address"},{"name":"betIndex","type":"uint256","indexed":false,"internalType":"uint256"},{"name":"amount","type":"uint256","indexed":false,"internalType":"uint256"}],"anonymous":false},{"type":"event","name":"RoleAdminChanged","inputs":[{"name":"role","type":"bytes32","indexed":true,"internalType":"bytes32"},{"name":"previousAdminRole","type":"bytes32","indexed":true,"internalType":"bytes32"},{"name":"newAdminRole","type":"bytes32","indexed":true,"internalType":"bytes32"}],"anonymous":false},{"type":"event","name":"RoleGranted","inputs":[{"name":"role","type":"bytes32","indexed":true,"internalType":"bytes32"},{"name":"account","type":"address","indexed":true,"internalType":"address"},{"name":"sender","type":"address","indexed":true,"internalType":"address"}],"anonymous":false},{"type":"event","name":"RoleRevoked","inputs":[{"name":"role","type":"bytes32","indexed":true,"internalType":"bytes32"},{"name":"account","type":"address","indexed":true,"internalType":"address"},{"name":"sender","type":"address","indexed":true,"internalType":"address"}],"anonymous":false},{"type":"event","name":"USDCTokenSet","inputs":[{"name":"token","type":"address","indexed":true,"internalType":"address"}],"anonymous":false},{"type":"event","name":"Unpaused","inputs":[{"name":"account","type":"address","indexed":false,"internalType":"address"}],"anonymous":false},{"type":"event","name":"Upgraded","inputs":[{"name":"implementation","type":"address","indexed":true,"internalType":"address"}],"anonymous":false},{"type":"error","name":"AccessControlBadConfirmation","inputs":[]},{"type":"error","name":"AccessControlUnauthorizedAccount","inputs":[{"name":"account","type":"address","internalType":"address"},{"name":"neededRole","type":"bytes32","internalType":"bytes32"}]},{"type":"error","name":"AddressEmptyCode","inputs":[{"name":"target","type":"address","internalType":"address"}]},{"type":"error","name":"AlreadyClaimed","inputs":[{"name":"marketId","type":"uint256","internalType":"uint256"},{"name":"user","type":"address","internalType":"address"},{"name":"betIndex","type":"uint256","internalType":"uint256"}]},{"type":"error","name":"BetLost","inputs":[{"name":"marketId","type":"uint256","internalType":"uint256"},{"name":"user","type":"address","internalType":"address"},{"name":"betIndex","type":"uint256","internalType":"uint256"}]},{"type":"error","name":"BetNotFound","inputs":[{"name":"marketId","type":"uint256","internalType":"uint256"},{"name":"user","type":"address","internalType":"address"},{"name":"betIndex","type":"uint256","internalType":"uint256"}]},{"type":"error","name":"ERC1967InvalidImplementation","inputs":[{"name":"implementation","type":"address","internalType":"address"}]},{"type":"error","name":"ERC1967NonPayable","inputs":[]},{"type":"error","name":"EnforcedPause","inputs":[]},{"type":"error","name":"ExpectedPause","inputs":[]},{"type":"error","name":"FailedCall","inputs":[]},{"type":"error","name":"InvalidInitialization","inputs":[]},{"type":"error","name":"InvalidMarketId","inputs":[{"name":"marketId","type":"uint256","internalType":"uint256"}]},{"type":"error","name":"InvalidMarketState","inputs":[{"name":"marketId","type":"uint256","internalType":"uint256"},{"name":"current","type":"uint8","internalType":"enum BettingMatch.MarketState"},{"name":"required","type":"uint8","internalType":"enum BettingMatch.MarketState"}]},{"type":"error","name":"InvalidMarketType","inputs":[{"name":"marketType","type":"bytes32","internalType":"bytes32"}]},{"type":"error","name":"InvalidOddsValue","inputs":[{"name":"odds","type":"uint32","internalType":"uint32"},{"name":"min","type":"uint32","internalType":"uint32"},{"name":"max","type":"uint32","internalType":"uint32"}]},{"type":"error","name":"InvalidSelection","inputs":[{"name":"marketId","type":"uint256","internalType":"uint256"},{"name":"selection","type":"uint64","internalType":"uint64"},{"name":"maxAllowed","type":"uint8","internalType":"uint8"}]},{"type":"error","name":"LiquidityPoolNotConfigured","inputs":[]},{"type":"error","name":"MaxOddsEntriesReached","inputs":[{"name":"marketId","type":"uint256","internalType":"uint256"}]},{"type":"error","name":"NotInitializing","inputs":[]},{"type":"error","name":"OddsNotSet","inputs":[{"name":"marketId","type":"uint256","internalType":"uint256"}]},{"type":"error","name":"OwnableInvalidOwner","inputs":[{"name":"owner","type":"address","internalType":"address"}]},{"type":"error","name":"OwnableUnauthorizedAccount","inputs":[{"name":"account","type":"address","internalType":"address"}]},{"type":"error","name":"ReentrancyGuardReentrantCall","inputs":[]},{"type":"error","name":"SafeERC20FailedOperation","inputs":[{"name":"token","type":"address","internalType":"address"}]},{"type":"error","name":"StakeBelowMinimum","inputs":[{"name":"netStake","type":"uint256","internalType":"uint256"},{"name":"minimum","type":"uint256","internalType":"uint256"}]},{"type":"error","name":"USDCNotConfigured","inputs":[]},{"type":"error","name":"UUPSUnauthorizedCallContext","inputs":[]},{"type":"error","name":"UUPSUnsupportedProxiableUUID","inputs":[{"name":"slot","type":"bytes32","internalType":"bytes32"}]},{"type":"error","name":"ZeroBetAmount","inputs":[]},{"type":"error","name":"ZeroNetExposure","inputs":[{"name":"marketId","type":"uint256","internalType":"uint256"}]}],"bytecode":{"object":"0x60a08060405234620000d157306080527ff0c57e16840df040f15088dc2f81fe391c3923bec73e23a9662efc9c229c6a009081549060ff8260401c16620000c257506001600160401b036002600160401b0319828216016200007c575b604051614b539081620000d68239608051818181612a770152612bb00152f35b6001600160401b031990911681179091556040519081527fc7f505b2f371ae2175ee4913f4499e1f2633a7b5936321eed1cdaeb6115181d290602090a15f80806200005c565b63f92ee8a960e01b8152600490fd5b5f80fdfe60806040526004361015610011575f80fd5b5f60e05f35811c9081630187702014613a5057816301ffc9a7146139fa5781630e75a18c146139c55781630f5a9d011461395f57816310dc30fd1461393857816311eac8551461391057816319d0ec1f146138aa5781631a095c6e14613670578163248a9ca3146136375781632cfe63a5146136195781632e71b708146135f15781632f2ff15d146135a757816336568abe1461355f5781633ec79193146134dc5781633eccfc96146130a15781633f4ba83a1461302a57816340b16c1e14612f4d578163456051f114612dd35781634644161f14612da05781634f1ef28614612b6057816351858e2714612ace57816352d1902d14612a645781635c975abb14612a3557816361bd2ca9146128e9578163665a11ca146128c05781636930fd2a146124e45781636bc98ba3146124c75781636bcaa9911461249f578163715018a61461244957816371738f8c146123be57816375b238fc1461239657816378fab2601461236e5781637ab4339d14611eca5781637c0078a414611ea257816383e2e9df14611ca15781638527d58f14611a9c5781638723eccf14611a745781638da5cb5b14611a3f57816391d14854146119e9578163931b54661461193f57816397576c6d146118fa5781639ebfee811461183d578163a217fddf14611821578163a4b8195c14611344578163a890c99714610ecf578163ad3cb1cc14610e89578163ae07d05114610e6c578163ae41809514610db0578163ba26901514610cc5578163baa2675714610c0b578163bef2a6a014610b46578163c34902631461089d578163c6886db414610875578163d547741f14610827578163dd19ed0a146107ff578163e570d084146107d7578163e63ab1e9146107af578163ec97908214610791578163f014a10814610773578163f2fde38b14610746578163f50ee3d51461052c578163f6d105c21461047657508063fa744dd3146103035763ff40596c146102dd575f80fd5b34610300578060031936011261030057602063ffffffff600e5416604051908152f35b80fd5b50346103005760403660031901126103005760043590610321613acc565b9161032b81613e2c565b81526004602090815260408083206001600160a01b039094165f90815293825290922080546001600160401b039384821161046257929060405190610375858260051b0183613b64565b8082528482018094845285842084915b83831061040057505050506040519380850191818652518092526040850193925b8281106103b35785850386f35b8351805186528083015188168684015260408082015161ffff169087015260608082015164ffffffffff169087015260809081015115159086015260a090940193928101926001016103a6565b60028860019260409a97989a5161041681613b2e565b8554815260ff8d868801549081168584015261ffff8160401c16604084015264ffffffffff8160501c16606084015260781c161515608082015281520192019201919096949396610385565b634e487b7160e01b84526041600452602484fd5b9050346105285760203660031901126105285760043561049581613e2c565b808352603260205260408084209360056020522060016104b5855461449c565b9401549163ffffffff60016104cb845493613e85565b9301549260ff6104e560405198888a998a52890190613c44565b958060010b602089015260101c1660408701526105086060870160ff8516613b0e565b16608085015260081c6001600160401b031660a084015260c08301520390f35b5080fd5b9050346105285760209081600319360112610742579060043561054e81613e2c565b83526003815280604084209260405180938491818754918281520190819789528289209489915b8060078401106106d1576105d5965492858282106106bb575b8282106106a3575b82821061068a575b828210610671575b828210610658575b82821061063f575b828210610626575b5010610619575b5050905095929493950385613b64565b60405193838594850191818652518092526040850193925b8281106105fc57505050500390f35b835163ffffffff16855286955093810193928101926001016105ed565b1c81520183905f806105c5565b6001919563ffffffff8660c01c168152019401856105be565b6001919563ffffffff8660a01c168152019401856105b6565b6001919563ffffffff8660801c168152019401856105ae565b6001919563ffffffff8660601c168152019401856105a6565b6001919563ffffffff8660401c1681520194018561059e565b6001919563ffffffff86831c16815201940185610596565b6001919563ffffffff861681520194018561058e565b926008929550600191945061010090875463ffffffff808216835280828c1c168b840152808260401c16604084015260608183821c169084015260808183821c169084015260a08183821c169084015260c09082821c1690830152861c868201520195019301859287949592610575565b8280fd5b823461030057602036600319011261030057610770610763613ab6565b61076b6143bc565b613d6b565b80f35b82346103005780600319360112610300576020604051620f42408152f35b82346103005780600319360112610300576020600254604051908152f35b823461030057806003193601126103005760206040515f8051602061491e8339815191528152f35b823461030057806003193601126103005760206040515f805160206149be8339815191528152f35b823461030057806003193601126103005760206040515f8051602061481e8339815191528152f35b823461030057604036600319011261030057610871600435610847613acc565b908084525f8051602061497e83398151915260205261086c6001604086200154613dfe565b614179565b5080f35b823461030057806003193601126103005760206040515f80516020614ade8339815191528152f35b8234610300576108ac36613ae2565b906108b561438d565b6108be81613e2c565b805f5260206005815260ff60405f2054166006811015610b325760048103610b0457506108e9614241565b8184526004815260408420335f52815260405f208054841015610ae4578361091091613cf4565b5090600182019182549260ff8460781c16610ac7578487526005835260408720546001600160401b03929060081c831685841603610aa657906109ca88939261271061097561096661ffff8a60401c168b61461f565b63ffffffff8454911690613c69565b0496600160781b9060ff60781b1916178355878552600886526040852061099d888254613c7c565b90558785526009865260408520848454165f52865260405f206109c1888254613c7c565b90555486613c7c565b91868452600a8552604084206109e1848254613c7c565b9055868452600b8552604084209154165f52835260405f20610a04828254613c7c565b90556007546001600160a01b0316803b1561074257604051631fabc62960e31b81529183918391829084908290610a42908b338e3060048701613d3e565b03925af18015610a9b57610a83575b50506040519384528301525f80516020614abe83398151915260403393a360015f80516020614a1e8339815191525580f35b610a8c90613b1b565b610a97578486610a51565b8480fd5b6040513d84823e3d90fd5b604051638bf5a6c560e01b815280610ac389338a60048501613cd3565b0390fd5b6040516308c52d4160e11b815280610ac388338960048501613cd3565b5050610ac3604051928392635b834b8f60e11b8452339060048501613cd3565b6040516327c6314f60e11b815260048101849052606491610b29906024830190613b0e565b60046044820152fd5b634e487b7160e01b5f52602160045260245ffd5b82346103005780600319360112610300576040515f60018260015492610b6b84613beb565b92838352602094856001821691825f14610beb575050600114610bae575b50610b9692500383613b64565b610baa604051928284938452830190613c44565b0390f35b84915060015f52815f20905f915b858310610bd3575050610b96935082010185610b89565b80548389018501528794508693909201918101610bbc565b60ff191685820152610b9695151560051b8501019250879150610b899050565b823461030057602036600319011261030057600435610c2981613e2c565b610c31613dc9565b805f52600560205260405f2080549060ff8216916006831015610b325782151580610cba575b610c8d5760ff19166001179055604080515f805160206148fe83398151915292610c82908290613b0e565b60016020820152a280f35b6040516327c6314f60e11b815260048101859052606490610cb16024820186613b0e565b60016044820152fd5b506002831415610c57565b823461030057606036600319011261030057600435610ce2613acc565b604060443593610cf184613e2c565b83815260046020522060018060a01b0382165f5260205260405f20908154841015610d92575060c092610d2391613cf4565b509060ff63ffffffff610d4360018501549361ffff8560401c169061461f565b9354931691612710610d558486613c69565b049260405194855260018060401b0382166020860152604085015264ffffffffff8160501c16606085015260781c161515608083015260a0820152f35b82610ac385604051938493635b834b8f60e11b855260048501613cd3565b823461030057602036600319011261030057600435610dce81613e2c565b610dd6613dc9565b805f52600560205260405f2080549060ff8216916006831015610b3257600183141580610e61575b610e345760ff19166003179055604080515f805160206148fe83398151915292610e29908290613b0e565b60036020820152a280f35b6040516327c6314f60e11b815260048101859052606490610e586024820186613b0e565b60036044820152fd5b506002831415610dfe565b823461030057806003193601126103005760206040516127118152f35b8234610300578060031936011261030057610baa604051610ea981613b49565b60058152640352e302e360dc1b6020820152604051918291602083526020830190613c44565b823461030057606036600319011261030057602435604435610eef61438d565b610efa600435613e2c565b610f02614241565b6004358352600560205260ff604084205416600681101561133057600481141580611325575b6112ff57506004358352600460205260408320335f5260205260405f2054908181115f146112f857505b808210610f6f575b8260015f80516020614a1e8339815191525580f35b6004355f52600560205260405f2091600460205260405f20335f5260205260405f20905b828110610fa1575050610f5a565b610fab8183613cf4565b5090600182015460ff8160781c1661116b578554600660ff82161015610b3257600460ff821614806112de575b1561115d575050600182015491610ff861ffff8460401c1660043561461f565b9061101961271061101163ffffffff8454951685613c69565b049283613c7c565b60ff60781b19909416600160781b1760018201556004355f908152600860205260409020805461104a908490613c7c565b90556004355f52600960205260405f2060018060401b0390816001840154165f5260205260405f2061107d848254613c7c565b90556004355f52600a60205260405f20611098868254613c7c565b90556004355f52600b602052600160405f20920154165f5260205260405f206110c2848254613c7c565b90556007546001600160a01b0316803b15611159576111015f94918592604051968780948193631fabc62960e31b835288336004353060048701613d3e565b03925af192831561114e5760019361113f575b5060405190828252602082015233905f80516020614abe833981519152604060043592a35b01610f93565b61114890613b1b565b87611114565b6040513d5f823e3d90fd5b5f80fd5b90929060ff16600514611175575b5060019150611139565b61118861ffff8460401c1660043561461f565b9061271061119e63ffffffff8354941684613c69565b046111a98382613c7c565b60ff60781b19909516600160781b1760018301556004355f90815260086020526040902080546111da908390613c7c565b90556004355f52600960205260405f209060018060401b0391826001850154165f5260205261120e60405f20918254613c7c565b90556004355f52600a60205260405f20611229868254613c7c565b90556004355f52600b602052600160405f20920154165f5260205260405f20611253848254613c7c565b90556007546001600160a01b0316803b15611159576112925f949185926040519687809481936321d2aaf360e11b835288336004353060048701613d3e565b03925af192831561114e576001936112cf575b5060405190828252602082015233905f805160206148be833981519152604060043592a38661116b565b6112d890613b1b565b876112a5565b506001600160401b03828116600883901c90911614610fd8565b9050610f52565b6040516327c6314f60e11b81526004803590820152606491610b29906024830190613b0e565b506005811415610f28565b634e487b7160e01b84526021600452602484fd5b823461030057606036600319011261030057600435611361613af8565b9060443561136e82613e2c565b611377826141f8565b61137f614241565b6007545f936001600160a01b03918216801561180f5783156117fd57845f526020936003855260405f20600281019061ffff9586835416156117e5576113c5868a613ec2565b806006541680156117d3576040516306acb3f760e31b81529489866004818a5afa801561114e5789965f91611795575b506114129061140a6127109b8c921684613c69565b048092613c7c565b968a82611721575b505050506114348582600654168360075416903390614647565b620186a0808610611703575063ffffffff61145c858554169361145685613e51565b90613e64565b90549060031b1c169661146f8887613c69565b0461147a8682613c7c565b9283156116ea578a5f5260048a5260405f20335f528a5260405f2090604051916114a383613b2e565b8883528b83019160018060401b03809b169a8b845260408501918252606085019064ffffffffff4216825260808601935f85528054600160401b8110156116d6576114f391600182018155613cf4565b9690966116c35761153f966001915181550194511684549261ffff60401b905160401b169164ffffffffff60501b905160501b169260018060781b031916171717825551151590613d21565b895f5260058952600160405f200161155887825461426b565b9055895f526008895260405f2061157082825461426b565b9055895f526009895260405f20875f52895261159160405f2091825461426b565b9055885f52600a885260405f206115a983825461426b565b9055885f52600b885260405f20865f52885260405f206115ca83825461426b565b9055885f52600c885260405f206115e286825461426b565b9055885f52600d885260405f20865f52885260405f2061160386825461426b565b905560075416803b1561115957611639915f9186838c60405196879586948593631613163360e11b855233903060048701613d3e565b03925af1801561114e576116b0575b508688526004865260408820335f52865260405f2054975f19890198891161169c57505416936040519687528601526040850152606084015260808301525f805160206149fe83398151915260a03393a380f35b634e487b7160e01b81526011600452602490fd5b6116bb919850613b1b565b5f9689611648565b634e487b7160e01b5f525f60045260245ffd5b634e487b7160e01b5f52604160045260245ffd5b604051631a048a7f60e11b8152600481018c9052602490fd5b85604491604051916378e030db60e01b835260048301526024820152fd5b6040516361d027b360e01b815291829060049082905afa90811561114e575f9161175b575b50611752923390614647565b8b80808a61141a565b90508a81813d831161178e575b6117728183613b64565b8101031261115957519183831683036111595791611752611746565b503d611768565b809297508b8092503d83116117cc575b6117af8183613b64565b8101031261115957519488861686036111595788956114126113f5565b503d6117a5565b604051639554dd1160e01b8152600490fd5b60405162bc17d160e31b8152600481018a9052602490fd5b604051630813eb4360e01b8152600490fd5b60405163b8b5ff1560e01b8152600490fd5b8234610300578060031936011261030057602090604051908152f35b82346103005760203660031901126103005760043563ffffffff80821680920361115957611869613dc9565b811515806118e3575b6118b9577f93e70e5656ae122d798afc18b8341c8562c767d894018b7e4b1f34d319507c6f6040600e549281519084168152846020820152a163ffffffff191617600e5580f35b604051637231c80760e01b8152600481018390526127116024820152620f42406044820152606490fd5b506127118210806118725750620f42408211611872565b8234610300576020366003190112610300576040606091600435815260326020522060ff600182549201546040519283528060010b602084015260101c166040820152f35b82346103005760203660031901126103005760043561195d81613e2c565b611965613dc9565b805f52600560205260405f2080549060ff8216916006831015610b3257600183036119bc5760ff19166002179055604080515f805160206148fe833981519152926119b1908290613b0e565b60026020820152a280f35b6040516327c6314f60e11b8152600481018590526064906119e06024820186613b0e565b60026044820152fd5b8234610300576040366003190112610300576040611a05613acc565b9160043581525f8051602061497e833981519152602052209060018060a01b03165f52602052602060ff60405f2054166040519015158152f35b82346103005780600319360112610300575f805160206147de833981519152546040516001600160a01b039091168152602090f35b823461030057806003193601126103005760206040515f805160206147be8339815191528152f35b823461030057611aab36613ae2565b90611ab461438d565b611abd81613e2c565b805f5260206005815260ff60405f2054166006811015610b325760058103611c7357508184526004815260408420335f52815260405f208054841015610ae45783611b0791613cf4565b5090600182019182549060ff8260781c16610ac7579086915493612710611b4463ffffffff611b3d61ffff8660401c168a61461f565b1687613c69565b04611b4f8682613c7c565b60ff60781b19909316600160781b17825586845260088552604084208054611b78908390613c7c565b905586845260098552604084209060018060401b0391828454165f528652611ba560405f20918254613c7c565b9055868452600a855260408420611bbd848254613c7c565b9055868452600b8552604084209154165f52835260405f20611be0828254613c7c565b90556007546001600160a01b0316803b15610742576040516321d2aaf360e11b81529183918391829084908290611c1e908b338e3060048701613d3e565b03925af18015610a9b57611c5f575b50506040519384528301525f805160206148be83398151915260403393a360015f80516020614a1e8339815191525580f35b611c6890613b1b565b610a97578486611c2d565b6040516327c6314f60e11b815260048101849052606491611c98906024830190613b0e565b60056044820152fd5b823461030057606036600319011261030057600435611cbe613bd8565b906044358060010b809103611e9e57611cd5613dc9565b611cde83614278565b611ce7826143f4565b91600254935f198514611e8a576001850160025564ffffffffff9260405192611d0f84613b2e565b8784526020938481019589875260408201908042168252606083018b815260808401928c84528b8d526005895260408d2094516006811015611e7657916001949391611d9d9360ff80198954169116178755611d74868060401b03809d511688613c89565b51865464ffffffffff60481b191660489190911b64ffffffffff60481b16178655511684613cae565b51910155604051916060830195838710908711176116d6577f4a21a24162d65cb7c74d895d7c8c53745fcf2fddf8d714fc764cf32c34f29688966001611e5094611e6a9860405284815287810193845260ff60408201931683528a8c526032885260408c20905181550191519061ffff62ff00008454925160101b1692169062ffffff191617179055611e3083886142e0565b508688526003845260408820600201805461ffff1916600117905561449c565b9163ffffffff604051948594604086526040860190613c44565b9216908301520390a280f35b634e487b7160e01b8e52602160045260248efd5b634e487b7160e01b86526011600452602486fd5b8380fd5b823461030057806003193601126103005760206040515f805160206148de8339815191528152f35b8234610300576040366003190112610300576004356001600160401b038111610528573660238201121561052857611f0c903690602481600401359101613ba2565b90611f15613acc565b5f80516020614a7e83398151915254906001600160401b0382168015908161235e575b6001149081612354575b15908161234b575b50612339576001600160401b031982166001175f80516020614a7e83398151915255604082901c60ff1615612311575b60405190611f8782613b49565b60088252671193d3d51090531360c21b6020830152611fa46146cc565b611fac6146cc565b611fb46146cc565b611fbd81613d6b565b611fc56146cc565b611fcd6146cc565b611fd56146cc565b611fdd6146cc565b60015f80516020614a1e83398151915255611ff66146cc565b611fff81613f11565b5061200981613f82565b5061201381614009565b5061201d81614089565b5084516001600160401b03811161224c576120388554613beb565b601f81116122cc575b50806020601f821160011461226b578691612260575b508160011b915f199060031b1c19161784555b8151946001600160401b03861161224c57612086600154613beb565b601f81116121fc575b50602095601f8111600114612178576120e85f8051602061495e833981519152928261210b93899a60ff9a9161216d575b508160011b915f199060031b1c1916176001555b602060405192828480945193849201613c23565b8101039020926040519182916020835260018060a01b0316956020830190613c44565b0390a360401c161561211a5780f35b60ff60401b195f80516020614a7e83398151915254165f80516020614a7e833981519152557fc7f505b2f371ae2175ee4913f4499e1f2633a7b5936321eed1cdaeb6115181d2602060405160018152a180f35b90508701518b6120c0565b600186525f8051602061499e83398151915296601f198216875b8181106121e457509260018360ff999a6120e89461210b965f8051602061495e83398151915298106121cc575b5050811b016001556120d4565b8901515f1960f88460031b161c191690558b806121bf565b868301518a5560019099019860209283019201612192565b600186525f8051602061499e833981519152601f880160051c81019160208910612242575b601f0160051c01905b818110612237575061208f565b86815560010161222a565b9091508190612221565b634e487b7160e01b85526041600452602485fd5b905086015187612057565b868052602087209150601f198316875b8181106122b45750908360019493921061229c575b5050811b01845561206a565b8801515f1960f88460031b161c191690558780612290565b9192602060018192868d01518155019401920161227b565b85805260208620601f830160051c81019160208410612307575b601f0160051c01905b8181106122fc5750612041565b8681556001016122ef565b90915081906122e6565b6001600160481b031982166001600160401b01175f80516020614a7e83398151915255611f7a565b60405163f92ee8a960e01b8152600490fd5b90501585611f4a565b303b159150611f42565b604084901c60ff16159150611f38565b823461030057806003193601126103005760206040515f8051602061477e8339815191528152f35b823461030057806003193601126103005760206040515f80516020614a3e8339815191528152f35b82346103005780600319360112610300576040515f805490826123e083613beb565b91828252602093600190856001821691825f14610beb57505060011461240d5750610b9692500383613b64565b8491505f8052815f20905f915b858310612431575050610b96935082010185610b89565b8054838901850152879450869390920191810161241a565b82346103005780600319360112610300576124626143bc565b5f805160206147de83398151915280546001600160a01b031981169091555f906001600160a01b03165f8051602061493e8339815191528280a380f35b823461030057806003193601126103005760206040515f805160206147fe8339815191528152f35b823461030057806003193601126103005760206040516127108152f35b823461030057602080600319360112610528576004359061250361438d565b61250c82613e2c565b612514614241565b8183526005906005815260ff9260ff60408620541660069060068110156128ac576004811415806128a1575b610b0457508186526004835260408620335f52835260405f20549384612576575b8660015f80516020614a1e8339815191525580f35b825f526005845260405f20906004855260405f20335f52855260405f205f5b8781106125a457505050612561565b6125ae8183613cf4565b5090600182019182548b8160781c166127325786548c811689811015610b32578791600482149081612887575b50156127295750505082549261261161271061101163ffffffff6126078d61ffff8a60401c169061461f565b9554951685613c69565b60ff60781b19909416600160781b1781555f89815260088b5260409020805461263b908490613c7c565b9055885f5260098a5260405f2060018060401b0390818354165f528b5260405f20612667848254613c7c565b9055895f52600a8b5260405f2061267f868254613c7c565b9055895f52600b8b5260405f209154165f52895260405f206126a2848254613c7c565b90556007546001600160a01b0316803b15611159576126e0935f9183838c60405198899586948593631fabc62960e31b855233903060048701613d3e565b03925af192831561114e5760019361271a575b506040519082825289820152875f80516020614abe83398151915260403393a35b01612595565b61272390613b1b565b8c6126f3565b9491941461273d575b505060019150612714565b61271061276363ffffffff61275961ffff8860401c168d61461f565b9454941684613c69565b0461276e8382613c7c565b60ff60781b19909516600160781b1782555f8a815260088c52604090208054612798908390613c7c565b9055895f5260098b5260405f209060018060401b0391828454165f528c526127c560405f20918254613c7c565b9055895f52600a8b5260405f206127dd868254613c7c565b9055895f52600b8b5260405f209154165f52895260405f20612800848254613c7c565b90556007546001600160a01b0316803b156111595761283e935f9183838c604051988995869485936321d2aaf360e11b855233903060048701613d3e565b03925af192831561114e57600193612878575b506040519082825289820152875f805160206148be83398151915260403393a38b80612732565b61288190613b1b565b8c612851565b60081c6001600160401b039081169085161490505f6125db565b506005811415612540565b634e487b7160e01b87526021600452602487fd5b82346103005780600319360112610300576007546040516001600160a01b039091168152602090f35b823461030057604036600319011261030057600435612906613bd8565b61290f82613e2c565b335f9081525f80516020614a5e83398151915260205260409020545f80516020614afe8339815191529060ff1615612a17575061294b81614278565b818352600560205260ff604084205416600681101561133057600181141580612a0e575b6129e9575060607f4574f9eec81dc6826c2d5b08e1292b2b3ad2700b73ad81bb4f24bf90f8296ce1918385526003602052604085206129ad85613e85565b61ffff60026129bc85896142e0565b93019216918261ffff198254161790556040519263ffffffff80921684521660208301526040820152a280f35b6040516327c6314f60e11b815260048101849052606491610cb1906024830190613b0e565b5080151561296f565b6044906040519063e2517d3f60e01b82523360048301526024820152fd5b8234610300578060031936011261030057602060ff5f805160206149de83398151915254166040519015158152f35b82346103005780600319360112610300577f00000000000000000000000000000000000000000000000000000000000000006001600160a01b03163003612abc5760206040515f8051602061487e8339815191528152f35b60405163703e46dd60e11b8152600490fd5b8234610300578060031936011261030057335f9081525f8051602061489e83398151915260205260409020545f8051602061491e8339815191529060ff1615612a175750612b1a614241565b5f805160206149de833981519152600160ff198254161790557f62e78cea01bee320cd4e420270b5ea74000d11b0c9f74754ebdbfc544b05a2586020604051338152a180f35b82604036600319011261030057612b75613ab6565b60249182356001600160401b038111610528573660238201121561052857612ba69036908581600401359101613ba2565b6001600160a01b037f00000000000000000000000000000000000000000000000000000000000000008116308114908115612d85575b50612abc57335f9081525f8051602061485e833981519152602090815260409091205490919060ff1615612d68578416936040516352d1902d60e01b81528281600481895afa859181612d35575b50612c4757604051634c9c8ce360e01b8152600481018790528790fd5b8590875f8051602061487e83398151915291828103612d205750833b15612d0a575080546001600160a01b0319168217905560405185917fbc7cd75a20ee27fd9adebab32041f755214dbc6bffa90cc0225b39da2e5c2d3b8380a2845115612ced575080848461087196519101845af4903d15612ce4573d612cc881613b87565b90612cd66040519283613b64565b81528581943d92013e6146fa565b606092506146fa565b935050505034612cfb575080f35b63b398979f60e01b8152600490fd5b604051634c9c8ce360e01b815260048101849052fd5b60405190632a87526960e21b82526004820152fd5b9091508381813d8311612d61575b612d4d8183613b64565b81010312612d5d57519088612c2a565b8580fd5b503d612d43565b60405163e2517d3f60e01b81523360048201525f81880152604490fd5b9050815f8051602061487e8339815191525416141586612bdc565b8234610300576020366003190112610300576040602091600435612dc381613e2c565b8152600883522054604051908152f35b823461030057604036600319011261030057600435602480356001600160401b03808211610a975736602383011215610a97578160040135908111610a975736838284010111610a9757612e2684613e2c565b612e2e613dc9565b835f52600560205260405f2080549060ff821691600683101580612f3a5760018414159081612f2d575b81612f09575b50612ee6575f805160206148fe83398151915260407f4c4561c5b0048424071c1115e9f1e325486e21c21333d968f21097b7b72d12ad97969481969460058b9560ff1916179055612eb182518092613b0e565b60056020820152a28083519485936020855282602086015201848401378181018301879052601f01601f19168101030190a280f35b6040516327c6314f60e11b815260048101889052606490611c9881890186613b0e565b9050612f1a57600383141589612e5e565b85634e487b7160e01b5f5260216004525ffd5b505060028314155f612e58565b86634e487b7160e01b5f5260216004525ffd5b8234610300576020366003190112610300576040906004358160808451612f7381613b2e565b82815282602082015282868201528260608201520152612f9281613e2c565b815260056020522060405190612fa782613b2e565b80549160ff8316916006831015610b325760a09383835260018060401b03916020840190838360081c16825264ffffffffff938492608060016040890194868860481c1686528660608b019860701c1688520154970196875261300d6040518099613b0e565b511660208701525116604085015251166060830152516080820152f35b8234610300578060031936011261030057613043613dc9565b5f805160206149de833981519152805460ff81161561308f5760ff191690557f5db9ee0a495bf2e6ff9c91a7834c1ba4fdd244a5e8aa4e537bd38aeae4b073aa6020604051338152a180f35b604051638dfc202b60e01b8152600490fd5b8234610300576080366003190112610300576130bb613ab6565b604435906001600160401b0382168203611159576130da602435613e2c565b6130e56024356141f8565b6130ed614241565b335f9081527fe8b78168ec8e2131dc4e1d7c2dfefc344af84453ab10dcca54b267514c8ca32260205260409020545f80516020614ade8339815191529060ff1615612a1757506007546001600160a01b03161561180f57606435156117fd576024355f52600360205260405f209161ffff60028401541680156134c45761317682602435613ec2565b620186a080606435106134a4575063ffffffff61319b61319583613e51565b86613e64565b90549060031b1c16906127106131b383606435613c69565b046131c060643582613c7c565b91821561348b576024355f52600460205260405f2060018060a01b0387165f5260205260405f2090604051916131f583613b2e565b6064358352602083019160018060401b0388168352604084019081526060840164ffffffffff4216815260808501925f84528054600160401b8110156116d65761324491600182018155613cf4565b9590956116c35761329895600191518155019360018060401b0390511684549261ffff60401b905160401b169164ffffffffff60501b905160501b169260018060781b031916171717825551151590613d21565b6024355f526005602052600160405f20016132b6606435825461426b565b90556024355f52600860205260405f206132d182825461426b565b90556024355f52600960205260405f2060018060401b0385165f526020526132fe60405f2091825461426b565b90556024355f52600a60205260405f2061331982825461426b565b90556024355f52600b60205260405f2060018060401b0384165f5260205260405f2061334682825461426b565b90556024355f52600c60205260405f20613363606435825461426b565b90556024355f52600d60205260405f2060018060401b0384165f5260205260405f20613392606435825461426b565b90556007546001600160a01b0316803b1561115957604051631613163360e11b8152915f9183918290849082906133d4906064358c6024353060048701613d3e565b03925af1801561114e5761347c575b506024355f52600460205260405f2060018060a01b0384165f5260205260405f2054935f19850194851161346857600201546040805195865260643560208701526001600160401b0390931692850192909252606084015261ffff1660808301526001600160a01b031690602435905f805160206149fe8339815191529060a090a380f35b634e487b7160e01b5f52601160045260245ffd5b61348590613b1b565b856133e3565b604051631a048a7f60e11b815260248035600483015290fd5b604490604051906378e030db60e01b825260643560048301526024820152fd5b60405162bc17d160e31b815260248035600483015290fd5b82346103005760203660031901126103005760a090600435906134fe82613e2c565b818152603260205260408082209160056020522090549163ffffffff6001613527845493613e85565b930154926040519485526135416020860160ff8516613b0e565b16604084015260081c6001600160401b031660608301526080820152f35b823461030057604036600319011261030057613579613acc565b336001600160a01b038216036135955761087190600435614179565b60405163334bd91960e11b8152600490fd5b8234610300576040366003190112610300576108716004356135c7613acc565b908084525f8051602061497e8339815191526020526135ec6001604086200154613dfe565b614109565b823461030057806003193601126103005760206040515f8051602061483e8339815191528152f35b82346103005780600319360112610300576020604051620186a08152f35b8234610300576020366003190112610300576001604060209260043581525f8051602061497e8339815191528452200154604051908152f35b82346111595760403660031901126111595760043561368d613af8565b61369682613e2c565b335f9081527f756534422b3cb82a54d88d2dca71cfb1a3297222856e6ddc952d9ca5a7fc4b8860209081526040909120545f8051602061477e8339815191529060ff1615612a175750825f526005815260405f2060ff8154166006811015610b325760038103613885575061370b8385613ec2565b6137158382613c89565b64ffffffffff9061372882421682613cae565b805460ff191660041781555f858152600a8452604080822054600b86528183206001600160401b0390971680845296865291205461376591613c7c565b855f526008845261378c60405f20546009865260405f20875f52865260405f205490613c7c565b90865f52600c85526137b460405f2054600d875260405f20885f52875260405f205490613c7c565b91875f52600a865260405f206137cb838254613c7c565b9055875f52600886526137e360405f20918254613c7c565b90556007546001600160a01b031691823b156111595760845f928360405195869485936309da1e8d60e21b85523060048601528d6024860152604485015260648401525af1801561114e5761385a575b50915f80516020614a9e83398151915293916040935460701c16908351928352820152a280f35b604093919650916138795f80516020614a9e8339815191529593613b1b565b5f969193509193613833565b6040516327c6314f60e11b815260048101869052606491610e58906024830190613b0e565b34611159576138b836613ae2565b906138c281613e2c565b63ffffffff6138d082613e85565b169081156138f95760206138f1846127106138eb8683613c69565b04613c7c565b604051908152f35b6024906040519062bc17d160e31b82526004820152fd5b34611159575f366003190112611159576006546040516001600160a01b039091168152602090f35b34611159575f3660031901126111595760206040515f80516020614afe8339815191528152f35b3461115957602036600319011261115957613978613ab6565b613980613dc9565b600680546001600160a01b0319166001600160a01b039290921691821790557f9317e3e59b11620f482b4bb292374da6e5cb9e7ef23cf3f121cacca9a5428f785f80a2005b346111595760203660031901126111595760206139ec6004356139e781613e2c565b613e85565b63ffffffff60405191168152f35b346111595760203660031901126111595760043563ffffffff60e01b811680910361115957602090637965db0b60e01b8114908115613a3f575b506040519015158152f35b6301ffc9a760e01b14905082613a34565b3461115957602036600319011261115957613a69613ab6565b613a71613dc9565b600780546001600160a01b0319166001600160a01b039290921691821790557fe57f71636571365571c0eaeaeb54e1d9e0065804f056a57a2a29448524f7d18a5f80a2005b600435906001600160a01b038216820361115957565b602435906001600160a01b038216820361115957565b6040906003190112611159576004359060243590565b602435906001600160401b038216820361115957565b906006821015610b325752565b6001600160401b0381116116d657604052565b60a081019081106001600160401b038211176116d657604052565b604081019081106001600160401b038211176116d657604052565b601f909101601f19168101906001600160401b038211908210176116d657604052565b6001600160401b0381116116d657601f01601f191660200190565b929192613bae82613b87565b91613bbc6040519384613b64565b829481845281830111611159578281602093845f960137010152565b6024359063ffffffff8216820361115957565b90600182811c92168015613c19575b6020831014613c0557565b634e487b7160e01b5f52602260045260245ffd5b91607f1691613bfa565b5f5b838110613c345750505f910152565b8181015183820152602001613c25565b90602091613c5d81518092818552858086019101613c23565b601f01601f1916010190565b8181029291811591840414171561346857565b9190820391821161346857565b8054610100600160481b03191660089290921b610100600160481b0316919091179055565b805464ffffffffff60701b191660709290921b64ffffffffff60701b16919091179055565b9081526001600160a01b039091166020820152604081019190915260600190565b8054821015613d0d575f5260205f209060011b01905f90565b634e487b7160e01b5f52603260045260245ffd5b805460ff60781b191691151560781b60ff60781b16919091179055565b919594939060809360a084019760018060a01b038093168552602085015216604083015260608201520152565b6001600160a01b03908116908115613db1575f805160206147de83398151915280546001600160a01b031981168417909155165f8051602061493e8339815191525f80a3565b604051631e4fbdf760e01b81525f6004820152602490fd5b335f9081525f8051602061479e83398151915260205260409020545f80516020614a3e8339815191529060ff1615612a175750565b805f525f8051602061497e83398151915260205260405f20335f5260205260ff60405f20541615612a175750565b600254811015613e395750565b6024906040519063113b162160e31b82526004820152fd5b61ffff9081165f19019190821161346857565b9190918054831015613d0d575f52601c60205f208360031c019260021b1690565b5f52600360205260405f2061ffff6002820154168015613ebc5763ffffffff91611456613eb192613e51565b90549060031b1c1690565b50505f90565b90815f52603260205260ff600160405f20015460101c169060018060401b0316818111613eee57505050565b60649350604051926382a2dff360e01b8452600484015260248301526044820152fd5b6001600160a01b03165f8181525f8051602061485e83398151915260205260409020545f8051602061497e8339815191529060ff16613ebc575f805260205260405f20815f5260205260405f20600160ff1982541617905533905f5f8051602061475e8339815191528180a4600190565b6001600160a01b03165f8181525f8051602061479e83398151915260205260409020545f80516020614a3e83398151915291905f8051602061497e8339815191529060ff1661400257825f5260205260405f20815f5260205260405f20600160ff1982541617905533915f8051602061475e8339815191525f80a4600190565b5050505f90565b6001600160a01b03165f8181525f8051602061489e83398151915260205260409020545f8051602061491e83398151915291905f8051602061497e8339815191529060ff1661400257825f5260205260405f20815f5260205260405f20600160ff1982541617905533915f8051602061475e8339815191525f80a4600190565b6001600160a01b03165f8181525f80516020614a5e83398151915260205260409020545f80516020614afe83398151915291905f8051602061497e8339815191529060ff1661400257825f5260205260405f20815f5260205260405f20600160ff1982541617905533915f8051602061475e8339815191525f80a4600190565b90815f525f8051602061497e8339815191528060205260405f209160018060a01b031691825f5260205260ff60405f205416155f1461400257825f5260205260405f20815f5260205260405f20600160ff1982541617905533915f8051602061475e8339815191525f80a4600190565b90815f525f8051602061497e8339815191528060205260405f209160018060a01b031691825f5260205260ff60405f2054165f1461400257825f5260205260405f20815f5260205260405f2060ff19815416905533917ff6391f5c32d9c69d2a47ea670b442974b53935d1edc7fd64eb21e047a839171b5f80a4600190565b805f52600560205260ff60405f2054166006811015610b32576001810361421d575050565b90610cb1606492604051926327c6314f60e11b845260048401526024830190613b0e565b60ff5f805160206149de833981519152541661425957565b60405163d93c066560e01b8152600490fd5b9190820180921161346857565b63ffffffff8080600e541680155f146142da5750620f4240925b169161271180841080156142cf575b6142ab5750505050565b6064945060405193637231c80760e01b855260048501526024840152166044820152fd5b5082821684116142a1565b92614292565b919091805f52600360205260405f2090600182019163ffffffff80951694855f528360205261ffff928360405f20541680614384575082549061fffe82101561436c5750600160401b8110156116d6578060016143409201845583613e64565b819291549060031b9188831b921b19161790555416925f5260205260405f208261ffff19825416179055565b60249060405190634d3deb8160e01b82526004820152fd5b96505050505050565b5f80516020614a1e83398151915260028154146143aa5760029055565b604051633ee5aeb560e01b8152600490fd5b5f805160206147de833981519152546001600160a01b031633036143dc57565b60405163118cdaa760e01b8152336004820152602490fd5b5f805160206147be8339815191528114614490575f805160206149be8339815191528114614496575f8051602061481e8339815191528114614496575f805160206148de8339815191528114614490575f805160206147fe833981519152811461448a575f8051602061483e83398151915281146144845760249060405190630d330d2760e01b82526004820152fd5b5060ff90565b50606390565b50600290565b50600190565b5f805160206147be83398151915281146145fc575f805160206149be83398151915281146145d4575f8051602061481e83398151915281146145ad575f805160206148de8339815191528114614588575f805160206147fe833981519152811461455e575f8051602061483e833981519152146145365760405161451f81613b49565b60078152662aa725a727aba760c91b602082015290565b60405161454281613b49565b600c81526b2324a929aa2fa9a1a7a922a960a11b602082015290565b5060405161456b81613b49565b600d81526c434f52524543545f53434f524560981b602082015290565b5060405161459581613b49565b600881526748414c4654494d4560c01b602082015290565b506040516145ba81613b49565b600a815269424f54485f53434f524560b01b602082015290565b506040516145e181613b49565b600b81526a11d3d05314d7d513d5105360aa1b602082015290565b5060405161460981613b49565b60068152652ba4a72722a960d11b602082015290565b61ffff821615613ebc5763ffffffff91613eb1915f52600360205261145660405f2091613e51565b926020915f9160405190848201926323b872dd60e01b845260018060a01b039687809216602485015216604483015260648201526064815261468881613b2e565b519082865af11561114e575f513d6146c357508082163b155b6146a9575050565b604051635274afe760e01b81529116600482015260249150fd5b600114156146a1565b60ff5f80516020614a7e8339815191525460401c16156146e857565b604051631afcd79f60e31b8152600490fd5b90614721575080511561470f57602081519101fd5b60405163d6bda27560e01b8152600490fd5b81511580614754575b614732575090565b604051639996b31560e01b81526001600160a01b039091166004820152602490fd5b50803b1561472a56fe2f8788117e7eff1d82e926ec794901d17c78024a50270940304540a733656f0d92a19c77d2ea87c7f81d50c74403cb2f401780f3ad919571121efe2bdb427eb1b16e88c42fd4e48df2dd6a2eabd6bc9aec654ec170056b470819f8892cc6431c97e9cffa40fd62a888d33fedb0550a0c24b2dab7e942dd2c90f3dc402fe1d9d09016d09d72d40fdae2fd8ceac6b6234c7706214fd39c1cd1e609a0528c1993005a07719d8a8f4c48bdefa2dac63aa1381b7ddfabbbcde55ac2fce423272e4ade538ae17682fc5f9b07ae2625134d6d3c26763eb7064ea668cc95acc79d2f66934386abfac67735e8200942a182a9289c4525de8436be890c45f3baa48cfc744ab7db2dd08fcb62d0c9e08c51941cae53c267786a0b75803fb7960902fc8ef97d360894a13ba1a3210667c828492db98dca3e2076cc3735a920a3ca505d382bbc75442b0a96088b5456bc4ed01394c96a4feec0f883c9494257d76b96ab1c9b6baba4210cad11f1112f31ba136a61cdc0f6ab4c2b478da8c93eec1d9769e97a89dd5dc5e3118ac9f6534abbb8fc3fdcbf37cbac4179d8c4f61f8246428bdc20513fda72f0a1439a9047288d6140aad7d37a71b660b5229783c8a637ebd0631c0b65d7a28e3265b37a6474929f336521b332c1681b933f6cb9f3376673440d862a8be0079c531659141344cd1fd0a4f28419497f9722a3daafe3b4186f6b6457e0b88a0148d0785022bedeff8dc0f55ccbb709825d7109265ebe5ca3325f191b4202dd7bc7dec4dceedda775e58dd541e08a116c6c53815c0bd028192f7b626800b10e2d527612073b26eecdfd717e6a320cf44b4afac2b0732d9fcbe2b7fa0cf602cbb70a5b530cc7252a3b919b89cec2559cd41fd531c11606411ffbac8f3ffccd5ed15c6e187e77e9aee88184c21f4f2182ab5827cb3b7e07fbedcd63f033001e20859988181a316b2a230ed2b74a09a98fdec16686057cdbb48def725ff9a49b779b17422d0df92223018b32b4d1fa46e071723d6817e2486d003becc55f00a49807205ce4d355092ef5a8a18f56e8913cf4a201fbe287825b095693c217752310b325392e40fb40cbb815e26771d7a037d125fab58e321be31508c0e7cabbf0c57e16840df040f15088dc2f81fe391c3923bec73e23a9662efc9c229c6a0064ee7dc32a3ab72dbd217f88cab8b17f7d9024f6d8bd70a962cd5f1cbd10abafa5df5a195b51346b41c715be6896ddef8de524059309701b83d22c7e4ec1aa4ca903a5200a3509510da557615994ebd7dbb3d8b122c2190f01477c128da2cfcb0acfcb0f3e3aaa7ab6a53fd6a206e00781cfe5360bc764438c214cb50c97b711a26469706673582212208eb219ecc1f369bff11c7eb88faf79aba89e510e82be72dada7249935b3ee7ba64736f6c63430008180033","linkReferences":{}},"methodIdentifiers":{"ADMIN_ROLE()":"75b238fc","DEFAULT_ADMIN_ROLE()":"a217fddf","MARKET_BOTH_SCORE()":"dd19ed0a","MARKET_CORRECT_SCORE()":"6bcaa991","MARKET_FIRST_SCORER()":"2e71b708","MARKET_GOALS_TOTAL()":"e570d084","MARKET_HALFTIME()":"7c0078a4","MARKET_WINNER()":"8723eccf","MAX_ODDS()":"f014a108","MIN_NET_STAKE()":"2cfe63a5","MIN_ODDS()":"ae07d051","ODDS_PRECISION()":"6bc98ba3","ODDS_SETTER_ROLE()":"10dc30fd","PAUSER_ROLE()":"e63ab1e9","RESOLVER_ROLE()":"78fab260","SWAP_ROUTER_ROLE()":"c6886db4","UPGRADE_INTERFACE_VERSION()":"ad3cb1cc","addMarketWithLine(bytes32,uint32,int16)":"83e2e9df","cancelMarket(uint256,string)":"456051f1","claim(uint256,uint256)":"c3490263","claimAll(uint256)":"6930fd2a","claimRange(uint256,uint256,uint256)":"a890c997","claimRefund(uint256,uint256)":"8527d58f","closeMarket(uint256)":"ae418095","emergencyPause()":"51858e27","footballMarkets(uint256)":"97576c6d","getBetDetails(uint256,address,uint256)":"ba269015","getCurrentOdds(uint256)":"0e75a18c","getFootballMarket(uint256)":"f6d105c2","getMarketCore(uint256)":"40b16c1e","getMarketInfo(uint256)":"3ec79193","getMarketLiability(uint256)":"4644161f","getOddsHistory(uint256)":"f50ee3d5","getRoleAdmin(bytes32)":"248a9ca3","getUserBets(uint256,address)":"fa744dd3","grantRole(bytes32,address)":"2f2ff15d","hasRole(bytes32,address)":"91d14854","initialize(string,address)":"7ab4339d","liquidityPool()":"665a11ca","marketCount()":"ec979082","matchName()":"71738f8c","maxAllowedOdds()":"ff40596c","openMarket(uint256)":"baa26757","owner()":"8da5cb5b","paused()":"5c975abb","placeBetUSDC(uint256,uint64,uint256)":"a4b8195c","placeBetUSDCFor(address,uint256,uint64,uint256)":"3eccfc96","proxiableUUID()":"52d1902d","quoteNetExposure(uint256,uint256)":"19d0ec1f","renounceOwnership()":"715018a6","renounceRole(bytes32,address)":"36568abe","resolveMarket(uint256,uint64)":"1a095c6e","revokeRole(bytes32,address)":"d547741f","setLiquidityPool(address)":"01877020","setMarketOdds(uint256,uint32)":"61bd2ca9","setMaxAllowedOdds(uint32)":"9ebfee81","setUSDCToken(address)":"0f5a9d01","sportType()":"bef2a6a0","supportsInterface(bytes4)":"01ffc9a7","suspendMarket(uint256)":"931b5466","transferOwnership(address)":"f2fde38b","unpause()":"3f4ba83a","upgradeToAndCall(address,bytes)":"4f1ef286","usdcToken()":"11eac855"},"id":54}