{"abi":[{"type":"constructor","inputs":[],"stateMutability":"nonpayable"},{"type":"function","name":"BPS_DENOMINATOR","inputs":[],"outputs":[{"name":"","type":"uint16","internalType":"uint16"}],"stateMutability":"view"},{"type":"function","name":"DEFAULT_ADMIN_ROLE","inputs":[],"outputs":[{"name":"","type":"bytes32","internalType":"bytes32"}],"stateMutability":"view"},{"type":"function","name":"MATCH_AUTHORIZER_ROLE","inputs":[],"outputs":[{"name":"","type":"bytes32","internalType":"bytes32"}],"stateMutability":"view"},{"type":"function","name":"MATCH_ROLE","inputs":[],"outputs":[{"name":"","type":"bytes32","internalType":"bytes32"}],"stateMutability":"view"},{"type":"function","name":"MAX_BPS_SETTABLE","inputs":[],"outputs":[{"name":"","type":"uint16","internalType":"uint16"}],"stateMutability":"view"},{"type":"function","name":"PAUSER_ROLE","inputs":[],"outputs":[{"name":"","type":"bytes32","internalType":"bytes32"}],"stateMutability":"view"},{"type":"function","name":"ROUTER_ROLE","inputs":[],"outputs":[{"name":"","type":"bytes32","internalType":"bytes32"}],"stateMutability":"view"},{"type":"function","name":"TREASURY_SHARE_BPS","inputs":[],"outputs":[{"name":"","type":"uint16","internalType":"uint16"}],"stateMutability":"view"},{"type":"function","name":"UPGRADE_INTERFACE_VERSION","inputs":[],"outputs":[{"name":"","type":"string","internalType":"string"}],"stateMutability":"view"},{"type":"function","name":"acceptTreasury","inputs":[],"outputs":[],"stateMutability":"nonpayable"},{"type":"function","name":"accruedTreasury","inputs":[],"outputs":[{"name":"","type":"uint256","internalType":"uint256"}],"stateMutability":"view"},{"type":"function","name":"allowance","inputs":[{"name":"owner","type":"address","internalType":"address"},{"name":"spender","type":"address","internalType":"address"}],"outputs":[{"name":"","type":"uint256","internalType":"uint256"}],"stateMutability":"view"},{"type":"function","name":"approve","inputs":[{"name":"spender","type":"address","internalType":"address"},{"name":"value","type":"uint256","internalType":"uint256"}],"outputs":[{"name":"","type":"bool","internalType":"bool"}],"stateMutability":"nonpayable"},{"type":"function","name":"asset","inputs":[],"outputs":[{"name":"","type":"address","internalType":"address"}],"stateMutability":"view"},{"type":"function","name":"authorizeMatch","inputs":[{"name":"bettingMatch","type":"address","internalType":"address"}],"outputs":[],"stateMutability":"nonpayable"},{"type":"function","name":"balanceOf","inputs":[{"name":"account","type":"address","internalType":"address"}],"outputs":[{"name":"","type":"uint256","internalType":"uint256"}],"stateMutability":"view"},{"type":"function","name":"cancelTreasuryProposal","inputs":[],"outputs":[],"stateMutability":"nonpayable"},{"type":"function","name":"convertToAssets","inputs":[{"name":"shares","type":"uint256","internalType":"uint256"}],"outputs":[{"name":"","type":"uint256","internalType":"uint256"}],"stateMutability":"view"},{"type":"function","name":"convertToShares","inputs":[{"name":"assets","type":"uint256","internalType":"uint256"}],"outputs":[{"name":"","type":"uint256","internalType":"uint256"}],"stateMutability":"view"},{"type":"function","name":"decimals","inputs":[],"outputs":[{"name":"","type":"uint8","internalType":"uint8"}],"stateMutability":"view"},{"type":"function","name":"deposit","inputs":[{"name":"assets","type":"uint256","internalType":"uint256"},{"name":"receiver","type":"address","internalType":"address"}],"outputs":[{"name":"","type":"uint256","internalType":"uint256"}],"stateMutability":"nonpayable"},{"type":"function","name":"depositCooldownSeconds","inputs":[],"outputs":[{"name":"","type":"uint48","internalType":"uint48"}],"stateMutability":"view"},{"type":"function","name":"freeBalance","inputs":[],"outputs":[{"name":"","type":"uint256","internalType":"uint256"}],"stateMutability":"view"},{"type":"function","name":"getRoleAdmin","inputs":[{"name":"role","type":"bytes32","internalType":"bytes32"}],"outputs":[{"name":"","type":"bytes32","internalType":"bytes32"}],"stateMutability":"view"},{"type":"function","name":"grantRole","inputs":[{"name":"role","type":"bytes32","internalType":"bytes32"},{"name":"account","type":"address","internalType":"address"}],"outputs":[],"stateMutability":"nonpayable"},{"type":"function","name":"hasRole","inputs":[{"name":"role","type":"bytes32","internalType":"bytes32"},{"name":"account","type":"address","internalType":"address"}],"outputs":[{"name":"","type":"bool","internalType":"bool"}],"stateMutability":"view"},{"type":"function","name":"initialize","inputs":[{"name":"usdc_","type":"address","internalType":"contract IERC20"},{"name":"admin_","type":"address","internalType":"address"},{"name":"treasury_","type":"address","internalType":"address"},{"name":"protocolFeeBps_","type":"uint16","internalType":"uint16"},{"name":"maxMarketBps_","type":"uint16","internalType":"uint16"},{"name":"maxMatchBps_","type":"uint16","internalType":"uint16"},{"name":"cooldown_","type":"uint48","internalType":"uint48"}],"outputs":[],"stateMutability":"nonpayable"},{"type":"function","name":"lastDepositAt","inputs":[{"name":"holder","type":"address","internalType":"address"}],"outputs":[{"name":"","type":"uint48","internalType":"uint48"}],"stateMutability":"view"},{"type":"function","name":"marketLiability","inputs":[{"name":"bettingMatch","type":"address","internalType":"address"},{"name":"marketId","type":"uint256","internalType":"uint256"}],"outputs":[{"name":"","type":"uint256","internalType":"uint256"}],"stateMutability":"view"},{"type":"function","name":"matchLiability","inputs":[{"name":"bettingMatch","type":"address","internalType":"address"}],"outputs":[{"name":"","type":"uint256","internalType":"uint256"}],"stateMutability":"view"},{"type":"function","name":"maxBetAmount","inputs":[],"outputs":[{"name":"","type":"uint256","internalType":"uint256"}],"stateMutability":"view"},{"type":"function","name":"maxDeposit","inputs":[{"name":"","type":"address","internalType":"address"}],"outputs":[{"name":"","type":"uint256","internalType":"uint256"}],"stateMutability":"view"},{"type":"function","name":"maxLiabilityPerMarketBps","inputs":[],"outputs":[{"name":"","type":"uint16","internalType":"uint16"}],"stateMutability":"view"},{"type":"function","name":"maxLiabilityPerMatchBps","inputs":[],"outputs":[{"name":"","type":"uint16","internalType":"uint16"}],"stateMutability":"view"},{"type":"function","name":"maxMint","inputs":[{"name":"","type":"address","internalType":"address"}],"outputs":[{"name":"","type":"uint256","internalType":"uint256"}],"stateMutability":"view"},{"type":"function","name":"maxRedeem","inputs":[{"name":"owner","type":"address","internalType":"address"}],"outputs":[{"name":"","type":"uint256","internalType":"uint256"}],"stateMutability":"view"},{"type":"function","name":"maxWithdraw","inputs":[{"name":"owner","type":"address","internalType":"address"}],"outputs":[{"name":"","type":"uint256","internalType":"uint256"}],"stateMutability":"view"},{"type":"function","name":"mint","inputs":[{"name":"shares","type":"uint256","internalType":"uint256"},{"name":"receiver","type":"address","internalType":"address"}],"outputs":[{"name":"","type":"uint256","internalType":"uint256"}],"stateMutability":"nonpayable"},{"type":"function","name":"name","inputs":[],"outputs":[{"name":"","type":"string","internalType":"string"}],"stateMutability":"view"},{"type":"function","name":"pause","inputs":[],"outputs":[],"stateMutability":"nonpayable"},{"type":"function","name":"paused","inputs":[],"outputs":[{"name":"","type":"bool","internalType":"bool"}],"stateMutability":"view"},{"type":"function","name":"payRefund","inputs":[{"name":"bettingMatch","type":"address","internalType":"address"},{"name":"marketId","type":"uint256","internalType":"uint256"},{"name":"to","type":"address","internalType":"address"},{"name":"stake","type":"uint256","internalType":"uint256"},{"name":"releasedNetExposure","type":"uint256","internalType":"uint256"}],"outputs":[],"stateMutability":"nonpayable"},{"type":"function","name":"payWinner","inputs":[{"name":"bettingMatch","type":"address","internalType":"address"},{"name":"marketId","type":"uint256","internalType":"uint256"},{"name":"to","type":"address","internalType":"address"},{"name":"payout","type":"uint256","internalType":"uint256"},{"name":"releasedNetExposure","type":"uint256","internalType":"uint256"}],"outputs":[],"stateMutability":"nonpayable"},{"type":"function","name":"pendingTreasury","inputs":[],"outputs":[{"name":"","type":"address","internalType":"address"}],"stateMutability":"view"},{"type":"function","name":"previewDeposit","inputs":[{"name":"assets","type":"uint256","internalType":"uint256"}],"outputs":[{"name":"","type":"uint256","internalType":"uint256"}],"stateMutability":"view"},{"type":"function","name":"previewMint","inputs":[{"name":"shares","type":"uint256","internalType":"uint256"}],"outputs":[{"name":"","type":"uint256","internalType":"uint256"}],"stateMutability":"view"},{"type":"function","name":"previewRedeem","inputs":[{"name":"shares","type":"uint256","internalType":"uint256"}],"outputs":[{"name":"","type":"uint256","internalType":"uint256"}],"stateMutability":"view"},{"type":"function","name":"previewWithdraw","inputs":[{"name":"assets","type":"uint256","internalType":"uint256"}],"outputs":[{"name":"","type":"uint256","internalType":"uint256"}],"stateMutability":"view"},{"type":"function","name":"proposeTreasury","inputs":[{"name":"newTreasury","type":"address","internalType":"address"}],"outputs":[],"stateMutability":"nonpayable"},{"type":"function","name":"protocolFeeBps","inputs":[],"outputs":[{"name":"","type":"uint16","internalType":"uint16"}],"stateMutability":"view"},{"type":"function","name":"proxiableUUID","inputs":[],"outputs":[{"name":"","type":"bytes32","internalType":"bytes32"}],"stateMutability":"view"},{"type":"function","name":"recordBet","inputs":[{"name":"bettingMatch","type":"address","internalType":"address"},{"name":"marketId","type":"uint256","internalType":"uint256"},{"name":"bettor","type":"address","internalType":"address"},{"name":"netStake","type":"uint256","internalType":"uint256"},{"name":"netExposure","type":"uint256","internalType":"uint256"}],"outputs":[],"stateMutability":"nonpayable"},{"type":"function","name":"redeem","inputs":[{"name":"shares","type":"uint256","internalType":"uint256"},{"name":"receiver","type":"address","internalType":"address"},{"name":"owner","type":"address","internalType":"address"}],"outputs":[{"name":"","type":"uint256","internalType":"uint256"}],"stateMutability":"nonpayable"},{"type":"function","name":"renounceRole","inputs":[{"name":"role","type":"bytes32","internalType":"bytes32"},{"name":"callerConfirmation","type":"address","internalType":"address"}],"outputs":[],"stateMutability":"nonpayable"},{"type":"function","name":"revokeMatch","inputs":[{"name":"bettingMatch","type":"address","internalType":"address"}],"outputs":[],"stateMutability":"nonpayable"},{"type":"function","name":"revokeRole","inputs":[{"name":"role","type":"bytes32","internalType":"bytes32"},{"name":"account","type":"address","internalType":"address"}],"outputs":[],"stateMutability":"nonpayable"},{"type":"function","name":"setDepositCooldownSeconds","inputs":[{"name":"newSeconds","type":"uint48","internalType":"uint48"}],"outputs":[],"stateMutability":"nonpayable"},{"type":"function","name":"setMaxBetAmount","inputs":[{"name":"newMax","type":"uint256","internalType":"uint256"}],"outputs":[],"stateMutability":"nonpayable"},{"type":"function","name":"setMaxLiabilityPerMarketBps","inputs":[{"name":"newBps","type":"uint16","internalType":"uint16"}],"outputs":[],"stateMutability":"nonpayable"},{"type":"function","name":"setMaxLiabilityPerMatchBps","inputs":[{"name":"newBps","type":"uint16","internalType":"uint16"}],"outputs":[],"stateMutability":"nonpayable"},{"type":"function","name":"setProtocolFeeBps","inputs":[{"name":"newBps","type":"uint16","internalType":"uint16"}],"outputs":[],"stateMutability":"nonpayable"},{"type":"function","name":"settleMarket","inputs":[{"name":"bettingMatch","type":"address","internalType":"address"},{"name":"marketId","type":"uint256","internalType":"uint256"},{"name":"losingLiabilityToRelease","type":"uint256","internalType":"uint256"},{"name":"losingNetStake","type":"uint256","internalType":"uint256"}],"outputs":[],"stateMutability":"nonpayable"},{"type":"function","name":"supportsInterface","inputs":[{"name":"interfaceId","type":"bytes4","internalType":"bytes4"}],"outputs":[{"name":"","type":"bool","internalType":"bool"}],"stateMutability":"view"},{"type":"function","name":"symbol","inputs":[],"outputs":[{"name":"","type":"string","internalType":"string"}],"stateMutability":"view"},{"type":"function","name":"totalAssets","inputs":[],"outputs":[{"name":"","type":"uint256","internalType":"uint256"}],"stateMutability":"view"},{"type":"function","name":"totalLiabilities","inputs":[],"outputs":[{"name":"","type":"uint256","internalType":"uint256"}],"stateMutability":"view"},{"type":"function","name":"totalSupply","inputs":[],"outputs":[{"name":"","type":"uint256","internalType":"uint256"}],"stateMutability":"view"},{"type":"function","name":"transfer","inputs":[{"name":"to","type":"address","internalType":"address"},{"name":"value","type":"uint256","internalType":"uint256"}],"outputs":[{"name":"","type":"bool","internalType":"bool"}],"stateMutability":"nonpayable"},{"type":"function","name":"transferFrom","inputs":[{"name":"from","type":"address","internalType":"address"},{"name":"to","type":"address","internalType":"address"},{"name":"value","type":"uint256","internalType":"uint256"}],"outputs":[{"name":"","type":"bool","internalType":"bool"}],"stateMutability":"nonpayable"},{"type":"function","name":"treasury","inputs":[],"outputs":[{"name":"","type":"address","internalType":"address"}],"stateMutability":"view"},{"type":"function","name":"treasuryWithdrawable","inputs":[],"outputs":[{"name":"","type":"uint256","internalType":"uint256"}],"stateMutability":"view"},{"type":"function","name":"unpause","inputs":[],"outputs":[],"stateMutability":"nonpayable"},{"type":"function","name":"upgradeToAndCall","inputs":[{"name":"newImplementation","type":"address","internalType":"address"},{"name":"data","type":"bytes","internalType":"bytes"}],"outputs":[],"stateMutability":"payable"},{"type":"function","name":"utilization","inputs":[],"outputs":[{"name":"","type":"uint16","internalType":"uint16"}],"stateMutability":"view"},{"type":"function","name":"withdraw","inputs":[{"name":"assets","type":"uint256","internalType":"uint256"},{"name":"receiver","type":"address","internalType":"address"},{"name":"owner","type":"address","internalType":"address"}],"outputs":[{"name":"","type":"uint256","internalType":"uint256"}],"stateMutability":"nonpayable"},{"type":"function","name":"withdrawTreasury","inputs":[{"name":"amount","type":"uint256","internalType":"uint256"}],"outputs":[],"stateMutability":"nonpayable"},{"type":"event","name":"Approval","inputs":[{"name":"owner","type":"address","indexed":true,"internalType":"address"},{"name":"spender","type":"address","indexed":true,"internalType":"address"},{"name":"value","type":"uint256","indexed":false,"internalType":"uint256"}],"anonymous":false},{"type":"event","name":"BetRecorded","inputs":[{"name":"bettingMatch","type":"address","indexed":true,"internalType":"address"},{"name":"marketId","type":"uint256","indexed":true,"internalType":"uint256"},{"name":"bettor","type":"address","indexed":true,"internalType":"address"},{"name":"netStake","type":"uint256","indexed":false,"internalType":"uint256"},{"name":"netExposure","type":"uint256","indexed":false,"internalType":"uint256"}],"anonymous":false},{"type":"event","name":"Deposit","inputs":[{"name":"sender","type":"address","indexed":true,"internalType":"address"},{"name":"owner","type":"address","indexed":true,"internalType":"address"},{"name":"assets","type":"uint256","indexed":false,"internalType":"uint256"},{"name":"shares","type":"uint256","indexed":false,"internalType":"uint256"}],"anonymous":false},{"type":"event","name":"DepositCooldownSet","inputs":[{"name":"oldSeconds","type":"uint48","indexed":false,"internalType":"uint48"},{"name":"newSeconds","type":"uint48","indexed":false,"internalType":"uint48"}],"anonymous":false},{"type":"event","name":"Initialized","inputs":[{"name":"version","type":"uint64","indexed":false,"internalType":"uint64"}],"anonymous":false},{"type":"event","name":"MarketSettled","inputs":[{"name":"bettingMatch","type":"address","indexed":true,"internalType":"address"},{"name":"marketId","type":"uint256","indexed":true,"internalType":"uint256"},{"name":"releasedLiability","type":"uint256","indexed":false,"internalType":"uint256"}],"anonymous":false},{"type":"event","name":"MatchAuthorized","inputs":[{"name":"bettingMatch","type":"address","indexed":true,"internalType":"address"}],"anonymous":false},{"type":"event","name":"MatchRevoked","inputs":[{"name":"bettingMatch","type":"address","indexed":true,"internalType":"address"}],"anonymous":false},{"type":"event","name":"MaxBetAmountSet","inputs":[{"name":"oldMax","type":"uint256","indexed":false,"internalType":"uint256"},{"name":"newMax","type":"uint256","indexed":false,"internalType":"uint256"}],"anonymous":false},{"type":"event","name":"MaxLiabilityPerMarketSet","inputs":[{"name":"oldBps","type":"uint16","indexed":false,"internalType":"uint16"},{"name":"newBps","type":"uint16","indexed":false,"internalType":"uint16"}],"anonymous":false},{"type":"event","name":"MaxLiabilityPerMatchSet","inputs":[{"name":"oldBps","type":"uint16","indexed":false,"internalType":"uint16"},{"name":"newBps","type":"uint16","indexed":false,"internalType":"uint16"}],"anonymous":false},{"type":"event","name":"Paused","inputs":[{"name":"account","type":"address","indexed":false,"internalType":"address"}],"anonymous":false},{"type":"event","name":"ProtocolFeeSet","inputs":[{"name":"oldBps","type":"uint16","indexed":false,"internalType":"uint16"},{"name":"newBps","type":"uint16","indexed":false,"internalType":"uint16"}],"anonymous":false},{"type":"event","name":"RefundPaid","inputs":[{"name":"bettingMatch","type":"address","indexed":true,"internalType":"address"},{"name":"marketId","type":"uint256","indexed":true,"internalType":"uint256"},{"name":"to","type":"address","indexed":true,"internalType":"address"},{"name":"stake","type":"uint256","indexed":false,"internalType":"uint256"},{"name":"releasedLiability","type":"uint256","indexed":false,"internalType":"uint256"}],"anonymous":false},{"type":"event","name":"RoleAdminChanged","inputs":[{"name":"role","type":"bytes32","indexed":true,"internalType":"bytes32"},{"name":"previousAdminRole","type":"bytes32","indexed":true,"internalType":"bytes32"},{"name":"newAdminRole","type":"bytes32","indexed":true,"internalType":"bytes32"}],"anonymous":false},{"type":"event","name":"RoleGranted","inputs":[{"name":"role","type":"bytes32","indexed":true,"internalType":"bytes32"},{"name":"account","type":"address","indexed":true,"internalType":"address"},{"name":"sender","type":"address","indexed":true,"internalType":"address"}],"anonymous":false},{"type":"event","name":"RoleRevoked","inputs":[{"name":"role","type":"bytes32","indexed":true,"internalType":"bytes32"},{"name":"account","type":"address","indexed":true,"internalType":"address"},{"name":"sender","type":"address","indexed":true,"internalType":"address"}],"anonymous":false},{"type":"event","name":"Transfer","inputs":[{"name":"from","type":"address","indexed":true,"internalType":"address"},{"name":"to","type":"address","indexed":true,"internalType":"address"},{"name":"value","type":"uint256","indexed":false,"internalType":"uint256"}],"anonymous":false},{"type":"event","name":"TreasuryAccepted","inputs":[{"name":"oldTreasury","type":"address","indexed":true,"internalType":"address"},{"name":"newTreasury","type":"address","indexed":true,"internalType":"address"}],"anonymous":false},{"type":"event","name":"TreasuryAccrued","inputs":[{"name":"bettingMatch","type":"address","indexed":true,"internalType":"address"},{"name":"marketId","type":"uint256","indexed":true,"internalType":"uint256"},{"name":"losingNetStake","type":"uint256","indexed":false,"internalType":"uint256"},{"name":"treasuryShare","type":"uint256","indexed":false,"internalType":"uint256"}],"anonymous":false},{"type":"event","name":"TreasuryProposalCancelled","inputs":[{"name":"pending","type":"address","indexed":true,"internalType":"address"}],"anonymous":false},{"type":"event","name":"TreasuryProposed","inputs":[{"name":"proposer","type":"address","indexed":true,"internalType":"address"},{"name":"pending","type":"address","indexed":true,"internalType":"address"}],"anonymous":false},{"type":"event","name":"TreasuryWithdrawn","inputs":[{"name":"to","type":"address","indexed":true,"internalType":"address"},{"name":"amount","type":"uint256","indexed":false,"internalType":"uint256"}],"anonymous":false},{"type":"event","name":"Unpaused","inputs":[{"name":"account","type":"address","indexed":false,"internalType":"address"}],"anonymous":false},{"type":"event","name":"Upgraded","inputs":[{"name":"implementation","type":"address","indexed":true,"internalType":"address"}],"anonymous":false},{"type":"event","name":"WinnerPaid","inputs":[{"name":"bettingMatch","type":"address","indexed":true,"internalType":"address"},{"name":"marketId","type":"uint256","indexed":true,"internalType":"uint256"},{"name":"to","type":"address","indexed":true,"internalType":"address"},{"name":"payout","type":"uint256","indexed":false,"internalType":"uint256"}],"anonymous":false},{"type":"event","name":"Withdraw","inputs":[{"name":"sender","type":"address","indexed":true,"internalType":"address"},{"name":"receiver","type":"address","indexed":true,"internalType":"address"},{"name":"owner","type":"address","indexed":true,"internalType":"address"},{"name":"assets","type":"uint256","indexed":false,"internalType":"uint256"},{"name":"shares","type":"uint256","indexed":false,"internalType":"uint256"}],"anonymous":false},{"type":"error","name":"AccessControlBadConfirmation","inputs":[]},{"type":"error","name":"AccessControlUnauthorizedAccount","inputs":[{"name":"account","type":"address","internalType":"address"},{"name":"neededRole","type":"bytes32","internalType":"bytes32"}]},{"type":"error","name":"AddressEmptyCode","inputs":[{"name":"target","type":"address","internalType":"address"}]},{"type":"error","name":"BetAmountAboveCap","inputs":[{"name":"requested","type":"uint256","internalType":"uint256"},{"name":"cap","type":"uint256","internalType":"uint256"}]},{"type":"error","name":"BpsOutOfRange","inputs":[{"name":"provided","type":"uint16","internalType":"uint16"},{"name":"max","type":"uint16","internalType":"uint16"}]},{"type":"error","name":"CooldownActive","inputs":[{"name":"holder","type":"address","internalType":"address"},{"name":"unlocksAt","type":"uint48","internalType":"uint48"}]},{"type":"error","name":"ERC1967InvalidImplementation","inputs":[{"name":"implementation","type":"address","internalType":"address"}]},{"type":"error","name":"ERC1967NonPayable","inputs":[]},{"type":"error","name":"ERC20InsufficientAllowance","inputs":[{"name":"spender","type":"address","internalType":"address"},{"name":"allowance","type":"uint256","internalType":"uint256"},{"name":"needed","type":"uint256","internalType":"uint256"}]},{"type":"error","name":"ERC20InsufficientBalance","inputs":[{"name":"sender","type":"address","internalType":"address"},{"name":"balance","type":"uint256","internalType":"uint256"},{"name":"needed","type":"uint256","internalType":"uint256"}]},{"type":"error","name":"ERC20InvalidApprover","inputs":[{"name":"approver","type":"address","internalType":"address"}]},{"type":"error","name":"ERC20InvalidReceiver","inputs":[{"name":"receiver","type":"address","internalType":"address"}]},{"type":"error","name":"ERC20InvalidSender","inputs":[{"name":"sender","type":"address","internalType":"address"}]},{"type":"error","name":"ERC20InvalidSpender","inputs":[{"name":"spender","type":"address","internalType":"address"}]},{"type":"error","name":"ERC4626ExceededMaxDeposit","inputs":[{"name":"receiver","type":"address","internalType":"address"},{"name":"assets","type":"uint256","internalType":"uint256"},{"name":"max","type":"uint256","internalType":"uint256"}]},{"type":"error","name":"ERC4626ExceededMaxMint","inputs":[{"name":"receiver","type":"address","internalType":"address"},{"name":"shares","type":"uint256","internalType":"uint256"},{"name":"max","type":"uint256","internalType":"uint256"}]},{"type":"error","name":"ERC4626ExceededMaxRedeem","inputs":[{"name":"owner","type":"address","internalType":"address"},{"name":"shares","type":"uint256","internalType":"uint256"},{"name":"max","type":"uint256","internalType":"uint256"}]},{"type":"error","name":"ERC4626ExceededMaxWithdraw","inputs":[{"name":"owner","type":"address","internalType":"address"},{"name":"assets","type":"uint256","internalType":"uint256"},{"name":"max","type":"uint256","internalType":"uint256"}]},{"type":"error","name":"EnforcedPause","inputs":[]},{"type":"error","name":"ExpectedPause","inputs":[]},{"type":"error","name":"FailedCall","inputs":[]},{"type":"error","name":"InsufficientFreeBalance","inputs":[{"name":"requested","type":"uint256","internalType":"uint256"},{"name":"free","type":"uint256","internalType":"uint256"}]},{"type":"error","name":"InsufficientTreasuryBalance","inputs":[{"name":"requested","type":"uint256","internalType":"uint256"},{"name":"available","type":"uint256","internalType":"uint256"}]},{"type":"error","name":"InvalidInitialization","inputs":[]},{"type":"error","name":"LiabilityUnderflow","inputs":[]},{"type":"error","name":"MarketLiabilityCapExceeded","inputs":[{"name":"requested","type":"uint256","internalType":"uint256"},{"name":"cap","type":"uint256","internalType":"uint256"}]},{"type":"error","name":"MatchLiabilityCapExceeded","inputs":[{"name":"requested","type":"uint256","internalType":"uint256"},{"name":"cap","type":"uint256","internalType":"uint256"}]},{"type":"error","name":"MatchNotAuthorized","inputs":[{"name":"bettingMatch","type":"address","internalType":"address"}]},{"type":"error","name":"NoPendingTreasury","inputs":[]},{"type":"error","name":"NotInitializing","inputs":[]},{"type":"error","name":"NotMatchAuthorizer","inputs":[{"name":"caller","type":"address","internalType":"address"}]},{"type":"error","name":"NotPendingTreasury","inputs":[{"name":"caller","type":"address","internalType":"address"},{"name":"pending","type":"address","internalType":"address"}]},{"type":"error","name":"NotTreasury","inputs":[{"name":"caller","type":"address","internalType":"address"},{"name":"treasury","type":"address","internalType":"address"}]},{"type":"error","name":"ReentrancyGuardReentrantCall","inputs":[]},{"type":"error","name":"SafeERC20FailedOperation","inputs":[{"name":"token","type":"address","internalType":"address"}]},{"type":"error","name":"UUPSUnauthorizedCallContext","inputs":[]},{"type":"error","name":"UUPSUnsupportedProxiableUUID","inputs":[{"name":"slot","type":"bytes32","internalType":"bytes32"}]},{"type":"error","name":"ZeroAddress","inputs":[]},{"type":"error","name":"ZeroAmount","inputs":[]}],"bytecode":{"object":"0x60a08060405234620000d157306080527ff0c57e16840df040f15088dc2f81fe391c3923bec73e23a9662efc9c229c6a009081549060ff8260401c16620000c257506001600160401b036002600160401b0319828216016200007c575b604051613ad39081620000d6823960805181818161179201526118630152f35b6001600160401b031990911681179091556040519081527fc7f505b2f371ae2175ee4913f4499e1f2633a7b5936321eed1cdaeb6115181d290602090a15f80806200005c565b63f92ee8a960e01b8152600490fd5b5f80fdfe60806040526004361015610011575f80fd5b5f3560e01c8062a36a9e1461268d57806301e1d1141461220957806301ffc9a71461263757806306fdde031461259f57806307a2d13a146119e9578063095ea7b3146124f05780630a28a477146124d257806311f1fc99146123f757806313964ffa146123dd57806317a791c01461236857806318160ddd1461233f5780632020fe0e1461227f57806323b872dd14612247578063248a9ca31461220e57806325185d3e1461220957806327687a341461203d5780632c109f801461201e5780632c262c6614611d3c5780632ed6b75d14611d145780632f2ff15d14611ccb57806330d643b514611ca4578063313ce56714611c5257806335659fb814611c2f57806336568abe14611be8578063389728b614611bcc57806338d52e0f14611b985780633f4ba83a14611b23578063402d267d1461086457806343a555e6146119ee5780634cdad506146119e95780634f1ef286146117e957806352d1902d1461178057806359fd95261461175d5780635c975abb1461172f57806361d027b3146117085780636e553f65146116c557806370a08231146116a25780637373e3d11461166a5780637cfbc7a5146116175780638456cb591461156a5780638a4c3d4a146115475780638afacf0314611477578063909543451461145057806391d14854146113fb57806394bf804d146113b857806395d89b41146112f1578063a217fddf146112d7578063a279ec2514611245578063a6da894c14611228578063a9059cbb146111f7578063ad3cb1cc146111b6578063af4219181461119a578063b27ce99514610a52578063b3d7f6b914610a34578063b460af94146109c4578063ba0876521461093b578063be37b12c146108a9578063c31295d414610869578063c63d75b614610864578063c6e6f5921461059f578063cab11d5d14610847578063ce2a55e314610820578063ce96cb77146107fd578063d547741f146107b2578063d905777e14610787578063d920b5ef14610721578063dd62ed3e146106da578063e0634f6514610696578063e1a452181461067a578063e49d2a30146105f1578063e63ab1e9146105ca578063ea21cd92146105a4578063ef8b30f71461059f578063f110ed671461050d578063f73579a9146104f05763fd5e31481461035c575f80fd5b346104ec5761036a366127b9565b9190610374612d3f565b61037c612d69565b335f9081525f805160206137be833981519152602090815260409091205490919060ff16156104d4576001600160a01b038381169687156104c25782156104b0577f2de9420d10db02ce7d7c85a0849f6d694293adf118e29f57c8737e739bab1654948261047e9385931697885f526003875260405f208a5f52875260405f2054818082115f146104a8576104109161290b565b895f526003885260405f208b5f52885260405f2055885f526002875260405f2054818082115f146104a0576104449161290b565b895f526002885260405f2055600154908082115f14610498576104669161290b565b6001555f805160206139be8339815191525416612d98565b604051908152a460015f805160206139fe83398151915255005b50505f610466565b50505f610444565b50505f610410565b604051631f2a200560e01b8152600490fd5b60405163d92e233d60e01b8152600490fd5b604051634d22c05160e01b8152336004820152602490fd5b5f80fd5b346104ec575f3660031901126104ec576020600154604051908152f35b346104ec5760203660031901126104ec5761052661277c565b5f546001600160a01b03919082163381900361057d57501680156104c257600680546001600160a01b03191682179055337f9745945724579b0c42c077e39e88287155952650b2dbb9fde023042588ca24575f80a3005b604051631ba1150160e31b815290819061059b9033600484016129f2565b0390fd5b6128e0565b346104ec575f3660031901126104ec5760206105be612b95565b61ffff60405191168152f35b346104ec575f3660031901126104ec5760206040515f805160206138fe8339815191528152f35b346104ec575f3660031901126104ec576006546001600160a01b038082169182156106685782330361064c575f80546001600160a01b0319808216861783559092166006559116905f8051602061385e8339815191529080a3005b60405163c23531eb60e01b81528061059b8533600484016129f2565b6040516312047a6d60e11b8152600490fd5b346104ec575f3660031901126104ec5760206040516127108152f35b346104ec5760403660031901126104ec576001600160a01b036106b761277c565b165f52600360205260405f206024355f52602052602060405f2054604051908152f35b346104ec5760403660031901126104ec576106f361277c565b6107046106fe612792565b91612873565b9060018060a01b03165f52602052602060405f2054604051908152f35b346104ec575f3660031901126104ec575f546001600160a01b039081163381900361057d5750600654908116908115610668576001600160a01b0319166006557fc69f03cb93d3f08ce1300ef123825580d383f53f4b93ea055ebfd83edbd92db25f80a2005b346104ec5760203660031901126104ec5760206107aa6107a561277c565b612b53565b604051908152f35b346104ec5760403660031901126104ec576107fb6004356107d1612792565b90805f525f8051602061397e8339815191526020526107f6600160405f200154612c2d565b6131ff565b005b346104ec5760203660031901126104ec5760206107aa61081b61277c565b612b3a565b346104ec575f3660031901126104ec5760206040515f805160206137de8339815191528152f35b346104ec575f3660031901126104ec576020600754604051908152f35b6127f5565b346104ec5760203660031901126104ec576001600160a01b0361088a61277c565b165f526004602052602065ffffffffffff60405f205416604051908152f35b346104ec5760203660031901126104ec576108c26127a8565b6108ca612bea565b61ffff906103e88282161161091e575f8051602061391e833981519152815f54936108ff6040519283928760a01c1683612ae1565b0390a161ffff60a01b1990911660a09190911b61ffff60a01b16175f55005b60405163188647ad60e31b815290819061059b9060048301612acb565b346104ec57610949366128ab565b90610952612d3f565b61095a612d69565b6109638261326b565b61096c82612b53565b8084116109a657508261098d91610984602095612c94565b93849133613497565b60015f805160206139fe83398151915255604051908152f35b604051632e52afbb60e21b815293849361059b935060048501612fd1565b346104ec576109d2366128ab565b906109db612d3f565b6109e3612d69565b6109ec8261326b565b6109f582612b3a565b808411610a16575061098d9083610a0d602095612ccd565b93849233613497565b604051633fa733bb60e21b815293849361059b935060048501612fd1565b346104ec5760203660031901126104ec5760206107aa600435612c5b565b346104ec5760e03660031901126104ec576004356001600160a01b03811690036104ec57610a7e612792565b604435906001600160a01b03821682036104ec5761ffff918260643516606435036104ec578260843516608435036104ec578260a4351660a435036104ec5765ffffffffffff60c4351660c435036104ec575f80516020613a5e83398151915254916001600160401b038316158061118c575b6001600160401b0384166001149081611182575b159081611179575b50611167576001600160401b031983166001175f80516020613a5e83398151915255604083901c60ff161561113f575b6004356001600160a01b031615801561112e575b801561111d575b6104c2576103e884606435161161110057612710808560843516116110e3578460a43516116110c657604051610b8d8161281a565b600b81526a04368696c697a5456204c560ac1b602082015260405190610bb28261281a565b600582526406374764c560dc1b6020830152610bcc613469565b610bd4613469565b8051906001600160401b038211610fb6578190610bfe5f805160206137fe833981519152546129ba565b601f8111611062575b50602090601f8311600114610fd5575f92610fca575b50508160011b915f199060031b1c1916175f805160206137fe833981519152555b8051906001600160401b038211610fb657610c665f8051602061383e833981519152546129ba565b601f8111610f4b575b50602090601f8311600114610ea4575f8051602061395e83398151915294610d6e6040958560ff9a965f8051602061391e8339815191529689965f92610e99575b50508160011b915f199060031b1c1916175f8051602061383e833981519152555b610cd9613469565b610ce1613469565b610cec600435613661565b9015610e91575b5f805160206139be83398151915280546001600160a81b031916918c1660a01b919091176004356001600160a01b0316179055610d2e613469565b610d36613469565b610d3e613469565b610d46613469565b60015f805160206139fe83398151915255610d5f613469565b610d6881612e70565b50612ee1565b5060a43560c01b61ffff60c01b1660843560b01b61ffff60b01b1660643560a01b61ffff60a01b166001600160a01b0393909316928317171760c43560d01b6001600160d01b031916175f908155825191905f8051602061385e8339815191528180a35f815283606435166020820152a15f80516020613a3e8339815191528280515f815283608435166020820152a18151905f825260a435166020820152a15f8051602061375e833981519152604080515f815265ffffffffffff60c435166020820152a160401c1615610e3f57005b60ff60401b195f80516020613a5e83398151915254165f80516020613a5e833981519152557fc7f505b2f371ae2175ee4913f4499e1f2633a7b5936321eed1cdaeb6115181d2602060405160018152a1005b506012610cf3565b015190508c80610cb0565b905f8051602061383e8339815191525f5260205f20915f5b601f1985168110610f33575094610d6e6040956001865f8051602061391e8339815191529689965f8051602061395e8339815191529b60ff9e9a601f19811610610f1b575b505050811b015f8051602061383e83398151915255610cd1565b01515f1960f88460031b161c191690558c8080610f01565b91926020600181928685015181550194019201610ebc565b5f8051602061383e8339815191525f527f46a2803e59a4de4e7a4c574b1243f25977ac4c77d5a1a4a609b5394cebb4a2aa601f840160051c810160208510610faf575b601f830160051c82018110610fa4575050610c6f565b5f8155600101610f8e565b5080610f8e565b634e487b7160e01b5f52604160045260245ffd5b015190508780610c1d565b5f805160206137fe8339815191525f90815293505f8051602061377e83398151915291905b601f1984168510611047576001945083601f1981161061102f575b505050811b015f805160206137fe83398151915255610c3e565b01515f1960f88460031b161c19169055878080611015565b81810151835560209485019460019093019290910190610ffa565b5f805160206137fe8339815191525f529091505f8051602061377e833981519152601f840160051c8101602085106110bf575b90849392915b601f830160051c820181106110b1575050610c07565b5f815585945060010161109b565b5080611095565b60405163188647ad60e31b81528061059b60a43560048301612ab5565b60405163188647ad60e31b81528061059b60843560048301612ab5565b60405163188647ad60e31b81528061059b60643560048301612acb565b506001600160a01b03821615610b58565b506001600160a01b03811615610b51565b6001600160481b031983166001600160401b01175f80516020613a5e83398151915255610b3d565b60405163f92ee8a960e01b8152600490fd5b90501585610b0d565b303b159150610b05565b5060ff8360401c1615610af1565b346104ec575f3660031901126104ec5760206040516103e88152f35b346104ec575f3660031901126104ec576111f36040516111d58161281a565b60058152640352e302e360dc1b602082015260405191829182612717565b0390f35b346104ec5760403660031901126104ec5761121d61121361277c565b6024359033613075565b602060405160018152f35b346104ec575f3660031901126104ec576020600554604051908152f35b346104ec5760203660031901126104ec5761125e6127a8565b611266612bea565b61ffff90612710828216116112ba575f80516020613a3e833981519152815f549361129b6040519283928760b01c1683612ae1565b0390a161ffff60b01b1990911660b09190911b61ffff60b01b16175f55005b60405163188647ad60e31b815290819061059b9060048301612ab5565b346104ec575f3660031901126104ec5760206040515f8152f35b346104ec575f3660031901126104ec576040515f905f8051602061383e833981519152805461131f816129ba565b908184526020926001916001811690815f14611396575060011461135a575b6111f38561134e81890382612835565b60405191829182612717565b5f908152838120939550925b82841061138357505050816111f39361134e92820101938561133e565b8054858501870152928501928101611366565b60ff191686860152505050151560051b820101915061134e816111f38561133e565b346104ec5760403660031901126104ec57602060043561098d6113d9612792565b916113e2612d3f565b6113ea612d69565b6113f381612c5b565b80933361333a565b346104ec5760403660031901126104ec57611414612792565b6004355f525f8051602061397e83398151915260205260405f209060018060a01b03165f52602052602060ff60405f2054166040519015158152f35b346104ec575f3660031901126104ec5760206040515f80516020613a1e8339815191528152f35b346104ec5760203660031901126104ec5761149061277c565b335f9081525f8051602061389e833981519152602052604090205460ff16155f8051602061397e83398151915281611519575b50611501576114d181613181565b506001600160a01b03167f383f5a41420129b0294e100939e4b4b76e4f73da99d39cd863502f8ea843ae935f80a2005b60405163948872e360e01b8152336004820152602490fd5b90505f805160206137de8339815191525f5260205260405f20335f5260205260ff60405f20541615826114c3565b346104ec575f3660031901126104ec57602061ffff5f5460c01c16604051908152f35b346104ec575f3660031901126104ec57335f9081525f805160206138de83398151915260205260409020545f805160206138fe8339815191529060ff16156115f9576115b4612d3f565b5f805160206139de833981519152600160ff198254161790557f62e78cea01bee320cd4e420270b5ea74000d11b0c9f74754ebdbfc544b05a2586020604051338152a1005b6044906040519063e2517d3f60e01b82523360048301526024820152fd5b346104ec5760203660031901126104ec57600435611633612bea565b7fbacb82638e64b3e6e6fc461191daa81aafd47eb1c6da870e15ac51c0f493cfb160406007548151908152836020820152a1600755005b346104ec5760203660031901126104ec576001600160a01b0361168b61277c565b165f526002602052602060405f2054604051908152f35b346104ec5760203660031901126104ec5760206107aa6116c061277c565b612b14565b346104ec5760403660031901126104ec57602060043561098d6116e6612792565b6116ee612d3f565b6116f6612d69565b6116ff83612d06565b9283913361333a565b346104ec575f3660031901126104ec575f546040516001600160a01b039091168152602090f35b346104ec575f3660031901126104ec57602060ff5f805160206139de83398151915254166040519015158152f35b346104ec575f3660031901126104ec57602061ffff5f5460b01c16604051908152f35b346104ec575f3660031901126104ec577f00000000000000000000000000000000000000000000000000000000000000006001600160a01b031630036117d75760206040515f805160206138be8339815191528152f35b60405163703e46dd60e11b8152600490fd5b60403660031901126104ec576117fd61277c565b60249081356001600160401b0381116104ec57366023820112156104ec5780600401359161182a83612858565b6118376040519182612835565b83815260209384820193368783830101116104ec57815f92888893018737830101526001600160a01b037f000000000000000000000000000000000000000000000000000000000000000081163081149081156119ce575b506117d75761189c612bea565b6040516352d1902d60e01b8152908316948082600481895afa9182915f9361199e575b50506118dd57604051634c9c8ce360e01b8152600481018690528690fd5b8490865f805160206138be833981519152918281036119895750843b15611973575080546001600160a01b03191682179055604051907fbc7cd75a20ee27fd9adebab32041f755214dbc6bffa90cc0225b39da2e5c2d3b5f80a281511561195957505f6107fb9381925190845af4611953613632565b916136da565b925050503461196457005b63b398979f60e01b8152600490fd5b604051634c9c8ce360e01b815260048101849052fd5b60405190632a87526960e21b82526004820152fd5b9080929350813d83116119c7575b6119b68183612835565b810103126104ec57519087806118bf565b503d6119ac565b9050815f805160206138be833981519152541614158761188f565b61275e565b346104ec576119fc366127b9565b919093611a07612d3f565b611a0f612d69565b335f9081525f805160206137be833981519152602090815260409091205490959060ff16156104d4576001600160a01b038381169690949087156104c25782156104b057611af7837f9d195d2eee24d3409829f0252c2d7f293862fa678bca0ec7bfbb72d28b380b4b96886040971698895f5260038552875f208b5f528552875f2054868082115f14611b1b57611aa59161290b565b8a5f5260038652885f208c5f528652885f2055895f5260028552875f2054868082115f14611b1357611ad69161290b565b8a5f5260028652885f2055600154868082115f14610498576104669161290b565b8351928352820152a460015f805160206139fe83398151915255005b50505f611ad6565b50505f611aa5565b346104ec575f3660031901126104ec57611b3b612bea565b5f805160206139de833981519152805460ff811615611b865760ff191690557f5db9ee0a495bf2e6ff9c91a7834c1ba4fdd244a5e8aa4e537bd38aeae4b073aa6020604051338152a1005b604051638dfc202b60e01b8152600490fd5b346104ec575f3660031901126104ec575f805160206139be833981519152546040516001600160a01b039091168152602090f35b346104ec575f3660031901126104ec5760206040516113888152f35b346104ec5760403660031901126104ec57611c01612792565b336001600160a01b03821603611c1d576107fb906004356131ff565b60405163334bd91960e11b8152600490fd5b346104ec575f3660031901126104ec57602061ffff5f5460a01c16604051908152f35b346104ec575f3660031901126104ec57600660ff5f805160206139be8339815191525460a01c160160ff8111611c905760209060ff60405191168152f35b634e487b7160e01b5f52601160045260245ffd5b346104ec575f3660031901126104ec5760206040515f80516020613a7e8339815191528152f35b346104ec5760403660031901126104ec576107fb600435611cea612792565b90805f525f8051602061397e833981519152602052611d0f600160405f200154612c2d565b612f61565b346104ec575f3660031901126104ec576006546040516001600160a01b039091168152602090f35b346104ec57611d4a366127b9565b91611d56949194612d3f565b611d5e612d69565b335f9081525f805160206137be83398151915260209081526040909120545f80516020613a1e8339815191529491905f8051602061397e8339815191529060ff161580611ff3575b6104d4576001600160a01b039485169586158015611fe9575b6104c25788156104b0575f52815260405f20855f52815260ff60405f20541615611fd05760075480151580611fc7575b611fa95750611e00826001546128fe565b602482865f805160206139be8339815191525416604051928380926370a0823160e01b82523060048301525afa908115611f9e575f91611f71575b508111611f4c57855f526003825260405f20875f528252611e608360405f20546128fe565b5f549161ffff611e74818560b01c1661315b565b808411611f2e5750611e9f90895f5260028652611e958760405f20546128fe565b9460c01c1661315b565b808411611f1057509160409593917fa6b4aaa37ee8da16e67892d03a2a0325e294d8f48973109730f005a7c003a834979593600155885f5260038352865f208a5f528352865f2055875f5260028252855f205584519889528801521694a460015f805160206139fe83398151915255005b8360449160405191631190e26160e31b835260048301526024820152fd5b836044916040519163eca7125f60e01b835260048301526024820152fd5b604483611f57612918565b60405191634aeb0dcb60e01b835260048301526024820152fd5b90508281813d8311611f97575b611f888183612835565b810103126104ec575189611e3b565b503d611f7e565b6040513d5f823e3d90fd5b876044916040519163046e475560e51b835260048301526024820152fd5b50808811611def565b604051634d22c05160e01b815260048101869052602490fd5b5085851615611dbf565b505f80516020613a7e8339815191525f5280825260405f20335f52825260ff60405f20541615611da6565b346104ec575f3660031901126104ec5760205f5460d01c604051908152f35b346104ec5760803660031901126104ec5761205661277c565b60243590606435604435612068612d3f565b612070612d69565b335f9081525f805160206137be833981519152602090815260409091205490939060ff16156104d457839185915f918061214a575b506040519182526001600160a01b03169485915f8051602061379e8339815191529190a3811580156120e5575b60015f805160206139fe83398151915255005b6113889081840291848304141715611c905761271090049182156120d257826040926121347fad5a4cffe78a339226b32f693eb0618bd8048549b4e93e05a67c37bf10077123956005546128fe565b6005558351928352820152a380808080806120d2565b6001600160a01b0382165f818152600387526040808220878352885290205493505f8051602061379e833981519152929184811115612203575083905b61219282809661290b565b815f526003885260405f20875f52885260405f2055805f526002875260405f2054828082115f146121fa576121c69161290b565b905b5f526002875260405f2055600154908082115f146121f2576121e99161290b565b600155906120a5565b50505f6121e9565b50505f906121c8565b90612187565b6126fd565b346104ec5760203660031901126104ec576004355f525f8051602061397e8339815191526020526020600160405f200154604051908152f35b346104ec5760603660031901126104ec5761121d61226361277c565b61226b612792565b6044359161227a833383612fef565b613075565b346104ec5760203660031901126104ec5761229861277c565b335f9081525f8051602061389e833981519152602052604090205460ff16155f8051602061397e83398151915281612311575b50611501576001600160a01b0381169081156104c2576122ea90612de9565b507f7b824e649593517f81584ea2ef3428f043f45b8cbf10728d8f168318e5b82f405f80a2005b90505f805160206137de8339815191525f5260205260405f20335f5260205260ff60405f20541615826122cb565b346104ec575f3660031901126104ec5760205f8051602061387e83398151915254604051908152f35b346104ec5760203660031901126104ec576123816127a8565b612389612bea565b61ffff90612710828216116112ba575f8051602061395e833981519152815f54936123be6040519283928760c01c1683612ae1565b0390a161ffff60c01b1990911660c09190911b61ffff60c01b16175f55005b346104ec575f3660031901126104ec5760206107aa612a0c565b346104ec5760203660031901126104ec575f546001600160a01b03906004359082163381900361057d575061242a612d3f565b612432612d69565b80156104b057612440612a0c565b8082116124b457506020816124787f41fdd680478135993bc53fb2ffaf9560951b57ef62ff6badd02b61e018b4f17f9360055461290b565b60055561249a81855f541680965f805160206139be8339815191525416612d98565b604051908152a260015f805160206139fe83398151915255005b6044925060405191630207d7f360e41b835260048301526024820152fd5b346104ec5760203660031901126104ec5760206107aa600435612ccd565b346104ec5760403660031901126104ec5761250961277c565b602435903315612587576001600160a01b031690811561256f5761252c33612873565b825f526020528060405f20556040519081527f8c5be1e5ebec7d5bd14f71427d1e84f3dd0314c0f7b2291e5b200ac8c7c3b92560203392a3602060405160018152f35b604051634a1406b160e11b81525f6004820152602490fd5b60405163e602df0560e01b81525f6004820152602490fd5b346104ec575f3660031901126104ec576040515f905f805160206137fe83398151915280546125cd816129ba565b908184526020926001916001811690815f1461139657506001146125fb576111f38561134e81890382612835565b5f908152838120939550925b82841061262457505050816111f39361134e92820101938561133e565b8054858501870152928501928101612607565b346104ec5760203660031901126104ec5760043563ffffffff60e01b81168091036104ec57602090637965db0b60e01b811490811561267c575b506040519015158152f35b6301ffc9a760e01b14905082612671565b346104ec5760203660031901126104ec5760043565ffffffffffff8116908181036104ec576126ba612bea565b5f8051602061375e83398151915260405f54938151908560d01c82526020820152a16001600160d01b039190911660d09190911b6001600160d01b031916175f55005b346104ec575f3660031901126104ec5760206107aa612918565b602080825282518183018190529093925f5b82811061274a57505060409293505f838284010152601f8019910116010190565b818101860151848201604001528501612729565b346104ec5760203660031901126104ec5760206107aa600435612c94565b600435906001600160a01b03821682036104ec57565b602435906001600160a01b03821682036104ec57565b6004359061ffff821682036104ec57565b60a09060031901126104ec576001600160a01b0360043581811681036104ec57916024359160443590811681036104ec57906064359060843590565b346104ec5760203660031901126104ec5761280e61277c565b5060206040515f198152f35b604081019081106001600160401b03821117610fb657604052565b601f909101601f19168101906001600160401b03821190821017610fb657604052565b6001600160401b038111610fb657601f01601f191660200190565b6001600160a01b03165f9081527f52c63247e1f47db19d5ce0460030c497f067ca4cebf71ba98eeadabe20bace016020526040902090565b60609060031901126104ec57600435906001600160a01b039060243582811681036104ec579160443590811681036104ec5790565b346104ec5760203660031901126104ec5760206107aa600435612d06565b91908201809211611c9057565b91908203918211611c9057565b5f805160206139be833981519152546040516370a0823160e01b815230600482015290602090829060249082906001600160a01b03165afa908115611f9e575f91612988575b5061296e600154600554906128fe565b808211156129825761297f9161290b565b90565b50505f90565b90506020813d6020116129b2575b816129a360209383612835565b810103126104ec57515f61295e565b3d9150612996565b90600182811c921680156129e8575b60208310146129d457565b634e487b7160e01b5f52602260045260245ffd5b91607f16916129c9565b6001600160a01b0391821681529116602082015260400190565b6005545f805160206139be833981519152546040516370a0823160e01b815230600482015290602090829060249082906001600160a01b03165afa908115611f9e575f91612a83575b5060015480821115612a7b57612a6a9161290b565b80821015612a76575090565b905090565b50505f612a6a565b90506020813d602011612aad575b81612a9e60209383612835565b810103126104ec57515f612a55565b3d9150612a91565b61ffff9091168152612710602082015260400190565b61ffff90911681526103e8602082015260400190565b61ffff91821681529116602082015260400190565b8115612b00570490565b634e487b7160e01b5f52601260045260245ffd5b6001600160a01b03165f9081525f8051602061381e833981519152602052604090205490565b612b46612b4b91612b14565b612c94565b612a6a612918565b612b63612b5e612918565b612d06565b6001600160a01b039091165f9081525f8051602061381e83398151915260205260409020549080821015612a76575090565b612b9d612918565b8015612bd8576001549061271091828102928184041490151715611c9057612bc491612af6565b61ffff9081811115612bd4575090565b1690565b50600154612be4575f90565b61ffff90565b335f9081525f8051602061389e833981519152602052604090205460ff1615612c0f57565b60405163e2517d3f60e01b81523360048201525f6024820152604490fd5b805f525f8051602061397e83398151915260205260405f20335f5260205260ff60405f205416156115f95750565b612c63612918565b60018101809111611c90575f8051602061387e8339815191525490620f42408201809211611c905761297f926132c0565b612c9c612918565b60018101809111611c90575f8051602061387e8339815191525490620f42408201809211611c905761297f92613599565b5f8051602061387e83398151915254620f42408101809111611c9057612cf1612918565b9060018201809211611c905761297f926132c0565b5f8051602061387e83398151915254620f42408101809111611c9057612d2a612918565b9060018201809211611c905761297f92613599565b60ff5f805160206139de8339815191525416612d5757565b60405163d93c066560e01b8152600490fd5b5f805160206139fe8339815191526002815414612d865760029055565b604051633ee5aeb560e01b8152600490fd5b60405163a9059cbb60e01b60208201526001600160a01b03909216602483015260448083019390935291815260808101916001600160401b03831182841017610fb657612de7926040526132e0565b565b6001600160a01b03165f8181525f805160206137be83398151915260205260409020545f80516020613a1e83398151915291905f8051602061397e8339815191529060ff16612e6957825f5260205260405f20815f5260205260405f20600160ff1982541617905533915f8051602061373e8339815191525f80a4600190565b5050505f90565b6001600160a01b03165f8181525f8051602061389e83398151915260205260409020545f8051602061397e8339815191529060ff16612982575f805260205260405f20815f5260205260405f20600160ff1982541617905533905f5f8051602061373e8339815191528180a4600190565b6001600160a01b03165f8181525f805160206138de83398151915260205260409020545f805160206138fe83398151915291905f8051602061397e8339815191529060ff16612e6957825f5260205260405f20815f5260205260405f20600160ff1982541617905533915f8051602061373e8339815191525f80a4600190565b90815f525f8051602061397e8339815191528060205260405f209160018060a01b031691825f5260205260ff60405f205416155f14612e6957825f5260205260405f20815f5260205260405f20600160ff1982541617905533915f8051602061373e8339815191525f80a4600190565b604091949392606082019560018060a01b0316825260208201520152565b612ff881612873565b9060018060a01b0380841692835f5260205260405f2054935f198510613021575b505050505050565b858510613056575081161561258757811561256f5761303f90612873565b905f526020520360405f20555f8080808080613019565b849061059b87604051938493637dc7a0d960e11b855260048501612fd1565b9291906001600160a01b03808516918215613143571690811561312b57805f525f8051602061381e8339815191529283602052604093845f20549682881061310d5750815f8051602061393e8339815191529285969798602093865f52845203875f2055845f52865f208181540190558651908152a35f5260046020525f2065ffffffffffff421665ffffffffffff19825416179055565b879061059b84885193849363391434e360e21b855260048501612fd1565b60405163ec442f0560e01b81525f6004820152602490fd5b604051634b637e8f60e11b81525f6004820152602490fd5b61ffff613166612918565b911690818102918183041490151715611c9057612710900490565b6001600160a01b03165f8181525f805160206137be83398151915260205260409020545f80516020613a1e83398151915291905f8051602061397e8339815191529060ff1615612e6957825f5260205260405f20815f5260205260405f2060ff19815416905533915f8051602061399e8339815191525f80a4600190565b90815f525f8051602061397e8339815191528060205260405f209160018060a01b031691825f5260205260ff60405f2054165f14612e6957825f5260205260405f20815f5260205260405f2060ff19815416905533915f8051602061399e8339815191525f80a4600190565b60018060a01b0316805f52600460205265ffffffffffff8060405f2054165f5460d01c01818111611c9057168042106132a2575050565b60449250604051916307ead79560e51b835260048301526024820152fd5b916132cc818385613599565b918115612b005761297f93091515906128fe565b905f602091828151910182855af115611f9e575f513d61333157506001600160a01b0381163b155b61330f5750565b604051635274afe760e01b81526001600160a01b039091166004820152602490fd5b60011415613308565b5f805160206139be83398151915254604080516323b872dd60e01b60208201526001600160a01b03938416602482018190523060448301526064808301889052825295919491939260a08201919084166001600160401b03831182841017610fb6576133a79287526132e0565b1693841561345257907fdcbc1c05240f31ff3ad067ef1ee35ce4997762752e3a095284754544f4c709d792915f8051602061387e8339815191526133ec8282546128fe565b9055855f525f8051602061381e833981519152602052825f20818154019055855f5f8051602061393e83398151915260208651858152a3855f526004602052825f2065ffffffffffff421665ffffffffffff1982541617905582519182526020820152a3565b825163ec442f0560e01b81525f6004820152602490fd5b60ff5f80516020613a5e8339815191525460401c161561348557565b604051631afcd79f60e31b8152600490fd5b6001600160a01b03808416958183169493919281888703613588575b5050861561314357865f525f8051602061381e8339815191529384602052604094855f20549183831061356a57509180917ffbde797d201c681b91056529119e0b02407c7bb96a4a2c75c01fc9667232c8db969594938a5f5260205203845f20555f8051602061387e8339815191528181540390555f885f8051602061393e83398151915260208751858152a361355b8783855f805160206139be8339815191525416612d98565b835196875260208701521693a4565b905061059b83875193849363391434e360e21b855260048501612fd1565b6135929186612fef565b5f816134b3565b90915f198383099280830292838086109503948086039514613625578483111561360d5790829109815f038216809204600280826003021880830282030280830282030280830282030280830282030280830282030280920290030293600183805f03040190848311900302920304170290565b82634e487b715f52156003026011186020526024601cfd5b50509061297f9250612af6565b3d1561365c573d9061364382612858565b916136516040519384612835565b82523d5f602084013e565b606090565b5f8091604051602081019063313ce56760e01b8252600481526136838161281a565b51916001600160a01b03165afa613698613632565b90806136ce575b6136ab575b505f905f90565b6020818051810103126104ec576020015160ff81116136a4579060ff6001921690565b5060208151101561369f565b9061370157508051156136ef57602081519101fd5b60405163d6bda27560e01b8152600490fd5b81511580613734575b613712575090565b604051639996b31560e01b81526001600160a01b039091166004820152602490fd5b50803b1561370a56fe2f8788117e7eff1d82e926ec794901d17c78024a50270940304540a733656f0d8ca9b3af6b5eb757f305650cff4ba7b2229c8b4ecc832fad9d23a990080182332ae08a8e29253f69ac5d979a101956ab8f8d9d7ded63fa7a83b16fc47648eab02ef9bbe92b2bae3f097f9019aaabb8164d509e8695a8ccdbf8dacf174306047d7ae5f46e8e2c9d47edd75c3f9de73d51d517dd332b3ff9a189623c263a7292836d8130444826d7175432259260c8b110e54dea7c9bc0db0b589dadcd739732df52c63247e1f47db19d5ce0460030c497f067ca4cebf71ba98eeadabe20bace0352c63247e1f47db19d5ce0460030c497f067ca4cebf71ba98eeadabe20bace0052c63247e1f47db19d5ce0460030c497f067ca4cebf71ba98eeadabe20bace042f0a561d3196984c074334c9068d0c6e1df5f0231fa4a7e31aed5488a5d9e5ea52c63247e1f47db19d5ce0460030c497f067ca4cebf71ba98eeadabe20bace02b7db2dd08fcb62d0c9e08c51941cae53c267786a0b75803fb7960902fc8ef97d360894a13ba1a3210667c828492db98dca3e2076cc3735a920a3ca505d382bbc75442b0a96088b5456bc4ed01394c96a4feec0f883c9494257d76b96ab1c9b6b65d7a28e3265b37a6474929f336521b332c1681b933f6cb9f3376673440d862a4810ece076cee6c6042808956f3f65dad1bc72b75181341d7bed810d39deda0fddf252ad1be2c89b69c2b068fc378daa952ba7f163c4a11628f55a4df523b3ef2bbbc0542ee6b25f93805eab64d8e903fcdfdebe1f6a235abfabf5b90e57ca1f02dd7bc7dec4dceedda775e58dd541e08a116c6c53815c0bd028192f7b626800f6391f5c32d9c69d2a47ea670b442974b53935d1edc7fd64eb21e047a839171b0773e532dfede91f04b12a73d3d2acd361424f41f76b4fb79f090161e36b4e00cd5ed15c6e187e77e9aee88184c21f4f2182ab5827cb3b7e07fbedcd63f033009b779b17422d0df92223018b32b4d1fa46e071723d6817e2486d003becc55f00f69c2bba2b87fa528b086bb719a652dac5a9564c354f6d51534feb94bb6afc3aa28419c039898f2468e845bd1a95a37624af35ca540c0b0593737c303f51ab26f0c57e16840df040f15088dc2f81fe391c3923bec73e23a9662efc9c229c6a007a05a596cb0ce7fdea8a1e1ec73be300bdb35097c944ce1897202f7a13122eb2a2646970667358221220fa32cd2a7f80c4d4ff6139bb9cf8efb0124b23cafc9290738b1d059355b9459364736f6c63430008180033","linkReferences":{}},"methodIdentifiers":{"BPS_DENOMINATOR()":"e1a45218","DEFAULT_ADMIN_ROLE()":"a217fddf","MATCH_AUTHORIZER_ROLE()":"ce2a55e3","MATCH_ROLE()":"90954345","MAX_BPS_SETTABLE()":"af421918","PAUSER_ROLE()":"e63ab1e9","ROUTER_ROLE()":"30d643b5","TREASURY_SHARE_BPS()":"389728b6","UPGRADE_INTERFACE_VERSION()":"ad3cb1cc","acceptTreasury()":"e49d2a30","accruedTreasury()":"a6da894c","allowance(address,address)":"dd62ed3e","approve(address,uint256)":"095ea7b3","asset()":"38d52e0f","authorizeMatch(address)":"2020fe0e","balanceOf(address)":"70a08231","cancelTreasuryProposal()":"d920b5ef","convertToAssets(uint256)":"07a2d13a","convertToShares(uint256)":"c6e6f592","decimals()":"313ce567","deposit(uint256,address)":"6e553f65","depositCooldownSeconds()":"2c109f80","freeBalance()":"25185d3e","getRoleAdmin(bytes32)":"248a9ca3","grantRole(bytes32,address)":"2f2ff15d","hasRole(bytes32,address)":"91d14854","initialize(address,address,address,uint16,uint16,uint16,uint48)":"b27ce995","lastDepositAt(address)":"c31295d4","marketLiability(address,uint256)":"e0634f65","matchLiability(address)":"7373e3d1","maxBetAmount()":"cab11d5d","maxDeposit(address)":"402d267d","maxLiabilityPerMarketBps()":"59fd9526","maxLiabilityPerMatchBps()":"8a4c3d4a","maxMint(address)":"c63d75b6","maxRedeem(address)":"d905777e","maxWithdraw(address)":"ce96cb77","mint(uint256,address)":"94bf804d","name()":"06fdde03","pause()":"8456cb59","paused()":"5c975abb","payRefund(address,uint256,address,uint256,uint256)":"43a555e6","payWinner(address,uint256,address,uint256,uint256)":"fd5e3148","pendingTreasury()":"2ed6b75d","previewDeposit(uint256)":"ef8b30f7","previewMint(uint256)":"b3d7f6b9","previewRedeem(uint256)":"4cdad506","previewWithdraw(uint256)":"0a28a477","proposeTreasury(address)":"f110ed67","protocolFeeBps()":"35659fb8","proxiableUUID()":"52d1902d","recordBet(address,uint256,address,uint256,uint256)":"2c262c66","redeem(uint256,address,address)":"ba087652","renounceRole(bytes32,address)":"36568abe","revokeMatch(address)":"8afacf03","revokeRole(bytes32,address)":"d547741f","setDepositCooldownSeconds(uint48)":"00a36a9e","setMaxBetAmount(uint256)":"7cfbc7a5","setMaxLiabilityPerMarketBps(uint16)":"a279ec25","setMaxLiabilityPerMatchBps(uint16)":"17a791c0","setProtocolFeeBps(uint16)":"be37b12c","settleMarket(address,uint256,uint256,uint256)":"27687a34","supportsInterface(bytes4)":"01ffc9a7","symbol()":"95d89b41","totalAssets()":"01e1d114","totalLiabilities()":"f73579a9","totalSupply()":"18160ddd","transfer(address,uint256)":"a9059cbb","transferFrom(address,address,uint256)":"23b872dd","treasury()":"61d027b3","treasuryWithdrawable()":"13964ffa","unpause()":"3f4ba83a","upgradeToAndCall(address,bytes)":"4f1ef286","utilization()":"ea21cd92","withdraw(uint256,address,address)":"b460af94","withdrawTreasury(uint256)":"11f1fc99"},"id":59}