{"abi":[{"type":"constructor","inputs":[],"stateMutability":"nonpayable"},{"type":"receive","stateMutability":"payable"},{"type":"function","name":"UPGRADE_INTERFACE_VERSION","inputs":[],"outputs":[{"name":"","type":"string","internalType":"string"}],"stateMutability":"view"},{"type":"function","name":"availableBalance","inputs":[],"outputs":[{"name":"","type":"uint256","internalType":"uint256"}],"stateMutability":"view"},{"type":"function","name":"donate","inputs":[{"name":"amount","type":"uint256","internalType":"uint256"},{"name":"message","type":"string","internalType":"string"}],"outputs":[{"name":"platformFee","type":"uint256","internalType":"uint256"},{"name":"streamerAmount","type":"uint256","internalType":"uint256"}],"stateMutability":"payable"},{"type":"function","name":"factory","inputs":[],"outputs":[{"name":"","type":"address","internalType":"address"}],"stateMutability":"view"},{"type":"function","name":"getDonationAmount","inputs":[{"name":"donor","type":"address","internalType":"address"}],"outputs":[{"name":"","type":"uint256","internalType":"uint256"}],"stateMutability":"view"},{"type":"function","name":"getSubscription","inputs":[{"name":"user","type":"address","internalType":"address"}],"outputs":[{"name":"","type":"tuple","internalType":"struct StreamWallet.Subscription","components":[{"name":"amount","type":"uint256","internalType":"uint256"},{"name":"startTime","type":"uint256","internalType":"uint256"},{"name":"expiryTime","type":"uint256","internalType":"uint256"},{"name":"active","type":"bool","internalType":"bool"}]}],"stateMutability":"view"},{"type":"function","name":"initialize","inputs":[{"name":"streamer_","type":"address","internalType":"address"},{"name":"treasury_","type":"address","internalType":"address"},{"name":"platformFeeBps_","type":"uint16","internalType":"uint16"}],"outputs":[],"stateMutability":"nonpayable"},{"type":"function","name":"isSubscribed","inputs":[{"name":"user","type":"address","internalType":"address"}],"outputs":[{"name":"","type":"bool","internalType":"bool"}],"stateMutability":"view"},{"type":"function","name":"lifetimeDonations","inputs":[{"name":"","type":"address","internalType":"address"}],"outputs":[{"name":"","type":"uint256","internalType":"uint256"}],"stateMutability":"view"},{"type":"function","name":"owner","inputs":[],"outputs":[{"name":"","type":"address","internalType":"address"}],"stateMutability":"view"},{"type":"function","name":"platformFeeBps","inputs":[],"outputs":[{"name":"","type":"uint16","internalType":"uint16"}],"stateMutability":"view"},{"type":"function","name":"proxiableUUID","inputs":[],"outputs":[{"name":"","type":"bytes32","internalType":"bytes32"}],"stateMutability":"view"},{"type":"function","name":"recordSubscription","inputs":[{"name":"subscriber","type":"address","internalType":"address"},{"name":"amount","type":"uint256","internalType":"uint256"},{"name":"duration","type":"uint256","internalType":"uint256"}],"outputs":[{"name":"platformFee","type":"uint256","internalType":"uint256"},{"name":"streamerAmount","type":"uint256","internalType":"uint256"}],"stateMutability":"payable"},{"type":"function","name":"renounceOwnership","inputs":[],"outputs":[],"stateMutability":"nonpayable"},{"type":"function","name":"streamer","inputs":[],"outputs":[{"name":"","type":"address","internalType":"address"}],"stateMutability":"view"},{"type":"function","name":"subscriptions","inputs":[{"name":"","type":"address","internalType":"address"}],"outputs":[{"name":"amount","type":"uint256","internalType":"uint256"},{"name":"startTime","type":"uint256","internalType":"uint256"},{"name":"expiryTime","type":"uint256","internalType":"uint256"},{"name":"active","type":"bool","internalType":"bool"}],"stateMutability":"view"},{"type":"function","name":"totalRevenue","inputs":[],"outputs":[{"name":"","type":"uint256","internalType":"uint256"}],"stateMutability":"view"},{"type":"function","name":"totalSubscribers","inputs":[],"outputs":[{"name":"","type":"uint256","internalType":"uint256"}],"stateMutability":"view"},{"type":"function","name":"totalWithdrawn","inputs":[],"outputs":[{"name":"","type":"uint256","internalType":"uint256"}],"stateMutability":"view"},{"type":"function","name":"transferOwnership","inputs":[{"name":"newOwner","type":"address","internalType":"address"}],"outputs":[],"stateMutability":"nonpayable"},{"type":"function","name":"treasury","inputs":[],"outputs":[{"name":"","type":"address","internalType":"address"}],"stateMutability":"view"},{"type":"function","name":"upgradeToAndCall","inputs":[{"name":"newImplementation","type":"address","internalType":"address"},{"name":"data","type":"bytes","internalType":"bytes"}],"outputs":[],"stateMutability":"payable"},{"type":"function","name":"withdrawRevenue","inputs":[{"name":"amount","type":"uint256","internalType":"uint256"}],"outputs":[],"stateMutability":"nonpayable"},{"type":"event","name":"DonationReceived","inputs":[{"name":"donor","type":"address","indexed":true,"internalType":"address"},{"name":"amount","type":"uint256","indexed":false,"internalType":"uint256"},{"name":"message","type":"string","indexed":false,"internalType":"string"},{"name":"platformFee","type":"uint256","indexed":false,"internalType":"uint256"},{"name":"streamerAmount","type":"uint256","indexed":false,"internalType":"uint256"}],"anonymous":false},{"type":"event","name":"Initialized","inputs":[{"name":"version","type":"uint64","indexed":false,"internalType":"uint64"}],"anonymous":false},{"type":"event","name":"OwnershipTransferred","inputs":[{"name":"previousOwner","type":"address","indexed":true,"internalType":"address"},{"name":"newOwner","type":"address","indexed":true,"internalType":"address"}],"anonymous":false},{"type":"event","name":"PlatformFeeCollected","inputs":[{"name":"amount","type":"uint256","indexed":false,"internalType":"uint256"},{"name":"treasury","type":"address","indexed":true,"internalType":"address"}],"anonymous":false},{"type":"event","name":"RevenueWithdrawn","inputs":[{"name":"streamer","type":"address","indexed":true,"internalType":"address"},{"name":"amount","type":"uint256","indexed":false,"internalType":"uint256"}],"anonymous":false},{"type":"event","name":"SubscriptionRecorded","inputs":[{"name":"subscriber","type":"address","indexed":true,"internalType":"address"},{"name":"amount","type":"uint256","indexed":false,"internalType":"uint256"},{"name":"duration","type":"uint256","indexed":false,"internalType":"uint256"},{"name":"expiryTime","type":"uint256","indexed":false,"internalType":"uint256"}],"anonymous":false},{"type":"event","name":"Upgraded","inputs":[{"name":"implementation","type":"address","indexed":true,"internalType":"address"}],"anonymous":false},{"type":"error","name":"AddressEmptyCode","inputs":[{"name":"target","type":"address","internalType":"address"}]},{"type":"error","name":"ERC1967InvalidImplementation","inputs":[{"name":"implementation","type":"address","internalType":"address"}]},{"type":"error","name":"ERC1967NonPayable","inputs":[]},{"type":"error","name":"FailedCall","inputs":[]},{"type":"error","name":"InsufficientBalance","inputs":[]},{"type":"error","name":"InvalidAmount","inputs":[]},{"type":"error","name":"InvalidDuration","inputs":[]},{"type":"error","name":"InvalidInitialization","inputs":[]},{"type":"error","name":"NotInitializing","inputs":[]},{"type":"error","name":"OnlyFactory","inputs":[]},{"type":"error","name":"OnlyStreamer","inputs":[]},{"type":"error","name":"OwnableInvalidOwner","inputs":[{"name":"owner","type":"address","internalType":"address"}]},{"type":"error","name":"OwnableUnauthorizedAccount","inputs":[{"name":"account","type":"address","internalType":"address"}]},{"type":"error","name":"ReentrancyGuardReentrantCall","inputs":[]},{"type":"error","name":"UUPSUnauthorizedCallContext","inputs":[]},{"type":"error","name":"UUPSUnsupportedProxiableUUID","inputs":[{"name":"slot","type":"bytes32","internalType":"bytes32"}]}],"bytecode":{"object":"0x60a060405230608052348015610013575f80fd5b5061001c610021565b6100d3565b7ff0c57e16840df040f15088dc2f81fe391c3923bec73e23a9662efc9c229c6a00805468010000000000000000900460ff16156100715760405163f92ee8a960e01b815260040160405180910390fd5b80546001600160401b03908116146100d05780546001600160401b0319166001600160401b0390811782556040519081527fc7f505b2f371ae2175ee4913f4499e1f2633a7b5936321eed1cdaeb6115181d29060200160405180910390a15b50565b6080516117966100f95f395f8181610ea801528181610ed1015261101501526117965ff3fe60806040526004361061013f575f3560e01c80637ebef529116100b3578063b92ae87c1161006d578063b92ae87c146103ea578063bf2d9e0b14610419578063c45a01551461042e578063cecf13f51461044d578063f046395a1461046b578063f2fde38b146104d2575f80fd5b80637ebef52914610302578063886c250e146103215780638d59d1f11461034c5780638da5cb5b1461035f578063ab2f0e511461039b578063ad3cb1cc146103ad575f80fd5b806322dcd13e1161010457806322dcd13e146102475780634b3197131461027b5780634f1ef2861461029057806352d1902d146102a357806361d027b3146102b7578063715018a6146102ee575f80fd5b80630cbebc241461014a5780630ceff204146101a75780631106d5d3146101c85780631479197f146101f057806315e2475f14610232575f80fd5b3661014657005b5f80fd5b348015610155575f80fd5b506101696101643660046113a7565b6104f1565b60405161019e919081518152602080830151908201526040808301519082015260609182015115159181019190915260800190565b60405180910390f35b3480156101b2575f80fd5b506101c66101c13660046113c0565b610569565b005b6101db6101d63660046113d7565b6106c8565b6040805192835260208301919091520161019e565b3480156101fb575f80fd5b5061022461020a3660046113a7565b6001600160a01b03165f9081526004602052604090205490565b60405190815260200161019e565b34801561023d575f80fd5b5061022460075481565b348015610252575f80fd5b5060015461026890600160a01b900461ffff1681565b60405161ffff909116815260200161019e565b348015610286575f80fd5b5061022460065481565b6101c661029e36600461141b565b6109ba565b3480156102ae575f80fd5b506102246109d9565b3480156102c2575f80fd5b506001546102d6906001600160a01b031681565b6040516001600160a01b03909116815260200161019e565b3480156102f9575f80fd5b506101c66109f4565b34801561030d575f80fd5b506101c661031c3660046114d7565b610a07565b34801561032c575f80fd5b5061022461033b3660046113a7565b60046020525f908152604090205481565b6101db61035a366004611521565b610b64565b34801561036a575f80fd5b507f9016d09d72d40fdae2fd8ceac6b6234c7706214fd39c1cd1e609a0528c199300546001600160a01b03166102d6565b3480156103a6575f80fd5b5047610224565b3480156103b8575f80fd5b506103dd604051806040016040528060058152602001640352e302e360dc1b81525081565b60405161019e91906115b8565b3480156103f5575f80fd5b506104096104043660046113a7565b610db5565b604051901515815260200161019e565b348015610424575f80fd5b5061022460055481565b348015610439575f80fd5b506002546102d6906001600160a01b031681565b348015610458575f80fd5b505f546102d6906001600160a01b031681565b348015610476575f80fd5b506104b06104853660046113a7565b600360208190525f918252604090912080546001820154600283015492909301549092919060ff1684565b604080519485526020850193909352918301521515606082015260800161019e565b3480156104dd575f80fd5b506101c66104ec3660046113a7565b610e19565b61051a60405180608001604052805f81526020015f81526020015f81526020015f151581525090565b506001600160a01b03165f9081526003602081815260409283902083516080810185528154815260018201549281019290925260028101549382019390935291015460ff161515606082015290565b5f546001600160a01b03163314610593576040516390742f2b60e01b815260040160405180910390fd5b61059b610e53565b805f036105bb5760405163162908e360e11b815260040160405180910390fd5b47808211156105dd57604051631e9acf1760e31b815260040160405180910390fd5b8160065f8282546105ee91906115fe565b90915550505f80546040516001600160a01b039091169084908381818185875af1925050503d805f811461063d576040519150601f19603f3d011682016040523d82523d5f602084013e610642565b606091505b505090508061066c5760405162461bcd60e51b815260040161066390611611565b60405180910390fd5b5f546040518481526001600160a01b03909116907f86a5cc8fe9af9ae68fb50f62885307a7755a30cbd290131644377f0bd94a71819060200160405180910390a250506106c560015f8051602061174183398151915255565b50565b6002545f9081906001600160a01b031633146106f757604051630636a15760e11b815260040160405180910390fd5b6106ff610e53565b835f0361071f5760405163162908e360e11b815260040160405180910390fd5b825f0361073f57604051637616640160e01b815260040160405180910390fd5b6001546127109061075b90600160a01b900461ffff1686611648565b610765919061165f565b9150610771828561167e565b90505f61077e84426115fe565b6001600160a01b0387165f908152600360208190526040909120908101549192509060ff166107bc5760078054905f6107b683611691565b91905055505b858155426001808301919091556002820183905560038201805460ff19169091179055600580548791905f906107f39084906115fe565b909155505083156108dd576001546040515f916001600160a01b03169086908381818185875af1925050503d805f8114610848576040519150601f19603f3d011682016040523d82523d5f602084013e61084d565b606091505b50509050806108995760405162461bcd60e51b8152602060048201526018602482015277151c99585cdd5c9e481d1c985b9cd9995c8819985a5b195960421b6044820152606401610663565b6001546040518681526001600160a01b03909116907fcf1bd34e586f4e12ef1c4c84c337b05dd3f7fc5409e16c5fea9063524eb770229060200160405180910390a2505b5f80546040516001600160a01b039091169085908381818185875af1925050503d805f8114610927576040519150601f19603f3d011682016040523d82523d5f602084013e61092c565b606091505b505090508061094d5760405162461bcd60e51b815260040161066390611611565b60408051888152602081018890529081018490526001600160a01b038916907f7a13ebf2522940b2ac4f647cb0bf897ecdedcddf001cba0c28c40db4cbaf7abe9060600160405180910390a25050506109b260015f8051602061174183398151915255565b935093915050565b6109c2610e9d565b6109cb82610f41565b6109d58282610f49565b5050565b5f6109e261100a565b505f8051602061172183398151915290565b6109fc611053565b610a055f6110ae565b565b5f610a1061111e565b805490915060ff600160401b820416159067ffffffffffffffff165f81158015610a375750825b90505f8267ffffffffffffffff166001148015610a535750303b155b905081158015610a61575080155b15610a7f5760405163f92ee8a960e01b815260040160405180910390fd5b845467ffffffffffffffff191660011785558315610aa957845460ff60401b1916600160401b1785555b610ab288611148565b610aba611159565b610ac2611161565b5f80546001600160a01b03808b166001600160a01b0319928316179092556001805461ffff8a16600160a01b026001600160b01b0319909116938b16939093179290921790915560028054909116331790558315610b5a57845460ff60401b19168555604051600181527fc7f505b2f371ae2175ee4913f4499e1f2633a7b5936321eed1cdaeb6115181d29060200160405180910390a15b5050505050505050565b5f80610b6e610e53565b845f03610b8e5760405163162908e360e11b815260040160405180910390fd5b60015461271090610baa90600160a01b900461ffff1687611648565b610bb4919061165f565b9150610bc0828661167e565b335f90815260046020526040812080549293508792909190610be39084906115fe565b925050819055508460055f828254610bfb91906115fe565b90915550508115610ce5576001546040515f916001600160a01b03169084908381818185875af1925050503d805f8114610c50576040519150601f19603f3d011682016040523d82523d5f602084013e610c55565b606091505b5050905080610ca15760405162461bcd60e51b8152602060048201526018602482015277151c99585cdd5c9e481d1c985b9cd9995c8819985a5b195960421b6044820152606401610663565b6001546040518481526001600160a01b03909116907fcf1bd34e586f4e12ef1c4c84c337b05dd3f7fc5409e16c5fea9063524eb770229060200160405180910390a2505b5f80546040516001600160a01b039091169083908381818185875af1925050503d805f8114610d2f576040519150601f19603f3d011682016040523d82523d5f602084013e610d34565b606091505b5050905080610d555760405162461bcd60e51b815260040161066390611611565b336001600160a01b03167fe6e76c147879ef2b39c47840a91c2aab43eb81a9ebb620f720d0671999eec4fc8787878787604051610d969594939291906116a9565b60405180910390a2506109b260015f8051602061174183398151915255565b6001600160a01b0381165f9081526003602081815260408084208151608081018352815481526001820154938101939093526002810154918301919091529091015460ff161580156060830181905290610e125750806040015142105b9392505050565b610e21611053565b6001600160a01b038116610e4a57604051631e4fbdf760e01b81525f6004820152602401610663565b6106c5816110ae565b5f80516020611741833981519152805460011901610e8457604051633ee5aeb560e01b815260040160405180910390fd5b60029055565b60015f8051602061174183398151915255565b306001600160a01b037f0000000000000000000000000000000000000000000000000000000000000000161480610f2357507f00000000000000000000000000000000000000000000000000000000000000006001600160a01b0316610f175f80516020611721833981519152546001600160a01b031690565b6001600160a01b031614155b15610a055760405163703e46dd60e11b815260040160405180910390fd5b6106c5611053565b816001600160a01b03166352d1902d6040518163ffffffff1660e01b8152600401602060405180830381865afa925050508015610fa3575060408051601f3d908101601f19168201909252610fa0918101906116ee565b60015b610fcb57604051634c9c8ce360e01b81526001600160a01b0383166004820152602401610663565b5f805160206117218339815191528114610ffb57604051632a87526960e21b815260048101829052602401610663565b6110058383611171565b505050565b306001600160a01b037f00000000000000000000000000000000000000000000000000000000000000001614610a055760405163703e46dd60e11b815260040160405180910390fd5b336110857f9016d09d72d40fdae2fd8ceac6b6234c7706214fd39c1cd1e609a0528c199300546001600160a01b031690565b6001600160a01b031614610a055760405163118cdaa760e01b8152336004820152602401610663565b7f9016d09d72d40fdae2fd8ceac6b6234c7706214fd39c1cd1e609a0528c19930080546001600160a01b031981166001600160a01b03848116918217845560405192169182907f8be0079c531659141344cd1fd0a4f28419497f9722a3daafe3b4186f6b6457e0905f90a3505050565b5f807ff0c57e16840df040f15088dc2f81fe391c3923bec73e23a9662efc9c229c6a005b92915050565b6111506111c6565b6106c5816111eb565b610a056111c6565b6111696111c6565b610a056111f3565b61117a826111fb565b6040516001600160a01b038316907fbc7cd75a20ee27fd9adebab32041f755214dbc6bffa90cc0225b39da2e5c2d3b905f90a28051156111be57611005828261125e565b6109d56112d0565b6111ce6112ef565b610a0557604051631afcd79f60e31b815260040160405180910390fd5b610e216111c6565b610e8a6111c6565b806001600160a01b03163b5f0361123057604051634c9c8ce360e01b81526001600160a01b0382166004820152602401610663565b5f8051602061172183398151915280546001600160a01b0319166001600160a01b0392909216919091179055565b60605f80846001600160a01b03168460405161127a9190611705565b5f60405180830381855af49150503d805f81146112b2576040519150601f19603f3d011682016040523d82523d5f602084013e6112b7565b606091505b50915091506112c7858383611308565b95945050505050565b3415610a055760405163b398979f60e01b815260040160405180910390fd5b5f6112f861111e565b54600160401b900460ff16919050565b60608261131d5761131882611364565b610e12565b815115801561133457506001600160a01b0384163b155b1561135d57604051639996b31560e01b81526001600160a01b0385166004820152602401610663565b5092915050565b80511561137357805160208201fd5b60405163d6bda27560e01b815260040160405180910390fd5b80356001600160a01b03811681146113a2575f80fd5b919050565b5f602082840312156113b7575f80fd5b610e128261138c565b5f602082840312156113d0575f80fd5b5035919050565b5f805f606084860312156113e9575f80fd5b6113f28461138c565b95602085013595506040909401359392505050565b634e487b7160e01b5f52604160045260245ffd5b5f806040838503121561142c575f80fd5b6114358361138c565b9150602083013567ffffffffffffffff80821115611451575f80fd5b818501915085601f830112611464575f80fd5b81358181111561147657611476611407565b604051601f8201601f19908116603f0116810190838211818310171561149e5761149e611407565b816040528281528860208487010111156114b6575f80fd5b826020860160208301375f6020848301015280955050505050509250929050565b5f805f606084860312156114e9575f80fd5b6114f28461138c565b92506115006020850161138c565b9150604084013561ffff81168114611516575f80fd5b809150509250925092565b5f805f60408486031215611533575f80fd5b83359250602084013567ffffffffffffffff80821115611551575f80fd5b818601915086601f830112611564575f80fd5b813581811115611572575f80fd5b876020828501011115611583575f80fd5b6020830194508093505050509250925092565b5f5b838110156115b0578181015183820152602001611598565b50505f910152565b602081525f82518060208401526115d6816040850160208701611596565b601f01601f19169190910160400192915050565b634e487b7160e01b5f52601160045260245ffd5b80820180821115611142576111426115ea565b60208082526018908201527f53747265616d6572207472616e73666572206661696c65640000000000000000604082015260600190565b8082028115828204841417611142576111426115ea565b5f8261167957634e487b7160e01b5f52601260045260245ffd5b500490565b81810381811115611142576111426115ea565b5f600182016116a2576116a26115ea565b5060010190565b85815260806020820152836080820152838560a08301375f60a085830101525f60a0601f19601f87011683010190508360408301528260608301529695505050505050565b5f602082840312156116fe575f80fd5b5051919050565b5f8251611716818460208701611596565b919091019291505056fe360894a13ba1a3210667c828492db98dca3e2076cc3735a920a3ca505d382bbc9b779b17422d0df92223018b32b4d1fa46e071723d6817e2486d003becc55f00a2646970667358221220fe67f9e70f885e27e55aa63d3cf90eb84ffdeb57bb1d514f05d18fcaae76187a64736f6c63430008180033","linkReferences":{}},"methodIdentifiers":{"UPGRADE_INTERFACE_VERSION()":"ad3cb1cc","availableBalance()":"ab2f0e51","donate(uint256,string)":"8d59d1f1","factory()":"c45a0155","getDonationAmount(address)":"1479197f","getSubscription(address)":"0cbebc24","initialize(address,address,uint16)":"7ebef529","isSubscribed(address)":"b92ae87c","lifetimeDonations(address)":"886c250e","owner()":"8da5cb5b","platformFeeBps()":"22dcd13e","proxiableUUID()":"52d1902d","recordSubscription(address,uint256,uint256)":"1106d5d3","renounceOwnership()":"715018a6","streamer()":"cecf13f5","subscriptions(address)":"f046395a","totalRevenue()":"bf2d9e0b","totalSubscribers()":"15e2475f","totalWithdrawn()":"4b319713","transferOwnership(address)":"f2fde38b","treasury()":"61d027b3","upgradeToAndCall(address,bytes)":"4f1ef286","withdrawRevenue(uint256)":"0ceff204"},"id":51}