{"abi":[{"type":"constructor","inputs":[],"stateMutability":"nonpayable"},{"type":"function","name":"ADMIN_ROLE","inputs":[],"outputs":[{"name":"","type":"bytes32","internalType":"bytes32"}],"stateMutability":"view"},{"type":"function","name":"DEFAULT_ADMIN_ROLE","inputs":[],"outputs":[{"name":"","type":"bytes32","internalType":"bytes32"}],"stateMutability":"view"},{"type":"function","name":"MARKET_FIRST_TO_SCORE","inputs":[],"outputs":[{"name":"","type":"bytes32","internalType":"bytes32"}],"stateMutability":"view"},{"type":"function","name":"MARKET_HIGHEST_QUARTER","inputs":[],"outputs":[{"name":"","type":"bytes32","internalType":"bytes32"}],"stateMutability":"view"},{"type":"function","name":"MARKET_QUARTER_WINNER","inputs":[],"outputs":[{"name":"","type":"bytes32","internalType":"bytes32"}],"stateMutability":"view"},{"type":"function","name":"MARKET_SPREAD","inputs":[],"outputs":[{"name":"","type":"bytes32","internalType":"bytes32"}],"stateMutability":"view"},{"type":"function","name":"MARKET_TOTAL_POINTS","inputs":[],"outputs":[{"name":"","type":"bytes32","internalType":"bytes32"}],"stateMutability":"view"},{"type":"function","name":"MARKET_WINNER","inputs":[],"outputs":[{"name":"","type":"bytes32","internalType":"bytes32"}],"stateMutability":"view"},{"type":"function","name":"MAX_ODDS","inputs":[],"outputs":[{"name":"","type":"uint32","internalType":"uint32"}],"stateMutability":"view"},{"type":"function","name":"MIN_NET_STAKE","inputs":[],"outputs":[{"name":"","type":"uint256","internalType":"uint256"}],"stateMutability":"view"},{"type":"function","name":"MIN_ODDS","inputs":[],"outputs":[{"name":"","type":"uint32","internalType":"uint32"}],"stateMutability":"view"},{"type":"function","name":"ODDS_PRECISION","inputs":[],"outputs":[{"name":"","type":"uint32","internalType":"uint32"}],"stateMutability":"view"},{"type":"function","name":"ODDS_SETTER_ROLE","inputs":[],"outputs":[{"name":"","type":"bytes32","internalType":"bytes32"}],"stateMutability":"view"},{"type":"function","name":"PAUSER_ROLE","inputs":[],"outputs":[{"name":"","type":"bytes32","internalType":"bytes32"}],"stateMutability":"view"},{"type":"function","name":"RESOLVER_ROLE","inputs":[],"outputs":[{"name":"","type":"bytes32","internalType":"bytes32"}],"stateMutability":"view"},{"type":"function","name":"SWAP_ROUTER_ROLE","inputs":[],"outputs":[{"name":"","type":"bytes32","internalType":"bytes32"}],"stateMutability":"view"},{"type":"function","name":"UPGRADE_INTERFACE_VERSION","inputs":[],"outputs":[{"name":"","type":"string","internalType":"string"}],"stateMutability":"view"},{"type":"function","name":"addMarketWithLine","inputs":[{"name":"marketType","type":"bytes32","internalType":"bytes32"},{"name":"initialOdds","type":"uint32","internalType":"uint32"},{"name":"line","type":"int16","internalType":"int16"}],"outputs":[],"stateMutability":"nonpayable"},{"type":"function","name":"addMarketWithQuarter","inputs":[{"name":"marketType","type":"bytes32","internalType":"bytes32"},{"name":"initialOdds","type":"uint32","internalType":"uint32"},{"name":"line","type":"int16","internalType":"int16"},{"name":"quarter","type":"uint8","internalType":"uint8"}],"outputs":[],"stateMutability":"nonpayable"},{"type":"function","name":"addMarketsBatch","inputs":[{"name":"marketTypes","type":"bytes32[]","internalType":"bytes32[]"},{"name":"initialOdds","type":"uint32[]","internalType":"uint32[]"},{"name":"lines","type":"int16[]","internalType":"int16[]"}],"outputs":[],"stateMutability":"nonpayable"},{"type":"function","name":"addMarketsBatchWithQuarter","inputs":[{"name":"marketTypes","type":"bytes32[]","internalType":"bytes32[]"},{"name":"initialOdds","type":"uint32[]","internalType":"uint32[]"},{"name":"lines","type":"int16[]","internalType":"int16[]"},{"name":"quarters","type":"uint8[]","internalType":"uint8[]"}],"outputs":[],"stateMutability":"nonpayable"},{"type":"function","name":"basketballMarkets","inputs":[{"name":"","type":"uint256","internalType":"uint256"}],"outputs":[{"name":"marketType","type":"bytes32","internalType":"bytes32"},{"name":"line","type":"int16","internalType":"int16"},{"name":"quarter","type":"uint8","internalType":"uint8"},{"name":"maxSelections","type":"uint8","internalType":"uint8"}],"stateMutability":"view"},{"type":"function","name":"cancelMarket","inputs":[{"name":"marketId","type":"uint256","internalType":"uint256"},{"name":"reason","type":"string","internalType":"string"}],"outputs":[],"stateMutability":"nonpayable"},{"type":"function","name":"claim","inputs":[{"name":"marketId","type":"uint256","internalType":"uint256"},{"name":"betIndex","type":"uint256","internalType":"uint256"}],"outputs":[],"stateMutability":"nonpayable"},{"type":"function","name":"claimAll","inputs":[{"name":"marketId","type":"uint256","internalType":"uint256"}],"outputs":[],"stateMutability":"nonpayable"},{"type":"function","name":"claimRange","inputs":[{"name":"marketId","type":"uint256","internalType":"uint256"},{"name":"start","type":"uint256","internalType":"uint256"},{"name":"end","type":"uint256","internalType":"uint256"}],"outputs":[],"stateMutability":"nonpayable"},{"type":"function","name":"claimRefund","inputs":[{"name":"marketId","type":"uint256","internalType":"uint256"},{"name":"betIndex","type":"uint256","internalType":"uint256"}],"outputs":[],"stateMutability":"nonpayable"},{"type":"function","name":"closeMarket","inputs":[{"name":"marketId","type":"uint256","internalType":"uint256"}],"outputs":[],"stateMutability":"nonpayable"},{"type":"function","name":"closeMarketsBatch","inputs":[{"name":"marketIds","type":"uint256[]","internalType":"uint256[]"}],"outputs":[],"stateMutability":"nonpayable"},{"type":"function","name":"emergencyPause","inputs":[],"outputs":[],"stateMutability":"nonpayable"},{"type":"function","name":"getBasketballMarket","inputs":[{"name":"marketId","type":"uint256","internalType":"uint256"}],"outputs":[{"name":"marketTypeStr","type":"string","internalType":"string"},{"name":"line","type":"int16","internalType":"int16"},{"name":"quarter","type":"uint8","internalType":"uint8"},{"name":"maxSelections","type":"uint8","internalType":"uint8"},{"name":"state","type":"uint8","internalType":"enum BettingMatch.MarketState"},{"name":"currentOdds","type":"uint32","internalType":"uint32"},{"name":"result","type":"uint64","internalType":"uint64"},{"name":"totalPool","type":"uint256","internalType":"uint256"}],"stateMutability":"view"},{"type":"function","name":"getBetDetails","inputs":[{"name":"marketId","type":"uint256","internalType":"uint256"},{"name":"user","type":"address","internalType":"address"},{"name":"betIndex","type":"uint256","internalType":"uint256"}],"outputs":[{"name":"amount","type":"uint256","internalType":"uint256"},{"name":"selection","type":"uint64","internalType":"uint64"},{"name":"odds","type":"uint32","internalType":"uint32"},{"name":"timestamp","type":"uint40","internalType":"uint40"},{"name":"claimed","type":"bool","internalType":"bool"},{"name":"potentialPayout","type":"uint256","internalType":"uint256"}],"stateMutability":"view"},{"type":"function","name":"getCurrentOdds","inputs":[{"name":"marketId","type":"uint256","internalType":"uint256"}],"outputs":[{"name":"","type":"uint32","internalType":"uint32"}],"stateMutability":"view"},{"type":"function","name":"getMarketCore","inputs":[{"name":"marketId","type":"uint256","internalType":"uint256"}],"outputs":[{"name":"","type":"tuple","internalType":"struct BettingMatch.MarketCore","components":[{"name":"state","type":"uint8","internalType":"enum BettingMatch.MarketState"},{"name":"result","type":"uint64","internalType":"uint64"},{"name":"createdAt","type":"uint40","internalType":"uint40"},{"name":"resolvedAt","type":"uint40","internalType":"uint40"},{"name":"totalPool","type":"uint256","internalType":"uint256"}]}],"stateMutability":"view"},{"type":"function","name":"getMarketInfo","inputs":[{"name":"marketId","type":"uint256","internalType":"uint256"}],"outputs":[{"name":"marketType","type":"bytes32","internalType":"bytes32"},{"name":"state","type":"uint8","internalType":"enum BettingMatch.MarketState"},{"name":"currentOdds","type":"uint32","internalType":"uint32"},{"name":"result","type":"uint64","internalType":"uint64"},{"name":"totalPool","type":"uint256","internalType":"uint256"}],"stateMutability":"view"},{"type":"function","name":"getMarketLiability","inputs":[{"name":"marketId","type":"uint256","internalType":"uint256"}],"outputs":[{"name":"","type":"uint256","internalType":"uint256"}],"stateMutability":"view"},{"type":"function","name":"getOddsHistory","inputs":[{"name":"marketId","type":"uint256","internalType":"uint256"}],"outputs":[{"name":"","type":"uint32[]","internalType":"uint32[]"}],"stateMutability":"view"},{"type":"function","name":"getRoleAdmin","inputs":[{"name":"role","type":"bytes32","internalType":"bytes32"}],"outputs":[{"name":"","type":"bytes32","internalType":"bytes32"}],"stateMutability":"view"},{"type":"function","name":"getUserBets","inputs":[{"name":"marketId","type":"uint256","internalType":"uint256"},{"name":"user","type":"address","internalType":"address"}],"outputs":[{"name":"","type":"tuple[]","internalType":"struct BettingMatch.Bet[]","components":[{"name":"amount","type":"uint256","internalType":"uint256"},{"name":"selection","type":"uint64","internalType":"uint64"},{"name":"oddsIndex","type":"uint16","internalType":"uint16"},{"name":"timestamp","type":"uint40","internalType":"uint40"},{"name":"claimed","type":"bool","internalType":"bool"}]}],"stateMutability":"view"},{"type":"function","name":"grantRole","inputs":[{"name":"role","type":"bytes32","internalType":"bytes32"},{"name":"account","type":"address","internalType":"address"}],"outputs":[],"stateMutability":"nonpayable"},{"type":"function","name":"hasRole","inputs":[{"name":"role","type":"bytes32","internalType":"bytes32"},{"name":"account","type":"address","internalType":"address"}],"outputs":[{"name":"","type":"bool","internalType":"bool"}],"stateMutability":"view"},{"type":"function","name":"initialize","inputs":[{"name":"_matchName","type":"string","internalType":"string"},{"name":"_owner","type":"address","internalType":"address"}],"outputs":[],"stateMutability":"nonpayable"},{"type":"function","name":"liquidityPool","inputs":[],"outputs":[{"name":"","type":"address","internalType":"contract ILiquidityPool"}],"stateMutability":"view"},{"type":"function","name":"marketCount","inputs":[],"outputs":[{"name":"","type":"uint256","internalType":"uint256"}],"stateMutability":"view"},{"type":"function","name":"matchName","inputs":[],"outputs":[{"name":"","type":"string","internalType":"string"}],"stateMutability":"view"},{"type":"function","name":"maxAllowedOdds","inputs":[],"outputs":[{"name":"","type":"uint32","internalType":"uint32"}],"stateMutability":"view"},{"type":"function","name":"openMarket","inputs":[{"name":"marketId","type":"uint256","internalType":"uint256"}],"outputs":[],"stateMutability":"nonpayable"},{"type":"function","name":"openMarketsBatch","inputs":[{"name":"marketIds","type":"uint256[]","internalType":"uint256[]"}],"outputs":[],"stateMutability":"nonpayable"},{"type":"function","name":"owner","inputs":[],"outputs":[{"name":"","type":"address","internalType":"address"}],"stateMutability":"view"},{"type":"function","name":"paused","inputs":[],"outputs":[{"name":"","type":"bool","internalType":"bool"}],"stateMutability":"view"},{"type":"function","name":"placeBetUSDC","inputs":[{"name":"marketId","type":"uint256","internalType":"uint256"},{"name":"selection","type":"uint64","internalType":"uint64"},{"name":"amount","type":"uint256","internalType":"uint256"}],"outputs":[],"stateMutability":"nonpayable"},{"type":"function","name":"placeBetUSDCFor","inputs":[{"name":"user","type":"address","internalType":"address"},{"name":"marketId","type":"uint256","internalType":"uint256"},{"name":"selection","type":"uint64","internalType":"uint64"},{"name":"amount","type":"uint256","internalType":"uint256"}],"outputs":[],"stateMutability":"nonpayable"},{"type":"function","name":"proxiableUUID","inputs":[],"outputs":[{"name":"","type":"bytes32","internalType":"bytes32"}],"stateMutability":"view"},{"type":"function","name":"quoteNetExposure","inputs":[{"name":"marketId","type":"uint256","internalType":"uint256"},{"name":"amount","type":"uint256","internalType":"uint256"}],"outputs":[{"name":"netExposure","type":"uint256","internalType":"uint256"}],"stateMutability":"view"},{"type":"function","name":"renounceOwnership","inputs":[],"outputs":[],"stateMutability":"nonpayable"},{"type":"function","name":"renounceRole","inputs":[{"name":"role","type":"bytes32","internalType":"bytes32"},{"name":"callerConfirmation","type":"address","internalType":"address"}],"outputs":[],"stateMutability":"nonpayable"},{"type":"function","name":"resolveMarket","inputs":[{"name":"marketId","type":"uint256","internalType":"uint256"},{"name":"result","type":"uint64","internalType":"uint64"}],"outputs":[],"stateMutability":"nonpayable"},{"type":"function","name":"resolveMarketsBatch","inputs":[{"name":"marketIds","type":"uint256[]","internalType":"uint256[]"},{"name":"results","type":"uint64[]","internalType":"uint64[]"}],"outputs":[],"stateMutability":"nonpayable"},{"type":"function","name":"revokeRole","inputs":[{"name":"role","type":"bytes32","internalType":"bytes32"},{"name":"account","type":"address","internalType":"address"}],"outputs":[],"stateMutability":"nonpayable"},{"type":"function","name":"setLiquidityPool","inputs":[{"name":"_pool","type":"address","internalType":"address"}],"outputs":[],"stateMutability":"nonpayable"},{"type":"function","name":"setMarketOdds","inputs":[{"name":"marketId","type":"uint256","internalType":"uint256"},{"name":"newOdds","type":"uint32","internalType":"uint32"}],"outputs":[],"stateMutability":"nonpayable"},{"type":"function","name":"setMaxAllowedOdds","inputs":[{"name":"newMax","type":"uint32","internalType":"uint32"}],"outputs":[],"stateMutability":"nonpayable"},{"type":"function","name":"setUSDCToken","inputs":[{"name":"_usdcToken","type":"address","internalType":"address"}],"outputs":[],"stateMutability":"nonpayable"},{"type":"function","name":"sportType","inputs":[],"outputs":[{"name":"","type":"string","internalType":"string"}],"stateMutability":"view"},{"type":"function","name":"supportsInterface","inputs":[{"name":"interfaceId","type":"bytes4","internalType":"bytes4"}],"outputs":[{"name":"","type":"bool","internalType":"bool"}],"stateMutability":"view"},{"type":"function","name":"suspendMarket","inputs":[{"name":"marketId","type":"uint256","internalType":"uint256"}],"outputs":[],"stateMutability":"nonpayable"},{"type":"function","name":"transferOwnership","inputs":[{"name":"newOwner","type":"address","internalType":"address"}],"outputs":[],"stateMutability":"nonpayable"},{"type":"function","name":"unpause","inputs":[],"outputs":[],"stateMutability":"nonpayable"},{"type":"function","name":"upgradeToAndCall","inputs":[{"name":"newImplementation","type":"address","internalType":"address"},{"name":"data","type":"bytes","internalType":"bytes"}],"outputs":[],"stateMutability":"payable"},{"type":"function","name":"usdcToken","inputs":[],"outputs":[{"name":"","type":"address","internalType":"contract IERC20"}],"stateMutability":"view"},{"type":"event","name":"BetPlaced","inputs":[{"name":"marketId","type":"uint256","indexed":true,"internalType":"uint256"},{"name":"user","type":"address","indexed":true,"internalType":"address"},{"name":"betIndex","type":"uint256","indexed":false,"internalType":"uint256"},{"name":"amount","type":"uint256","indexed":false,"internalType":"uint256"},{"name":"selection","type":"uint64","indexed":false,"internalType":"uint64"},{"name":"odds","type":"uint32","indexed":false,"internalType":"uint32"},{"name":"oddsIndex","type":"uint16","indexed":false,"internalType":"uint16"}],"anonymous":false},{"type":"event","name":"Initialized","inputs":[{"name":"version","type":"uint64","indexed":false,"internalType":"uint64"}],"anonymous":false},{"type":"event","name":"LiquidityPoolSet","inputs":[{"name":"pool","type":"address","indexed":true,"internalType":"address"}],"anonymous":false},{"type":"event","name":"MarketCancelled","inputs":[{"name":"marketId","type":"uint256","indexed":true,"internalType":"uint256"},{"name":"reason","type":"string","indexed":false,"internalType":"string"}],"anonymous":false},{"type":"event","name":"MarketCreated","inputs":[{"name":"marketId","type":"uint256","indexed":true,"internalType":"uint256"},{"name":"marketType","type":"string","indexed":false,"internalType":"string"},{"name":"initialOdds","type":"uint32","indexed":false,"internalType":"uint32"}],"anonymous":false},{"type":"event","name":"MarketResolved","inputs":[{"name":"marketId","type":"uint256","indexed":true,"internalType":"uint256"},{"name":"result","type":"uint64","indexed":false,"internalType":"uint64"},{"name":"resolvedAt","type":"uint40","indexed":false,"internalType":"uint40"}],"anonymous":false},{"type":"event","name":"MarketStateChanged","inputs":[{"name":"marketId","type":"uint256","indexed":true,"internalType":"uint256"},{"name":"oldState","type":"uint8","indexed":false,"internalType":"enum BettingMatch.MarketState"},{"name":"newState","type":"uint8","indexed":false,"internalType":"enum BettingMatch.MarketState"}],"anonymous":false},{"type":"event","name":"MatchInitialized","inputs":[{"name":"name","type":"string","indexed":true,"internalType":"string"},{"name":"sportType","type":"string","indexed":false,"internalType":"string"},{"name":"owner","type":"address","indexed":true,"internalType":"address"}],"anonymous":false},{"type":"event","name":"MaxAllowedOddsSet","inputs":[{"name":"oldMax","type":"uint32","indexed":false,"internalType":"uint32"},{"name":"newMax","type":"uint32","indexed":false,"internalType":"uint32"}],"anonymous":false},{"type":"event","name":"OddsUpdated","inputs":[{"name":"marketId","type":"uint256","indexed":true,"internalType":"uint256"},{"name":"oldOdds","type":"uint32","indexed":false,"internalType":"uint32"},{"name":"newOdds","type":"uint32","indexed":false,"internalType":"uint32"},{"name":"oddsIndex","type":"uint16","indexed":false,"internalType":"uint16"}],"anonymous":false},{"type":"event","name":"OwnershipTransferred","inputs":[{"name":"previousOwner","type":"address","indexed":true,"internalType":"address"},{"name":"newOwner","type":"address","indexed":true,"internalType":"address"}],"anonymous":false},{"type":"event","name":"Paused","inputs":[{"name":"account","type":"address","indexed":false,"internalType":"address"}],"anonymous":false},{"type":"event","name":"Payout","inputs":[{"name":"marketId","type":"uint256","indexed":true,"internalType":"uint256"},{"name":"user","type":"address","indexed":true,"internalType":"address"},{"name":"betIndex","type":"uint256","indexed":false,"internalType":"uint256"},{"name":"amount","type":"uint256","indexed":false,"internalType":"uint256"}],"anonymous":false},{"type":"event","name":"Refund","inputs":[{"name":"marketId","type":"uint256","indexed":true,"internalType":"uint256"},{"name":"user","type":"address","indexed":true,"internalType":"address"},{"name":"betIndex","type":"uint256","indexed":false,"internalType":"uint256"},{"name":"amount","type":"uint256","indexed":false,"internalType":"uint256"}],"anonymous":false},{"type":"event","name":"RoleAdminChanged","inputs":[{"name":"role","type":"bytes32","indexed":true,"internalType":"bytes32"},{"name":"previousAdminRole","type":"bytes32","indexed":true,"internalType":"bytes32"},{"name":"newAdminRole","type":"bytes32","indexed":true,"internalType":"bytes32"}],"anonymous":false},{"type":"event","name":"RoleGranted","inputs":[{"name":"role","type":"bytes32","indexed":true,"internalType":"bytes32"},{"name":"account","type":"address","indexed":true,"internalType":"address"},{"name":"sender","type":"address","indexed":true,"internalType":"address"}],"anonymous":false},{"type":"event","name":"RoleRevoked","inputs":[{"name":"role","type":"bytes32","indexed":true,"internalType":"bytes32"},{"name":"account","type":"address","indexed":true,"internalType":"address"},{"name":"sender","type":"address","indexed":true,"internalType":"address"}],"anonymous":false},{"type":"event","name":"USDCTokenSet","inputs":[{"name":"token","type":"address","indexed":true,"internalType":"address"}],"anonymous":false},{"type":"event","name":"Unpaused","inputs":[{"name":"account","type":"address","indexed":false,"internalType":"address"}],"anonymous":false},{"type":"event","name":"Upgraded","inputs":[{"name":"implementation","type":"address","indexed":true,"internalType":"address"}],"anonymous":false},{"type":"error","name":"AccessControlBadConfirmation","inputs":[]},{"type":"error","name":"AccessControlUnauthorizedAccount","inputs":[{"name":"account","type":"address","internalType":"address"},{"name":"neededRole","type":"bytes32","internalType":"bytes32"}]},{"type":"error","name":"AddressEmptyCode","inputs":[{"name":"target","type":"address","internalType":"address"}]},{"type":"error","name":"AddressInsufficientBalance","inputs":[{"name":"account","type":"address","internalType":"address"}]},{"type":"error","name":"AlreadyClaimed","inputs":[{"name":"marketId","type":"uint256","internalType":"uint256"},{"name":"user","type":"address","internalType":"address"},{"name":"betIndex","type":"uint256","internalType":"uint256"}]},{"type":"error","name":"ArrayLengthMismatch","inputs":[]},{"type":"error","name":"BetLost","inputs":[{"name":"marketId","type":"uint256","internalType":"uint256"},{"name":"user","type":"address","internalType":"address"},{"name":"betIndex","type":"uint256","internalType":"uint256"}]},{"type":"error","name":"BetNotFound","inputs":[{"name":"marketId","type":"uint256","internalType":"uint256"},{"name":"user","type":"address","internalType":"address"},{"name":"betIndex","type":"uint256","internalType":"uint256"}]},{"type":"error","name":"ERC1967InvalidImplementation","inputs":[{"name":"implementation","type":"address","internalType":"address"}]},{"type":"error","name":"ERC1967NonPayable","inputs":[]},{"type":"error","name":"EnforcedPause","inputs":[]},{"type":"error","name":"ExpectedPause","inputs":[]},{"type":"error","name":"FailedInnerCall","inputs":[]},{"type":"error","name":"InvalidInitialization","inputs":[]},{"type":"error","name":"InvalidMarketId","inputs":[{"name":"marketId","type":"uint256","internalType":"uint256"}]},{"type":"error","name":"InvalidMarketState","inputs":[{"name":"marketId","type":"uint256","internalType":"uint256"},{"name":"current","type":"uint8","internalType":"enum BettingMatch.MarketState"},{"name":"required","type":"uint8","internalType":"enum BettingMatch.MarketState"}]},{"type":"error","name":"InvalidMarketType","inputs":[{"name":"marketType","type":"bytes32","internalType":"bytes32"}]},{"type":"error","name":"InvalidOddsValue","inputs":[{"name":"odds","type":"uint32","internalType":"uint32"},{"name":"min","type":"uint32","internalType":"uint32"},{"name":"max","type":"uint32","internalType":"uint32"}]},{"type":"error","name":"InvalidQuarter","inputs":[{"name":"quarter","type":"uint8","internalType":"uint8"}]},{"type":"error","name":"InvalidSelection","inputs":[{"name":"marketId","type":"uint256","internalType":"uint256"},{"name":"selection","type":"uint64","internalType":"uint64"},{"name":"maxAllowed","type":"uint8","internalType":"uint8"}]},{"type":"error","name":"LiquidityPoolNotConfigured","inputs":[]},{"type":"error","name":"MaxOddsEntriesReached","inputs":[{"name":"marketId","type":"uint256","internalType":"uint256"}]},{"type":"error","name":"NotInitializing","inputs":[]},{"type":"error","name":"OddsNotSet","inputs":[{"name":"marketId","type":"uint256","internalType":"uint256"}]},{"type":"error","name":"OwnableInvalidOwner","inputs":[{"name":"owner","type":"address","internalType":"address"}]},{"type":"error","name":"OwnableUnauthorizedAccount","inputs":[{"name":"account","type":"address","internalType":"address"}]},{"type":"error","name":"ReentrancyGuardReentrantCall","inputs":[]},{"type":"error","name":"SafeERC20FailedOperation","inputs":[{"name":"token","type":"address","internalType":"address"}]},{"type":"error","name":"StakeBelowMinimum","inputs":[{"name":"netStake","type":"uint256","internalType":"uint256"},{"name":"minimum","type":"uint256","internalType":"uint256"}]},{"type":"error","name":"USDCNotConfigured","inputs":[]},{"type":"error","name":"UUPSUnauthorizedCallContext","inputs":[]},{"type":"error","name":"UUPSUnsupportedProxiableUUID","inputs":[{"name":"slot","type":"bytes32","internalType":"bytes32"}]},{"type":"error","name":"ZeroBetAmount","inputs":[]},{"type":"error","name":"ZeroNetExposure","inputs":[{"name":"marketId","type":"uint256","internalType":"uint256"}]}],"bytecode":{"object":"0x60a08060405234620000d157306080527ff0c57e16840df040f15088dc2f81fe391c3923bec73e23a9662efc9c229c6a009081549060ff8260401c16620000c257506001600160401b036002600160401b0319828216016200007c575b6040516150899081620000d68239608051818181612b0b0152612c680152f35b6001600160401b031990911681179091556040519081527fc7f505b2f371ae2175ee4913f4499e1f2633a7b5936321eed1cdaeb6115181d290602090a15f80806200005c565b63f92ee8a960e01b8152600490fd5b5f80fdfe60806040526004361015610011575f80fd5b5f60e05f3560e01c908163018770201461395757816301ffc9a7146139015781630e75a18c146138cc5781630f5a9d0114613866578163106190351461382357816310dc30fd146137fc57816311eac855146137d457816319d0ec1f1461376e5781631a095c6e14613738578163248a9ca3146136ff5781632cfe63a5146136e25781632f2ff15d14613699578163330b82fe1461367257816336568abe1461362b57816337c6ef85146136045781633ec79193146135835781633eccfc96146131275781633f4ba83a146130b257816340b16c1e14612fd4578163456051f114612e5c5781634644161f14612e295781634f1ef28614612c1857816351487dc014612bf157816351858e2714612b6257816352d1902d14612af95781635c975abb14612acb57816361bd2ca914612978578163665a11ca1461295057816367df4bfe146128855781636930fd2a146124c05781636bc98ba3146124a4578163715018a61461245057816371738f8c146123c657816375b238fc1461239f57816378fab260146123785781637ab4339d14611f315781637fc6f99b14611e1357816383e2e9df14611ddc5781638527d58f14611bdb5781638723eccf14611bb35781638d3bf36514611ab95781638da5cb5b14611a8457816391d1485414611a2e578163931b5466146119845781639b05743f146118da5781639ebfee811461181d578163a04286e014611756578163a217fddf1461173a578163a4b8195c146112cc578163a890c99714610e57578163ad3cb1cc14610e11578163ae07d05114610df4578163ae41809514610dc6578163af4a52ec14610d9e578163ba26901514610cb3578163baa2675714610c85578163bdc69bd914610c5d578163bef2a6a014610b98578163c3490263146108ef578163c6886db4146108c7578163d547741f14610879578163d9063afa146107b9578163e63ab1e914610791578163e8b02f1414610741578163ec97908214610723578163f014a10814610705578163f2fde38b146106d8578163f50ee3d5146104b957508063fa744dd3146103465763ff40596c14610320575f80fd5b34610343578060031936011261034357602063ffffffff600e5416604051908152f35b80fd5b503461034357604036600319011261034357600435906103646139d3565b9161036e81613dcf565b81526004602090815260408083206001600160a01b039094165f90815293825290922080546001600160401b03938482116104a5579290604051906103b8858260051b0183613aa9565b8082528482018094845285842084915b83831061044357505050506040519380850191818652518092526040850193925b8281106103f65785850386f35b8351805186528083015188168684015260408082015161ffff169087015260608082015164ffffffffff169087015260809081015115159086015260a090940193928101926001016103e9565b60028860019260409a97989a5161045981613a45565b8554815260ff8d868801549081168584015261ffff8160401c16604084015264ffffffffff8160501c16606084015260781c1615156080820152815201920192019190969493966103c8565b634e487b7160e01b84526041600452602484fd5b9050346106d457602090816003193601126106d057906004356104db81613dcf565b8352600381528060408420926040519081938491818754948581520190819789528289209489915b81600784011061066057506105639554918482821061064a575b828210610632575b828210610619575b828210610600575b8282106105e7575b8282106105ce575b8282106105b5575b50106105a7575b50905095929493950385613aa9565b60405193838594850191818652518092526040850193925b82811061058a57505050500390f35b835163ffffffff168552869550938101939281019260010161057b565b60e01c81520183905f610554565b6001919463ffffffff8560c01c1681520193018461054d565b6001919463ffffffff8560a01c16815201930184610545565b6001919463ffffffff8560801c1681520193018461053d565b6001919463ffffffff8560601c16815201930184610535565b6001919463ffffffff8560401c1681520193018461052d565b6001919463ffffffff85831c16815201930184610525565b6001919463ffffffff851681520193018461051d565b94509250906001610100600892875463ffffffff808216835280828c1c168b840152808260401c16604084015260608183821c169084015260808183821c169084015260a08183821c169084015260c09082821c1690830152871c87820152019501910185928794959295610503565b8280fd5b5080fd5b8234610343576020366003190112610343576107026106f56139bd565b6106fd61491e565b613cc6565b80f35b82346103435780600319360112610343576020604051620f42408152f35b82346103435780600319360112610343576020600254604051908152f35b8234610343576020366003190112610343576040608091600435815260326020522060ff600182549201546040519283528060010b6020840152818160101c16604084015260181c166060820152f35b823461034357806003193601126103435760206040515f80516020614e148339815191528152f35b82346103435760203660031901126103435761082b906004356107db81613dcf565b808252603260205260408083209260056020522060016107fb845461497e565b9301549163ffffffff6001610811845493613e28565b9301549260ff604051978897610100808a52890190613ba6565b958060010b6020890152818160101c16604089015260181c1660608701526108596080870160ff8516613a38565b1660a085015260081c6001600160401b031660c084015260e08301520390f35b8234610343576040366003190112610343576108c36004356108996139d3565b908084525f80516020614e748339815191526020526108be6001604086200154613da1565b6145c5565b5080f35b823461034357806003193601126103435760206040515f80516020614ff48339815191528152f35b8234610343576108fe36613a0c565b906109076148ef565b61091081613dcf565b805f5260206005815260ff60405f2054166006811015610b845760048103610b56575061093b61468d565b8184526004815260408420335f52815260405f208054841015610b36578361096291613c63565b5090600182019182549260ff8460781c16610b19578487526005835260408720546001600160401b03929060081c831685841603610af85790610a1c8893926127106109c76109b861ffff8a60401c168b614956565b63ffffffff8454911690613bcb565b0496600160781b9060ff60781b191617835587855260088652604085206109ef888254613bf2565b90558785526009865260408520848454165f52865260405f20610a13888254613bf2565b90555486613bf2565b91868452600a855260408420610a33848254613bf2565b9055868452600b8552604084209154165f52835260405f20610a56828254613bf2565b90556007546001600160a01b0316803b156106d057604051631fabc62960e31b81529183918391829084908290610a94908b338e3060048701613c99565b03925af18015610aed57610ad5575b50506040519384528301525f80516020614fd483398151915260403393a360015f80516020614f148339815191525580f35b610ade90613a60565b610ae9578486610aa3565b8480fd5b6040513d84823e3d90fd5b604051638bf5a6c560e01b815280610b1589338a60048501613c42565b0390fd5b6040516308c52d4160e11b815280610b1588338960048501613c42565b5050610b15604051928392635b834b8f60e11b8452339060048501613c42565b6040516327c6314f60e11b815260048101849052606491610b7b906024830190613a38565b60046044820152fd5b634e487b7160e01b5f52602160045260245ffd5b82346103435780600319360112610343576040515f60018260015492610bbd84613b4d565b92838352602094856001821691825f14610c3d575050600114610c00575b50610be892500383613aa9565b610bfc604051928284938452830190613ba6565b0390f35b84915060015f52815f20905f915b858310610c25575050610be8935082010185610bdb565b80548389018501528794508693909201918101610c0e565b60ff191685820152610be895151560051b8501019250879150610bdb9050565b823461034357806003193601126103435760206040515f80516020614e948339815191528152f35b823461034357602036600319011261034357610702600435610ca681613dcf565b610cae613d24565b614750565b823461034357606036600319011261034357600435610cd06139d3565b604060443593610cdf84613dcf565b83815260046020522060018060a01b0382165f5260205260405f20908154841015610d80575060c092610d1191613c63565b509060ff63ffffffff610d3160018501549361ffff8560401c1690614956565b9354931691612710610d438486613bcb565b049260405194855260018060401b0382166020860152604085015264ffffffffff8160501c16606085015260781c161515608083015260a0820152f35b82610b1585604051938493635b834b8f60e11b855260048501613c42565b823461034357806003193601126103435760206040515f80516020614f948339815191528152f35b823461034357602036600319011261034357610702600435610de781613dcf565b610def613d24565b6146c4565b823461034357806003193601126103435760206040516127118152f35b8234610343578060031936011261034357610bfc604051610e3181613a8e565b60058152640352e302e360dc1b6020820152604051918291602083526020830190613ba6565b823461034357606036600319011261034357602435604435610e776148ef565b610e82600435613dcf565b610e8a61468d565b6004358352600560205260ff60408420541660068110156112b8576004811415806112ad575b61128757506004358352600460205260408320335f5260205260405f2054908181115f1461128057505b808210610ef7575b8260015f80516020614f148339815191525580f35b6004355f52600560205260405f2091600460205260405f20335f5260205260405f20905b828110610f29575050610ee2565b610f338183613c63565b5090600182015460ff8160781c166110f3578554600660ff82161015610b8457600460ff82161480611266575b156110e5575050600182015491610f8061ffff8460401c16600435614956565b90610fa1612710610f9963ffffffff8454951685613bcb565b049283613bf2565b60ff60781b19909416600160781b1760018201556004355f9081526008602052604090208054610fd2908490613bf2565b90556004355f52600960205260405f2060018060401b0390816001840154165f5260205260405f20611005848254613bf2565b90556004355f52600a60205260405f20611020868254613bf2565b90556004355f52600b602052600160405f20920154165f5260205260405f2061104a848254613bf2565b90556007546001600160a01b0316803b156110e1576110895f94918592604051968780948193631fabc62960e31b835288336004353060048701613c99565b03925af19283156110d6576001936110c7575b5060405190828252602082015233905f80516020614fd4833981519152604060043592a35b01610f1b565b6110d090613a60565b8761109c565b6040513d5f823e3d90fd5b5f80fd5b90929060ff166005146110fd575b50600191506110c1565b61111061ffff8460401c16600435614956565b9061271061112663ffffffff8354941684613bcb565b046111318382613bf2565b60ff60781b19909516600160781b1760018301556004355f9081526008602052604090208054611162908390613bf2565b90556004355f52600960205260405f209060018060401b0391826001850154165f5260205261119660405f20918254613bf2565b90556004355f52600a60205260405f206111b1868254613bf2565b90556004355f52600b602052600160405f20920154165f5260205260405f206111db848254613bf2565b90556007546001600160a01b0316803b156110e15761121a5f949185926040519687809481936321d2aaf360e11b835288336004353060048701613c99565b03925af19283156110d657600193611257575b5060405190828252602082015233905f80516020614dd4833981519152604060043592a3866110f3565b61126090613a60565b8761122d565b506001600160401b03828116600883901c90911614610f60565b9050610eda565b6040516327c6314f60e11b81526004803590820152606491610b7b906024830190613a38565b506005811415610eb0565b634e487b7160e01b84526021600452602484fd5b8234610343576060366003190112610343576004356112e9613a22565b906044356112f682613dcf565b6112ff82614644565b61130761468d565b6007545f936001600160a01b0391821692831561172857801561171657845f526020936003855260405f2090600282019061ffff9283835416156116fe5761134f868a614ba4565b866006541680156116ec576113a55f806040518c8101906323b872dd60e01b8252602497338983015260448201528a60648201526064815261139081613a45565b519082865af161139e614c21565b9083614c50565b80518a81151591826116cb575b505090506116b45750620186a0808610611697575063ffffffff6113e385855416926113dd84613df4565b90613e07565b90549060031b1c16966127106113f98988613bcb565b046114048782613bf2565b92831561167f578b5f5260048b5260405f20335f528b5260405f206040519161142c83613a45565b8983528c83019260018060401b03809c169b8c855260408201928352606082019164ffffffffff4216835260808101945f8652805490600160401b82101561166c579061147e91600182018155613c63565b91909161165a57518155945160019095018054935192516001600160781b0319909416959091169490941760409190911b61ffff60401b161760509190911b64ffffffffff60501b16178255516114d89190151590613c7c565b8a5f5260058a52600160405f20016114f18882546146b7565b90558a5f5260088a5260405f206115098282546146b7565b90558a5f5260098a5260405f20885f528a5261152a60405f209182546146b7565b9055895f52600a895260405f206115428382546146b7565b9055895f52600b895260405f20875f52895260405f206115638382546146b7565b9055895f52600c895260405f2061157b8782546146b7565b9055895f52600d895260405f20875f52895260405f2061159c8782546146b7565b905560075416803b156110e1576115d2915f9187838d60405196879586948593631613163360e11b855233903060048701613c99565b03925af180156110d657611647575b508789526004875260408920335f52875260405f2054985f198a01998a116116365750505416936040519687528601526040850152606084015260808301525f80516020614ef483398151915260a03393a380f35b634e487b7160e01b81526011600452fd5b611652919950613a60565b5f978a6115e1565b8a634e487b7160e01b5f525f6004525ffd5b8b634e487b7160e01b5f5260416004525ffd5b604051631a048a7f60e11b8152600481018d90528590fd5b8560449184604051926378e030db60e01b84526004840152820152fd5b905060405190635274afe760e01b82526004820152fd5b83809293500103126110e1578901518015908115036110e157808a8f6113b2565b604051639554dd1160e01b8152600490fd5b60405162bc17d160e31b8152600481018a9052602490fd5b604051630813eb4360e01b8152600490fd5b60405163b8b5ff1560e01b8152600490fd5b8234610343578060031936011261034357602090604051908152f35b8234610343576040366003190112610343576001600160401b036004358181116106d057611788903690600401613b1d565b602435838111610ae9576117a0903690600401613b1d565b90916117aa613d59565b81810361180b57855b8181106117be578680f35b6117d26117cc828488613bff565b35613dcf565b6117dd818387613bff565b35906117ea818587613bff565b35918783168303611807576001926118019161418c565b016117b3565b8880fd5b60405163512509d360e11b8152600490fd5b82346103435760203660031901126103435760043563ffffffff8082168092036110e157611849613d24565b811515806118c3575b611899577f93e70e5656ae122d798afc18b8341c8562c767d894018b7e4b1f34d319507c6f6040600e549281519084168152846020820152a163ffffffff191617600e5580f35b604051637231c80760e01b8152600481018390526127116024820152620f42406044820152606490fd5b506127118210806118525750620f42408211611852565b8234610343576020806003193601126106d4576004356001600160401b0381116106d05761190c903690600401613b1d565b9190611916613d24565b835b838110611923578480f35b61192e818584613bff565b3561193881613dcf565b8086526005845260ff6040872054166006811015611970579060018093921461196a5761196490614750565b01611918565b50611964565b634e487b7160e01b87526021600452602487fd5b8234610343576020366003190112610343576004356119a281613dcf565b6119aa613d24565b805f52600560205260405f2080549060ff8216916006831015610b845760018303611a015760ff19166002179055604080515f80516020614df4833981519152926119f6908290613a38565b60026020820152a280f35b6040516327c6314f60e11b815260048101859052606490611a256024820186613a38565b60026044820152fd5b8234610343576040366003190112610343576040611a4a6139d3565b9160043581525f80516020614e74833981519152602052209060018060a01b03165f52602052602060ff60405f2054166040519015158152f35b82346103435780600319360112610343575f80516020614d34833981519152546040516001600160a01b039091168152602090f35b8234610343576020806003193601126106d4576004356001600160401b0381116106d057611aeb903690600401613b1d565b611af6929192613d24565b835b818110611b03578480f35b611b0e818386613bff565b3590611b1982613dcf565b81865260059182855260ff60408820541660068110159384611b9f5760038214918215611b91575b8215611b67575b505060019350611b6157611b5b906146c4565b01611af8565b50611b5b565b9150919293611b7d576001939291148880611b48565b634e487b7160e01b88526021600452602488fd5b5f9550600481149250611b41565b634e487b7160e01b89526021600452602489fd5b823461034357806003193601126103435760206040515f80516020614d148339815191528152f35b82346110e157611bea36613a0c565b90611bf36148ef565b611bfc81613dcf565b805f5260206005815260ff60405f2054166006811015610b845760058103611dae5750815f526004815260405f20335f52815260405f208054841015610b365783611c4691613c63565b5090600182019182549060ff8260781c16610b19575492612710611c8063ffffffff611c7961ffff8660401c1689614956565b1686613bcb565b04611c8b8582613bf2565b60ff60781b19909316600160781b1782555f86815260088552604090208054611cb5908390613bf2565b9055855f526009845260405f209060018060401b0391828454165f528552611ce260405f20918254613bf2565b9055855f52600a845260405f20611cfa848254613bf2565b9055855f52600b845260405f209154165f52825260405f20611d1d828254613bf2565b90556007546001600160a01b0316803b156110e1576040516321d2aaf360e11b8152915f918391829084908290611d5b908a338d3060048701613c99565b03925af180156110d657611d9b575b506040519384528301525f80516020614dd483398151915260403393a360015f80516020614f148339815191525580f35b611da6919550613a60565b5f9385611d6a565b6040516327c6314f60e11b815260048101849052606491611dd3906024830190613a38565b60056044820152fd5b346110e15760603660031901126110e157611e11611df86139e9565b611e006139fc565b90611e09613d24565b600435613ec7565b005b346110e15760803660031901126110e1576001600160401b036004358181116110e157611e44903690600401613b1d565b906024358381116110e157611e5d903690600401613b1d565b90916044358581116110e157611e77903690600401613b1d565b90956064359081116110e157611e91903690600401613b1d565b9093611e9b613d24565b808714801590611f27575b8015611f1d575b61180b575f5b878110611ebc57005b8087611ef4611eef8388611ee98f978f908a611edd8f611ee4948491613bff565b3598613bff565b613c23565b96613bff565b613c34565b611eff83878b613bff565b359060ff821682036110e157600194611f1793614056565b01611eb3565b5081871415611ead565b5082871415611ea6565b346110e15760403660031901126110e1576001600160401b036004358181116110e157366023820112156110e157611f73903690602481600401359101613ae7565b90611f7c6139d3565b915f80516020614fb48339815191529283549160ff8360401c16159184841693841580612371575b60018096149081612367575b15908161235e575b5061234c576001600160401b031981168517875583612331575b5060405191611fe083613a8e565b600a835260209569109054d2d1551090531360b21b87850152612001614bf3565b612009614bf3565b612011614bf3565b61201a83613cc6565b612022614bf3565b61202a614bf3565b612032614bf3565b61203a614bf3565b855f80516020614f1483398151915255612052614bf3565b61205a614bf3565b5f80516020614ed4833981519152805460ff191690556120798361435d565b50612083836143ce565b5061208d83614455565b50612097836144d5565b508151818111612272576120ab5f54613b4d565b90601f918281116122ee575b508089838211600114612291575f91612286575b505f19600383901b1c191690881b175f555b8451918211612272576120f08754613b4d565b81811161222f575b50879082116001146121b8575f80516020614e54833981519152928261216d93612148935f916121ad575b505f19600383901b1c191690891b1788555b8860405192828480945193849201613b85565b81010390206040518881526001600160a01b0390941694909391829189830190613ba6565b0390a361217657005b825460ff60401b19169092556040519182527fc7f505b2f371ae2175ee4913f4499e1f2633a7b5936321eed1cdaeb6115181d291a1005b90508701518c612123565b908691601f19821690835f52895f20915f5b8b828210612219575050925f80516020614e54833981519152959261216d9592826121489610612201575b5050811b018855612135565b8901515f1960f88460031b161c191690558c806121f5565b838a015185558b969094019392830192016121ca565b875f52885f208280850160051c8201928b8610612269575b0160051c019088905b82811061225e5750506120f8565b5f8155018890612250565b92508192612247565b634e487b7160e01b5f52604160045260245ffd5b90508401518b6120cb565b899250601f198216905f80528b5f20915f5b8d8282106122d857505083116122c0575b5050811b015f556120dd565b8601515f1960f88460031b161c191690558b806122b4565b838a015185558d969094019392830192016122a3565b5f8052895f208380840160051c8201928c8510612328575b0160051c019089905b82811061231d5750506120b7565b5f815501899061230f565b92508192612306565b6001600160481b0319166001600160401b0117865586611fd2565b60405163f92ee8a960e01b8152600490fd5b90501588611fb8565b303b159150611fb0565b5083611fa4565b346110e1575f3660031901126110e15760206040515f80516020614cd48339815191528152f35b346110e1575f3660031901126110e15760206040515f80516020614f348339815191528152f35b346110e1575f3660031901126110e1576040515f805490826123e783613b4d565b91828252602093600190856001821691825f14610c3d5750506001146124145750610be892500383613aa9565b8491505f8052815f20905f915b858310612438575050610be8935082010185610bdb565b80548389018501528794508693909201918101612421565b346110e1575f3660031901126110e15761246861491e565b5f80516020614d3483398151915280546001600160a01b031981169091555f906001600160a01b03165f80516020614e348339815191528280a3005b346110e1575f3660031901126110e15760206040516127108152f35b346110e1576020806003193601126110e157600435906124de6148ef565b6124e782613dcf565b6124ef61468d565b815f526005906005815260ff9260ff60405f2054166006906006811015610b845760048114158061287a575b610b565750815f526004835260405f20335f52835260405f2054938461254f575b60015f80516020614f1483398151915255005b825f526005845260405f20906004855260405f20335f52855260405f205f5b87811061257d5750505061253c565b6125878183613c63565b5090600182019182548b8160781c1661270b5786548c811689811015610b84578791600482149081612860575b5015612702575050508254926125ea612710610f9963ffffffff6125e08d61ffff8a60401c1690614956565b9554951685613bcb565b60ff60781b19909416600160781b1781555f89815260088b52604090208054612614908490613bf2565b9055885f5260098a5260405f2060018060401b0390818354165f528b5260405f20612640848254613bf2565b9055895f52600a8b5260405f20612658868254613bf2565b9055895f52600b8b5260405f209154165f52895260405f2061267b848254613bf2565b90556007546001600160a01b0316803b156110e1576126b9935f9183838c60405198899586948593631fabc62960e31b855233903060048701613c99565b03925af19283156110d6576001936126f3575b506040519082825289820152875f80516020614fd483398151915260403393a35b0161256e565b6126fc90613a60565b8b6126cc565b94919414612716575b5050600191506126ed565b61271061273c63ffffffff61273261ffff8860401c168d614956565b9454941684613bcb565b046127478382613bf2565b60ff60781b19909516600160781b1782555f8a815260088c52604090208054612771908390613bf2565b9055895f5260098b5260405f209060018060401b0391828454165f528c5261279e60405f20918254613bf2565b9055895f52600a8b5260405f206127b6868254613bf2565b9055895f52600b8b5260405f209154165f52895260405f206127d9848254613bf2565b90556007546001600160a01b0316803b156110e157612817935f9183838c604051988995869485936321d2aaf360e11b855233903060048701613c99565b03925af19283156110d657600193612851575b506040519082825289820152875f80516020614dd483398151915260403393a38a8061270b565b61285a90613a60565b8b61282a565b60081c6001600160401b039081169085161490508f6125b4565b50600581141561251b565b346110e15760603660031901126110e1576001600160401b036004358181116110e1576128b6903690600401613b1d565b90916024358181116110e1576128d0903690600401613b1d565b916044359081116110e1576128e9903690600401613b1d565b926128f2613d24565b808514801590612946575b61180b575f5b85811061290c57005b8061294061291d600193898b613bff565b3561292c611ee484878a613bff565b61293a611eef858b8a613bff565b91613ec7565b01612903565b50838514156128fd565b346110e1575f3660031901126110e1576007546040516001600160a01b039091168152602090f35b346110e15760403660031901126110e1576004356129946139e9565b61299d82613dcf565b335f9081525f80516020614f7483398151915260205260409020545f805160206150348339815191529060ff1615612aad57506129d9816147da565b815f52600560205260ff60405f2054166006811015610b8457600181141580612aa4575b612a76575060607f4574f9eec81dc6826c2d5b08e1292b2b3ad2700b73ad81bb4f24bf90f8296ce191835f52600360205260405f20612a3b85613e28565b61ffff6002612a4a8589614842565b93019216918261ffff198254161790556040519263ffffffff80921684521660208301526040820152a2005b6040516327c6314f60e11b815260048101849052606491612a9b906024830190613a38565b60016044820152fd5b508015156129fd565b6044906040519063e2517d3f60e01b82523360048301526024820152fd5b346110e1575f3660031901126110e157602060ff5f80516020614ed483398151915254166040519015158152f35b346110e1575f3660031901126110e1577f00000000000000000000000000000000000000000000000000000000000000006001600160a01b03163003612b505760206040515f80516020614d748339815191528152f35b60405163703e46dd60e11b8152600490fd5b346110e1575f3660031901126110e157335f9081525f80516020614d9483398151915260205260409020545f80516020614e148339815191529060ff1615612aad57612bac61468d565b5f80516020614ed4833981519152600160ff198254161790557f62e78cea01bee320cd4e420270b5ea74000d11b0c9f74754ebdbfc544b05a2586020604051338152a1005b346110e1575f3660031901126110e15760206040515f80516020614db48339815191528152f35b60403660031901126110e157612c2c6139bd565b60249081356001600160401b0381116110e157366023820112156110e157612c5d9036908481600401359101613ae7565b6001600160a01b03917f00000000000000000000000000000000000000000000000000000000000000008316308114908115612e0e575b50612b5057335f9081525f80516020614d54833981519152602090815260409091205490939060ff1615612df1578116926040516352d1902d60e01b81528181600481885afa5f9181612dc2575b50612cff57604051634c9c8ce360e01b8152600481018690528690fd5b8490865f80516020614d7483398151915291828103612dad5750843b15612d97575080546001600160a01b03191682179055604051907fbc7cd75a20ee27fd9adebab32041f755214dbc6bffa90cc0225b39da2e5c2d3b5f80a2835115612d7d57505f838192611e1195519101845af4612d77614c21565b91614c50565b9250505034612d8857005b63b398979f60e01b8152600490fd5b604051634c9c8ce360e01b815260048101849052fd5b60405190632a87526960e21b82526004820152fd5b9091508281813d8311612dea575b612dda8183613aa9565b810103126110e157519087612ce2565b503d612dd0565b60405163e2517d3f60e01b81523360048201525f81870152604490fd5b9050835f80516020614d748339815191525416141585612c94565b346110e15760203660031901126110e157600435612e4681613dcf565b5f526008602052602060405f2054604051908152f35b346110e15760403660031901126110e1576001600160401b03600435602480358381116110e157366023820112156110e15780600401359384116110e157368285830101116110e157612eae83613dcf565b612eb6613d24565b825f52600560205260405f209384549460ff861695600687101580612fc15760018814159081612fb4575b81612f90575b50612f6d57945f80516020614df4833981519152604082988196959460057f4c4561c5b0048424071c1115e9f1e325486e21c21333d968f21097b7b72d12ad9a60ff1916179055612f3a82518092613a38565b60056020820152a28083519485936020855282602086015201848401375f828201840152601f01601f19168101030190a2005b6040516327c6314f60e11b815260048101879052606490611dd38188018a613a38565b9050612fa157600387141588612ee7565b84634e487b7160e01b5f5260216004525ffd5b505060028714155f612ee1565b85634e487b7160e01b5f5260216004525ffd5b346110e15760203660031901126110e1576004355f6080604051612ff781613a45565b828152826020820152826040820152826060820152015261301781613dcf565b5f52600560205260405f206040519061302f82613a45565b80549160ff8316916006831015610b845760a09383835260018060401b03916020840190838360081c16825264ffffffffff938492608060016040890194868860481c1686528660608b019860701c168852015497019687526130956040518099613a38565b511660208701525116604085015251166060830152516080820152f35b346110e1575f3660031901126110e1576130ca613d24565b5f80516020614ed4833981519152805460ff8116156131155760ff191690557f5db9ee0a495bf2e6ff9c91a7834c1ba4fdd244a5e8aa4e537bd38aeae4b073aa6020604051338152a1005b604051638dfc202b60e01b8152600490fd5b346110e15760803660031901126110e1576131406139bd565b604435906001600160401b03821682036110e15761315f602435613dcf565b61316a602435614644565b61317261468d565b335f9081527fe8b78168ec8e2131dc4e1d7c2dfefc344af84453ab10dcca54b267514c8ca32260205260409020545f80516020614ff48339815191529060ff1615612aad57506007545f92906001600160a01b0316156117285760643515611716576024355f52600360205260405f2061ffff60028201541690811561356b576131fe83602435614ba4565b620186a0806064351061354b575063ffffffff61322361321d84613df4565b83613e07565b90549060031b1c169161271061323b84606435613bcb565b0461324860643582613bf2565b918215613532576024355f52600460205260405f2060018060a01b0388165f5260205260405f206040519161327c83613a45565b60643583526001600160401b038816602084015260408301524264ffffffffff1660608301525f60808301528054600160401b811015612272576132c591600182018155613c63565b91909161351f57608060016133259383518155019160018060401b0360208201511683549061ffff60401b604084015160401b169064ffffffffff60501b606085015160501b169260018060781b03191617171783550151151590613c7c565b6024355f526005602052600160405f200161334360643582546146b7565b90556024355f52600860205260405f2061335e8282546146b7565b90556024355f52600960205260405f2060018060401b0386165f5260205261338b60405f209182546146b7565b90556024355f52600a60205260405f206133a68282546146b7565b90556024355f52600b60205260405f2060018060401b0385165f5260205260405f206133d38282546146b7565b90556024355f52600c60205260405f206133f060643582546146b7565b90556024355f52600d60205260405f2060018060401b0385165f5260205260405f2061341f60643582546146b7565b90556007546001600160a01b0316803b156110e157604051631613163360e11b8152915f918391829084908290613461906064358d6024353060048701613c99565b03925af180156110d65761350c575b5060243585526004602090815260408087206001600160a01b0387165f90815292529020545f198101959086116134f85750600201546040805195865260643560208701526001600160401b0390931692850192909252606084015261ffff1660808301526001600160a01b031690602435905f80516020614ef48339815191529060a090a3005b634e487b7160e01b81526011600452602490fd5b613517919550613a60565b5f9385613470565b634e487b7160e01b5f525f60045260245ffd5b604051631a048a7f60e11b815260248035600483015290fd5b604490604051906378e030db60e01b825260643560048301526024820152fd5b60405162bc17d160e31b815260248035600483015290fd5b346110e15760203660031901126110e15760a06004356135a281613dcf565b805f52603260205260405f20600560205260405f2090549163ffffffff60016135cc845493613e28565b930154926040519485526135e66020860160ff8516613a38565b16604084015260081c6001600160401b031660608301526080820152f35b346110e1575f3660031901126110e15760206040515f80516020614eb48339815191528152f35b346110e15760403660031901126110e1576136446139d3565b336001600160a01b0382160361366057611e11906004356145c5565b60405163334bd91960e11b8152600490fd5b346110e1575f3660031901126110e15760206040515f80516020614f548339815191528152f35b346110e15760403660031901126110e157611e116004356136b86139d3565b90805f525f80516020614e748339815191526020526136dd600160405f200154613da1565b614555565b346110e1575f3660031901126110e1576020604051620186a08152f35b346110e15760203660031901126110e1576004355f525f80516020614e748339815191526020526020600160405f200154604051908152f35b346110e15760403660031901126110e157611e11600435613757613a22565b9061376181613dcf565b613769613d59565b61418c565b346110e15761377c36613a0c565b9061378681613dcf565b63ffffffff61379482613e28565b169081156137bd5760206137b5846127106137af8683613bcb565b04613bf2565b604051908152f35b6024906040519062bc17d160e31b82526004820152fd5b346110e1575f3660031901126110e1576006546040516001600160a01b039091168152602090f35b346110e1575f3660031901126110e15760206040515f805160206150348339815191528152f35b346110e15760803660031901126110e15761383c6139e9565b6138446139fc565b6064359060ff821682036110e157611e119261385e613d24565b600435614056565b346110e15760203660031901126110e15761387f6139bd565b613887613d24565b600680546001600160a01b0319166001600160a01b039290921691821790557f9317e3e59b11620f482b4bb292374da6e5cb9e7ef23cf3f121cacca9a5428f785f80a2005b346110e15760203660031901126110e15760206138f36004356138ee81613dcf565b613e28565b63ffffffff60405191168152f35b346110e15760203660031901126110e15760043563ffffffff60e01b81168091036110e157602090637965db0b60e01b8114908115613946575b506040519015158152f35b6301ffc9a760e01b1490508261393b565b346110e15760203660031901126110e1576139706139bd565b613978613d24565b600780546001600160a01b0319166001600160a01b039290921691821790557fe57f71636571365571c0eaeaeb54e1d9e0065804f056a57a2a29448524f7d18a5f80a2005b600435906001600160a01b03821682036110e157565b602435906001600160a01b03821682036110e157565b6024359063ffffffff821682036110e157565b604435908160010b82036110e157565b60409060031901126110e1576004359060243590565b602435906001600160401b03821682036110e157565b906006821015610b845752565b60a081019081106001600160401b0382111761227257604052565b6001600160401b03811161227257604052565b608081019081106001600160401b0382111761227257604052565b604081019081106001600160401b0382111761227257604052565b601f909101601f19168101906001600160401b0382119082101761227257604052565b6001600160401b03811161227257601f01601f191660200190565b929192613af382613acc565b91613b016040519384613aa9565b8294818452818301116110e1578281602093845f960137010152565b9181601f840112156110e1578235916001600160401b0383116110e1576020808501948460051b0101116110e157565b90600182811c92168015613b7b575b6020831014613b6757565b634e487b7160e01b5f52602260045260245ffd5b91607f1691613b5c565b5f5b838110613b965750505f910152565b8181015183820152602001613b87565b90602091613bbf81518092818552858086019101613b85565b601f01601f1916010190565b81810292918115918404141715613bde57565b634e487b7160e01b5f52601160045260245ffd5b91908203918211613bde57565b9190811015613c0f5760051b0190565b634e487b7160e01b5f52603260045260245ffd5b3563ffffffff811681036110e15790565b358060010b81036110e15790565b9081526001600160a01b039091166020820152604081019190915260600190565b8054821015613c0f575f5260205f209060011b01905f90565b805460ff60781b191691151560781b60ff60781b16919091179055565b919594939060809360a084019760018060a01b038093168552602085015216604083015260608201520152565b6001600160a01b03908116908115613d0c575f80516020614d3483398151915280546001600160a01b031981168417909155165f80516020614e348339815191525f80a3565b604051631e4fbdf760e01b81525f6004820152602490fd5b335f9081525f80516020614cf483398151915260205260409020545f80516020614f348339815191529060ff1615612aad5750565b335f9081527f756534422b3cb82a54d88d2dca71cfb1a3297222856e6ddc952d9ca5a7fc4b8860205260409020545f80516020614cd48339815191529060ff1615612aad5750565b805f525f80516020614e7483398151915260205260405f20335f5260205260ff60405f20541615612aad5750565b600254811015613ddc5750565b6024906040519063113b162160e31b82526004820152fd5b61ffff9081165f190191908211613bde57565b9190918054831015613c0f575f52601c60205f208360031c019260021b1690565b5f52600360205260405f2061ffff6002820154168015613e5f5763ffffffff916113dd613e5492613df4565b90549060031b1c1690565b50505f90565b906006811015610b845760ff80198354169116179055565b8054610100600160481b03191660089290921b610100600160481b0316919091179055565b805464ffffffffff60701b191660709290921b64ffffffffff60701b16919091179055565b919091613ed3836147da565b613edc81614b08565b90600254935f198514613bde576001850160025564ffffffffff604092835195613f0587613a45565b5f8752602095868801975f895286810194804216865260608201995f8b5260808301905f82528c5f5260058b52895f209351926006841015610b84575f805160206150148339815191529c61403299613f76613f9f94613f676001988a613e65565b878060401b0390511688613e7d565b51865464ffffffffff60481b191660489190911b64ffffffffff60481b16178655511684613ea2565b51910155855190613faf82613a73565b8382528782019260010b83526001878301925f845260ff60608201931683528b5f5260328a52885f20905181550192519161ffff63ff00000062ff00008654935160101b16935160181b1693169063ffffffff191617171790556140138388614842565b50865f52600385526002845f2001600161ffff1982541617905561497e565b9263ffffffff61404b8451958587968752860190613ba6565b9216908301520390a2565b9260ff90614063836147da565b1691600483116141735761407684614b08565b91600254945f198614613bde576001860160025564ffffffffff906040938451966140a088613a45565b5f8852602096878901985f8a52878101958042168752606082019a5f8c5260808301905f82528d5f5260058c528a5f209351926006841015610b84575f805160206150148339815191529d6140329a613f7661410294613f676001988a613e65565b519101556001875161411381613a73565b85815289810194820b855288810193845260ff60608201931683528b5f5260328a52885f20905181550192519161ffff63ff00000062ff00008654935160101b16935160181b1693169063ffffffff191617171790556140138388614842565b60405163fef0e19760e01b815260048101849052602490fd5b919091805f5260209260058452604090815f209460ff8654166006811015610b84576003810361433057506141c18285614ba4565b6141cb8287613e7d565b64ffffffffff6141dd81421688613ea2565b865460ff191660041787555f858152600a835284812054600b84528582206001600160401b03909516808352948452908590205461421a91613bf2565b96855f526008835261423f855f205460098552865f20865f528552865f205490613bf2565b97865f52600c8452614264865f2054600d8652875f20875f528652875f205490613bf2565b98875f52600a8552865f2061427a838254613bf2565b9055875f5260088552614291875f20918254613bf2565b90556007546001600160a01b031698893b156110e15760845f928389519c8d9485936309da1e8d60e21b85523060048601528d6024860152604485015260648401525af1978815614326577f64ee7dc32a3ab72dbd217f88cab8b17f7d9024f6d8bd70a962cd5f1cbd10abaf969798614317575b505460701c16908351928352820152a2565b61432090613a60565b5f614305565b85513d5f823e3d90fd5b83516327c6314f60e11b815260048101869052606491614354906024830190613a38565b60036044820152fd5b6001600160a01b03165f8181525f80516020614d5483398151915260205260409020545f80516020614e748339815191529060ff16613e5f575f805260205260405f20815f5260205260405f20600160ff1982541617905533905f5f80516020614cb48339815191528180a4600190565b6001600160a01b03165f8181525f80516020614cf483398151915260205260409020545f80516020614f3483398151915291905f80516020614e748339815191529060ff1661444e57825f5260205260405f20815f5260205260405f20600160ff1982541617905533915f80516020614cb48339815191525f80a4600190565b5050505f90565b6001600160a01b03165f8181525f80516020614d9483398151915260205260409020545f80516020614e1483398151915291905f80516020614e748339815191529060ff1661444e57825f5260205260405f20815f5260205260405f20600160ff1982541617905533915f80516020614cb48339815191525f80a4600190565b6001600160a01b03165f8181525f80516020614f7483398151915260205260409020545f8051602061503483398151915291905f80516020614e748339815191529060ff1661444e57825f5260205260405f20815f5260205260405f20600160ff1982541617905533915f80516020614cb48339815191525f80a4600190565b90815f525f80516020614e748339815191528060205260405f209160018060a01b031691825f5260205260ff60405f205416155f1461444e57825f5260205260405f20815f5260205260405f20600160ff1982541617905533915f80516020614cb48339815191525f80a4600190565b90815f525f80516020614e748339815191528060205260405f209160018060a01b031691825f5260205260ff60405f2054165f1461444e57825f5260205260405f20815f5260205260405f2060ff19815416905533917ff6391f5c32d9c69d2a47ea670b442974b53935d1edc7fd64eb21e047a839171b5f80a4600190565b805f52600560205260ff60405f2054166006811015610b845760018103614669575050565b90612a9b606492604051926327c6314f60e11b845260048401526024830190613a38565b60ff5f80516020614ed483398151915254166146a557565b60405163d93c066560e01b8152600490fd5b91908201809211613bde57565b805f52600560205260405f2080549060ff8216916006831015610b8457600183141580614745575b6147215760ff19166003179055604080515f80516020614df483398151915292614717908290613a38565b60036020820152a2565b6040516327c6314f60e11b8152600481018590526064906143546024820186613a38565b5060028314156146ec565b805f52600560205260405f2080549060ff8216916006831015610b8457821515806147cf575b6147ab5760ff19166001179055604080515f80516020614df4833981519152926147a1908290613a38565b60016020820152a2565b6040516327c6314f60e11b815260048101859052606490612a9b6024820186613a38565b506002831415614776565b63ffffffff8080600e541680155f1461483c5750620f4240925b16916127118084108015614831575b61480d5750505050565b6064945060405193637231c80760e01b855260048501526024840152166044820152fd5b508282168411614803565b926147f4565b919091805f52600360205260405f2090600182019163ffffffff80951694855f528360205261ffff928360405f205416806148e6575082549061fffe8210156148ce5750600160401b811015612272578060016148a29201845583613e07565b819291549060031b9188831b921b19161790555416925f5260205260405f208261ffff19825416179055565b60249060405190634d3deb8160e01b82526004820152fd5b96505050505050565b5f80516020614f14833981519152600281541461490c5760029055565b604051633ee5aeb560e01b8152600490fd5b5f80516020614d34833981519152546001600160a01b0316330361493e57565b60405163118cdaa760e01b8152336004820152602490fd5b61ffff821615613e5f5763ffffffff91613e54915f5260036020526113dd60405f2091613df4565b5f80516020614d148339815191528114614ae5575f80516020614f548339815191528114614abc575f80516020614db48339815191528114614a99575f80516020614f948339815191528114614a6e575f80516020614e948339815191528114614a43575f80516020614eb483398151915214614a1857604051614a0181613a8e565b60078152662aa725a727aba760c91b602082015290565b604051614a2481613a8e565b600f81526e2424a3a422a9aa2fa8aaa0a92a22a960891b602082015290565b50604051614a5081613a8e565b600e81526d46495253545f544f5f53434f524560901b602082015290565b50604051614a7b81613a8e565b600e81526d28aaa0a92a22a92faba4a72722a960911b602082015290565b50604051614aa681613a8e565b600681526514d41491505160d21b602082015290565b50604051614ac981613a8e565b600c81526b544f54414c5f504f494e545360a01b602082015290565b50604051614af281613a8e565b60068152652ba4a72722a960d11b602082015290565b5f80516020614d148339815191528114614b9e575f80516020614f548339815191528114614b9e575f80516020614db48339815191528114614b9e575f80516020614f948339815191528114614b9e575f80516020614e948339815191528114614b9e575f80516020614eb48339815191528114614b985760249060405190630d330d2760e01b82526004820152fd5b50600390565b50600190565b90815f52603260205260ff600160405f20015460181c169060018060401b0316818111614bd057505050565b60649350604051926382a2dff360e01b8452600484015260248301526044820152fd5b60ff5f80516020614fb48339815191525460401c1615614c0f57565b604051631afcd79f60e31b8152600490fd5b3d15614c4b573d90614c3282613acc565b91614c406040519384613aa9565b82523d5f602084013e565b606090565b90614c775750805115614c6557805190602001fd5b604051630a12f52160e11b8152600490fd5b81511580614caa575b614c88575090565b604051639996b31560e01b81526001600160a01b039091166004820152602490fd5b50803b15614c8056fe2f8788117e7eff1d82e926ec794901d17c78024a50270940304540a733656f0d92a19c77d2ea87c7f81d50c74403cb2f401780f3ad919571121efe2bdb427eb1b16e88c42fd4e48df2dd6a2eabd6bc9aec654ec170056b470819f8892cc6431c97e9cffa40fd62a888d33fedb0550a0c24b2dab7e942dd2c90f3dc402fe1d9d09016d09d72d40fdae2fd8ceac6b6234c7706214fd39c1cd1e609a0528c199300b7db2dd08fcb62d0c9e08c51941cae53c267786a0b75803fb7960902fc8ef97d360894a13ba1a3210667c828492db98dca3e2076cc3735a920a3ca505d382bbc75442b0a96088b5456bc4ed01394c96a4feec0f883c9494257d76b96ab1c9b6bd88b64b65dd27d7ee406fd2a617824a69990aac83ed75494fd137e43d8007cadaba4210cad11f1112f31ba136a61cdc0f6ab4c2b478da8c93eec1d9769e97a893fda72f0a1439a9047288d6140aad7d37a71b660b5229783c8a637ebd0631c0b65d7a28e3265b37a6474929f336521b332c1681b933f6cb9f3376673440d862a8be0079c531659141344cd1fd0a4f28419497f9722a3daafe3b4186f6b6457e0b88a0148d0785022bedeff8dc0f55ccbb709825d7109265ebe5ca3325f191b4202dd7bc7dec4dceedda775e58dd541e08a116c6c53815c0bd028192f7b626800c21332dfdbce391fb79bb93cb3bdd389a3887e8ed803e48301c3b92f7095d3f162aa64c00e0b702d538c65ffc672e53ec0721fe8dd54c3223175a2051bd2e8f4cd5ed15c6e187e77e9aee88184c21f4f2182ab5827cb3b7e07fbedcd63f033001e20859988181a316b2a230ed2b74a09a98fdec16686057cdbb48def725ff9a49b779b17422d0df92223018b32b4d1fa46e071723d6817e2486d003becc55f00a49807205ce4d355092ef5a8a18f56e8913cf4a201fbe287825b095693c21775c48889a7f50eeb47325f8695e80998d47bc82fe412832d723b6bf2a0773c06222310b325392e40fb40cbb815e26771d7a037d125fab58e321be31508c0e7cabba73a6ddf2a0b1203f387e9ac295532c1f565ac9e2c5919248bcb5fa7c41bb627f0c57e16840df040f15088dc2f81fe391c3923bec73e23a9662efc9c229c6a00a5df5a195b51346b41c715be6896ddef8de524059309701b83d22c7e4ec1aa4ca903a5200a3509510da557615994ebd7dbb3d8b122c2190f01477c128da2cfcb4a21a24162d65cb7c74d895d7c8c53745fcf2fddf8d714fc764cf32c34f296880acfcb0f3e3aaa7ab6a53fd6a206e00781cfe5360bc764438c214cb50c97b711a264697066735822122061e34270bd7b9afd1598ce4522ac43cc316a7da2ab599851a985aa2ce1f93e3a64736f6c63430008180033","linkReferences":{}},"methodIdentifiers":{"ADMIN_ROLE()":"75b238fc","DEFAULT_ADMIN_ROLE()":"a217fddf","MARKET_FIRST_TO_SCORE()":"bdc69bd9","MARKET_HIGHEST_QUARTER()":"37c6ef85","MARKET_QUARTER_WINNER()":"af4a52ec","MARKET_SPREAD()":"51487dc0","MARKET_TOTAL_POINTS()":"330b82fe","MARKET_WINNER()":"8723eccf","MAX_ODDS()":"f014a108","MIN_NET_STAKE()":"2cfe63a5","MIN_ODDS()":"ae07d051","ODDS_PRECISION()":"6bc98ba3","ODDS_SETTER_ROLE()":"10dc30fd","PAUSER_ROLE()":"e63ab1e9","RESOLVER_ROLE()":"78fab260","SWAP_ROUTER_ROLE()":"c6886db4","UPGRADE_INTERFACE_VERSION()":"ad3cb1cc","addMarketWithLine(bytes32,uint32,int16)":"83e2e9df","addMarketWithQuarter(bytes32,uint32,int16,uint8)":"10619035","addMarketsBatch(bytes32[],uint32[],int16[])":"67df4bfe","addMarketsBatchWithQuarter(bytes32[],uint32[],int16[],uint8[])":"7fc6f99b","basketballMarkets(uint256)":"e8b02f14","cancelMarket(uint256,string)":"456051f1","claim(uint256,uint256)":"c3490263","claimAll(uint256)":"6930fd2a","claimRange(uint256,uint256,uint256)":"a890c997","claimRefund(uint256,uint256)":"8527d58f","closeMarket(uint256)":"ae418095","closeMarketsBatch(uint256[])":"8d3bf365","emergencyPause()":"51858e27","getBasketballMarket(uint256)":"d9063afa","getBetDetails(uint256,address,uint256)":"ba269015","getCurrentOdds(uint256)":"0e75a18c","getMarketCore(uint256)":"40b16c1e","getMarketInfo(uint256)":"3ec79193","getMarketLiability(uint256)":"4644161f","getOddsHistory(uint256)":"f50ee3d5","getRoleAdmin(bytes32)":"248a9ca3","getUserBets(uint256,address)":"fa744dd3","grantRole(bytes32,address)":"2f2ff15d","hasRole(bytes32,address)":"91d14854","initialize(string,address)":"7ab4339d","liquidityPool()":"665a11ca","marketCount()":"ec979082","matchName()":"71738f8c","maxAllowedOdds()":"ff40596c","openMarket(uint256)":"baa26757","openMarketsBatch(uint256[])":"9b05743f","owner()":"8da5cb5b","paused()":"5c975abb","placeBetUSDC(uint256,uint64,uint256)":"a4b8195c","placeBetUSDCFor(address,uint256,uint64,uint256)":"3eccfc96","proxiableUUID()":"52d1902d","quoteNetExposure(uint256,uint256)":"19d0ec1f","renounceOwnership()":"715018a6","renounceRole(bytes32,address)":"36568abe","resolveMarket(uint256,uint64)":"1a095c6e","resolveMarketsBatch(uint256[],uint64[])":"a04286e0","revokeRole(bytes32,address)":"d547741f","setLiquidityPool(address)":"01877020","setMarketOdds(uint256,uint32)":"61bd2ca9","setMaxAllowedOdds(uint32)":"9ebfee81","setUSDCToken(address)":"0f5a9d01","sportType()":"bef2a6a0","supportsInterface(bytes4)":"01ffc9a7","suspendMarket(uint256)":"931b5466","transferOwnership(address)":"f2fde38b","unpause()":"3f4ba83a","upgradeToAndCall(address,bytes)":"4f1ef286","usdcToken()":"11eac855"},"id":60}