{"abi":[{"type":"constructor","inputs":[{"name":"_masterRouter","type":"address","internalType":"address"},{"name":"_tokenRouter","type":"address","internalType":"address"},{"name":"_usdc","type":"address","internalType":"address"},{"name":"_wchz","type":"address","internalType":"address"},{"name":"_treasury","type":"address","internalType":"address"},{"name":"_platformFeeBps","type":"uint16","internalType":"uint16"}],"stateMutability":"nonpayable"},{"type":"receive","stateMutability":"payable"},{"type":"function","name":"bettingMatchFactory","inputs":[],"outputs":[{"name":"","type":"address","internalType":"contract BettingMatchFactory"}],"stateMutability":"view"},{"type":"function","name":"depositLiquidityWithCHZ","inputs":[{"name":"amountOutMin","type":"uint256","internalType":"uint256"},{"name":"deadline","type":"uint256","internalType":"uint256"},{"name":"receiver","type":"address","internalType":"address"}],"outputs":[{"name":"shares","type":"uint256","internalType":"uint256"}],"stateMutability":"payable"},{"type":"function","name":"depositLiquidityWithToken","inputs":[{"name":"token","type":"address","internalType":"address"},{"name":"amount","type":"uint256","internalType":"uint256"},{"name":"amountOutMin","type":"uint256","internalType":"uint256"},{"name":"deadline","type":"uint256","internalType":"uint256"},{"name":"receiver","type":"address","internalType":"address"}],"outputs":[{"name":"shares","type":"uint256","internalType":"uint256"}],"stateMutability":"nonpayable"},{"type":"function","name":"depositLiquidityWithUSDC","inputs":[{"name":"amount","type":"uint256","internalType":"uint256"},{"name":"receiver","type":"address","internalType":"address"}],"outputs":[{"name":"shares","type":"uint256","internalType":"uint256"}],"stateMutability":"nonpayable"},{"type":"function","name":"donateWithCHZ","inputs":[{"name":"streamer","type":"address","internalType":"address"},{"name":"message","type":"string","internalType":"string"},{"name":"amountOutMin","type":"uint256","internalType":"uint256"},{"name":"deadline","type":"uint256","internalType":"uint256"}],"outputs":[],"stateMutability":"payable"},{"type":"function","name":"donateWithToken","inputs":[{"name":"token","type":"address","internalType":"address"},{"name":"amount","type":"uint256","internalType":"uint256"},{"name":"streamer","type":"address","internalType":"address"},{"name":"message","type":"string","internalType":"string"},{"name":"amountOutMin","type":"uint256","internalType":"uint256"},{"name":"deadline","type":"uint256","internalType":"uint256"}],"outputs":[],"stateMutability":"nonpayable"},{"type":"function","name":"donateWithUSDC","inputs":[{"name":"streamer","type":"address","internalType":"address"},{"name":"message","type":"string","internalType":"string"},{"name":"amount","type":"uint256","internalType":"uint256"}],"outputs":[],"stateMutability":"nonpayable"},{"type":"function","name":"liquidityPool","inputs":[],"outputs":[{"name":"","type":"address","internalType":"contract ILiquidityPoolDeposit"}],"stateMutability":"view"},{"type":"function","name":"masterRouter","inputs":[],"outputs":[{"name":"","type":"address","internalType":"contract IKayenMasterRouterV2"}],"stateMutability":"view"},{"type":"function","name":"owner","inputs":[],"outputs":[{"name":"","type":"address","internalType":"address"}],"stateMutability":"view"},{"type":"function","name":"placeBetWithCHZ","inputs":[{"name":"bettingMatch","type":"address","internalType":"address"},{"name":"marketId","type":"uint256","internalType":"uint256"},{"name":"selection","type":"uint64","internalType":"uint64"},{"name":"amountOutMin","type":"uint256","internalType":"uint256"},{"name":"deadline","type":"uint256","internalType":"uint256"}],"outputs":[],"stateMutability":"payable"},{"type":"function","name":"placeBetWithToken","inputs":[{"name":"token","type":"address","internalType":"address"},{"name":"amount","type":"uint256","internalType":"uint256"},{"name":"bettingMatch","type":"address","internalType":"address"},{"name":"marketId","type":"uint256","internalType":"uint256"},{"name":"selection","type":"uint64","internalType":"uint64"},{"name":"amountOutMin","type":"uint256","internalType":"uint256"},{"name":"deadline","type":"uint256","internalType":"uint256"}],"outputs":[],"stateMutability":"nonpayable"},{"type":"function","name":"placeBetWithUSDC","inputs":[{"name":"bettingMatch","type":"address","internalType":"address"},{"name":"marketId","type":"uint256","internalType":"uint256"},{"name":"selection","type":"uint64","internalType":"uint64"},{"name":"amount","type":"uint256","internalType":"uint256"}],"outputs":[],"stateMutability":"nonpayable"},{"type":"function","name":"platformFeeBps","inputs":[],"outputs":[{"name":"","type":"uint16","internalType":"uint16"}],"stateMutability":"view"},{"type":"function","name":"renounceOwnership","inputs":[],"outputs":[],"stateMutability":"nonpayable"},{"type":"function","name":"setLiquidityPool","inputs":[{"name":"_pool","type":"address","internalType":"address"}],"outputs":[],"stateMutability":"nonpayable"},{"type":"function","name":"setMatchFactory","inputs":[{"name":"_factory","type":"address","internalType":"address"}],"outputs":[],"stateMutability":"nonpayable"},{"type":"function","name":"setPlatformFeeBps","inputs":[{"name":"_feeBps","type":"uint16","internalType":"uint16"}],"outputs":[],"stateMutability":"nonpayable"},{"type":"function","name":"setStreamWalletFactory","inputs":[{"name":"_factory","type":"address","internalType":"address"}],"outputs":[],"stateMutability":"nonpayable"},{"type":"function","name":"setTreasury","inputs":[{"name":"_treasury","type":"address","internalType":"address"}],"outputs":[],"stateMutability":"nonpayable"},{"type":"function","name":"streamWalletFactory","inputs":[],"outputs":[{"name":"","type":"address","internalType":"contract StreamWalletFactory"}],"stateMutability":"view"},{"type":"function","name":"subscribeWithCHZ","inputs":[{"name":"streamer","type":"address","internalType":"address"},{"name":"duration","type":"uint256","internalType":"uint256"},{"name":"amountOutMin","type":"uint256","internalType":"uint256"},{"name":"deadline","type":"uint256","internalType":"uint256"}],"outputs":[],"stateMutability":"payable"},{"type":"function","name":"subscribeWithToken","inputs":[{"name":"token","type":"address","internalType":"address"},{"name":"amount","type":"uint256","internalType":"uint256"},{"name":"streamer","type":"address","internalType":"address"},{"name":"duration","type":"uint256","internalType":"uint256"},{"name":"amountOutMin","type":"uint256","internalType":"uint256"},{"name":"deadline","type":"uint256","internalType":"uint256"}],"outputs":[],"stateMutability":"nonpayable"},{"type":"function","name":"subscribeWithUSDC","inputs":[{"name":"streamer","type":"address","internalType":"address"},{"name":"duration","type":"uint256","internalType":"uint256"},{"name":"amount","type":"uint256","internalType":"uint256"}],"outputs":[],"stateMutability":"nonpayable"},{"type":"function","name":"tokenRouter","inputs":[],"outputs":[{"name":"","type":"address","internalType":"contract IKayenRouter"}],"stateMutability":"view"},{"type":"function","name":"transferOwnership","inputs":[{"name":"newOwner","type":"address","internalType":"address"}],"outputs":[],"stateMutability":"nonpayable"},{"type":"function","name":"treasury","inputs":[],"outputs":[{"name":"","type":"address","internalType":"address"}],"stateMutability":"view"},{"type":"function","name":"usdc","inputs":[],"outputs":[{"name":"","type":"address","internalType":"contract IERC20"}],"stateMutability":"view"},{"type":"function","name":"wchz","inputs":[],"outputs":[{"name":"","type":"address","internalType":"address"}],"stateMutability":"view"},{"type":"event","name":"BetPlacedViaCHZ","inputs":[{"name":"bettingMatch","type":"address","indexed":true,"internalType":"address"},{"name":"user","type":"address","indexed":true,"internalType":"address"},{"name":"chzSpent","type":"uint256","indexed":false,"internalType":"uint256"},{"name":"usdcReceived","type":"uint256","indexed":false,"internalType":"uint256"},{"name":"marketId","type":"uint256","indexed":false,"internalType":"uint256"},{"name":"selection","type":"uint64","indexed":false,"internalType":"uint64"}],"anonymous":false},{"type":"event","name":"BetPlacedViaToken","inputs":[{"name":"bettingMatch","type":"address","indexed":true,"internalType":"address"},{"name":"user","type":"address","indexed":true,"internalType":"address"},{"name":"token","type":"address","indexed":true,"internalType":"address"},{"name":"tokenSpent","type":"uint256","indexed":false,"internalType":"uint256"},{"name":"usdcReceived","type":"uint256","indexed":false,"internalType":"uint256"},{"name":"marketId","type":"uint256","indexed":false,"internalType":"uint256"},{"name":"selection","type":"uint64","indexed":false,"internalType":"uint64"}],"anonymous":false},{"type":"event","name":"BetPlacedWithUSDC","inputs":[{"name":"bettingMatch","type":"address","indexed":true,"internalType":"address"},{"name":"user","type":"address","indexed":true,"internalType":"address"},{"name":"amount","type":"uint256","indexed":false,"internalType":"uint256"},{"name":"marketId","type":"uint256","indexed":false,"internalType":"uint256"},{"name":"selection","type":"uint64","indexed":false,"internalType":"uint64"}],"anonymous":false},{"type":"event","name":"DonationWithCHZ","inputs":[{"name":"donor","type":"address","indexed":true,"internalType":"address"},{"name":"streamer","type":"address","indexed":true,"internalType":"address"},{"name":"chzSpent","type":"uint256","indexed":false,"internalType":"uint256"},{"name":"usdcDonated","type":"uint256","indexed":false,"internalType":"uint256"},{"name":"platformFee","type":"uint256","indexed":false,"internalType":"uint256"},{"name":"message","type":"string","indexed":false,"internalType":"string"}],"anonymous":false},{"type":"event","name":"DonationWithToken","inputs":[{"name":"donor","type":"address","indexed":true,"internalType":"address"},{"name":"streamer","type":"address","indexed":true,"internalType":"address"},{"name":"token","type":"address","indexed":true,"internalType":"address"},{"name":"tokenSpent","type":"uint256","indexed":false,"internalType":"uint256"},{"name":"usdcDonated","type":"uint256","indexed":false,"internalType":"uint256"},{"name":"platformFee","type":"uint256","indexed":false,"internalType":"uint256"},{"name":"message","type":"string","indexed":false,"internalType":"string"}],"anonymous":false},{"type":"event","name":"DonationWithUSDCEvent","inputs":[{"name":"donor","type":"address","indexed":true,"internalType":"address"},{"name":"streamer","type":"address","indexed":true,"internalType":"address"},{"name":"amount","type":"uint256","indexed":false,"internalType":"uint256"},{"name":"platformFee","type":"uint256","indexed":false,"internalType":"uint256"},{"name":"message","type":"string","indexed":false,"internalType":"string"}],"anonymous":false},{"type":"event","name":"LiquidityDepositedWithCHZ","inputs":[{"name":"depositor","type":"address","indexed":true,"internalType":"address"},{"name":"receiver","type":"address","indexed":true,"internalType":"address"},{"name":"chzSpent","type":"uint256","indexed":false,"internalType":"uint256"},{"name":"usdcReceived","type":"uint256","indexed":false,"internalType":"uint256"},{"name":"sharesMinted","type":"uint256","indexed":false,"internalType":"uint256"}],"anonymous":false},{"type":"event","name":"LiquidityDepositedWithToken","inputs":[{"name":"depositor","type":"address","indexed":true,"internalType":"address"},{"name":"receiver","type":"address","indexed":true,"internalType":"address"},{"name":"token","type":"address","indexed":true,"internalType":"address"},{"name":"tokenSpent","type":"uint256","indexed":false,"internalType":"uint256"},{"name":"usdcReceived","type":"uint256","indexed":false,"internalType":"uint256"},{"name":"sharesMinted","type":"uint256","indexed":false,"internalType":"uint256"}],"anonymous":false},{"type":"event","name":"LiquidityDepositedWithUSDC","inputs":[{"name":"depositor","type":"address","indexed":true,"internalType":"address"},{"name":"receiver","type":"address","indexed":true,"internalType":"address"},{"name":"amount","type":"uint256","indexed":false,"internalType":"uint256"},{"name":"sharesMinted","type":"uint256","indexed":false,"internalType":"uint256"}],"anonymous":false},{"type":"event","name":"LiquidityPoolSet","inputs":[{"name":"oldPool","type":"address","indexed":true,"internalType":"address"},{"name":"newPool","type":"address","indexed":true,"internalType":"address"}],"anonymous":false},{"type":"event","name":"MatchFactorySet","inputs":[{"name":"oldFactory","type":"address","indexed":true,"internalType":"address"},{"name":"newFactory","type":"address","indexed":true,"internalType":"address"}],"anonymous":false},{"type":"event","name":"OwnershipTransferred","inputs":[{"name":"previousOwner","type":"address","indexed":true,"internalType":"address"},{"name":"newOwner","type":"address","indexed":true,"internalType":"address"}],"anonymous":false},{"type":"event","name":"PlatformFeeBpsSet","inputs":[{"name":"oldFeeBps","type":"uint16","indexed":false,"internalType":"uint16"},{"name":"newFeeBps","type":"uint16","indexed":false,"internalType":"uint16"}],"anonymous":false},{"type":"event","name":"StreamWalletFactorySet","inputs":[{"name":"oldFactory","type":"address","indexed":true,"internalType":"address"},{"name":"newFactory","type":"address","indexed":true,"internalType":"address"}],"anonymous":false},{"type":"event","name":"SubscriptionWithCHZ","inputs":[{"name":"subscriber","type":"address","indexed":true,"internalType":"address"},{"name":"streamer","type":"address","indexed":true,"internalType":"address"},{"name":"chzSpent","type":"uint256","indexed":false,"internalType":"uint256"},{"name":"usdcPaid","type":"uint256","indexed":false,"internalType":"uint256"},{"name":"platformFee","type":"uint256","indexed":false,"internalType":"uint256"},{"name":"duration","type":"uint256","indexed":false,"internalType":"uint256"}],"anonymous":false},{"type":"event","name":"SubscriptionWithToken","inputs":[{"name":"subscriber","type":"address","indexed":true,"internalType":"address"},{"name":"streamer","type":"address","indexed":true,"internalType":"address"},{"name":"token","type":"address","indexed":true,"internalType":"address"},{"name":"tokenSpent","type":"uint256","indexed":false,"internalType":"uint256"},{"name":"usdcPaid","type":"uint256","indexed":false,"internalType":"uint256"},{"name":"platformFee","type":"uint256","indexed":false,"internalType":"uint256"},{"name":"duration","type":"uint256","indexed":false,"internalType":"uint256"}],"anonymous":false},{"type":"event","name":"SubscriptionWithUSDCEvent","inputs":[{"name":"subscriber","type":"address","indexed":true,"internalType":"address"},{"name":"streamer","type":"address","indexed":true,"internalType":"address"},{"name":"amount","type":"uint256","indexed":false,"internalType":"uint256"},{"name":"platformFee","type":"uint256","indexed":false,"internalType":"uint256"},{"name":"duration","type":"uint256","indexed":false,"internalType":"uint256"}],"anonymous":false},{"type":"event","name":"TreasurySet","inputs":[{"name":"oldTreasury","type":"address","indexed":true,"internalType":"address"},{"name":"newTreasury","type":"address","indexed":true,"internalType":"address"}],"anonymous":false},{"type":"error","name":"BettingMatchFactoryNotSet","inputs":[]},{"type":"error","name":"DeadlinePassed","inputs":[]},{"type":"error","name":"InvalidFeeBps","inputs":[]},{"type":"error","name":"LiquidityPoolNotSet","inputs":[]},{"type":"error","name":"OwnableInvalidOwner","inputs":[{"name":"owner","type":"address","internalType":"address"}]},{"type":"error","name":"OwnableUnauthorizedAccount","inputs":[{"name":"account","type":"address","internalType":"address"}]},{"type":"error","name":"PoolAssetMismatch","inputs":[{"name":"poolAsset","type":"address","internalType":"address"},{"name":"expectedUsdc","type":"address","internalType":"address"}]},{"type":"error","name":"ReentrancyGuardReentrantCall","inputs":[]},{"type":"error","name":"RouterNotConfiguredOnFactory","inputs":[]},{"type":"error","name":"SafeERC20FailedOperation","inputs":[{"name":"token","type":"address","internalType":"address"}]},{"type":"error","name":"TokenIsUSDC","inputs":[]},{"type":"error","name":"UnauthorizedBettingMatch","inputs":[{"name":"bettingMatch","type":"address","internalType":"address"}]},{"type":"error","name":"ZeroAddress","inputs":[]},{"type":"error","name":"ZeroValue","inputs":[]}],"bytecode":{"object":"0x610100346200026d57601f6200227338819003918201601f191683019291906001600160401b0384118385101762000271578160c092849260409687528339810103126200026d57620000528162000285565b620000606020830162000285565b906200006e84840162000285565b6200007c6060850162000285565b9060a06200008d6080870162000285565b9501519361ffff85168086036200026d5760015f553315620002565760018054336001600160a01b03198216811790925589516001600160a01b0397909392889283167f8be0079c531659141344cd1fd0a4f28419497f9722a3daafe3b4186f6b6457e05f80a31691821580156200024b575b801562000240575b801562000235575b80156200022a575b6200021b5750612710106200020a5784929183916080521660a0521660c05260e0526002549161ffff60a01b9060a01b1692169060018060b01b031916171760025551611fd890816200029b8239608051818181610f2101526116ef015260a0518181816107ce0152611b4a015260c0518181816102ee0152818161059b0152818161090901528181610a7901528181610b9601528181610ca401528181610de001528181610f9f015281816110330152818161128001528181611684015281816117a5015281816117da0152818161194a01528181611b1d0152611d1b015260e0518181816104f4015261165d0152f35b8751638bff87cf60e01b8152600490fd5b63d92e233d60e01b8152600490fd5b508689161562000118565b508686161562000110565b508685161562000108565b508684161562000100565b8751631e4fbdf760e01b81525f6004820152602490fd5b5f80fd5b634e487b7160e01b5f52604160045260245ffd5b51906001600160a01b03821682036200026d5756fe60406080815260048036101561001e575b5050361561001c575f80fd5b005b5f3560e01c80630187702014611223578063088543ad1461118957806322dcd13e1461116457806339fd251f146110f55780633bc1f7b3146110625780633e413bee1461101f5780634ceeb1ab14610f505780635e9658d214610f0d57806361d027b314610ee5578063665a11ca14610ebd5780636fe21ef814610d6b57806370dae6ac14610c46578063715018a614610bfe578063828daa8f14610b0557806384d63b0c14610a1f5780638da5cb5b146109f75780638dfe99f5146108b0578063a4ecb73d146107fd578063a562bdba146107ba578063aca0f99d146106f2578063ad9157891461060e578063b12661de14610523578063d62ef179146104e0578063d90a4dd3146103ee578063dbe3cdde146103c6578063e574157914610280578063eebdb2d114610258578063f0f44260146101d95763f2fde38b0361001057346101d55760203660031901126101d55761017a61132d565b906101836114c1565b6001600160a01b039182169283156101bf575050600180546001600160a01b031981168417909155165f80516020611f838339815191525f80a3005b905f6024925191631e4fbdf760e01b8352820152fd5b5f80fd5b50346101d55760203660031901126101d5576101f361132d565b906101fc6114c1565b6001600160a01b0391821692831561024b575050600280546001600160a01b031981168417909155167f21eb548722a564f6e09f039f7aa858ae94c911910f3823b37af2250eeca4f4035f80a3005b5163d92e233d60e01b8152fd5b5090346101d5575f3660031901126101d557905490516001600160a01b039091168152602090f35b5090346101d55760e03660031901126101d55761029b61132d565b602435916102a7611343565b926084356064356001600160401b03821682036101d55760c4356102c96114ed565b83156103b6576001600160a01b0386811698909490891580156103ac575b61039e57857f0000000000000000000000000000000000000000000000000000000000000000168a146103905782421161038257509161035e7f413ecf4f434c01411be5fd6890328285467413741046f5f9cfa1d0f09df94e559695949261035361037995338d6119e0565b988960a43591611add565b9461036b8684848c611cc2565b519485943399169785611498565b0390a460015f55005b865163387b2e5560e11b8152fd5b8651633cab8add60e01b8152fd5b865163d92e233d60e01b8152fd5b50858916156102e7565b8451637c946ed760e01b81528890fd5b82346101d5575f3660031901126101d55760035490516001600160a01b039091168152602090f35b509060803660031901126101d55761040461132d565b6024356001600160401b0381116101d5576104229036908501611359565b6064929192356104306114ed565b34156104d0576001600160a01b0383169586156104c2578142116104b457507f733e4f35c3bdfdaa2c527ebea9d7a8ab9bcb3ba4303be10072ffb1adce02c76b9392916104836104ab926044353461162b565b9561049e8286896104948189611767565b9181993390611bd4565b519384933397348661145c565b0390a360015f55005b855163387b2e5560e11b8152fd5b855163d92e233d60e01b8152fd5b8451637c946ed760e01b81528690fd5b82346101d5575f3660031901126101d557517f00000000000000000000000000000000000000000000000000000000000000006001600160a01b03168152602090f35b5090346101d55760603660031901126101d55761053e61132d565b602435906044359261054e6114ed565b83156105ff576001600160a01b0382169485156105f15783156105e35750906104ab7fee7380f12277f6789499f9661b3b5ffaa63272a5f30929f7868eecbab29b933e93926105bf8630337f00000000000000000000000000000000000000000000000000000000000000006118ce565b6105d784876105ce8187611767565b50953390611805565b51928392339684611482565b9051637c946ed760e01b8152fd5b905163d92e233d60e01b8152fd5b51637c946ed760e01b81528490fd5b50346101d55760203660031901126101d55761062861132d565b906106316114c1565b6001600160a01b0391821692831561024b57805163c31c9c0760e01b81526020818481885afa9081156106e8575f916106b9575b5083309116036106ac575050600380546001600160a01b031981168417909155167f68363bd4295d4fd5169ecae965d59364bc9a3a98c52f38d35714a71f2a89606a5f80a3005b51632d1024d960e21b8152fd5b6106db915060203d6020116106e1575b6106d381836113de565b810190611401565b5f610665565b503d6106c9565b82513d5f823e3d90fd5b509060603660031901126101d5576024359061070c611343565b916107156114ed565b34156107aa576001600160a01b03831690811561079a5780421161078a5761074461074b91602096353461162b565b9384611926565b927f54f8481a03d0210b1224251d162f89e0d83093c6c798783519bfd85ca80160bd83518061077d8733953484611482565b0390a360015f5551908152f35b825163387b2e5560e11b81528590fd5b825163d92e233d60e01b81528590fd5b8151637c946ed760e01b81528490fd5b82346101d5575f3660031901126101d557517f00000000000000000000000000000000000000000000000000000000000000006001600160a01b03168152602090f35b509060a03660031901126101d55761081361132d565b9160243561081f611386565b916084359061082c6114ed565b34156108a2578142116108945750906104ab61086d7f2693a855098264c47021fc24775003a0f6e964de309a2627cf8d59b553c182aa94936064353461162b565b9461087a8685858a611cc2565b5133966001600160a01b0316959093849390913485611498565b845163387b2e5560e11b8152fd5b8451637c946ed760e01b8152fd5b5090346101d55760c03660031901126101d5576108cb61132d565b6024356108d6611343565b60643560a4356108e46114ed565b83156109e7576001600160a01b0385811697909490881580156109dd575b6109cf57857f00000000000000000000000000000000000000000000000000000000000000001689146109c15783156109b3578242116109a557509161097e610379926109737f84e17840062c90c4ffb369d6f8db32867d1a450b43e7fd5f7314ebf04c59700a979695338c6119e0565b978860843591611add565b966109898885611767565b5090610997838a3388611805565b519485941697339785611420565b875163387b2e5560e11b8152fd5b8751637c946ed760e01b8152fd5b8751633cab8add60e01b8152fd5b875163d92e233d60e01b8152fd5b5085851615610902565b8551637c946ed760e01b81528790fd5b82346101d5575f3660031901126101d55760015490516001600160a01b039091168152602090f35b50346101d55760803660031901126101d557610a3961132d565b91602435610a45611386565b9060643594610a526114ed565b8515610af5576001600160a01b038116948515610ae75750858383610aa293610a9d8430337f00000000000000000000000000000000000000000000000000000000000000006118ce565b611cc2565b825194855260208501526001600160401b03169083015233917f2fe4050ae77ccba94c6b75e837427748651360a3ad3db5b5a3dfb2f00996c72890606090a360015f55005b845163d92e233d60e01b8152fd5b50505051637c946ed760e01b8152fd5b5090346101d55760603660031901126101d557610b2061132d565b6024356001600160401b0381116101d557610b3e9036908501611359565b929060443591610b4c6114ed565b8215610bef576001600160a01b0384169586156105f15750829160606104ab92610bba7fd987dc728f5e92ce6014c57834fab4ee8729c0571709f318d7d1e7f463396d00979630337f00000000000000000000000000000000000000000000000000000000000000006118ce565b610bd4888487610bca818b611767565b91819b3390611bd4565b8051958695865260208601528401523395606084019161143c565b51637c946ed760e01b81528590fd5b346101d5575f3660031901126101d557610c166114c1565b600180546001600160a01b031981169091555f906001600160a01b03165f80516020611f838339815191528280a3005b5090346101d55760a03660031901126101d557610c6161132d565b6064359260843592916001600160a01b03918285169190602435908387036101d557610c8b6114ed565b8115610d5d578483169485158015610d55575b610d46577f0000000000000000000000000000000000000000000000000000000000000000168514610d38578742116104b45750610d19610d12602098610d077ffbed2515537a6cacf03785d96cac9e8c66d9470ed24a39f4693ef66fbb3dd0099433896119e0565b948560443591611add565b9687611926565b8096610d2b8751928392339684611482565b0390a460015f5551908152f35b8551633cab8add60e01b8152fd5b50855163d92e233d60e01b8152fd5b508415610c9e565b8551637c946ed760e01b8152fd5b5090346101d55760c03660031901126101d557610d8661132d565b602435610d91611343565b6064356001600160401b0381116101d557610daf9036908701611359565b9060a435610dbb6114ed565b8415610ead576001600160a01b038681169890959089158015610ea3575b610e9557867f0000000000000000000000000000000000000000000000000000000000000000168a14610e8757824211610e79575091610e507f6616f02402feb57d4d1b866a093e4b8c48ce3ea2693a903f1e480aa2a0bb036096959492610e4561037995338d6119e0565b988960843591611add565b8098610e6b8484610e61858a611767565b908096338c611bd4565b51958695169833988661145c565b885163387b2e5560e11b8152fd5b8851633cab8add60e01b8152fd5b885163d92e233d60e01b8152fd5b5086861615610dd9565b8651637c946ed760e01b81528890fd5b82346101d5575f3660031901126101d55760055490516001600160a01b039091168152602090f35b82346101d5575f3660031901126101d55760025490516001600160a01b039091168152602090f35b82346101d5575f3660031901126101d557517f00000000000000000000000000000000000000000000000000000000000000006001600160a01b03168152602090f35b5090346101d557806003193601126101d55760243591803591906001600160a01b038416908185036101d557610f846114ed565b83156110115781156110035750610fc9602094610fc38530337f00000000000000000000000000000000000000000000000000000000000000006118ce565b84611926565b92825190815283858201527f51bd1364dcb2871df28f99dad43068872593123bcdd700b5bc21b4ea4626c724833392a360015f5551908152f35b825163d92e233d60e01b8152fd5b8251637c946ed760e01b8152fd5b82346101d5575f3660031901126101d557517f00000000000000000000000000000000000000000000000000000000000000006001600160a01b03168152602090f35b5090346101d55760203660031901126101d557813561ffff808216908183036101d55761108d6114c1565b61271082116110e5576002805461ffff60a01b19811660a095861b61ffff60a01b16179091558451931c16825260208201527f618639ce1b408b8d88f2fc2b3c356e214fb156027a898b42acf6b261c032ac439250a1005b50505051638bff87cf60e01b8152fd5b50346101d55760203660031901126101d55761110f61132d565b906111186114c1565b6001600160a01b0391821692831561024b575080546001600160a01b031981168417909155167fd2b9a93e02c6747376a75eab1c562c38dbd0043742a32037b252a08a6dc466595f80a3005b82346101d5575f3660031901126101d55760209061ffff60025460a01c169051908152f35b509060803660031901126101d55761119f61132d565b602435906064356111ae6114ed565b3415610af5576001600160a01b038216948515610ae75783156108a2578142116108945750906104ab6112067f1bcc7e25c7f4745c9e121284151849222420cf1bc61ea76483d10b7c281de4a994936044353461162b565b9461121684876105ce8187611767565b5192839233963485611420565b50346101d55760203660031901126101d55761123d61132d565b906112466114c1565b6001600160a01b0391821692831561024b5780516338d52e0f60e01b8152906020828481885afa918215611323575f92611302575b5083807f0000000000000000000000000000000000000000000000000000000000000000169216908282036112e857600580546001600160a01b031981168817909155869086167f228055d64ffd3d47643903f213052e296dbd01cbf9650eb469b7ee211327b1bc5f80a3005b5163fae7cf6b60e01b815292830152602482015260449150fd5b61131c91925060203d6020116106e1576106d381836113de565b905f61127b565b50513d5f823e3d90fd5b600435906001600160a01b03821682036101d557565b604435906001600160a01b03821682036101d557565b9181601f840112156101d5578235916001600160401b0383116101d557602083818601950101116101d557565b604435906001600160401b03821682036101d557565b6001600160401b0381116113af57604052565b634e487b7160e01b5f52604160045260245ffd5b606081019081106001600160401b038211176113af57604052565b601f909101601f19168101906001600160401b038211908210176113af57604052565b908160209103126101d557516001600160a01b03811681036101d55790565b9094939260609260808301968352602083015260408201520152565b908060209392818452848401375f828201840152601f01601f1916010190565b909260809261147f9694835260208301526040820152816060820152019161143c565b90565b6040919493926060820195825260208201520152565b908152602081019190915260408101919091526001600160401b03909116606082015260800190565b6001546001600160a01b031633036114d557565b60405163118cdaa760e01b8152336004820152602490fd5b60025f54146114fc5760025f55565b604051633ee5aeb560e01b8152600490fd5b80511561151b5760200190565b634e487b7160e01b5f52603260045260245ffd5b80516001101561151b5760400190565b805182101561151b5760209160051b010190565b9060209081838203126101d55782516001600160401b03938482116101d5570181601f820112156101d55780519384116113af578360051b906040519461159c858401876113de565b855283808601928201019283116101d5578301905b8282106115bf575050505090565b815181529083019083016115b1565b9081518082526020808093019301915f5b8281106115ed575050505090565b83516001600160a01b0316855293810193928101926001016115df565b9190820391821161161757565b634e487b7160e01b5f52601160045260245ffd5b5f916116d9916040519061163e826113c3565b6002825260403660208401376116538261150e565b6001600160a01b037f00000000000000000000000000000000000000000000000000000000000000008116909152927f000000000000000000000000000000000000000000000000000000000000000084166116ae8461152f565b52604051968795869485936315aea31160e21b8552600485015260a0602485015260a48401906115ce565b90876044840152306064840152608483015203927f0000000000000000000000000000000000000000000000000000000000000000165af190811561175c575f9161173a575b5080515f198101908111611617576117369161153f565b5190565b61175691503d805f833e61174e81836113de565b810190611553565b5f61171f565b6040513d5f823e3d90fd5b909160025461ffff8160a01c1690818502918583041485151715611617576117976127106117c99304809661160a565b93849186806117cb575b50507f0000000000000000000000000000000000000000000000000000000000000000611e26565b565b6117fe916001600160a01b03167f0000000000000000000000000000000000000000000000000000000000000000611e26565b5f866117a1565b6003549293926001600160a01b0392919083169081611827575b505050505050565b8360246020925f60405195869485936303aada7f60e11b85521660048401525af1801561175c5783915f916118af575b501690813b156101d5575f606492819560405197889687956335f487e560e11b8752166004860152602485015260448401525af1801561175c576118a0575b808080808061181f565b6118a99061139c565b5f611896565b6118c8915060203d6020116106e1576106d381836113de565b5f611857565b6040516323b872dd60e01b60208201526001600160a01b03928316602482015292909116604483015260648083019390935291815260a08101918183106001600160401b038411176113af576117c992604052611e5b565b6005546001600160a01b039290831680156119ce57825f8261196f602096604495897f000000000000000000000000000000000000000000000000000000000000000016611eb5565b6040519687958694636e553f6560e01b865260048601521660248401525af190811561175c575f9161199f575090565b90506020813d6020116119c6575b816119ba602093836113de565b810103126101d5575190565b3d91506119ad565b60405163d667ca4560e01b8152600490fd5b6040516370a0823160e01b8082523060048301526001600160a01b0383169493919260209283856024818a5afa94851561175c575f95611aa2575b5094611a2b9184959630916118ce565b60246040518096819382523060048301525afa90811561175c575f91611a72575b50611a57925061160a565b908115611a6057565b604051637c946ed760e01b8152600490fd5b905082813d8311611a9b575b611a8881836113de565b810103126101d557611a5791515f611a4c565b503d611a7e565b919380955082819792973d8311611ad6575b611abe81836113de565b810103126101d5579051909490939290611a2b611a1b565b503d611ab4565b5f9283611ba0959360405194611af2866113c3565b600286526040366020880137611b7182611b0b8861150e565b6001600160a01b0397881690819052967f00000000000000000000000000000000000000000000000000000000000000008116611b478a61152f565b527f0000000000000000000000000000000000000000000000000000000000000000168097611eb5565b604051978896879586946338ed173960e01b86526004860152602485015260a0604485015260a48401906115ce565b90306064840152608483015203925af190811561175c575f9161173a575080515f198101908111611617576117369161153f565b60035493969294936001600160a01b039392919084169081611bfc575b505050505050505050565b8460246020925f60405195869485936303aada7f60e11b85521660048401525af1801561175c5784915f91611ca3575b501693843b156101d5575f968793611c78926040519a8b998a98899763f04b74ab60e01b895216600488015260248701526044860152606485015260a0608485015260a484019161143c565b03925af1801561175c57611c94575b8080808080808080611bf1565b611c9d9061139c565b5f611c87565b611cbc915060203d6020116106e1576106d381836113de565b5f611c2c565b9091906001600160a01b0380821691908215611df957600454168015611de757602060249160405192838092635e84f47d60e11b82528760048301525afa90811561175c575f91611dac575b5015611d935784611d3f917f0000000000000000000000000000000000000000000000000000000000000000611e26565b803b156101d5575f92836084926040519687958694631f667e4b60e11b8652336004870152602486015260018060401b0316604485015260648401525af1801561175c57611d8a5750565b6117c99061139c565b604051630a87ad9f60e21b815260048101839052602490fd5b90506020813d602011611ddf575b81611dc7602093836113de565b810103126101d5575180151581036101d5575f611d0e565b3d9150611dba565b604051630bd69dbb60e21b8152600490fd5b60405163d92e233d60e01b8152600490fd5b6001600160a01b039091168152602081019190915260400190565b611e5b6117c99392611e4d60405194859263a9059cbb60e01b602085015260248401611e0b565b03601f1981018452836113de565b905f602091828151910182855af11561175c575f513d611eac57506001600160a01b0381163b155b611e8a5750565b604051635274afe760e01b81526001600160a01b039091166004820152602490fd5b60011415611e83565b6040519160205f818501611eea86611edc63095ea7b360e01b998a85528760248401611e0b565b03601f1981018852876113de565b85519082865af15f513d82611f5d575b505015611f08575b50505050565b60405160208101949094526001600160a01b031660248401525f6044808501919091528352608083016001600160401b038111848210176113af57611f5493611e5b9160405282611e5b565b5f808080611f02565b909150611f7a57506001600160a01b0382163b15155b5f80611efa565b600114611f7356fe8be0079c531659141344cd1fd0a4f28419497f9722a3daafe3b4186f6b6457e0a26469706673582212205883150c892e0a003944050f44841b700fcee87a92951d2d8a5d044a1c46312464736f6c63430008180033","linkReferences":{}},"methodIdentifiers":{"bettingMatchFactory()":"eebdb2d1","depositLiquidityWithCHZ(uint256,uint256,address)":"aca0f99d","depositLiquidityWithToken(address,uint256,uint256,uint256,address)":"70dae6ac","depositLiquidityWithUSDC(uint256,address)":"4ceeb1ab","donateWithCHZ(address,string,uint256,uint256)":"d90a4dd3","donateWithToken(address,uint256,address,string,uint256,uint256)":"6fe21ef8","donateWithUSDC(address,string,uint256)":"828daa8f","liquidityPool()":"665a11ca","masterRouter()":"5e9658d2","owner()":"8da5cb5b","placeBetWithCHZ(address,uint256,uint64,uint256,uint256)":"a4ecb73d","placeBetWithToken(address,uint256,address,uint256,uint64,uint256,uint256)":"e5741579","placeBetWithUSDC(address,uint256,uint64,uint256)":"84d63b0c","platformFeeBps()":"22dcd13e","renounceOwnership()":"715018a6","setLiquidityPool(address)":"01877020","setMatchFactory(address)":"39fd251f","setPlatformFeeBps(uint16)":"3bc1f7b3","setStreamWalletFactory(address)":"ad915789","setTreasury(address)":"f0f44260","streamWalletFactory()":"dbe3cdde","subscribeWithCHZ(address,uint256,uint256,uint256)":"088543ad","subscribeWithToken(address,uint256,address,uint256,uint256,uint256)":"8dfe99f5","subscribeWithUSDC(address,uint256,uint256)":"b12661de","tokenRouter()":"a562bdba","transferOwnership(address)":"f2fde38b","treasury()":"61d027b3","usdc()":"3e413bee","wchz()":"d62ef179"},"id":77}