{"abi":[{"type":"constructor","inputs":[],"stateMutability":"nonpayable"},{"type":"function","name":"ADMIN_ROLE","inputs":[],"outputs":[{"name":"","type":"bytes32","internalType":"bytes32"}],"stateMutability":"view"},{"type":"function","name":"DEFAULT_ADMIN_ROLE","inputs":[],"outputs":[{"name":"","type":"bytes32","internalType":"bytes32"}],"stateMutability":"view"},{"type":"function","name":"MARKET_BOTH_SCORE","inputs":[],"outputs":[{"name":"","type":"bytes32","internalType":"bytes32"}],"stateMutability":"view"},{"type":"function","name":"MARKET_CORRECT_SCORE","inputs":[],"outputs":[{"name":"","type":"bytes32","internalType":"bytes32"}],"stateMutability":"view"},{"type":"function","name":"MARKET_FIRST_SCORER","inputs":[],"outputs":[{"name":"","type":"bytes32","internalType":"bytes32"}],"stateMutability":"view"},{"type":"function","name":"MARKET_GOALS_TOTAL","inputs":[],"outputs":[{"name":"","type":"bytes32","internalType":"bytes32"}],"stateMutability":"view"},{"type":"function","name":"MARKET_HALFTIME","inputs":[],"outputs":[{"name":"","type":"bytes32","internalType":"bytes32"}],"stateMutability":"view"},{"type":"function","name":"MARKET_WINNER","inputs":[],"outputs":[{"name":"","type":"bytes32","internalType":"bytes32"}],"stateMutability":"view"},{"type":"function","name":"MAX_ODDS","inputs":[],"outputs":[{"name":"","type":"uint32","internalType":"uint32"}],"stateMutability":"view"},{"type":"function","name":"MIN_NET_STAKE","inputs":[],"outputs":[{"name":"","type":"uint256","internalType":"uint256"}],"stateMutability":"view"},{"type":"function","name":"MIN_ODDS","inputs":[],"outputs":[{"name":"","type":"uint32","internalType":"uint32"}],"stateMutability":"view"},{"type":"function","name":"ODDS_PRECISION","inputs":[],"outputs":[{"name":"","type":"uint32","internalType":"uint32"}],"stateMutability":"view"},{"type":"function","name":"ODDS_SETTER_ROLE","inputs":[],"outputs":[{"name":"","type":"bytes32","internalType":"bytes32"}],"stateMutability":"view"},{"type":"function","name":"PAUSER_ROLE","inputs":[],"outputs":[{"name":"","type":"bytes32","internalType":"bytes32"}],"stateMutability":"view"},{"type":"function","name":"RESOLVER_ROLE","inputs":[],"outputs":[{"name":"","type":"bytes32","internalType":"bytes32"}],"stateMutability":"view"},{"type":"function","name":"SWAP_ROUTER_ROLE","inputs":[],"outputs":[{"name":"","type":"bytes32","internalType":"bytes32"}],"stateMutability":"view"},{"type":"function","name":"UPGRADE_INTERFACE_VERSION","inputs":[],"outputs":[{"name":"","type":"string","internalType":"string"}],"stateMutability":"view"},{"type":"function","name":"addMarketWithLine","inputs":[{"name":"marketType","type":"bytes32","internalType":"bytes32"},{"name":"initialOdds","type":"uint32","internalType":"uint32"},{"name":"line","type":"int16","internalType":"int16"}],"outputs":[],"stateMutability":"nonpayable"},{"type":"function","name":"addMarketsBatch","inputs":[{"name":"marketTypes","type":"bytes32[]","internalType":"bytes32[]"},{"name":"initialOdds","type":"uint32[]","internalType":"uint32[]"},{"name":"lines","type":"int16[]","internalType":"int16[]"}],"outputs":[],"stateMutability":"nonpayable"},{"type":"function","name":"cancelMarket","inputs":[{"name":"marketId","type":"uint256","internalType":"uint256"},{"name":"reason","type":"string","internalType":"string"}],"outputs":[],"stateMutability":"nonpayable"},{"type":"function","name":"claim","inputs":[{"name":"marketId","type":"uint256","internalType":"uint256"},{"name":"betIndex","type":"uint256","internalType":"uint256"}],"outputs":[],"stateMutability":"nonpayable"},{"type":"function","name":"claimAll","inputs":[{"name":"marketId","type":"uint256","internalType":"uint256"}],"outputs":[],"stateMutability":"nonpayable"},{"type":"function","name":"claimRange","inputs":[{"name":"marketId","type":"uint256","internalType":"uint256"},{"name":"start","type":"uint256","internalType":"uint256"},{"name":"end","type":"uint256","internalType":"uint256"}],"outputs":[],"stateMutability":"nonpayable"},{"type":"function","name":"claimRefund","inputs":[{"name":"marketId","type":"uint256","internalType":"uint256"},{"name":"betIndex","type":"uint256","internalType":"uint256"}],"outputs":[],"stateMutability":"nonpayable"},{"type":"function","name":"closeMarket","inputs":[{"name":"marketId","type":"uint256","internalType":"uint256"}],"outputs":[],"stateMutability":"nonpayable"},{"type":"function","name":"closeMarketsBatch","inputs":[{"name":"marketIds","type":"uint256[]","internalType":"uint256[]"}],"outputs":[],"stateMutability":"nonpayable"},{"type":"function","name":"emergencyPause","inputs":[],"outputs":[],"stateMutability":"nonpayable"},{"type":"function","name":"footballMarkets","inputs":[{"name":"","type":"uint256","internalType":"uint256"}],"outputs":[{"name":"marketType","type":"bytes32","internalType":"bytes32"},{"name":"line","type":"int16","internalType":"int16"},{"name":"maxSelections","type":"uint8","internalType":"uint8"}],"stateMutability":"view"},{"type":"function","name":"getBetDetails","inputs":[{"name":"marketId","type":"uint256","internalType":"uint256"},{"name":"user","type":"address","internalType":"address"},{"name":"betIndex","type":"uint256","internalType":"uint256"}],"outputs":[{"name":"amount","type":"uint256","internalType":"uint256"},{"name":"selection","type":"uint64","internalType":"uint64"},{"name":"odds","type":"uint32","internalType":"uint32"},{"name":"timestamp","type":"uint40","internalType":"uint40"},{"name":"claimed","type":"bool","internalType":"bool"},{"name":"potentialPayout","type":"uint256","internalType":"uint256"}],"stateMutability":"view"},{"type":"function","name":"getCurrentOdds","inputs":[{"name":"marketId","type":"uint256","internalType":"uint256"}],"outputs":[{"name":"","type":"uint32","internalType":"uint32"}],"stateMutability":"view"},{"type":"function","name":"getFootballMarket","inputs":[{"name":"marketId","type":"uint256","internalType":"uint256"}],"outputs":[{"name":"marketTypeStr","type":"string","internalType":"string"},{"name":"line","type":"int16","internalType":"int16"},{"name":"maxSelections","type":"uint8","internalType":"uint8"},{"name":"state","type":"uint8","internalType":"enum BettingMatch.MarketState"},{"name":"currentOdds","type":"uint32","internalType":"uint32"},{"name":"result","type":"uint64","internalType":"uint64"},{"name":"totalPool","type":"uint256","internalType":"uint256"}],"stateMutability":"view"},{"type":"function","name":"getMarketCore","inputs":[{"name":"marketId","type":"uint256","internalType":"uint256"}],"outputs":[{"name":"","type":"tuple","internalType":"struct BettingMatch.MarketCore","components":[{"name":"state","type":"uint8","internalType":"enum BettingMatch.MarketState"},{"name":"result","type":"uint64","internalType":"uint64"},{"name":"createdAt","type":"uint40","internalType":"uint40"},{"name":"resolvedAt","type":"uint40","internalType":"uint40"},{"name":"totalPool","type":"uint256","internalType":"uint256"}]}],"stateMutability":"view"},{"type":"function","name":"getMarketInfo","inputs":[{"name":"marketId","type":"uint256","internalType":"uint256"}],"outputs":[{"name":"marketType","type":"bytes32","internalType":"bytes32"},{"name":"state","type":"uint8","internalType":"enum BettingMatch.MarketState"},{"name":"currentOdds","type":"uint32","internalType":"uint32"},{"name":"result","type":"uint64","internalType":"uint64"},{"name":"totalPool","type":"uint256","internalType":"uint256"}],"stateMutability":"view"},{"type":"function","name":"getMarketLiability","inputs":[{"name":"marketId","type":"uint256","internalType":"uint256"}],"outputs":[{"name":"","type":"uint256","internalType":"uint256"}],"stateMutability":"view"},{"type":"function","name":"getOddsHistory","inputs":[{"name":"marketId","type":"uint256","internalType":"uint256"}],"outputs":[{"name":"","type":"uint32[]","internalType":"uint32[]"}],"stateMutability":"view"},{"type":"function","name":"getRoleAdmin","inputs":[{"name":"role","type":"bytes32","internalType":"bytes32"}],"outputs":[{"name":"","type":"bytes32","internalType":"bytes32"}],"stateMutability":"view"},{"type":"function","name":"getUserBets","inputs":[{"name":"marketId","type":"uint256","internalType":"uint256"},{"name":"user","type":"address","internalType":"address"}],"outputs":[{"name":"","type":"tuple[]","internalType":"struct BettingMatch.Bet[]","components":[{"name":"amount","type":"uint256","internalType":"uint256"},{"name":"selection","type":"uint64","internalType":"uint64"},{"name":"oddsIndex","type":"uint16","internalType":"uint16"},{"name":"timestamp","type":"uint40","internalType":"uint40"},{"name":"claimed","type":"bool","internalType":"bool"}]}],"stateMutability":"view"},{"type":"function","name":"grantRole","inputs":[{"name":"role","type":"bytes32","internalType":"bytes32"},{"name":"account","type":"address","internalType":"address"}],"outputs":[],"stateMutability":"nonpayable"},{"type":"function","name":"hasRole","inputs":[{"name":"role","type":"bytes32","internalType":"bytes32"},{"name":"account","type":"address","internalType":"address"}],"outputs":[{"name":"","type":"bool","internalType":"bool"}],"stateMutability":"view"},{"type":"function","name":"initialize","inputs":[{"name":"_matchName","type":"string","internalType":"string"},{"name":"_owner","type":"address","internalType":"address"}],"outputs":[],"stateMutability":"nonpayable"},{"type":"function","name":"liquidityPool","inputs":[],"outputs":[{"name":"","type":"address","internalType":"contract ILiquidityPool"}],"stateMutability":"view"},{"type":"function","name":"marketCount","inputs":[],"outputs":[{"name":"","type":"uint256","internalType":"uint256"}],"stateMutability":"view"},{"type":"function","name":"matchName","inputs":[],"outputs":[{"name":"","type":"string","internalType":"string"}],"stateMutability":"view"},{"type":"function","name":"maxAllowedOdds","inputs":[],"outputs":[{"name":"","type":"uint32","internalType":"uint32"}],"stateMutability":"view"},{"type":"function","name":"openMarket","inputs":[{"name":"marketId","type":"uint256","internalType":"uint256"}],"outputs":[],"stateMutability":"nonpayable"},{"type":"function","name":"openMarketsBatch","inputs":[{"name":"marketIds","type":"uint256[]","internalType":"uint256[]"}],"outputs":[],"stateMutability":"nonpayable"},{"type":"function","name":"owner","inputs":[],"outputs":[{"name":"","type":"address","internalType":"address"}],"stateMutability":"view"},{"type":"function","name":"paused","inputs":[],"outputs":[{"name":"","type":"bool","internalType":"bool"}],"stateMutability":"view"},{"type":"function","name":"placeBetUSDC","inputs":[{"name":"marketId","type":"uint256","internalType":"uint256"},{"name":"selection","type":"uint64","internalType":"uint64"},{"name":"amount","type":"uint256","internalType":"uint256"}],"outputs":[],"stateMutability":"nonpayable"},{"type":"function","name":"placeBetUSDCFor","inputs":[{"name":"user","type":"address","internalType":"address"},{"name":"marketId","type":"uint256","internalType":"uint256"},{"name":"selection","type":"uint64","internalType":"uint64"},{"name":"amount","type":"uint256","internalType":"uint256"}],"outputs":[],"stateMutability":"nonpayable"},{"type":"function","name":"proxiableUUID","inputs":[],"outputs":[{"name":"","type":"bytes32","internalType":"bytes32"}],"stateMutability":"view"},{"type":"function","name":"quoteNetExposure","inputs":[{"name":"marketId","type":"uint256","internalType":"uint256"},{"name":"amount","type":"uint256","internalType":"uint256"}],"outputs":[{"name":"netExposure","type":"uint256","internalType":"uint256"}],"stateMutability":"view"},{"type":"function","name":"renounceOwnership","inputs":[],"outputs":[],"stateMutability":"nonpayable"},{"type":"function","name":"renounceRole","inputs":[{"name":"role","type":"bytes32","internalType":"bytes32"},{"name":"callerConfirmation","type":"address","internalType":"address"}],"outputs":[],"stateMutability":"nonpayable"},{"type":"function","name":"resolveMarket","inputs":[{"name":"marketId","type":"uint256","internalType":"uint256"},{"name":"result","type":"uint64","internalType":"uint64"}],"outputs":[],"stateMutability":"nonpayable"},{"type":"function","name":"resolveMarketsBatch","inputs":[{"name":"marketIds","type":"uint256[]","internalType":"uint256[]"},{"name":"results","type":"uint64[]","internalType":"uint64[]"}],"outputs":[],"stateMutability":"nonpayable"},{"type":"function","name":"revokeRole","inputs":[{"name":"role","type":"bytes32","internalType":"bytes32"},{"name":"account","type":"address","internalType":"address"}],"outputs":[],"stateMutability":"nonpayable"},{"type":"function","name":"setLiquidityPool","inputs":[{"name":"_pool","type":"address","internalType":"address"}],"outputs":[],"stateMutability":"nonpayable"},{"type":"function","name":"setMarketOdds","inputs":[{"name":"marketId","type":"uint256","internalType":"uint256"},{"name":"newOdds","type":"uint32","internalType":"uint32"}],"outputs":[],"stateMutability":"nonpayable"},{"type":"function","name":"setMaxAllowedOdds","inputs":[{"name":"newMax","type":"uint32","internalType":"uint32"}],"outputs":[],"stateMutability":"nonpayable"},{"type":"function","name":"setUSDCToken","inputs":[{"name":"_usdcToken","type":"address","internalType":"address"}],"outputs":[],"stateMutability":"nonpayable"},{"type":"function","name":"sportType","inputs":[],"outputs":[{"name":"","type":"string","internalType":"string"}],"stateMutability":"view"},{"type":"function","name":"supportsInterface","inputs":[{"name":"interfaceId","type":"bytes4","internalType":"bytes4"}],"outputs":[{"name":"","type":"bool","internalType":"bool"}],"stateMutability":"view"},{"type":"function","name":"suspendMarket","inputs":[{"name":"marketId","type":"uint256","internalType":"uint256"}],"outputs":[],"stateMutability":"nonpayable"},{"type":"function","name":"transferOwnership","inputs":[{"name":"newOwner","type":"address","internalType":"address"}],"outputs":[],"stateMutability":"nonpayable"},{"type":"function","name":"unpause","inputs":[],"outputs":[],"stateMutability":"nonpayable"},{"type":"function","name":"upgradeToAndCall","inputs":[{"name":"newImplementation","type":"address","internalType":"address"},{"name":"data","type":"bytes","internalType":"bytes"}],"outputs":[],"stateMutability":"payable"},{"type":"function","name":"usdcToken","inputs":[],"outputs":[{"name":"","type":"address","internalType":"contract IERC20"}],"stateMutability":"view"},{"type":"event","name":"BetPlaced","inputs":[{"name":"marketId","type":"uint256","indexed":true,"internalType":"uint256"},{"name":"user","type":"address","indexed":true,"internalType":"address"},{"name":"betIndex","type":"uint256","indexed":false,"internalType":"uint256"},{"name":"amount","type":"uint256","indexed":false,"internalType":"uint256"},{"name":"selection","type":"uint64","indexed":false,"internalType":"uint64"},{"name":"odds","type":"uint32","indexed":false,"internalType":"uint32"},{"name":"oddsIndex","type":"uint16","indexed":false,"internalType":"uint16"}],"anonymous":false},{"type":"event","name":"Initialized","inputs":[{"name":"version","type":"uint64","indexed":false,"internalType":"uint64"}],"anonymous":false},{"type":"event","name":"LiquidityPoolSet","inputs":[{"name":"pool","type":"address","indexed":true,"internalType":"address"}],"anonymous":false},{"type":"event","name":"MarketCancelled","inputs":[{"name":"marketId","type":"uint256","indexed":true,"internalType":"uint256"},{"name":"reason","type":"string","indexed":false,"internalType":"string"}],"anonymous":false},{"type":"event","name":"MarketCreated","inputs":[{"name":"marketId","type":"uint256","indexed":true,"internalType":"uint256"},{"name":"marketType","type":"string","indexed":false,"internalType":"string"},{"name":"initialOdds","type":"uint32","indexed":false,"internalType":"uint32"}],"anonymous":false},{"type":"event","name":"MarketResolved","inputs":[{"name":"marketId","type":"uint256","indexed":true,"internalType":"uint256"},{"name":"result","type":"uint64","indexed":false,"internalType":"uint64"},{"name":"resolvedAt","type":"uint40","indexed":false,"internalType":"uint40"}],"anonymous":false},{"type":"event","name":"MarketStateChanged","inputs":[{"name":"marketId","type":"uint256","indexed":true,"internalType":"uint256"},{"name":"oldState","type":"uint8","indexed":false,"internalType":"enum BettingMatch.MarketState"},{"name":"newState","type":"uint8","indexed":false,"internalType":"enum BettingMatch.MarketState"}],"anonymous":false},{"type":"event","name":"MatchInitialized","inputs":[{"name":"name","type":"string","indexed":true,"internalType":"string"},{"name":"sportType","type":"string","indexed":false,"internalType":"string"},{"name":"owner","type":"address","indexed":true,"internalType":"address"}],"anonymous":false},{"type":"event","name":"MaxAllowedOddsSet","inputs":[{"name":"oldMax","type":"uint32","indexed":false,"internalType":"uint32"},{"name":"newMax","type":"uint32","indexed":false,"internalType":"uint32"}],"anonymous":false},{"type":"event","name":"OddsUpdated","inputs":[{"name":"marketId","type":"uint256","indexed":true,"internalType":"uint256"},{"name":"oldOdds","type":"uint32","indexed":false,"internalType":"uint32"},{"name":"newOdds","type":"uint32","indexed":false,"internalType":"uint32"},{"name":"oddsIndex","type":"uint16","indexed":false,"internalType":"uint16"}],"anonymous":false},{"type":"event","name":"OwnershipTransferred","inputs":[{"name":"previousOwner","type":"address","indexed":true,"internalType":"address"},{"name":"newOwner","type":"address","indexed":true,"internalType":"address"}],"anonymous":false},{"type":"event","name":"Paused","inputs":[{"name":"account","type":"address","indexed":false,"internalType":"address"}],"anonymous":false},{"type":"event","name":"Payout","inputs":[{"name":"marketId","type":"uint256","indexed":true,"internalType":"uint256"},{"name":"user","type":"address","indexed":true,"internalType":"address"},{"name":"betIndex","type":"uint256","indexed":false,"internalType":"uint256"},{"name":"amount","type":"uint256","indexed":false,"internalType":"uint256"}],"anonymous":false},{"type":"event","name":"Refund","inputs":[{"name":"marketId","type":"uint256","indexed":true,"internalType":"uint256"},{"name":"user","type":"address","indexed":true,"internalType":"address"},{"name":"betIndex","type":"uint256","indexed":false,"internalType":"uint256"},{"name":"amount","type":"uint256","indexed":false,"internalType":"uint256"}],"anonymous":false},{"type":"event","name":"RoleAdminChanged","inputs":[{"name":"role","type":"bytes32","indexed":true,"internalType":"bytes32"},{"name":"previousAdminRole","type":"bytes32","indexed":true,"internalType":"bytes32"},{"name":"newAdminRole","type":"bytes32","indexed":true,"internalType":"bytes32"}],"anonymous":false},{"type":"event","name":"RoleGranted","inputs":[{"name":"role","type":"bytes32","indexed":true,"internalType":"bytes32"},{"name":"account","type":"address","indexed":true,"internalType":"address"},{"name":"sender","type":"address","indexed":true,"internalType":"address"}],"anonymous":false},{"type":"event","name":"RoleRevoked","inputs":[{"name":"role","type":"bytes32","indexed":true,"internalType":"bytes32"},{"name":"account","type":"address","indexed":true,"internalType":"address"},{"name":"sender","type":"address","indexed":true,"internalType":"address"}],"anonymous":false},{"type":"event","name":"USDCTokenSet","inputs":[{"name":"token","type":"address","indexed":true,"internalType":"address"}],"anonymous":false},{"type":"event","name":"Unpaused","inputs":[{"name":"account","type":"address","indexed":false,"internalType":"address"}],"anonymous":false},{"type":"event","name":"Upgraded","inputs":[{"name":"implementation","type":"address","indexed":true,"internalType":"address"}],"anonymous":false},{"type":"error","name":"AccessControlBadConfirmation","inputs":[]},{"type":"error","name":"AccessControlUnauthorizedAccount","inputs":[{"name":"account","type":"address","internalType":"address"},{"name":"neededRole","type":"bytes32","internalType":"bytes32"}]},{"type":"error","name":"AddressEmptyCode","inputs":[{"name":"target","type":"address","internalType":"address"}]},{"type":"error","name":"AddressInsufficientBalance","inputs":[{"name":"account","type":"address","internalType":"address"}]},{"type":"error","name":"AlreadyClaimed","inputs":[{"name":"marketId","type":"uint256","internalType":"uint256"},{"name":"user","type":"address","internalType":"address"},{"name":"betIndex","type":"uint256","internalType":"uint256"}]},{"type":"error","name":"ArrayLengthMismatch","inputs":[]},{"type":"error","name":"BetLost","inputs":[{"name":"marketId","type":"uint256","internalType":"uint256"},{"name":"user","type":"address","internalType":"address"},{"name":"betIndex","type":"uint256","internalType":"uint256"}]},{"type":"error","name":"BetNotFound","inputs":[{"name":"marketId","type":"uint256","internalType":"uint256"},{"name":"user","type":"address","internalType":"address"},{"name":"betIndex","type":"uint256","internalType":"uint256"}]},{"type":"error","name":"ERC1967InvalidImplementation","inputs":[{"name":"implementation","type":"address","internalType":"address"}]},{"type":"error","name":"ERC1967NonPayable","inputs":[]},{"type":"error","name":"EnforcedPause","inputs":[]},{"type":"error","name":"ExpectedPause","inputs":[]},{"type":"error","name":"FailedInnerCall","inputs":[]},{"type":"error","name":"InvalidInitialization","inputs":[]},{"type":"error","name":"InvalidMarketId","inputs":[{"name":"marketId","type":"uint256","internalType":"uint256"}]},{"type":"error","name":"InvalidMarketState","inputs":[{"name":"marketId","type":"uint256","internalType":"uint256"},{"name":"current","type":"uint8","internalType":"enum BettingMatch.MarketState"},{"name":"required","type":"uint8","internalType":"enum BettingMatch.MarketState"}]},{"type":"error","name":"InvalidMarketType","inputs":[{"name":"marketType","type":"bytes32","internalType":"bytes32"}]},{"type":"error","name":"InvalidOddsValue","inputs":[{"name":"odds","type":"uint32","internalType":"uint32"},{"name":"min","type":"uint32","internalType":"uint32"},{"name":"max","type":"uint32","internalType":"uint32"}]},{"type":"error","name":"InvalidSelection","inputs":[{"name":"marketId","type":"uint256","internalType":"uint256"},{"name":"selection","type":"uint64","internalType":"uint64"},{"name":"maxAllowed","type":"uint8","internalType":"uint8"}]},{"type":"error","name":"LiquidityPoolNotConfigured","inputs":[]},{"type":"error","name":"MaxOddsEntriesReached","inputs":[{"name":"marketId","type":"uint256","internalType":"uint256"}]},{"type":"error","name":"NotInitializing","inputs":[]},{"type":"error","name":"OddsNotSet","inputs":[{"name":"marketId","type":"uint256","internalType":"uint256"}]},{"type":"error","name":"OwnableInvalidOwner","inputs":[{"name":"owner","type":"address","internalType":"address"}]},{"type":"error","name":"OwnableUnauthorizedAccount","inputs":[{"name":"account","type":"address","internalType":"address"}]},{"type":"error","name":"ReentrancyGuardReentrantCall","inputs":[]},{"type":"error","name":"SafeERC20FailedOperation","inputs":[{"name":"token","type":"address","internalType":"address"}]},{"type":"error","name":"StakeBelowMinimum","inputs":[{"name":"netStake","type":"uint256","internalType":"uint256"},{"name":"minimum","type":"uint256","internalType":"uint256"}]},{"type":"error","name":"USDCNotConfigured","inputs":[]},{"type":"error","name":"UUPSUnauthorizedCallContext","inputs":[]},{"type":"error","name":"UUPSUnsupportedProxiableUUID","inputs":[{"name":"slot","type":"bytes32","internalType":"bytes32"}]},{"type":"error","name":"ZeroBetAmount","inputs":[]},{"type":"error","name":"ZeroNetExposure","inputs":[{"name":"marketId","type":"uint256","internalType":"uint256"}]}],"bytecode":{"object":"0x60a08060405234620000d157306080527ff0c57e16840df040f15088dc2f81fe391c3923bec73e23a9662efc9c229c6a009081549060ff8260401c16620000c257506001600160401b036002600160401b0319828216016200007c575b604051614d6a9081620000d68239608051818181612a260152612b5c0152f35b6001600160401b031990911681179091556040519081527fc7f505b2f371ae2175ee4913f4499e1f2633a7b5936321eed1cdaeb6115181d290602090a15f80806200005c565b63f92ee8a960e01b8152600490fd5b5f80fdfe60806040526004361015610011575f80fd5b5f60e05f35811c90816301877020146137e157816301ffc9a71461378b5781630e75a18c146137565781630f5a9d01146136f057816310dc30fd146136c957816311eac855146136a157816319d0ec1f1461363b5781631a095c6e14613605578163248a9ca3146135cc5781632cfe63a5146135af5781632e71b708146135885781632f2ff15d1461353f57816336568abe146134f85781633ec79193146134775781633eccfc961461301b5781633f4ba83a14612fa657816340b16c1e14612ec8578163456051f114612d505781634644161f14612d1d5781634f1ef28614612b0c57816351858e2714612a7d57816352d1902d14612a145781635c975abb146129e657816361bd2ca914612893578163665a11ca1461286b57816367df4bfe146127875781636930fd2a146123c25781636bc98ba3146123a65781636bcaa9911461237f578163715018a61461232b57816371738f8c146122a157816375b238fc1461227a57816378fab260146122535781637ab4339d14611e0e5781637c0078a414611de757816383e2e9df14611dab5781638527d58f14611baa5781638723eccf14611b825781638d3bf36514611a885781638da5cb5b14611a5357816391d14854146119fd578163931b54661461195357816397576c6d1461190e5781639b05743f146118645781639ebfee81146117a7578163a04286e0146116e0578163a217fddf146116c4578163a4b8195c14611256578163a890c99714610de1578163ad3cb1cc14610d9b578163ae07d05114610d7e578163ae41809514610d50578163ba26901514610c65578163baa2675714610c37578163bef2a6a014610b72578163c3490263146108c9578163c6886db4146108a1578163d547741f14610853578163dd19ed0a1461082b578163e570d08414610803578163e63ab1e9146107db578163ec979082146107bd578163f014a1081461079f578163f2fde38b14610772578163f50ee3d514610558578163f6d105c2146104a257508063fa744dd31461032f5763ff40596c14610309575f80fd5b3461032c578060031936011261032c57602063ffffffff600e5416604051908152f35b80fd5b503461032c57604036600319011261032c576004359061034d61385d565b9161035781613c0f565b81526004602090815260408083206001600160a01b039094165f90815293825290922080546001600160401b039384821161048e579290604051906103a1858260051b01836138f5565b8082528482018094845285842084915b83831061042c57505050506040519380850191818652518092526040850193925b8281106103df5785850386f35b8351805186528083015188168684015260408082015161ffff169087015260608082015164ffffffffff169087015260809081015115159086015260a090940193928101926001016103d2565b60028860019260409a97989a51610442816138ac565b8554815260ff8d868801549081168584015261ffff8160401c16604084015264ffffffffff8160501c16606084015260781c1615156080820152815201920192019190969493966103b1565b634e487b7160e01b84526041600452602484fd5b905034610554576020366003190112610554576004356104c181613c0f565b808352603260205260408084209360056020522060016104e1855461467a565b9401549163ffffffff60016104f7845493613c68565b9301549260ff61051160405198888a998a52890190613a05565b958060010b602089015260101c1660408701526105346060870160ff851661389f565b16608085015260081c6001600160401b031660a084015260c08301520390f35b5080fd5b905034610554576020908160031936011261076e579060043561057a81613c0f565b83526003815280604084209260405180938491818754918281520190819789528289209489915b8060078401106106fd57610601965492858282106106e7575b8282106106cf575b8282106106b6575b82821061069d575b828210610684575b82821061066b575b828210610652575b5010610645575b50509050959294939503856138f5565b60405193838594850191818652518092526040850193925b82811061062857505050500390f35b835163ffffffff1685528695509381019392810192600101610619565b1c81520183905f806105f1565b6001919563ffffffff8660c01c168152019401856105ea565b6001919563ffffffff8660a01c168152019401856105e2565b6001919563ffffffff8660801c168152019401856105da565b6001919563ffffffff8660601c168152019401856105d2565b6001919563ffffffff8660401c168152019401856105ca565b6001919563ffffffff86831c168152019401856105c2565b6001919563ffffffff86168152019401856105ba565b926008929550600191945061010090875463ffffffff808216835280828c1c168b840152808260401c16604084015260608183821c169084015260808183821c169084015260a08183821c169084015260c09082821c1690830152861c8682015201950193018592879495926105a1565b8280fd5b823461032c57602036600319011261032c5761079c61078f613847565b61079761461a565b613b06565b80f35b823461032c578060031936011261032c576020604051620f42408152f35b823461032c578060031936011261032c576020600254604051908152f35b823461032c578060031936011261032c5760206040515f80516020614b758339815191528152f35b823461032c578060031936011261032c5760206040515f80516020614bf58339815191528152f35b823461032c578060031936011261032c5760206040515f80516020614a758339815191528152f35b823461032c57604036600319011261032c5761089d60043561087361385d565b908084525f80516020614bd58339815191526020526108986001604086200154613be1565b614128565b5080f35b823461032c578060031936011261032c5760206040515f80516020614cf58339815191528152f35b823461032c576108d836613873565b906108e16145eb565b6108ea81613c0f565b805f5260206005815260ff60405f2054166006811015610b5e5760048103610b3057506109156141f0565b8184526004815260408420335f52815260405f208054841015610b10578361093c91613aa3565b5090600182019182549260ff8460781c16610af3578487526005835260408720546001600160401b03929060081c831685841603610ad257906109f68893926127106109a161099261ffff8a60401c168b614652565b63ffffffff8454911690613a2a565b0496600160781b9060ff60781b191617835587855260088652604085206109c9888254613a51565b90558785526009865260408520848454165f52865260405f206109ed888254613a51565b90555486613a51565b91868452600a855260408420610a0d848254613a51565b9055868452600b8552604084209154165f52835260405f20610a30828254613a51565b90556007546001600160a01b0316803b1561076e57604051631fabc62960e31b81529183918391829084908290610a6e908b338e3060048701613ad9565b03925af18015610ac757610aaf575b50506040519384528301525f80516020614cd583398151915260403393a360015f80516020614c558339815191525580f35b610ab8906138c7565b610ac3578486610a7d565b8480fd5b6040513d84823e3d90fd5b604051638bf5a6c560e01b815280610aef89338a60048501613a82565b0390fd5b6040516308c52d4160e11b815280610aef88338960048501613a82565b5050610aef604051928392635b834b8f60e11b8452339060048501613a82565b6040516327c6314f60e11b815260048101849052606491610b5590602483019061389f565b60046044820152fd5b634e487b7160e01b5f52602160045260245ffd5b823461032c578060031936011261032c576040515f60018260015492610b97846139ac565b92838352602094856001821691825f14610c17575050600114610bda575b50610bc2925003836138f5565b610bd6604051928284938452830190613a05565b0390f35b84915060015f52815f20905f915b858310610bff575050610bc2935082010185610bb5565b80548389018501528794508693909201918101610be8565b60ff191685820152610bc295151560051b8501019250879150610bb59050565b823461032c57602036600319011261032c5761079c600435610c5881613c0f565b610c60613b64565b6142b3565b823461032c57606036600319011261032c57600435610c8261385d565b604060443593610c9184613c0f565b83815260046020522060018060a01b0382165f5260205260405f20908154841015610d32575060c092610cc391613aa3565b509060ff63ffffffff610ce360018501549361ffff8560401c1690614652565b9354931691612710610cf58486613a2a565b049260405194855260018060401b0382166020860152604085015264ffffffffff8160501c16606085015260781c161515608083015260a0820152f35b82610aef85604051938493635b834b8f60e11b855260048501613a82565b823461032c57602036600319011261032c5761079c600435610d7181613c0f565b610d79613b64565b614227565b823461032c578060031936011261032c5760206040516127118152f35b823461032c578060031936011261032c57610bd6604051610dbb816138da565b60058152640352e302e360dc1b6020820152604051918291602083526020830190613a05565b823461032c57606036600319011261032c57602435604435610e016145eb565b610e0c600435613c0f565b610e146141f0565b6004358352600560205260ff604084205416600681101561124257600481141580611237575b61121157506004358352600460205260408320335f5260205260405f2054908181115f1461120a57505b808210610e81575b8260015f80516020614c558339815191525580f35b6004355f52600560205260405f2091600460205260405f20335f5260205260405f20905b828110610eb3575050610e6c565b610ebd8183613aa3565b5090600182015460ff8160781c1661107d578554600660ff82161015610b5e57600460ff821614806111f0575b1561106f575050600182015491610f0a61ffff8460401c16600435614652565b90610f2b612710610f2363ffffffff8454951685613a2a565b049283613a51565b60ff60781b19909416600160781b1760018201556004355f9081526008602052604090208054610f5c908490613a51565b90556004355f52600960205260405f2060018060401b0390816001840154165f5260205260405f20610f8f848254613a51565b90556004355f52600a60205260405f20610faa868254613a51565b90556004355f52600b602052600160405f20920154165f5260205260405f20610fd4848254613a51565b90556007546001600160a01b0316803b1561106b576110135f94918592604051968780948193631fabc62960e31b835288336004353060048701613ad9565b03925af192831561106057600193611051575b5060405190828252602082015233905f80516020614cd5833981519152604060043592a35b01610ea5565b61105a906138c7565b87611026565b6040513d5f823e3d90fd5b5f80fd5b90929060ff16600514611087575b506001915061104b565b61109a61ffff8460401c16600435614652565b906127106110b063ffffffff8354941684613a2a565b046110bb8382613a51565b60ff60781b19909516600160781b1760018301556004355f90815260086020526040902080546110ec908390613a51565b90556004355f52600960205260405f209060018060401b0391826001850154165f5260205261112060405f20918254613a51565b90556004355f52600a60205260405f2061113b868254613a51565b90556004355f52600b602052600160405f20920154165f5260205260405f20611165848254613a51565b90556007546001600160a01b0316803b1561106b576111a45f949185926040519687809481936321d2aaf360e11b835288336004353060048701613ad9565b03925af1928315611060576001936111e1575b5060405190828252602082015233905f80516020614b15833981519152604060043592a38661107d565b6111ea906138c7565b876111b7565b506001600160401b03828116600883901c90911614610eea565b9050610e64565b6040516327c6314f60e11b81526004803590820152606491610b5590602483019061389f565b506005811415610e3a565b634e487b7160e01b84526021600452602484fd5b823461032c57606036600319011261032c57600435611273613889565b9060443561128082613c0f565b611289826141a7565b6112916141f0565b6007545f936001600160a01b039182169283156116b25780156116a057845f526020936003855260405f2090600282019061ffff928383541615611688576112d9868a6147fd565b866006541680156116765761132f5f806040518c8101906323b872dd60e01b8252602497338983015260448201528a60648201526064815261131a816138ac565b519082865af1611328614922565b9083614951565b80518a8115159182611655575b5050905061163e5750620186a0808610611621575063ffffffff61136d858554169261136784613c34565b90613c47565b90549060031b1c16966127106113838988613a2a565b0461138e8782613a51565b928315611609578b5f5260048b5260405f20335f528b5260405f20604051916113b6836138ac565b8983528c83019260018060401b03809c169b8c855260408201928352606082019164ffffffffff4216835260808101945f8652805490600160401b8210156115f6579061140891600182018155613aa3565b9190916115e457518155945160019095018054935192516001600160781b0319909416959091169490941760409190911b61ffff60401b161760509190911b64ffffffffff60501b16178255516114629190151590613abc565b8a5f5260058a52600160405f200161147b88825461421a565b90558a5f5260088a5260405f2061149382825461421a565b90558a5f5260098a5260405f20885f528a526114b460405f2091825461421a565b9055895f52600a895260405f206114cc83825461421a565b9055895f52600b895260405f20875f52895260405f206114ed83825461421a565b9055895f52600c895260405f2061150587825461421a565b9055895f52600d895260405f20875f52895260405f2061152687825461421a565b905560075416803b1561106b5761155c915f9187838d60405196879586948593631613163360e11b855233903060048701613ad9565b03925af18015611060576115d1575b508789526004875260408920335f52875260405f2054985f198a01998a116115c05750505416936040519687528601526040850152606084015260808301525f80516020614c3583398151915260a03393a380f35b634e487b7160e01b81526011600452fd5b6115dc9199506138c7565b5f978a61156b565b8a634e487b7160e01b5f525f6004525ffd5b8b634e487b7160e01b5f5260416004525ffd5b604051631a048a7f60e11b8152600481018d90528590fd5b8560449184604051926378e030db60e01b84526004840152820152fd5b905060405190635274afe760e01b82526004820152fd5b838092935001031261106b5789015180159081150361106b57808a8f61133c565b604051639554dd1160e01b8152600490fd5b60405162bc17d160e31b8152600481018a9052602490fd5b604051630813eb4360e01b8152600490fd5b60405163b8b5ff1560e01b8152600490fd5b823461032c578060031936011261032c57602090604051908152f35b823461032c57604036600319011261032c576001600160401b0360043581811161076e5761171290369060040161397c565b602435838111610ac35761172a90369060040161397c565b9091611734613b99565b81810361179557855b818110611748578680f35b61175c611756828488613a5e565b35613c0f565b611767818387613a5e565b3590611774818587613a5e565b359187831683036117915760019261178b91613cef565b0161173d565b8880fd5b60405163512509d360e11b8152600490fd5b823461032c57602036600319011261032c5760043563ffffffff80821680920361106b576117d3613b64565b8115158061184d575b611823577f93e70e5656ae122d798afc18b8341c8562c767d894018b7e4b1f34d319507c6f6040600e549281519084168152846020820152a163ffffffff191617600e5580f35b604051637231c80760e01b8152600481018390526127116024820152620f42406044820152606490fd5b506127118210806117dc5750620f424082116117dc565b823461032c57602080600319360112610554576004356001600160401b03811161076e5761189690369060040161397c565b91906118a0613b64565b835b8381106118ad578480f35b6118b8818584613a5e565b356118c281613c0f565b8086526005845260ff60408720541660068110156118fa57906001809392146118f4576118ee906142b3565b016118a2565b506118ee565b634e487b7160e01b87526021600452602487fd5b823461032c57602036600319011261032c576040606091600435815260326020522060ff600182549201546040519283528060010b602084015260101c166040820152f35b823461032c57602036600319011261032c5760043561197181613c0f565b611979613b64565b805f52600560205260405f2080549060ff8216916006831015610b5e57600183036119d05760ff19166002179055604080515f80516020614b55833981519152926119c590829061389f565b60026020820152a280f35b6040516327c6314f60e11b8152600481018590526064906119f4602482018661389f565b60026044820152fd5b823461032c57604036600319011261032c576040611a1961385d565b9160043581525f80516020614bd5833981519152602052209060018060a01b03165f52602052602060ff60405f2054166040519015158152f35b823461032c578060031936011261032c575f80516020614a35833981519152546040516001600160a01b039091168152602090f35b823461032c57602080600319360112610554576004356001600160401b03811161076e57611aba90369060040161397c565b611ac5929192613b64565b835b818110611ad2578480f35b611add818386613a5e565b3590611ae882613c0f565b81865260059182855260ff60408820541660068110159384611b6e5760038214918215611b60575b8215611b36575b505060019350611b3057611b2a90614227565b01611ac7565b50611b2a565b9150919293611b4c576001939291148880611b17565b634e487b7160e01b88526021600452602488fd5b5f9550600481149250611b10565b634e487b7160e01b89526021600452602489fd5b823461032c578060031936011261032c5760206040515f80516020614a158339815191528152f35b823461106b57611bb936613873565b90611bc26145eb565b611bcb81613c0f565b805f5260206005815260ff60405f2054166006811015610b5e5760058103611d7d5750815f526004815260405f20335f52815260405f208054841015610b105783611c1591613aa3565b5090600182019182549060ff8260781c16610af3575492612710611c4f63ffffffff611c4861ffff8660401c1689614652565b1686613a2a565b04611c5a8582613a51565b60ff60781b19909316600160781b1782555f86815260088552604090208054611c84908390613a51565b9055855f526009845260405f209060018060401b0391828454165f528552611cb160405f20918254613a51565b9055855f52600a845260405f20611cc9848254613a51565b9055855f52600b845260405f209154165f52825260405f20611cec828254613a51565b90556007546001600160a01b0316803b1561106b576040516321d2aaf360e11b8152915f918391829084908290611d2a908a338d3060048701613ad9565b03925af1801561106057611d6a575b506040519384528301525f80516020614b1583398151915260403393a360015f80516020614c558339815191525580f35b611d759195506138c7565b5f9385611d39565b6040516327c6314f60e11b815260048101849052606491611da290602483019061389f565b60056044820152fd5b3461106b57606036600319011261106b57611dc4613969565b6044358060010b810361106b57611de591611ddd613b64565b600435614452565b005b3461106b575f36600319011261106b5760206040515f80516020614b358339815191528152f35b3461106b57604036600319011261106b576001600160401b0360043581811161106b573660238201121561106b57611e50903690602481600401359101613933565b90611e5961385d565b915f80516020614cb58339815191529283549160ff8360401c1615918484169384158061224c575b60018096149081612242575b159081612239575b50612227576001600160401b03198116851787558361220c575b5060405191611ebd836138da565b60088352602095671193d3d51090531360c21b87850152611edc6148f4565b611ee46148f4565b611eec6148f4565b611ef583613b06565b611efd6148f4565b611f056148f4565b611f0d6148f4565b611f156148f4565b855f80516020614c5583398151915255611f2d6148f4565b611f356148f4565b5f80516020614c15833981519152805460ff19169055611f5483613ec0565b50611f5e83613f31565b50611f6883613fb8565b50611f7283614038565b50815181811161214d57611f865f546139ac565b90601f918281116121c9575b50808983821160011461216c575f91612161575b505f19600383901b1c191690881b175f555b845191821161214d57611fcb87546139ac565b81811161210a575b5087908211600114612093575f80516020614bb5833981519152928261204893612023935f91612088575b505f19600383901b1c191690891b1788555b88604051928284809451938492016139e4565b81010390206040518881526001600160a01b0390941694909391829189830190613a05565b0390a361205157005b825460ff60401b19169092556040519182527fc7f505b2f371ae2175ee4913f4499e1f2633a7b5936321eed1cdaeb6115181d291a1005b90508701518c611ffe565b908691601f19821690835f52895f20915f5b8b8282106120f4575050925f80516020614bb5833981519152959261204895928261202396106120dc575b5050811b018855612010565b8901515f1960f88460031b161c191690558c806120d0565b838a015185558b969094019392830192016120a5565b875f52885f208280850160051c8201928b8610612144575b0160051c019088905b828110612139575050611fd3565b5f815501889061212b565b92508192612122565b634e487b7160e01b5f52604160045260245ffd5b90508401518b611fa6565b899250601f198216905f80528b5f20915f5b8d8282106121b3575050831161219b575b5050811b015f55611fb8565b8601515f1960f88460031b161c191690558b8061218f565b838a015185558d9690940193928301920161217e565b5f8052895f208380840160051c8201928c8510612203575b0160051c019089905b8281106121f8575050611f92565b5f81550189906121ea565b925081926121e1565b6001600160481b0319166001600160401b0117865586611eaf565b60405163f92ee8a960e01b8152600490fd5b90501588611e95565b303b159150611e8d565b5083611e81565b3461106b575f36600319011261106b5760206040515f805160206149d58339815191528152f35b3461106b575f36600319011261106b5760206040515f80516020614c758339815191528152f35b3461106b575f36600319011261106b576040515f805490826122c2836139ac565b91828252602093600190856001821691825f14610c175750506001146122ef5750610bc2925003836138f5565b8491505f8052815f20905f915b858310612313575050610bc2935082010185610bb5565b805483890185015287945086939092019181016122fc565b3461106b575f36600319011261106b5761234361461a565b5f80516020614a3583398151915280546001600160a01b031981169091555f906001600160a01b03165f80516020614b958339815191528280a3005b3461106b575f36600319011261106b5760206040515f80516020614a558339815191528152f35b3461106b575f36600319011261106b5760206040516127108152f35b3461106b5760208060031936011261106b57600435906123e06145eb565b6123e982613c0f565b6123f16141f0565b815f526005906005815260ff9260ff60405f2054166006906006811015610b5e5760048114158061277c575b610b305750815f526004835260405f20335f52835260405f20549384612451575b60015f80516020614c5583398151915255005b825f526005845260405f20906004855260405f20335f52855260405f205f5b87811061247f5750505061243e565b6124898183613aa3565b5090600182019182548b8160781c1661260d5786548c811689811015610b5e578791600482149081612762575b5015612604575050508254926124ec612710610f2363ffffffff6124e28d61ffff8a60401c1690614652565b9554951685613a2a565b60ff60781b19909416600160781b1781555f89815260088b52604090208054612516908490613a51565b9055885f5260098a5260405f2060018060401b0390818354165f528b5260405f20612542848254613a51565b9055895f52600a8b5260405f2061255a868254613a51565b9055895f52600b8b5260405f209154165f52895260405f2061257d848254613a51565b90556007546001600160a01b0316803b1561106b576125bb935f9183838c60405198899586948593631fabc62960e31b855233903060048701613ad9565b03925af1928315611060576001936125f5575b506040519082825289820152875f80516020614cd583398151915260403393a35b01612470565b6125fe906138c7565b8b6125ce565b94919414612618575b5050600191506125ef565b61271061263e63ffffffff61263461ffff8860401c168d614652565b9454941684613a2a565b046126498382613a51565b60ff60781b19909516600160781b1782555f8a815260088c52604090208054612673908390613a51565b9055895f5260098b5260405f209060018060401b0391828454165f528c526126a060405f20918254613a51565b9055895f52600a8b5260405f206126b8868254613a51565b9055895f52600b8b5260405f209154165f52895260405f206126db848254613a51565b90556007546001600160a01b0316803b1561106b57612719935f9183838c604051988995869485936321d2aaf360e11b855233903060048701613ad9565b03925af192831561106057600193612753575b506040519082825289820152875f80516020614b1583398151915260403393a38a8061260d565b61275c906138c7565b8b61272c565b60081c6001600160401b039081169085161490508f6124b6565b50600581141561241d565b3461106b57606036600319011261106b576001600160401b0360043581811161106b576127b890369060040161397c565b909160243581811161106b576127d290369060040161397c565b92909160443590811161106b576127ed90369060040161397c565b9190946127f8613b64565b848214801590612861575b611795575f5b82811061281257005b61281d818484613a5e565b359061282a818888613a5e565b359163ffffffff8316830361106b5761284482878b613a5e565b358060010b810361106b5760019361285b92614452565b01612809565b5082821415612803565b3461106b575f36600319011261106b576007546040516001600160a01b039091168152602090f35b3461106b57604036600319011261106b576004356128af613969565b6128b882613c0f565b335f9081525f80516020614c9583398151915260205260409020545f80516020614d158339815191529060ff16156129c857506128f48161433d565b815f52600560205260ff60405f2054166006811015610b5e576001811415806129bf575b612991575060607f4574f9eec81dc6826c2d5b08e1292b2b3ad2700b73ad81bb4f24bf90f8296ce191835f52600360205260405f2061295685613c68565b61ffff600261296585896143a5565b93019216918261ffff198254161790556040519263ffffffff80921684521660208301526040820152a2005b6040516327c6314f60e11b8152600481018490526064916129b690602483019061389f565b60016044820152fd5b50801515612918565b6044906040519063e2517d3f60e01b82523360048301526024820152fd5b3461106b575f36600319011261106b57602060ff5f80516020614c1583398151915254166040519015158152f35b3461106b575f36600319011261106b577f00000000000000000000000000000000000000000000000000000000000000006001600160a01b03163003612a6b5760206040515f80516020614ad58339815191528152f35b60405163703e46dd60e11b8152600490fd5b3461106b575f36600319011261106b57335f9081525f80516020614af583398151915260205260409020545f80516020614b758339815191529060ff16156129c857612ac76141f0565b5f80516020614c15833981519152600160ff198254161790557f62e78cea01bee320cd4e420270b5ea74000d11b0c9f74754ebdbfc544b05a2586020604051338152a1005b604036600319011261106b57612b20613847565b60249081356001600160401b03811161106b573660238201121561106b57612b519036908481600401359101613933565b6001600160a01b03917f00000000000000000000000000000000000000000000000000000000000000008316308114908115612d02575b50612a6b57335f9081525f80516020614ab5833981519152602090815260409091205490939060ff1615612ce5578116926040516352d1902d60e01b81528181600481885afa5f9181612cb6575b50612bf357604051634c9c8ce360e01b8152600481018690528690fd5b8490865f80516020614ad583398151915291828103612ca15750843b15612c8b575080546001600160a01b03191682179055604051907fbc7cd75a20ee27fd9adebab32041f755214dbc6bffa90cc0225b39da2e5c2d3b5f80a2835115612c7157505f838192611de595519101845af4612c6b614922565b91614951565b9250505034612c7c57005b63b398979f60e01b8152600490fd5b604051634c9c8ce360e01b815260048101849052fd5b60405190632a87526960e21b82526004820152fd5b9091508281813d8311612cde575b612cce81836138f5565b8101031261106b57519087612bd6565b503d612cc4565b60405163e2517d3f60e01b81523360048201525f81870152604490fd5b9050835f80516020614ad58339815191525416141585612b88565b3461106b57602036600319011261106b57600435612d3a81613c0f565b5f526008602052602060405f2054604051908152f35b3461106b57604036600319011261106b576001600160401b036004356024803583811161106b573660238201121561106b57806004013593841161106b573682858301011161106b57612da283613c0f565b612daa613b64565b825f52600560205260405f209384549460ff861695600687101580612eb55760018814159081612ea8575b81612e84575b50612e6157945f80516020614b55833981519152604082988196959460057f4c4561c5b0048424071c1115e9f1e325486e21c21333d968f21097b7b72d12ad9a60ff1916179055612e2e8251809261389f565b60056020820152a28083519485936020855282602086015201848401375f828201840152601f01601f19168101030190a2005b6040516327c6314f60e11b815260048101879052606490611da28188018a61389f565b9050612e9557600387141588612ddb565b84634e487b7160e01b5f5260216004525ffd5b505060028714155f612dd5565b85634e487b7160e01b5f5260216004525ffd5b3461106b57602036600319011261106b576004355f6080604051612eeb816138ac565b8281528260208201528260408201528260608201520152612f0b81613c0f565b5f52600560205260405f2060405190612f23826138ac565b80549160ff8316916006831015610b5e5760a09383835260018060401b03916020840190838360081c16825264ffffffffff938492608060016040890194868860481c1686528660608b019860701c16885201549701968752612f89604051809961389f565b511660208701525116604085015251166060830152516080820152f35b3461106b575f36600319011261106b57612fbe613b64565b5f80516020614c15833981519152805460ff8116156130095760ff191690557f5db9ee0a495bf2e6ff9c91a7834c1ba4fdd244a5e8aa4e537bd38aeae4b073aa6020604051338152a1005b604051638dfc202b60e01b8152600490fd5b3461106b57608036600319011261106b57613034613847565b604435906001600160401b038216820361106b57613053602435613c0f565b61305e6024356141a7565b6130666141f0565b335f9081527fe8b78168ec8e2131dc4e1d7c2dfefc344af84453ab10dcca54b267514c8ca32260205260409020545f80516020614cf58339815191529060ff16156129c857506007545f92906001600160a01b0316156116b257606435156116a0576024355f52600360205260405f2061ffff60028201541690811561345f576130f2836024356147fd565b620186a0806064351061343f575063ffffffff61311761311184613c34565b83613c47565b90549060031b1c169161271061312f84606435613a2a565b0461313c60643582613a51565b918215613426576024355f52600460205260405f2060018060a01b0388165f5260205260405f2060405191613170836138ac565b60643583526001600160401b038816602084015260408301524264ffffffffff1660608301525f60808301528054600160401b81101561214d576131b991600182018155613aa3565b91909161341357608060016132199383518155019160018060401b0360208201511683549061ffff60401b604084015160401b169064ffffffffff60501b606085015160501b169260018060781b03191617171783550151151590613abc565b6024355f526005602052600160405f2001613237606435825461421a565b90556024355f52600860205260405f2061325282825461421a565b90556024355f52600960205260405f2060018060401b0386165f5260205261327f60405f2091825461421a565b90556024355f52600a60205260405f2061329a82825461421a565b90556024355f52600b60205260405f2060018060401b0385165f5260205260405f206132c782825461421a565b90556024355f52600c60205260405f206132e4606435825461421a565b90556024355f52600d60205260405f2060018060401b0385165f5260205260405f20613313606435825461421a565b90556007546001600160a01b0316803b1561106b57604051631613163360e11b8152915f918391829084908290613355906064358d6024353060048701613ad9565b03925af1801561106057613400575b5060243585526004602090815260408087206001600160a01b0387165f90815292529020545f198101959086116133ec5750600201546040805195865260643560208701526001600160401b0390931692850192909252606084015261ffff1660808301526001600160a01b031690602435905f80516020614c358339815191529060a090a3005b634e487b7160e01b81526011600452602490fd5b61340b9195506138c7565b5f9385613364565b634e487b7160e01b5f525f60045260245ffd5b604051631a048a7f60e11b815260248035600483015290fd5b604490604051906378e030db60e01b825260643560048301526024820152fd5b60405162bc17d160e31b815260248035600483015290fd5b3461106b57602036600319011261106b5760a060043561349681613c0f565b805f52603260205260405f20600560205260405f2090549163ffffffff60016134c0845493613c68565b930154926040519485526134da6020860160ff851661389f565b16604084015260081c6001600160401b031660608301526080820152f35b3461106b57604036600319011261106b5761351161385d565b336001600160a01b0382160361352d57611de590600435614128565b60405163334bd91960e11b8152600490fd5b3461106b57604036600319011261106b57611de560043561355e61385d565b90805f525f80516020614bd5833981519152602052613583600160405f200154613be1565b6140b8565b3461106b575f36600319011261106b5760206040515f80516020614a958339815191528152f35b3461106b575f36600319011261106b576020604051620186a08152f35b3461106b57602036600319011261106b576004355f525f80516020614bd58339815191526020526020600160405f200154604051908152f35b3461106b57604036600319011261106b57611de5600435613624613889565b9061362e81613c0f565b613636613b99565b613cef565b3461106b5761364936613873565b9061365381613c0f565b63ffffffff61366182613c68565b1690811561368a5760206136828461271061367c8683613a2a565b04613a51565b604051908152f35b6024906040519062bc17d160e31b82526004820152fd5b3461106b575f36600319011261106b576006546040516001600160a01b039091168152602090f35b3461106b575f36600319011261106b5760206040515f80516020614d158339815191528152f35b3461106b57602036600319011261106b57613709613847565b613711613b64565b600680546001600160a01b0319166001600160a01b039290921691821790557f9317e3e59b11620f482b4bb292374da6e5cb9e7ef23cf3f121cacca9a5428f785f80a2005b3461106b57602036600319011261106b57602061377d60043561377881613c0f565b613c68565b63ffffffff60405191168152f35b3461106b57602036600319011261106b5760043563ffffffff60e01b811680910361106b57602090637965db0b60e01b81149081156137d0575b506040519015158152f35b6301ffc9a760e01b149050826137c5565b3461106b57602036600319011261106b576137fa613847565b613802613b64565b600780546001600160a01b0319166001600160a01b039290921691821790557fe57f71636571365571c0eaeaeb54e1d9e0065804f056a57a2a29448524f7d18a5f80a2005b600435906001600160a01b038216820361106b57565b602435906001600160a01b038216820361106b57565b604090600319011261106b576004359060243590565b602435906001600160401b038216820361106b57565b906006821015610b5e5752565b60a081019081106001600160401b0382111761214d57604052565b6001600160401b03811161214d57604052565b604081019081106001600160401b0382111761214d57604052565b601f909101601f19168101906001600160401b0382119082101761214d57604052565b6001600160401b03811161214d57601f01601f191660200190565b92919261393f82613918565b9161394d60405193846138f5565b82948184528183011161106b578281602093845f960137010152565b6024359063ffffffff8216820361106b57565b9181601f8401121561106b578235916001600160401b03831161106b576020808501948460051b01011161106b57565b90600182811c921680156139da575b60208310146139c657565b634e487b7160e01b5f52602260045260245ffd5b91607f16916139bb565b5f5b8381106139f55750505f910152565b81810151838201526020016139e6565b90602091613a1e815180928185528580860191016139e4565b601f01601f1916010190565b81810292918115918404141715613a3d57565b634e487b7160e01b5f52601160045260245ffd5b91908203918211613a3d57565b9190811015613a6e5760051b0190565b634e487b7160e01b5f52603260045260245ffd5b9081526001600160a01b039091166020820152604081019190915260600190565b8054821015613a6e575f5260205f209060011b01905f90565b805460ff60781b191691151560781b60ff60781b16919091179055565b919594939060809360a084019760018060a01b038093168552602085015216604083015260608201520152565b6001600160a01b03908116908115613b4c575f80516020614a3583398151915280546001600160a01b031981168417909155165f80516020614b958339815191525f80a3565b604051631e4fbdf760e01b81525f6004820152602490fd5b335f9081525f805160206149f583398151915260205260409020545f80516020614c758339815191529060ff16156129c85750565b335f9081527f756534422b3cb82a54d88d2dca71cfb1a3297222856e6ddc952d9ca5a7fc4b8860205260409020545f805160206149d58339815191529060ff16156129c85750565b805f525f80516020614bd583398151915260205260405f20335f5260205260ff60405f205416156129c85750565b600254811015613c1c5750565b6024906040519063113b162160e31b82526004820152fd5b61ffff9081165f190191908211613a3d57565b9190918054831015613a6e575f52601c60205f208360031c019260021b1690565b5f52600360205260405f2061ffff6002820154168015613c9f5763ffffffff91611367613c9492613c34565b90549060031b1c1690565b50505f90565b8054610100600160481b03191660089290921b610100600160481b0316919091179055565b805464ffffffffff60701b191660709290921b64ffffffffff60701b16919091179055565b919091805f5260209260058452604090815f209460ff8654166006811015610b5e5760038103613e935750613d2482856147fd565b613d2e8287613ca5565b64ffffffffff613d4081421688613cca565b865460ff191660041787555f858152600a835284812054600b84528582206001600160401b039095168083529484529085902054613d7d91613a51565b96855f5260088352613da2855f205460098552865f20865f528552865f205490613a51565b97865f52600c8452613dc7865f2054600d8652875f20875f528652875f205490613a51565b98875f52600a8552865f20613ddd838254613a51565b9055875f5260088552613df4875f20918254613a51565b90556007546001600160a01b031698893b1561106b5760845f928389519c8d9485936309da1e8d60e21b85523060048601528d6024860152604485015260648401525af1978815613e89577f64ee7dc32a3ab72dbd217f88cab8b17f7d9024f6d8bd70a962cd5f1cbd10abaf969798613e7a575b505460701c16908351928352820152a2565b613e83906138c7565b5f613e68565b85513d5f823e3d90fd5b83516327c6314f60e11b815260048101869052606491613eb790602483019061389f565b60036044820152fd5b6001600160a01b03165f8181525f80516020614ab583398151915260205260409020545f80516020614bd58339815191529060ff16613c9f575f805260205260405f20815f5260205260405f20600160ff1982541617905533905f5f805160206149b58339815191528180a4600190565b6001600160a01b03165f8181525f805160206149f583398151915260205260409020545f80516020614c7583398151915291905f80516020614bd58339815191529060ff16613fb157825f5260205260405f20815f5260205260405f20600160ff1982541617905533915f805160206149b58339815191525f80a4600190565b5050505f90565b6001600160a01b03165f8181525f80516020614af583398151915260205260409020545f80516020614b7583398151915291905f80516020614bd58339815191529060ff16613fb157825f5260205260405f20815f5260205260405f20600160ff1982541617905533915f805160206149b58339815191525f80a4600190565b6001600160a01b03165f8181525f80516020614c9583398151915260205260409020545f80516020614d1583398151915291905f80516020614bd58339815191529060ff16613fb157825f5260205260405f20815f5260205260405f20600160ff1982541617905533915f805160206149b58339815191525f80a4600190565b90815f525f80516020614bd58339815191528060205260405f209160018060a01b031691825f5260205260ff60405f205416155f14613fb157825f5260205260405f20815f5260205260405f20600160ff1982541617905533915f805160206149b58339815191525f80a4600190565b90815f525f80516020614bd58339815191528060205260405f209160018060a01b031691825f5260205260ff60405f2054165f14613fb157825f5260205260405f20815f5260205260405f2060ff19815416905533917ff6391f5c32d9c69d2a47ea670b442974b53935d1edc7fd64eb21e047a839171b5f80a4600190565b805f52600560205260ff60405f2054166006811015610b5e57600181036141cc575050565b906129b6606492604051926327c6314f60e11b84526004840152602483019061389f565b60ff5f80516020614c15833981519152541661420857565b60405163d93c066560e01b8152600490fd5b91908201809211613a3d57565b805f52600560205260405f2080549060ff8216916006831015610b5e576001831415806142a8575b6142845760ff19166003179055604080515f80516020614b558339815191529261427a90829061389f565b60036020820152a2565b6040516327c6314f60e11b815260048101859052606490613eb7602482018661389f565b50600283141561424f565b805f52600560205260405f2080549060ff8216916006831015610b5e5782151580614332575b61430e5760ff19166001179055604080515f80516020614b558339815191529261430490829061389f565b60016020820152a2565b6040516327c6314f60e11b8152600481018590526064906129b6602482018661389f565b5060028314156142d9565b63ffffffff8080600e541680155f1461439f5750620f4240925b16916127118084108015614394575b6143705750505050565b6064945060405193637231c80760e01b855260048501526024840152166044820152fd5b508282168411614366565b92614357565b919091805f52600360205260405f2090600182019163ffffffff80951694855f528360205261ffff928360405f20541680614449575082549061fffe8210156144315750600160401b81101561214d578060016144059201845583613c47565b819291549060031b9188831b921b19161790555416925f5260205260405f208261ffff19825416179055565b60249060405190634d3deb8160e01b82526004820152fd5b96505050505050565b909161445d8361433d565b6144668261484c565b91600254935f198514613a3d576001850160025564ffffffffff93604092835194614490866138ac565b5f8652602095868101975f8952868201908042168252606083015f815260808401915f83528c5f5260058b52895f209451916006831015610b5e5760019461451b9360ff801989541691161787556144f2868060401b039e8f90511688613ca5565b51865464ffffffffff60481b191660489190911b64ffffffffff60481b16178655511684613cca565b5191015584519260608401978489109089111761214d5760016145c7947f4a21a24162d65cb7c74d895d7c8c53745fcf2fddf8d714fc764cf32c34f2968899885284815288810193820b845260ff888201931683528a5f5260328952875f20905181550191519061ffff62ff00008454925160101b1692169062ffffff1916171790556145a883886143a5565b50865f52600385526002845f2001600161ffff1982541617905561467a565b9263ffffffff6145e08451958587968752860190613a05565b9216908301520390a2565b5f80516020614c5583398151915260028154146146085760029055565b604051633ee5aeb560e01b8152600490fd5b5f80516020614a35833981519152546001600160a01b0316330361463a57565b60405163118cdaa760e01b8152336004820152602490fd5b61ffff821615613c9f5763ffffffff91613c94915f52600360205261136760405f2091613c34565b5f80516020614a1583398151915281146147da575f80516020614bf583398151915281146147b2575f80516020614a75833981519152811461478b575f80516020614b358339815191528114614766575f80516020614a55833981519152811461473c575f80516020614a9583398151915214614714576040516146fd816138da565b60078152662aa725a727aba760c91b602082015290565b604051614720816138da565b600c81526b2324a929aa2fa9a1a7a922a960a11b602082015290565b50604051614749816138da565b600d81526c434f52524543545f53434f524560981b602082015290565b50604051614773816138da565b600881526748414c4654494d4560c01b602082015290565b50604051614798816138da565b600a815269424f54485f53434f524560b01b602082015290565b506040516147bf816138da565b600b81526a11d3d05314d7d513d5105360aa1b602082015290565b506040516147e7816138da565b60068152652ba4a72722a960d11b602082015290565b90815f52603260205260ff600160405f20015460101c169060018060401b031681811161482957505050565b60649350604051926382a2dff360e01b8452600484015260248301526044820152fd5b5f80516020614a1583398151915281146148e8575f80516020614bf583398151915281146148ee575f80516020614a7583398151915281146148ee575f80516020614b3583398151915281146148e8575f80516020614a5583398151915281146148e2575f80516020614a9583398151915281146148dc5760249060405190630d330d2760e01b82526004820152fd5b5060ff90565b50606390565b50600290565b50600190565b60ff5f80516020614cb58339815191525460401c161561491057565b604051631afcd79f60e31b8152600490fd5b3d1561494c573d9061493382613918565b9161494160405193846138f5565b82523d5f602084013e565b606090565b90614978575080511561496657805190602001fd5b604051630a12f52160e11b8152600490fd5b815115806149ab575b614989575090565b604051639996b31560e01b81526001600160a01b039091166004820152602490fd5b50803b1561498156fe2f8788117e7eff1d82e926ec794901d17c78024a50270940304540a733656f0d92a19c77d2ea87c7f81d50c74403cb2f401780f3ad919571121efe2bdb427eb1b16e88c42fd4e48df2dd6a2eabd6bc9aec654ec170056b470819f8892cc6431c97e9cffa40fd62a888d33fedb0550a0c24b2dab7e942dd2c90f3dc402fe1d9d09016d09d72d40fdae2fd8ceac6b6234c7706214fd39c1cd1e609a0528c1993005a07719d8a8f4c48bdefa2dac63aa1381b7ddfabbbcde55ac2fce423272e4ade538ae17682fc5f9b07ae2625134d6d3c26763eb7064ea668cc95acc79d2f66934386abfac67735e8200942a182a9289c4525de8436be890c45f3baa48cfc744ab7db2dd08fcb62d0c9e08c51941cae53c267786a0b75803fb7960902fc8ef97d360894a13ba1a3210667c828492db98dca3e2076cc3735a920a3ca505d382bbc75442b0a96088b5456bc4ed01394c96a4feec0f883c9494257d76b96ab1c9b6baba4210cad11f1112f31ba136a61cdc0f6ab4c2b478da8c93eec1d9769e97a89dd5dc5e3118ac9f6534abbb8fc3fdcbf37cbac4179d8c4f61f8246428bdc20513fda72f0a1439a9047288d6140aad7d37a71b660b5229783c8a637ebd0631c0b65d7a28e3265b37a6474929f336521b332c1681b933f6cb9f3376673440d862a8be0079c531659141344cd1fd0a4f28419497f9722a3daafe3b4186f6b6457e0b88a0148d0785022bedeff8dc0f55ccbb709825d7109265ebe5ca3325f191b4202dd7bc7dec4dceedda775e58dd541e08a116c6c53815c0bd028192f7b62680002cbb70a5b530cc7252a3b919b89cec2559cd41fd531c11606411ffbac8f3ffccd5ed15c6e187e77e9aee88184c21f4f2182ab5827cb3b7e07fbedcd63f033001e20859988181a316b2a230ed2b74a09a98fdec16686057cdbb48def725ff9a49b779b17422d0df92223018b32b4d1fa46e071723d6817e2486d003becc55f00a49807205ce4d355092ef5a8a18f56e8913cf4a201fbe287825b095693c217752310b325392e40fb40cbb815e26771d7a037d125fab58e321be31508c0e7cabbf0c57e16840df040f15088dc2f81fe391c3923bec73e23a9662efc9c229c6a00a5df5a195b51346b41c715be6896ddef8de524059309701b83d22c7e4ec1aa4ca903a5200a3509510da557615994ebd7dbb3d8b122c2190f01477c128da2cfcb0acfcb0f3e3aaa7ab6a53fd6a206e00781cfe5360bc764438c214cb50c97b711a2646970667358221220817106d4995aee36a898cdab2df9b9280538bb95263287fcf9b5823348331e7b64736f6c63430008180033","linkReferences":{}},"methodIdentifiers":{"ADMIN_ROLE()":"75b238fc","DEFAULT_ADMIN_ROLE()":"a217fddf","MARKET_BOTH_SCORE()":"dd19ed0a","MARKET_CORRECT_SCORE()":"6bcaa991","MARKET_FIRST_SCORER()":"2e71b708","MARKET_GOALS_TOTAL()":"e570d084","MARKET_HALFTIME()":"7c0078a4","MARKET_WINNER()":"8723eccf","MAX_ODDS()":"f014a108","MIN_NET_STAKE()":"2cfe63a5","MIN_ODDS()":"ae07d051","ODDS_PRECISION()":"6bc98ba3","ODDS_SETTER_ROLE()":"10dc30fd","PAUSER_ROLE()":"e63ab1e9","RESOLVER_ROLE()":"78fab260","SWAP_ROUTER_ROLE()":"c6886db4","UPGRADE_INTERFACE_VERSION()":"ad3cb1cc","addMarketWithLine(bytes32,uint32,int16)":"83e2e9df","addMarketsBatch(bytes32[],uint32[],int16[])":"67df4bfe","cancelMarket(uint256,string)":"456051f1","claim(uint256,uint256)":"c3490263","claimAll(uint256)":"6930fd2a","claimRange(uint256,uint256,uint256)":"a890c997","claimRefund(uint256,uint256)":"8527d58f","closeMarket(uint256)":"ae418095","closeMarketsBatch(uint256[])":"8d3bf365","emergencyPause()":"51858e27","footballMarkets(uint256)":"97576c6d","getBetDetails(uint256,address,uint256)":"ba269015","getCurrentOdds(uint256)":"0e75a18c","getFootballMarket(uint256)":"f6d105c2","getMarketCore(uint256)":"40b16c1e","getMarketInfo(uint256)":"3ec79193","getMarketLiability(uint256)":"4644161f","getOddsHistory(uint256)":"f50ee3d5","getRoleAdmin(bytes32)":"248a9ca3","getUserBets(uint256,address)":"fa744dd3","grantRole(bytes32,address)":"2f2ff15d","hasRole(bytes32,address)":"91d14854","initialize(string,address)":"7ab4339d","liquidityPool()":"665a11ca","marketCount()":"ec979082","matchName()":"71738f8c","maxAllowedOdds()":"ff40596c","openMarket(uint256)":"baa26757","openMarketsBatch(uint256[])":"9b05743f","owner()":"8da5cb5b","paused()":"5c975abb","placeBetUSDC(uint256,uint64,uint256)":"a4b8195c","placeBetUSDCFor(address,uint256,uint64,uint256)":"3eccfc96","proxiableUUID()":"52d1902d","quoteNetExposure(uint256,uint256)":"19d0ec1f","renounceOwnership()":"715018a6","renounceRole(bytes32,address)":"36568abe","resolveMarket(uint256,uint64)":"1a095c6e","resolveMarketsBatch(uint256[],uint64[])":"a04286e0","revokeRole(bytes32,address)":"d547741f","setLiquidityPool(address)":"01877020","setMarketOdds(uint256,uint32)":"61bd2ca9","setMaxAllowedOdds(uint32)":"9ebfee81","setUSDCToken(address)":"0f5a9d01","sportType()":"bef2a6a0","supportsInterface(bytes4)":"01ffc9a7","suspendMarket(uint256)":"931b5466","transferOwnership(address)":"f2fde38b","unpause()":"3f4ba83a","upgradeToAndCall(address,bytes)":"4f1ef286","usdcToken()":"11eac855"},"id":63}