{"abi":[{"type":"constructor","inputs":[],"stateMutability":"nonpayable"},{"type":"function","name":"BPS_DENOMINATOR","inputs":[],"outputs":[{"name":"","type":"uint16","internalType":"uint16"}],"stateMutability":"view"},{"type":"function","name":"DEFAULT_ADMIN_ROLE","inputs":[],"outputs":[{"name":"","type":"bytes32","internalType":"bytes32"}],"stateMutability":"view"},{"type":"function","name":"LP_WITHDRAWAL_FEE_BPS_MAX","inputs":[],"outputs":[{"name":"","type":"uint16","internalType":"uint16"}],"stateMutability":"view"},{"type":"function","name":"MATCH_AUTHORIZER_ROLE","inputs":[],"outputs":[{"name":"","type":"bytes32","internalType":"bytes32"}],"stateMutability":"view"},{"type":"function","name":"MATCH_ROLE","inputs":[],"outputs":[{"name":"","type":"bytes32","internalType":"bytes32"}],"stateMutability":"view"},{"type":"function","name":"MAX_BPS_SETTABLE","inputs":[],"outputs":[{"name":"","type":"uint16","internalType":"uint16"}],"stateMutability":"view"},{"type":"function","name":"PAUSER_ROLE","inputs":[],"outputs":[{"name":"","type":"bytes32","internalType":"bytes32"}],"stateMutability":"view"},{"type":"function","name":"ROUTER_ROLE","inputs":[],"outputs":[{"name":"","type":"bytes32","internalType":"bytes32"}],"stateMutability":"view"},{"type":"function","name":"TREASURY_SHARE_BPS_MAX","inputs":[],"outputs":[{"name":"","type":"uint16","internalType":"uint16"}],"stateMutability":"view"},{"type":"function","name":"UPGRADE_INTERFACE_VERSION","inputs":[],"outputs":[{"name":"","type":"string","internalType":"string"}],"stateMutability":"view"},{"type":"function","name":"acceptTreasury","inputs":[],"outputs":[],"stateMutability":"nonpayable"},{"type":"function","name":"accruedTreasury","inputs":[],"outputs":[{"name":"","type":"uint256","internalType":"uint256"}],"stateMutability":"view"},{"type":"function","name":"allowance","inputs":[{"name":"owner","type":"address","internalType":"address"},{"name":"spender","type":"address","internalType":"address"}],"outputs":[{"name":"","type":"uint256","internalType":"uint256"}],"stateMutability":"view"},{"type":"function","name":"approve","inputs":[{"name":"spender","type":"address","internalType":"address"},{"name":"value","type":"uint256","internalType":"uint256"}],"outputs":[{"name":"","type":"bool","internalType":"bool"}],"stateMutability":"nonpayable"},{"type":"function","name":"asset","inputs":[],"outputs":[{"name":"","type":"address","internalType":"address"}],"stateMutability":"view"},{"type":"function","name":"authorizeMatch","inputs":[{"name":"bettingMatch","type":"address","internalType":"address"}],"outputs":[],"stateMutability":"nonpayable"},{"type":"function","name":"balanceOf","inputs":[{"name":"account","type":"address","internalType":"address"}],"outputs":[{"name":"","type":"uint256","internalType":"uint256"}],"stateMutability":"view"},{"type":"function","name":"cancelTreasuryProposal","inputs":[],"outputs":[],"stateMutability":"nonpayable"},{"type":"function","name":"convertToAssets","inputs":[{"name":"shares","type":"uint256","internalType":"uint256"}],"outputs":[{"name":"","type":"uint256","internalType":"uint256"}],"stateMutability":"view"},{"type":"function","name":"convertToShares","inputs":[{"name":"assets","type":"uint256","internalType":"uint256"}],"outputs":[{"name":"","type":"uint256","internalType":"uint256"}],"stateMutability":"view"},{"type":"function","name":"costBasis","inputs":[{"name":"holder","type":"address","internalType":"address"}],"outputs":[{"name":"","type":"uint256","internalType":"uint256"}],"stateMutability":"view"},{"type":"function","name":"decimals","inputs":[],"outputs":[{"name":"","type":"uint8","internalType":"uint8"}],"stateMutability":"view"},{"type":"function","name":"deposit","inputs":[{"name":"assets","type":"uint256","internalType":"uint256"},{"name":"receiver","type":"address","internalType":"address"}],"outputs":[{"name":"","type":"uint256","internalType":"uint256"}],"stateMutability":"nonpayable"},{"type":"function","name":"depositCooldownSeconds","inputs":[],"outputs":[{"name":"","type":"uint48","internalType":"uint48"}],"stateMutability":"view"},{"type":"function","name":"freeBalance","inputs":[],"outputs":[{"name":"","type":"uint256","internalType":"uint256"}],"stateMutability":"view"},{"type":"function","name":"getRoleAdmin","inputs":[{"name":"role","type":"bytes32","internalType":"bytes32"}],"outputs":[{"name":"","type":"bytes32","internalType":"bytes32"}],"stateMutability":"view"},{"type":"function","name":"grantRole","inputs":[{"name":"role","type":"bytes32","internalType":"bytes32"},{"name":"account","type":"address","internalType":"address"}],"outputs":[],"stateMutability":"nonpayable"},{"type":"function","name":"hasRole","inputs":[{"name":"role","type":"bytes32","internalType":"bytes32"},{"name":"account","type":"address","internalType":"address"}],"outputs":[{"name":"","type":"bool","internalType":"bool"}],"stateMutability":"view"},{"type":"function","name":"initialize","inputs":[{"name":"usdc_","type":"address","internalType":"contract IERC20"},{"name":"admin_","type":"address","internalType":"address"},{"name":"treasury_","type":"address","internalType":"address"},{"name":"protocolFeeBps_","type":"uint16","internalType":"uint16"},{"name":"maxMarketBps_","type":"uint16","internalType":"uint16"},{"name":"maxMatchBps_","type":"uint16","internalType":"uint16"},{"name":"cooldown_","type":"uint48","internalType":"uint48"}],"outputs":[],"stateMutability":"nonpayable"},{"type":"function","name":"lastDepositAt","inputs":[{"name":"holder","type":"address","internalType":"address"}],"outputs":[{"name":"","type":"uint48","internalType":"uint48"}],"stateMutability":"view"},{"type":"function","name":"lpWithdrawalFeeBps","inputs":[],"outputs":[{"name":"","type":"uint16","internalType":"uint16"}],"stateMutability":"view"},{"type":"function","name":"marketLiability","inputs":[{"name":"bettingMatch","type":"address","internalType":"address"},{"name":"marketId","type":"uint256","internalType":"uint256"}],"outputs":[{"name":"","type":"uint256","internalType":"uint256"}],"stateMutability":"view"},{"type":"function","name":"matchLiability","inputs":[{"name":"bettingMatch","type":"address","internalType":"address"}],"outputs":[{"name":"","type":"uint256","internalType":"uint256"}],"stateMutability":"view"},{"type":"function","name":"maxBetAmount","inputs":[],"outputs":[{"name":"","type":"uint256","internalType":"uint256"}],"stateMutability":"view"},{"type":"function","name":"maxDeposit","inputs":[{"name":"","type":"address","internalType":"address"}],"outputs":[{"name":"","type":"uint256","internalType":"uint256"}],"stateMutability":"view"},{"type":"function","name":"maxLiabilityPerMarketBps","inputs":[],"outputs":[{"name":"","type":"uint16","internalType":"uint16"}],"stateMutability":"view"},{"type":"function","name":"maxLiabilityPerMatchBps","inputs":[],"outputs":[{"name":"","type":"uint16","internalType":"uint16"}],"stateMutability":"view"},{"type":"function","name":"maxMint","inputs":[{"name":"","type":"address","internalType":"address"}],"outputs":[{"name":"","type":"uint256","internalType":"uint256"}],"stateMutability":"view"},{"type":"function","name":"maxRedeem","inputs":[{"name":"owner","type":"address","internalType":"address"}],"outputs":[{"name":"","type":"uint256","internalType":"uint256"}],"stateMutability":"view"},{"type":"function","name":"maxWithdraw","inputs":[{"name":"owner","type":"address","internalType":"address"}],"outputs":[{"name":"","type":"uint256","internalType":"uint256"}],"stateMutability":"view"},{"type":"function","name":"mint","inputs":[{"name":"shares","type":"uint256","internalType":"uint256"},{"name":"receiver","type":"address","internalType":"address"}],"outputs":[{"name":"","type":"uint256","internalType":"uint256"}],"stateMutability":"nonpayable"},{"type":"function","name":"name","inputs":[],"outputs":[{"name":"","type":"string","internalType":"string"}],"stateMutability":"view"},{"type":"function","name":"pause","inputs":[],"outputs":[],"stateMutability":"nonpayable"},{"type":"function","name":"paused","inputs":[],"outputs":[{"name":"","type":"bool","internalType":"bool"}],"stateMutability":"view"},{"type":"function","name":"payRefund","inputs":[{"name":"bettingMatch","type":"address","internalType":"address"},{"name":"marketId","type":"uint256","internalType":"uint256"},{"name":"to","type":"address","internalType":"address"},{"name":"stake","type":"uint256","internalType":"uint256"},{"name":"releasedNetExposure","type":"uint256","internalType":"uint256"}],"outputs":[],"stateMutability":"nonpayable"},{"type":"function","name":"payWinner","inputs":[{"name":"bettingMatch","type":"address","internalType":"address"},{"name":"marketId","type":"uint256","internalType":"uint256"},{"name":"to","type":"address","internalType":"address"},{"name":"payout","type":"uint256","internalType":"uint256"},{"name":"releasedNetExposure","type":"uint256","internalType":"uint256"}],"outputs":[],"stateMutability":"nonpayable"},{"type":"function","name":"pendingTreasury","inputs":[],"outputs":[{"name":"","type":"address","internalType":"address"}],"stateMutability":"view"},{"type":"function","name":"previewDeposit","inputs":[{"name":"assets","type":"uint256","internalType":"uint256"}],"outputs":[{"name":"","type":"uint256","internalType":"uint256"}],"stateMutability":"view"},{"type":"function","name":"previewMint","inputs":[{"name":"shares","type":"uint256","internalType":"uint256"}],"outputs":[{"name":"","type":"uint256","internalType":"uint256"}],"stateMutability":"view"},{"type":"function","name":"previewRedeem","inputs":[{"name":"shares","type":"uint256","internalType":"uint256"}],"outputs":[{"name":"","type":"uint256","internalType":"uint256"}],"stateMutability":"view"},{"type":"function","name":"previewWithdraw","inputs":[{"name":"assets","type":"uint256","internalType":"uint256"}],"outputs":[{"name":"","type":"uint256","internalType":"uint256"}],"stateMutability":"view"},{"type":"function","name":"proposeTreasury","inputs":[{"name":"newTreasury","type":"address","internalType":"address"}],"outputs":[],"stateMutability":"nonpayable"},{"type":"function","name":"protocolFeeBps","inputs":[],"outputs":[{"name":"","type":"uint16","internalType":"uint16"}],"stateMutability":"view"},{"type":"function","name":"proxiableUUID","inputs":[],"outputs":[{"name":"","type":"bytes32","internalType":"bytes32"}],"stateMutability":"view"},{"type":"function","name":"recordBet","inputs":[{"name":"bettingMatch","type":"address","internalType":"address"},{"name":"marketId","type":"uint256","internalType":"uint256"},{"name":"bettor","type":"address","internalType":"address"},{"name":"netStake","type":"uint256","internalType":"uint256"},{"name":"netExposure","type":"uint256","internalType":"uint256"}],"outputs":[],"stateMutability":"nonpayable"},{"type":"function","name":"redeem","inputs":[{"name":"shares","type":"uint256","internalType":"uint256"},{"name":"receiver","type":"address","internalType":"address"},{"name":"owner","type":"address","internalType":"address"}],"outputs":[{"name":"","type":"uint256","internalType":"uint256"}],"stateMutability":"nonpayable"},{"type":"function","name":"renounceRole","inputs":[{"name":"role","type":"bytes32","internalType":"bytes32"},{"name":"callerConfirmation","type":"address","internalType":"address"}],"outputs":[],"stateMutability":"nonpayable"},{"type":"function","name":"revokeMatch","inputs":[{"name":"bettingMatch","type":"address","internalType":"address"}],"outputs":[],"stateMutability":"nonpayable"},{"type":"function","name":"revokeRole","inputs":[{"name":"role","type":"bytes32","internalType":"bytes32"},{"name":"account","type":"address","internalType":"address"}],"outputs":[],"stateMutability":"nonpayable"},{"type":"function","name":"setDepositCooldownSeconds","inputs":[{"name":"newSeconds","type":"uint48","internalType":"uint48"}],"outputs":[],"stateMutability":"nonpayable"},{"type":"function","name":"setLpWithdrawalFeeBps","inputs":[{"name":"newBps","type":"uint16","internalType":"uint16"}],"outputs":[],"stateMutability":"nonpayable"},{"type":"function","name":"setMaxBetAmount","inputs":[{"name":"newMax","type":"uint256","internalType":"uint256"}],"outputs":[],"stateMutability":"nonpayable"},{"type":"function","name":"setMaxLiabilityPerMarketBps","inputs":[{"name":"newBps","type":"uint16","internalType":"uint16"}],"outputs":[],"stateMutability":"nonpayable"},{"type":"function","name":"setMaxLiabilityPerMatchBps","inputs":[{"name":"newBps","type":"uint16","internalType":"uint16"}],"outputs":[],"stateMutability":"nonpayable"},{"type":"function","name":"setProtocolFeeBps","inputs":[{"name":"newBps","type":"uint16","internalType":"uint16"}],"outputs":[],"stateMutability":"nonpayable"},{"type":"function","name":"setTreasuryShareBps","inputs":[{"name":"newBps","type":"uint16","internalType":"uint16"}],"outputs":[],"stateMutability":"nonpayable"},{"type":"function","name":"settleMarket","inputs":[{"name":"bettingMatch","type":"address","internalType":"address"},{"name":"marketId","type":"uint256","internalType":"uint256"},{"name":"losingLiabilityToRelease","type":"uint256","internalType":"uint256"},{"name":"losingNetStake","type":"uint256","internalType":"uint256"}],"outputs":[],"stateMutability":"nonpayable"},{"type":"function","name":"supportsInterface","inputs":[{"name":"interfaceId","type":"bytes4","internalType":"bytes4"}],"outputs":[{"name":"","type":"bool","internalType":"bool"}],"stateMutability":"view"},{"type":"function","name":"symbol","inputs":[],"outputs":[{"name":"","type":"string","internalType":"string"}],"stateMutability":"view"},{"type":"function","name":"totalAssets","inputs":[],"outputs":[{"name":"","type":"uint256","internalType":"uint256"}],"stateMutability":"view"},{"type":"function","name":"totalLiabilities","inputs":[],"outputs":[{"name":"","type":"uint256","internalType":"uint256"}],"stateMutability":"view"},{"type":"function","name":"totalSupply","inputs":[],"outputs":[{"name":"","type":"uint256","internalType":"uint256"}],"stateMutability":"view"},{"type":"function","name":"transfer","inputs":[{"name":"to","type":"address","internalType":"address"},{"name":"value","type":"uint256","internalType":"uint256"}],"outputs":[{"name":"","type":"bool","internalType":"bool"}],"stateMutability":"nonpayable"},{"type":"function","name":"transferFrom","inputs":[{"name":"from","type":"address","internalType":"address"},{"name":"to","type":"address","internalType":"address"},{"name":"value","type":"uint256","internalType":"uint256"}],"outputs":[{"name":"","type":"bool","internalType":"bool"}],"stateMutability":"nonpayable"},{"type":"function","name":"treasury","inputs":[],"outputs":[{"name":"","type":"address","internalType":"address"}],"stateMutability":"view"},{"type":"function","name":"treasuryShareBps","inputs":[],"outputs":[{"name":"","type":"uint16","internalType":"uint16"}],"stateMutability":"view"},{"type":"function","name":"treasuryWithdrawable","inputs":[],"outputs":[{"name":"","type":"uint256","internalType":"uint256"}],"stateMutability":"view"},{"type":"function","name":"unpause","inputs":[],"outputs":[],"stateMutability":"nonpayable"},{"type":"function","name":"upgradeToAndCall","inputs":[{"name":"newImplementation","type":"address","internalType":"address"},{"name":"data","type":"bytes","internalType":"bytes"}],"outputs":[],"stateMutability":"payable"},{"type":"function","name":"utilization","inputs":[],"outputs":[{"name":"","type":"uint16","internalType":"uint16"}],"stateMutability":"view"},{"type":"function","name":"withdraw","inputs":[{"name":"assets","type":"uint256","internalType":"uint256"},{"name":"receiver","type":"address","internalType":"address"},{"name":"owner","type":"address","internalType":"address"}],"outputs":[{"name":"","type":"uint256","internalType":"uint256"}],"stateMutability":"nonpayable"},{"type":"function","name":"withdrawTreasury","inputs":[{"name":"amount","type":"uint256","internalType":"uint256"}],"outputs":[],"stateMutability":"nonpayable"},{"type":"event","name":"Approval","inputs":[{"name":"owner","type":"address","indexed":true,"internalType":"address"},{"name":"spender","type":"address","indexed":true,"internalType":"address"},{"name":"value","type":"uint256","indexed":false,"internalType":"uint256"}],"anonymous":false},{"type":"event","name":"BetRecorded","inputs":[{"name":"bettingMatch","type":"address","indexed":true,"internalType":"address"},{"name":"marketId","type":"uint256","indexed":true,"internalType":"uint256"},{"name":"bettor","type":"address","indexed":true,"internalType":"address"},{"name":"netStake","type":"uint256","indexed":false,"internalType":"uint256"},{"name":"netExposure","type":"uint256","indexed":false,"internalType":"uint256"}],"anonymous":false},{"type":"event","name":"Deposit","inputs":[{"name":"sender","type":"address","indexed":true,"internalType":"address"},{"name":"owner","type":"address","indexed":true,"internalType":"address"},{"name":"assets","type":"uint256","indexed":false,"internalType":"uint256"},{"name":"shares","type":"uint256","indexed":false,"internalType":"uint256"}],"anonymous":false},{"type":"event","name":"DepositCooldownSet","inputs":[{"name":"oldSeconds","type":"uint48","indexed":false,"internalType":"uint48"},{"name":"newSeconds","type":"uint48","indexed":false,"internalType":"uint48"}],"anonymous":false},{"type":"event","name":"Initialized","inputs":[{"name":"version","type":"uint64","indexed":false,"internalType":"uint64"}],"anonymous":false},{"type":"event","name":"LpWithdrawalFeeAccrued","inputs":[{"name":"owner","type":"address","indexed":true,"internalType":"address"},{"name":"gain","type":"uint256","indexed":false,"internalType":"uint256"},{"name":"fee","type":"uint256","indexed":false,"internalType":"uint256"}],"anonymous":false},{"type":"event","name":"LpWithdrawalFeeBpsSet","inputs":[{"name":"oldBps","type":"uint16","indexed":false,"internalType":"uint16"},{"name":"newBps","type":"uint16","indexed":false,"internalType":"uint16"}],"anonymous":false},{"type":"event","name":"MarketSettled","inputs":[{"name":"bettingMatch","type":"address","indexed":true,"internalType":"address"},{"name":"marketId","type":"uint256","indexed":true,"internalType":"uint256"},{"name":"releasedLiability","type":"uint256","indexed":false,"internalType":"uint256"}],"anonymous":false},{"type":"event","name":"MatchAuthorized","inputs":[{"name":"bettingMatch","type":"address","indexed":true,"internalType":"address"}],"anonymous":false},{"type":"event","name":"MatchRevoked","inputs":[{"name":"bettingMatch","type":"address","indexed":true,"internalType":"address"}],"anonymous":false},{"type":"event","name":"MaxBetAmountSet","inputs":[{"name":"oldMax","type":"uint256","indexed":false,"internalType":"uint256"},{"name":"newMax","type":"uint256","indexed":false,"internalType":"uint256"}],"anonymous":false},{"type":"event","name":"MaxLiabilityPerMarketSet","inputs":[{"name":"oldBps","type":"uint16","indexed":false,"internalType":"uint16"},{"name":"newBps","type":"uint16","indexed":false,"internalType":"uint16"}],"anonymous":false},{"type":"event","name":"MaxLiabilityPerMatchSet","inputs":[{"name":"oldBps","type":"uint16","indexed":false,"internalType":"uint16"},{"name":"newBps","type":"uint16","indexed":false,"internalType":"uint16"}],"anonymous":false},{"type":"event","name":"Paused","inputs":[{"name":"account","type":"address","indexed":false,"internalType":"address"}],"anonymous":false},{"type":"event","name":"ProtocolFeeSet","inputs":[{"name":"oldBps","type":"uint16","indexed":false,"internalType":"uint16"},{"name":"newBps","type":"uint16","indexed":false,"internalType":"uint16"}],"anonymous":false},{"type":"event","name":"RefundPaid","inputs":[{"name":"bettingMatch","type":"address","indexed":true,"internalType":"address"},{"name":"marketId","type":"uint256","indexed":true,"internalType":"uint256"},{"name":"to","type":"address","indexed":true,"internalType":"address"},{"name":"stake","type":"uint256","indexed":false,"internalType":"uint256"},{"name":"releasedLiability","type":"uint256","indexed":false,"internalType":"uint256"}],"anonymous":false},{"type":"event","name":"RoleAdminChanged","inputs":[{"name":"role","type":"bytes32","indexed":true,"internalType":"bytes32"},{"name":"previousAdminRole","type":"bytes32","indexed":true,"internalType":"bytes32"},{"name":"newAdminRole","type":"bytes32","indexed":true,"internalType":"bytes32"}],"anonymous":false},{"type":"event","name":"RoleGranted","inputs":[{"name":"role","type":"bytes32","indexed":true,"internalType":"bytes32"},{"name":"account","type":"address","indexed":true,"internalType":"address"},{"name":"sender","type":"address","indexed":true,"internalType":"address"}],"anonymous":false},{"type":"event","name":"RoleRevoked","inputs":[{"name":"role","type":"bytes32","indexed":true,"internalType":"bytes32"},{"name":"account","type":"address","indexed":true,"internalType":"address"},{"name":"sender","type":"address","indexed":true,"internalType":"address"}],"anonymous":false},{"type":"event","name":"Transfer","inputs":[{"name":"from","type":"address","indexed":true,"internalType":"address"},{"name":"to","type":"address","indexed":true,"internalType":"address"},{"name":"value","type":"uint256","indexed":false,"internalType":"uint256"}],"anonymous":false},{"type":"event","name":"TreasuryAccepted","inputs":[{"name":"oldTreasury","type":"address","indexed":true,"internalType":"address"},{"name":"newTreasury","type":"address","indexed":true,"internalType":"address"}],"anonymous":false},{"type":"event","name":"TreasuryAccrued","inputs":[{"name":"bettingMatch","type":"address","indexed":true,"internalType":"address"},{"name":"marketId","type":"uint256","indexed":true,"internalType":"uint256"},{"name":"losingNetStake","type":"uint256","indexed":false,"internalType":"uint256"},{"name":"treasuryShare","type":"uint256","indexed":false,"internalType":"uint256"}],"anonymous":false},{"type":"event","name":"TreasuryProposalCancelled","inputs":[{"name":"pending","type":"address","indexed":true,"internalType":"address"}],"anonymous":false},{"type":"event","name":"TreasuryProposed","inputs":[{"name":"proposer","type":"address","indexed":true,"internalType":"address"},{"name":"pending","type":"address","indexed":true,"internalType":"address"}],"anonymous":false},{"type":"event","name":"TreasuryShareBpsSet","inputs":[{"name":"oldBps","type":"uint16","indexed":false,"internalType":"uint16"},{"name":"newBps","type":"uint16","indexed":false,"internalType":"uint16"}],"anonymous":false},{"type":"event","name":"TreasuryWithdrawn","inputs":[{"name":"to","type":"address","indexed":true,"internalType":"address"},{"name":"amount","type":"uint256","indexed":false,"internalType":"uint256"}],"anonymous":false},{"type":"event","name":"Unpaused","inputs":[{"name":"account","type":"address","indexed":false,"internalType":"address"}],"anonymous":false},{"type":"event","name":"Upgraded","inputs":[{"name":"implementation","type":"address","indexed":true,"internalType":"address"}],"anonymous":false},{"type":"event","name":"WinnerPaid","inputs":[{"name":"bettingMatch","type":"address","indexed":true,"internalType":"address"},{"name":"marketId","type":"uint256","indexed":true,"internalType":"uint256"},{"name":"to","type":"address","indexed":true,"internalType":"address"},{"name":"payout","type":"uint256","indexed":false,"internalType":"uint256"}],"anonymous":false},{"type":"event","name":"Withdraw","inputs":[{"name":"sender","type":"address","indexed":true,"internalType":"address"},{"name":"receiver","type":"address","indexed":true,"internalType":"address"},{"name":"owner","type":"address","indexed":true,"internalType":"address"},{"name":"assets","type":"uint256","indexed":false,"internalType":"uint256"},{"name":"shares","type":"uint256","indexed":false,"internalType":"uint256"}],"anonymous":false},{"type":"error","name":"AccessControlBadConfirmation","inputs":[]},{"type":"error","name":"AccessControlUnauthorizedAccount","inputs":[{"name":"account","type":"address","internalType":"address"},{"name":"neededRole","type":"bytes32","internalType":"bytes32"}]},{"type":"error","name":"AddressEmptyCode","inputs":[{"name":"target","type":"address","internalType":"address"}]},{"type":"error","name":"BetAmountAboveCap","inputs":[{"name":"requested","type":"uint256","internalType":"uint256"},{"name":"cap","type":"uint256","internalType":"uint256"}]},{"type":"error","name":"BpsOutOfRange","inputs":[{"name":"provided","type":"uint16","internalType":"uint16"},{"name":"max","type":"uint16","internalType":"uint16"}]},{"type":"error","name":"CooldownActive","inputs":[{"name":"holder","type":"address","internalType":"address"},{"name":"unlocksAt","type":"uint48","internalType":"uint48"}]},{"type":"error","name":"ERC1967InvalidImplementation","inputs":[{"name":"implementation","type":"address","internalType":"address"}]},{"type":"error","name":"ERC1967NonPayable","inputs":[]},{"type":"error","name":"ERC20InsufficientAllowance","inputs":[{"name":"spender","type":"address","internalType":"address"},{"name":"allowance","type":"uint256","internalType":"uint256"},{"name":"needed","type":"uint256","internalType":"uint256"}]},{"type":"error","name":"ERC20InsufficientBalance","inputs":[{"name":"sender","type":"address","internalType":"address"},{"name":"balance","type":"uint256","internalType":"uint256"},{"name":"needed","type":"uint256","internalType":"uint256"}]},{"type":"error","name":"ERC20InvalidApprover","inputs":[{"name":"approver","type":"address","internalType":"address"}]},{"type":"error","name":"ERC20InvalidReceiver","inputs":[{"name":"receiver","type":"address","internalType":"address"}]},{"type":"error","name":"ERC20InvalidSender","inputs":[{"name":"sender","type":"address","internalType":"address"}]},{"type":"error","name":"ERC20InvalidSpender","inputs":[{"name":"spender","type":"address","internalType":"address"}]},{"type":"error","name":"ERC4626ExceededMaxDeposit","inputs":[{"name":"receiver","type":"address","internalType":"address"},{"name":"assets","type":"uint256","internalType":"uint256"},{"name":"max","type":"uint256","internalType":"uint256"}]},{"type":"error","name":"ERC4626ExceededMaxMint","inputs":[{"name":"receiver","type":"address","internalType":"address"},{"name":"shares","type":"uint256","internalType":"uint256"},{"name":"max","type":"uint256","internalType":"uint256"}]},{"type":"error","name":"ERC4626ExceededMaxRedeem","inputs":[{"name":"owner","type":"address","internalType":"address"},{"name":"shares","type":"uint256","internalType":"uint256"},{"name":"max","type":"uint256","internalType":"uint256"}]},{"type":"error","name":"ERC4626ExceededMaxWithdraw","inputs":[{"name":"owner","type":"address","internalType":"address"},{"name":"assets","type":"uint256","internalType":"uint256"},{"name":"max","type":"uint256","internalType":"uint256"}]},{"type":"error","name":"EnforcedPause","inputs":[]},{"type":"error","name":"ExpectedPause","inputs":[]},{"type":"error","name":"FailedCall","inputs":[]},{"type":"error","name":"InsufficientFreeBalance","inputs":[{"name":"requested","type":"uint256","internalType":"uint256"},{"name":"free","type":"uint256","internalType":"uint256"}]},{"type":"error","name":"InsufficientTreasuryBalance","inputs":[{"name":"requested","type":"uint256","internalType":"uint256"},{"name":"available","type":"uint256","internalType":"uint256"}]},{"type":"error","name":"InvalidInitialization","inputs":[]},{"type":"error","name":"LiabilityUnderflow","inputs":[]},{"type":"error","name":"MarketLiabilityCapExceeded","inputs":[{"name":"requested","type":"uint256","internalType":"uint256"},{"name":"cap","type":"uint256","internalType":"uint256"}]},{"type":"error","name":"MatchLiabilityCapExceeded","inputs":[{"name":"requested","type":"uint256","internalType":"uint256"},{"name":"cap","type":"uint256","internalType":"uint256"}]},{"type":"error","name":"MatchNotAuthorized","inputs":[{"name":"bettingMatch","type":"address","internalType":"address"}]},{"type":"error","name":"NoPendingTreasury","inputs":[]},{"type":"error","name":"NotInitializing","inputs":[]},{"type":"error","name":"NotMatchAuthorizer","inputs":[{"name":"caller","type":"address","internalType":"address"}]},{"type":"error","name":"NotPendingTreasury","inputs":[{"name":"caller","type":"address","internalType":"address"},{"name":"pending","type":"address","internalType":"address"}]},{"type":"error","name":"NotTreasury","inputs":[{"name":"caller","type":"address","internalType":"address"},{"name":"treasury","type":"address","internalType":"address"}]},{"type":"error","name":"ReentrancyGuardReentrantCall","inputs":[]},{"type":"error","name":"SafeERC20FailedOperation","inputs":[{"name":"token","type":"address","internalType":"address"}]},{"type":"error","name":"UUPSUnauthorizedCallContext","inputs":[]},{"type":"error","name":"UUPSUnsupportedProxiableUUID","inputs":[{"name":"slot","type":"bytes32","internalType":"bytes32"}]},{"type":"error","name":"ZeroAddress","inputs":[]},{"type":"error","name":"ZeroAmount","inputs":[]}],"bytecode":{"object":"0x60a08060405234620000d157306080527ff0c57e16840df040f15088dc2f81fe391c3923bec73e23a9662efc9c229c6a009081549060ff8260401c16620000c257506001600160401b036002600160401b0319828216016200007c575b604051613ee99081620000d682396080518181816119990152611a6a0152f35b6001600160401b031990911681179091556040519081527fc7f505b2f371ae2175ee4913f4499e1f2633a7b5936321eed1cdaeb6115181d290602090a15f80806200005c565b63f92ee8a960e01b8152600490fd5b5f80fdfe6080806040526004361015610012575f80fd5b5f3560e01c9081625dfcbf1461291a57508062a36a9e146128aa57806301e1d1141461242657806301ffc9a71461285457806306fdde03146127bc57806307a2d13a14611bf0578063095ea7b31461270d5780630a28a477146126ef57806311f1fc991461261457806313964ffa146125fa57806317a791c01461258557806318160ddd1461255c5780632020fe0e1461249c57806323b872dd14612464578063248a9ca31461242b57806325185d3e1461242657806327687a341461225a5780632c109f801461223b5780632c262c6614611f485780632ed6b75d14611f205780632f2ff15d14611ed757806330654a4714611eb657806330d643b514611e8f578063313ce56714611e3d57806335659fb814611e1a57806336568abe14611dd357806338d52e0f14611d9f5780633f4ba83a14611d2a578063402d267d1461096157806343a555e614611bf55780634cdad50614611bf05780634f1ef286146119f057806352d1902d1461198757806359fd9526146119645780635c975abb146119365780635fef4e2e1461191a57806361d027b3146118f35780636e553f65146118b057806370a082311461188d5780637373e3d1146118555780637cfbc7a5146118025780638456cb59146117555780638a4c3d4a146117325780638afacf0314611662578063909543451461163b57806391d14854146115e657806391d6eacc1461156357806394bf804d1461152057806395d89b41146114595780639ddc7b541461143d578063a217fddf14611423578063a279ec2514611391578063a6da894c14611374578063a9059cbb14611343578063ad3cb1cc14611302578063af421918146112e6578063b27ce99514610b4f578063b3d7f6b914610b31578063b460af9414610ac1578063ba08765214610a38578063be37b12c146109a6578063c31295d414610966578063c63d75b614610961578063c6e6f59214610607578063ca090dac146108cc578063cab11d5d146108af578063ce2a55e314610888578063ce96cb7714610865578063d547741f1461081a578063d905777e146107ef578063d920b5ef14610789578063dd62ed3e14610742578063e0634f65146106fe578063e1a45218146106e2578063e49d2a3014610659578063e63ab1e914610632578063ea21cd921461060c578063ef8b30f714610607578063f110ed6714610575578063f73579a914610558578063fb340640146105345763fd5e3148146103a0575f80fd5b34610530576103ae36612a42565b91906103b8612fa3565b6103c0612fcd565b335f9081525f80516020613b94833981519152602090815260409091205490919060ff1615610518576001600160a01b038381169687156105065782156104f4577f2de9420d10db02ce7d7c85a0849f6d694293adf118e29f57c8737e739bab165494826104c29385931697885f526003875260405f208a5f52875260405f2054818082115f146104ec5761045491612b5c565b895f526003885260405f208b5f52885260405f2055885f526002875260405f2054818082115f146104e45761048891612b5c565b895f526002885260405f2055600154908082115f146104dc576104aa91612b5c565b6001555f80516020613dd48339815191525416612ffc565b604051908152a460015f80516020613e1483398151915255005b50505f6104aa565b50505f610488565b50505f610454565b604051631f2a200560e01b8152600490fd5b60405163d92e233d60e01b8152600490fd5b604051634d22c05160e01b8152336004820152602490fd5b5f80fd5b34610530575f36600319011261053057602061ffff60085460101c16604051908152f35b34610530575f366003190112610530576020600154604051908152f35b346105305760203660031901126105305761058e61294e565b5f546001600160a01b0391908216338190036105e5575016801561050657600680546001600160a01b03191682179055337f9745945724579b0c42c077e39e88287155952650b2dbb9fde023042588ca24575f80a3005b604051631ba1150160e31b8152908190610603903360048401612c43565b0390fd5b612b31565b34610530575f366003190112610530576020610626612df9565b61ffff60405191168152f35b34610530575f3660031901126105305760206040515f80516020613d148339815191528152f35b34610530575f366003190112610530576006546001600160a01b038082169182156106d0578233036106b4575f80546001600160a01b0319808216861783559092166006559116905f80516020613c348339815191529080a3005b60405163c23531eb60e01b815280610603853360048401612c43565b6040516312047a6d60e11b8152600490fd5b34610530575f3660031901126105305760206040516127108152f35b34610530576040366003190112610530576001600160a01b0361071f61294e565b165f52600360205260405f206024355f52602052602060405f2054604051908152f35b346105305760403660031901126105305761075b61294e565b61076c610766612964565b9161297a565b9060018060a01b03165f52602052602060405f2054604051908152f35b34610530575f366003190112610530575f546001600160a01b03908116338190036105e557506006549081169081156106d0576001600160a01b0319166006557fc69f03cb93d3f08ce1300ef123825580d383f53f4b93ea055ebfd83edbd92db25f80a2005b3461053057602036600319011261053057602061081261080d61294e565b612db7565b604051908152f35b3461053057604036600319011261053057610863600435610839612964565b90805f525f80516020613d9483398151915260205261085e600160405f200154612e91565b6134c3565b005b3461053057602036600319011261053057602061081261088361294e565b612d9e565b34610530575f3660031901126105305760206040515f80516020613bb48339815191528152f35b34610530575f366003190112610530576020600754604051908152f35b34610530576020366003190112610530576108e5612a31565b6108ed612e4e565b61ffff908181166107d0808211610943578363ffff0000845f80516020613c54833981519152816008549461092c6040519283928860101c1683612d32565b0390a160101b169063ffff00001916176008555f80f35b604492506040519163188647ad60e31b835260048301526024820152fd5b612a7e565b34610530576020366003190112610530576001600160a01b0361098761294e565b165f526004602052602065ffffffffffff60405f205416604051908152f35b34610530576020366003190112610530576109bf612a31565b6109c7612e4e565b61ffff906103e882821611610a1b575f80516020613d34833981519152815f54936109fc6040519283928760a01c1683612d32565b0390a161ffff60a01b1990911660a09190911b61ffff60a01b16175f55005b60405163188647ad60e31b81529081906106039060048301612d1c565b3461053057610a4636612afc565b90610a4f612fa3565b610a57612fcd565b610a608261352f565b610a6982612db7565b808411610aa3575082610a8a91610a81602095612ef8565b9384913361376e565b60015f80516020613e1483398151915255604051908152f35b604051632e52afbb60e21b8152938493610603935060048501613235565b3461053057610acf36612afc565b90610ad8612fa3565b610ae0612fcd565b610ae98261352f565b610af282612d9e565b808411610b135750610a8a9083610b0a602095612f31565b9384923361376e565b604051633fa733bb60e21b8152938493610603935060048501613235565b34610530576020366003190112610530576020610812600435612ebf565b346105305760e0366003190112610530576004356001600160a01b038116900361053057610b7b612964565b604435906001600160a01b03821682036105305761ffff9182606435166064350361053057826084351660843503610530578260a4351660a435036105305765ffffffffffff60c4351660c43503610530575f80516020613e7483398151915254916001600160401b03831615806112d8575b6001600160401b03841660011490816112ce575b1590816112c5575b506112b3576001600160401b031983166001175f80516020613e7483398151915255604083901c60ff161561128b575b6004356001600160a01b031615801561127a575b8015611269575b610506576103e884606435161161124c576127108085608435161161122f578460a435161161121257604051610c8a81612aa3565b600b81526a04368696c697a5456204c560ac1b602082015260405190610caf82612aa3565b600582526406374764c560dc1b6020830152610cc9613740565b610cd1613740565b8051906001600160401b038211611102578190610cfb5f80516020613bd483398151915254612c0b565b601f81116111ae575b50602090601f8311600114611121575f92611116575b50508160011b915f199060031b1c1916175f80516020613bd4833981519152555b8051906001600160401b03821161110257610d635f80516020613c1483398151915254612c0b565b601f8111611097575b50602090601f8311600114610ff0575f80516020613d7483398151915294610e6b6040958560ff9a965f80516020613d348339815191529689965f92610fe5575b50508160011b915f199060031b1c1916175f80516020613c14833981519152555b610dd6613740565b610dde613740565b610de9600435613a37565b9015610fdd575b5f80516020613dd483398151915280546001600160a81b031916918c1660a01b919091176004356001600160a01b0316179055610e2b613740565b610e33613740565b610e3b613740565b610e43613740565b60015f80516020613e1483398151915255610e5c613740565b610e65816130d4565b50613145565b5060a43560c01b61ffff60c01b1660843560b01b61ffff60b01b1660643560a01b61ffff60a01b166001600160a01b0393909316928317171760c43560d01b6001600160d01b031916175f9081556008805463ffffffff19166301f40fa0179055825191905f80516020613c348339815191528180a35f815283606435166020820152a15f80516020613e548339815191528280515f815283608435166020820152a18151905f825260a435166020820152a15f80516020613b34833981519152604080515f815265ffffffffffff60c435166020820152a15f80516020613cf4833981519152604080515f8152610fa06020820152a15f80516020613c54833981519152604080515f81526101f46020820152a160401c1615610f8b57005b60ff60401b195f80516020613e7483398151915254165f80516020613e74833981519152557fc7f505b2f371ae2175ee4913f4499e1f2633a7b5936321eed1cdaeb6115181d2602060405160018152a1005b506012610df0565b015190508c80610dad565b905f80516020613c148339815191525f5260205f20915f5b601f198516811061107f575094610e6b6040956001865f80516020613d348339815191529689965f80516020613d748339815191529b60ff9e9a601f19811610611067575b505050811b015f80516020613c1483398151915255610dce565b01515f1960f88460031b161c191690558c808061104d565b91926020600181928685015181550194019201611008565b5f80516020613c148339815191525f527f46a2803e59a4de4e7a4c574b1243f25977ac4c77d5a1a4a609b5394cebb4a2aa601f840160051c8101602085106110fb575b601f830160051c820181106110f0575050610d6c565b5f81556001016110da565b50806110da565b634e487b7160e01b5f52604160045260245ffd5b015190508780610d1a565b5f80516020613bd48339815191525f90815293505f80516020613b5483398151915291905b601f1984168510611193576001945083601f1981161061117b575b505050811b015f80516020613bd483398151915255610d3b565b01515f1960f88460031b161c19169055878080611161565b81810151835560209485019460019093019290910190611146565b5f80516020613bd48339815191525f529091505f80516020613b54833981519152601f840160051c81016020851061120b575b90849392915b601f830160051c820181106111fd575050610d04565b5f81558594506001016111e7565b50806111e1565b60405163188647ad60e31b81528061060360a43560048301612d06565b60405163188647ad60e31b81528061060360843560048301612d06565b60405163188647ad60e31b81528061060360643560048301612d1c565b506001600160a01b03821615610c55565b506001600160a01b03811615610c4e565b6001600160481b031983166001600160401b01175f80516020613e7483398151915255610c3a565b60405163f92ee8a960e01b8152600490fd5b90501585610c0a565b303b159150610c02565b5060ff8360401c1615610bee565b34610530575f3660031901126105305760206040516103e88152f35b34610530575f3660031901126105305761133f60405161132181612aa3565b60058152640352e302e360dc1b6020820152604051918291826129cc565b0390f35b346105305760403660031901126105305761136961135f61294e565b60243590336132d9565b602060405160018152f35b34610530575f366003190112610530576020600554604051908152f35b34610530576020366003190112610530576113aa612a31565b6113b2612e4e565b61ffff9061271082821611611406575f80516020613e54833981519152815f54936113e76040519283928760b01c1683612d32565b0390a161ffff60b01b1990911660b09190911b61ffff60b01b16175f55005b60405163188647ad60e31b81529081906106039060048301612d06565b34610530575f3660031901126105305760206040515f8152f35b34610530575f3660031901126105305760206040516113888152f35b34610530575f366003190112610530576040515f905f80516020613c14833981519152805461148781612c0b565b908184526020926001916001811690815f146114fe57506001146114c2575b61133f856114b681890382612abe565b604051918291826129cc565b5f908152838120939550925b8284106114eb575050508161133f936114b69282010193856114a6565b80548585018701529285019281016114ce565b60ff191686860152505050151560051b82010191506114b68161133f856114a6565b34610530576040366003190112610530576020600435610a8a611541612964565b9161154a612fa3565b611552612fcd565b61155b81612ebf565b8093336135fe565b346105305760203660031901126105305761157c612a31565b611584612e4e565b61ffff808216916113888084116115c857505f80516020613cf483398151915290600854926115ba604051928392861683612d32565b0390a161ffff191617600855005b836044916040519163188647ad60e31b835260048301526024820152fd5b34610530576040366003190112610530576115ff612964565b6004355f525f80516020613d9483398151915260205260405f209060018060a01b03165f52602052602060ff60405f2054166040519015158152f35b34610530575f3660031901126105305760206040515f80516020613e348339815191528152f35b346105305760203660031901126105305761167b61294e565b335f9081525f80516020613c94833981519152602052604090205460ff16155f80516020613d9483398151915281611704575b506116ec576116bc81613445565b506001600160a01b03167f383f5a41420129b0294e100939e4b4b76e4f73da99d39cd863502f8ea843ae935f80a2005b60405163948872e360e01b8152336004820152602490fd5b90505f80516020613bb48339815191525f5260205260405f20335f5260205260ff60405f20541615826116ae565b34610530575f36600319011261053057602061ffff5f5460c01c16604051908152f35b34610530575f36600319011261053057335f9081525f80516020613cd483398151915260205260409020545f80516020613d148339815191529060ff16156117e45761179f612fa3565b5f80516020613df4833981519152600160ff198254161790557f62e78cea01bee320cd4e420270b5ea74000d11b0c9f74754ebdbfc544b05a2586020604051338152a1005b6044906040519063e2517d3f60e01b82523360048301526024820152fd5b346105305760203660031901126105305760043561181e612e4e565b7fbacb82638e64b3e6e6fc461191daa81aafd47eb1c6da870e15ac51c0f493cfb160406007548151908152836020820152a1600755005b34610530576020366003190112610530576001600160a01b0361187661294e565b165f526002602052602060405f2054604051908152f35b346105305760203660031901126105305760206108126118ab61294e565b612d78565b34610530576040366003190112610530576020600435610a8a6118d1612964565b6118d9612fa3565b6118e1612fcd565b6118ea83612f6a565b928391336135fe565b34610530575f366003190112610530575f546040516001600160a01b039091168152602090f35b34610530575f3660031901126105305760206040516107d08152f35b34610530575f36600319011261053057602060ff5f80516020613df483398151915254166040519015158152f35b34610530575f36600319011261053057602061ffff5f5460b01c16604051908152f35b34610530575f366003190112610530577f00000000000000000000000000000000000000000000000000000000000000006001600160a01b031630036119de5760206040515f80516020613cb48339815191528152f35b60405163703e46dd60e11b8152600490fd5b604036600319011261053057611a0461294e565b60249081356001600160401b038111610530573660238201121561053057806004013591611a3183612ae1565b611a3e6040519182612abe565b838152602093848201933687838301011161053057815f92888893018737830101526001600160a01b037f00000000000000000000000000000000000000000000000000000000000000008116308114908115611bd5575b506119de57611aa3612e4e565b6040516352d1902d60e01b8152908316948082600481895afa9182915f93611ba5575b5050611ae457604051634c9c8ce360e01b8152600481018690528690fd5b8490865f80516020613cb483398151915291828103611b905750843b15611b7a575080546001600160a01b03191682179055604051907fbc7cd75a20ee27fd9adebab32041f755214dbc6bffa90cc0225b39da2e5c2d3b5f80a2815115611b6057505f6108639381925190845af4611b5a613a08565b91613ab0565b9250505034611b6b57005b63b398979f60e01b8152600490fd5b604051634c9c8ce360e01b815260048101849052fd5b60405190632a87526960e21b82526004820152fd5b9080929350813d8311611bce575b611bbd8183612abe565b810103126105305751908780611ac6565b503d611bb3565b9050815f80516020613cb48339815191525416141587611a96565b612a13565b3461053057611c0336612a42565b919093611c0e612fa3565b611c16612fcd565b335f9081525f80516020613b94833981519152602090815260409091205490959060ff1615610518576001600160a01b038381169690949087156105065782156104f457611cfe837f9d195d2eee24d3409829f0252c2d7f293862fa678bca0ec7bfbb72d28b380b4b96886040971698895f5260038552875f208b5f528552875f2054868082115f14611d2257611cac91612b5c565b8a5f5260038652885f208c5f528652885f2055895f5260028552875f2054868082115f14611d1a57611cdd91612b5c565b8a5f5260028652885f2055600154868082115f146104dc576104aa91612b5c565b8351928352820152a460015f80516020613e1483398151915255005b50505f611cdd565b50505f611cac565b34610530575f36600319011261053057611d42612e4e565b5f80516020613df4833981519152805460ff811615611d8d5760ff191690557f5db9ee0a495bf2e6ff9c91a7834c1ba4fdd244a5e8aa4e537bd38aeae4b073aa6020604051338152a1005b604051638dfc202b60e01b8152600490fd5b34610530575f366003190112610530575f80516020613dd4833981519152546040516001600160a01b039091168152602090f35b3461053057604036600319011261053057611dec612964565b336001600160a01b03821603611e0857610863906004356134c3565b60405163334bd91960e11b8152600490fd5b34610530575f36600319011261053057602061ffff5f5460a01c16604051908152f35b34610530575f36600319011261053057600660ff5f80516020613dd48339815191525460a01c160160ff8111611e7b5760209060ff60405191168152f35b634e487b7160e01b5f52601160045260245ffd5b34610530575f3660031901126105305760206040515f80516020613e948339815191528152f35b34610530575f36600319011261053057602061ffff60085416604051908152f35b3461053057604036600319011261053057610863600435611ef6612964565b90805f525f80516020613d94833981519152602052611f1b600160405f200154612e91565b6131c5565b34610530575f366003190112610530576006546040516001600160a01b039091168152602090f35b3461053057611f5636612a42565b91611f62949194612fa3565b611f6a612fcd565b335f9081525f80516020613b9483398151915260209081526040909120545f80516020613e348339815191529491905f80516020613d948339815191529060ff161580612210575b610518576001600160a01b039485169586158015612206575b6105065788156104f4575f52815260405f20855f52815260ff60405f205416156121ed57600754801515806121e4575b6121c6575061200c82600154612b4f565b602482865f80516020613dd48339815191525416604051928380926370a0823160e01b82523060048301525afa9081156121bb575f9161218e575b50811161216957855f526003825260405f20875f52825261206c8360405f2054612b4f565b5f549161271061ffff8161208c828760b01c16612087612b69565b612d47565b0480851161214b57506120bb908a5f52600287526120ae8860405f2054612b4f565b9560c01c16612087612b69565b0480841161212d57509160409593917fa6b4aaa37ee8da16e67892d03a2a0325e294d8f48973109730f005a7c003a834979593600155885f5260038352865f208a5f528352865f2055875f5260028252855f205584519889528801521694a460015f80516020613e1483398151915255005b8360449160405191631190e26160e31b835260048301526024820152fd5b846044916040519163eca7125f60e01b835260048301526024820152fd5b604483612174612b69565b60405191634aeb0dcb60e01b835260048301526024820152fd5b90508281813d83116121b4575b6121a58183612abe565b81010312610530575189612047565b503d61219b565b6040513d5f823e3d90fd5b876044916040519163046e475560e51b835260048301526024820152fd5b50808811611ffb565b604051634d22c05160e01b815260048101869052602490fd5b5085851615611fcb565b505f80516020613e948339815191525f5280825260405f20335f52825260ff60405f20541615611fb2565b34610530575f3660031901126105305760205f5460d01c604051908152f35b346105305760803660031901126105305761227361294e565b60243590606435604435612285612fa3565b61228d612fcd565b335f9081525f80516020613b94833981519152602090815260409091205490939060ff161561051857839185915f9180612367575b506040519182526001600160a01b03169485915f80516020613b748339815191529190a3816122ff575b60015f80516020613e1483398151915255005b61271061231261ffff6008541684612d47565b049182612320575b506122ec565b826040926123517fad5a4cffe78a339226b32f693eb0618bd8048549b4e93e05a67c37bf1007712395600554612b4f565b6005558351928352820152a3808080808061231a565b6001600160a01b0382165f818152600387526040808220878352885290205493505f80516020613b74833981519152929184811115612420575083905b6123af828096612b5c565b815f526003885260405f20875f52885260405f2055805f526002875260405f2054828082115f14612417576123e391612b5c565b905b5f526002875260405f2055600154908082115f1461240f5761240691612b5c565b600155906122c2565b50505f612406565b50505f906123e5565b906123a4565b6129b2565b34610530576020366003190112610530576004355f525f80516020613d948339815191526020526020600160405f200154604051908152f35b346105305760603660031901126105305761136961248061294e565b612488612964565b60443591612497833383613253565b6132d9565b34610530576020366003190112610530576124b561294e565b335f9081525f80516020613c94833981519152602052604090205460ff16155f80516020613d948339815191528161252e575b506116ec576001600160a01b038116908115610506576125079061304d565b507f7b824e649593517f81584ea2ef3428f043f45b8cbf10728d8f168318e5b82f405f80a2005b90505f80516020613bb48339815191525f5260205260405f20335f5260205260ff60405f20541615826124e8565b34610530575f3660031901126105305760205f80516020613c7483398151915254604051908152f35b346105305760203660031901126105305761259e612a31565b6125a6612e4e565b61ffff9061271082821611611406575f80516020613d74833981519152815f54936125db6040519283928760c01c1683612d32565b0390a161ffff60c01b1990911660c09190911b61ffff60c01b16175f55005b34610530575f366003190112610530576020610812612c5d565b34610530576020366003190112610530575f546001600160a01b0390600435908216338190036105e55750612647612fa3565b61264f612fcd565b80156104f45761265d612c5d565b8082116126d157506020816126957f41fdd680478135993bc53fb2ffaf9560951b57ef62ff6badd02b61e018b4f17f93600554612b5c565b6005556126b781855f541680965f80516020613dd48339815191525416612ffc565b604051908152a260015f80516020613e1483398151915255005b6044925060405191630207d7f360e41b835260048301526024820152fd5b34610530576020366003190112610530576020610812600435612f31565b346105305760403660031901126105305761272661294e565b6024359033156127a4576001600160a01b031690811561278c576127493361297a565b825f526020528060405f20556040519081527f8c5be1e5ebec7d5bd14f71427d1e84f3dd0314c0f7b2291e5b200ac8c7c3b92560203392a3602060405160018152f35b604051634a1406b160e11b81525f6004820152602490fd5b60405163e602df0560e01b81525f6004820152602490fd5b34610530575f366003190112610530576040515f905f80516020613bd483398151915280546127ea81612c0b565b908184526020926001916001811690815f146114fe57506001146128185761133f856114b681890382612abe565b5f908152838120939550925b828410612841575050508161133f936114b69282010193856114a6565b8054858501870152928501928101612824565b346105305760203660031901126105305760043563ffffffff60e01b811680910361053057602090637965db0b60e01b8114908115612899575b506040519015158152f35b6301ffc9a760e01b1490508261288e565b346105305760203660031901126105305760043565ffffffffffff811690818103610530576128d7612e4e565b5f80516020613b3483398151915260405f54938151908560d01c82526020820152a16001600160d01b039190911660d09190911b6001600160d01b031916175f55005b34610530576020366003190112610530576020906001600160a01b0361293e61294e565b165f526009825260405f20548152f35b600435906001600160a01b038216820361053057565b602435906001600160a01b038216820361053057565b6001600160a01b03165f9081527f52c63247e1f47db19d5ce0460030c497f067ca4cebf71ba98eeadabe20bace016020526040902090565b34610530575f366003190112610530576020610812612b69565b602080825282518183018190529093925f5b8281106129ff57505060409293505f838284010152601f8019910116010190565b8181018601518482016040015285016129de565b34610530576020366003190112610530576020610812600435612ef8565b6004359061ffff8216820361053057565b60a0906003190112610530576001600160a01b036004358181168103610530579160243591604435908116810361053057906064359060843590565b3461053057602036600319011261053057612a9761294e565b5060206040515f198152f35b604081019081106001600160401b0382111761110257604052565b601f909101601f19168101906001600160401b0382119082101761110257604052565b6001600160401b03811161110257601f01601f191660200190565b606090600319011261053057600435906001600160a01b03906024358281168103610530579160443590811681036105305790565b34610530576020366003190112610530576020610812600435612f6a565b91908201809211611e7b57565b91908203918211611e7b57565b5f80516020613dd4833981519152546040516370a0823160e01b815230600482015290602090829060249082906001600160a01b03165afa9081156121bb575f91612bd9575b50612bbf60015460055490612b4f565b80821115612bd357612bd091612b5c565b90565b50505f90565b90506020813d602011612c03575b81612bf460209383612abe565b8101031261053057515f612baf565b3d9150612be7565b90600182811c92168015612c39575b6020831014612c2557565b634e487b7160e01b5f52602260045260245ffd5b91607f1691612c1a565b6001600160a01b0391821681529116602082015260400190565b6005545f80516020613dd4833981519152546040516370a0823160e01b815230600482015290602090829060249082906001600160a01b03165afa9081156121bb575f91612cd4575b5060015480821115612ccc57612cbb91612b5c565b80821015612cc7575090565b905090565b50505f612cbb565b90506020813d602011612cfe575b81612cef60209383612abe565b8101031261053057515f612ca6565b3d9150612ce2565b61ffff9091168152612710602082015260400190565b61ffff90911681526103e8602082015260400190565b61ffff91821681529116602082015260400190565b81810292918115918404141715611e7b57565b8115612d64570490565b634e487b7160e01b5f52601260045260245ffd5b6001600160a01b03165f9081525f80516020613bf4833981519152602052604090205490565b612daa612daf91612d78565b612ef8565b612cbb612b69565b612dc7612dc2612b69565b612f6a565b6001600160a01b039091165f9081525f80516020613bf483398151915260205260409020549080821015612cc7575090565b612e01612b69565b8015612e3c576001549061271091828102928184041490151715611e7b57612e2891612d5a565b61ffff9081811115612e38575090565b1690565b50600154612e48575f90565b61ffff90565b335f9081525f80516020613c94833981519152602052604090205460ff1615612e7357565b60405163e2517d3f60e01b81523360048201525f6024820152604490fd5b805f525f80516020613d9483398151915260205260405f20335f5260205260ff60405f205416156117e45750565b612ec7612b69565b60018101809111611e7b575f80516020613c748339815191525490620f42408201809211611e7b57612bd092613584565b612f00612b69565b60018101809111611e7b575f80516020613c748339815191525490620f42408201809211611e7b57612bd09261396f565b5f80516020613c7483398151915254620f42408101809111611e7b57612f55612b69565b9060018201809211611e7b57612bd092613584565b5f80516020613c7483398151915254620f42408101809111611e7b57612f8e612b69565b9060018201809211611e7b57612bd09261396f565b60ff5f80516020613df48339815191525416612fbb57565b60405163d93c066560e01b8152600490fd5b5f80516020613e148339815191526002815414612fea5760029055565b604051633ee5aeb560e01b8152600490fd5b60405163a9059cbb60e01b60208201526001600160a01b03909216602483015260448083019390935291815260808101916001600160401b038311828410176111025761304b926040526135a4565b565b6001600160a01b03165f8181525f80516020613b9483398151915260205260409020545f80516020613e3483398151915291905f80516020613d948339815191529060ff166130cd57825f5260205260405f20815f5260205260405f20600160ff1982541617905533915f80516020613b148339815191525f80a4600190565b5050505f90565b6001600160a01b03165f8181525f80516020613c9483398151915260205260409020545f80516020613d948339815191529060ff16612bd3575f805260205260405f20815f5260205260405f20600160ff1982541617905533905f5f80516020613b148339815191528180a4600190565b6001600160a01b03165f8181525f80516020613cd483398151915260205260409020545f80516020613d1483398151915291905f80516020613d948339815191529060ff166130cd57825f5260205260405f20815f5260205260405f20600160ff1982541617905533915f80516020613b148339815191525f80a4600190565b90815f525f80516020613d948339815191528060205260405f209160018060a01b031691825f5260205260ff60405f205416155f146130cd57825f5260205260405f20815f5260205260405f20600160ff1982541617905533915f80516020613b148339815191525f80a4600190565b604091949392606082019560018060a01b0316825260208201520152565b61325c8161297a565b9060018060a01b0380841692835f5260205260405f2054935f198510613285575b505050505050565b8585106132ba57508116156127a457811561278c576132a39061297a565b905f526020520360405f20555f808080808061327d565b849061060387604051938493637dc7a0d960e11b855260048501613235565b9291906001600160a01b0380851691821561342d57169081156134155782613395575b805f525f80516020613bf48339815191529283602052604093845f2054968288106133775750815f80516020613d548339815191529285969798602093865f52845203875f2055845f52865f208181540190558651908152a35f5260046020525f2065ffffffffffff421665ffffffffffff19825416179055565b879061060384885193849363391434e360e21b855260048501613235565b805f52600960205260405f2054806133ae575b506132fc565b5f80516020613bf48339815191526020526133d660405f20546133d18684612d47565b612d5a565b90816133e3575b506133a8565b816133ed91612b5c565b825f52600960205260405f2055825f5261340c60405f20918254612b4f565b90555f806133dd565b60405163ec442f0560e01b81525f6004820152602490fd5b604051634b637e8f60e11b81525f6004820152602490fd5b6001600160a01b03165f8181525f80516020613b9483398151915260205260409020545f80516020613e3483398151915291905f80516020613d948339815191529060ff16156130cd57825f5260205260405f20815f5260205260405f2060ff19815416905533915f80516020613db48339815191525f80a4600190565b90815f525f80516020613d948339815191528060205260405f209160018060a01b031691825f5260205260ff60405f2054165f146130cd57825f5260205260405f20815f5260205260405f2060ff19815416905533915f80516020613db48339815191525f80a4600190565b60018060a01b0316805f52600460205265ffffffffffff8060405f2054165f5460d01c01818111611e7b5716804210613566575050565b60449250604051916307ead79560e51b835260048301526024820152fd5b9161359081838561396f565b918115612d6457612bd09309151590612b4f565b905f602091828151910182855af1156121bb575f513d6135f557506001600160a01b0381163b155b6135d35750565b604051635274afe760e01b81526001600160a01b039091166004820152602490fd5b600114156135cc565b90919260018060a01b03805f80516020613dd4833981519152541690604094855192826020966323b872dd60e01b8887015216938460248201523060448201528860648201526064815260a081019181831060018060401b03841117611102576136699289526135a4565b169182156137295791808594927fdcbc1c05240f31ff3ad067ef1ee35ce4997762752e3a095284754544f4c709d7613725976009965f80516020613c748339815191526136b7828254612b4f565b9055845f525f80516020613bf48339815191528752815f20818154019055845f5f80516020613d54833981519152898551858152a3845f5260048752815f2065ffffffffffff421665ffffffffffff198254161790558151908b825287820152a35f52525f20918254612b4f565b9055565b845163ec442f0560e01b81525f6004820152602490fd5b60ff5f80516020613e748339815191525460401c161561375c57565b604051631afcd79f60e31b8152600490fd5b9194936001600160a01b03808716949381811693908387860361395e575b5050855f525f80516020613bf4833981519152926020848152604094855f20549060098352865f20545f9280151580613955575b613928575b50505f91808a116138b0575b50891561389957895f52808352865f20549b848d1061387b575090838a9b9c61386e937ffbde797d201c681b91056529119e0b02407c7bb96a4a2c75c01fc9667232c8db9a9b9c5f52855203875f20555f80516020613c748339815191528481540390555f8b5f80516020613d54833981519152858a51888152a384613868875f80516020613dd48339815191525416928c612b5c565b91612ffc565b84519788528701521693a4565b8c90610603868a5193849363391434e360e21b855260048501613235565b8651634b637e8f60e11b81525f6004820152602490fd5b6138bc91925089612b5c565b90896127106138d461ffff60085460101c1685612d47565b049288846138e4575b50506137d1565b7f6b04ab6e5ab7d8f980a5a0a7db93cd937d6774145772c0afa12e58c8e33b75cd9161391286600554612b4f565b60055581519081528587820152a2895f886138dd565b81935061393c906133d18761394394612d47565b8093612b5c565b8a5f5260098452875f20555f806137c5565b508115156137c0565b613968918a613253565b5f8361378c565b90915f1983830992808302928380861095039480860395146139fb57848311156139e35790829109815f038216809204600280826003021880830282030280830282030280830282030280830282030280830282030280920290030293600183805f03040190848311900302920304170290565b82634e487b715f52156003026011186020526024601cfd5b505090612bd09250612d5a565b3d15613a32573d90613a1982612ae1565b91613a276040519384612abe565b82523d5f602084013e565b606090565b5f8091604051602081019063313ce56760e01b825260048152613a5981612aa3565b51916001600160a01b03165afa613a6e613a08565b9080613aa4575b613a81575b505f905f90565b602081805181010312610530576020015160ff8111613a7a579060ff6001921690565b50602081511015613a75565b90613ad75750805115613ac557602081519101fd5b60405163d6bda27560e01b8152600490fd5b81511580613b0a575b613ae8575090565b604051639996b31560e01b81526001600160a01b039091166004820152602490fd5b50803b15613ae056fe2f8788117e7eff1d82e926ec794901d17c78024a50270940304540a733656f0d8ca9b3af6b5eb757f305650cff4ba7b2229c8b4ecc832fad9d23a990080182332ae08a8e29253f69ac5d979a101956ab8f8d9d7ded63fa7a83b16fc47648eab02ef9bbe92b2bae3f097f9019aaabb8164d509e8695a8ccdbf8dacf174306047d7ae5f46e8e2c9d47edd75c3f9de73d51d517dd332b3ff9a189623c263a7292836d8130444826d7175432259260c8b110e54dea7c9bc0db0b589dadcd739732df52c63247e1f47db19d5ce0460030c497f067ca4cebf71ba98eeadabe20bace0352c63247e1f47db19d5ce0460030c497f067ca4cebf71ba98eeadabe20bace0052c63247e1f47db19d5ce0460030c497f067ca4cebf71ba98eeadabe20bace042f0a561d3196984c074334c9068d0c6e1df5f0231fa4a7e31aed5488a5d9e5ea70653d9ec52707908aa470ee7d84a2767823a5efa65614ac649cf00e4087402d52c63247e1f47db19d5ce0460030c497f067ca4cebf71ba98eeadabe20bace02b7db2dd08fcb62d0c9e08c51941cae53c267786a0b75803fb7960902fc8ef97d360894a13ba1a3210667c828492db98dca3e2076cc3735a920a3ca505d382bbc75442b0a96088b5456bc4ed01394c96a4feec0f883c9494257d76b96ab1c9b6be28b941d4f3c365469e1da7ed332b3d4d0426a9ef3b78024ada9d1f15316dcd365d7a28e3265b37a6474929f336521b332c1681b933f6cb9f3376673440d862a4810ece076cee6c6042808956f3f65dad1bc72b75181341d7bed810d39deda0fddf252ad1be2c89b69c2b068fc378daa952ba7f163c4a11628f55a4df523b3ef2bbbc0542ee6b25f93805eab64d8e903fcdfdebe1f6a235abfabf5b90e57ca1f02dd7bc7dec4dceedda775e58dd541e08a116c6c53815c0bd028192f7b626800f6391f5c32d9c69d2a47ea670b442974b53935d1edc7fd64eb21e047a839171b0773e532dfede91f04b12a73d3d2acd361424f41f76b4fb79f090161e36b4e00cd5ed15c6e187e77e9aee88184c21f4f2182ab5827cb3b7e07fbedcd63f033009b779b17422d0df92223018b32b4d1fa46e071723d6817e2486d003becc55f00f69c2bba2b87fa528b086bb719a652dac5a9564c354f6d51534feb94bb6afc3aa28419c039898f2468e845bd1a95a37624af35ca540c0b0593737c303f51ab26f0c57e16840df040f15088dc2f81fe391c3923bec73e23a9662efc9c229c6a007a05a596cb0ce7fdea8a1e1ec73be300bdb35097c944ce1897202f7a13122eb2a26469706673582212201dd575872d1e2dbad3ce2a798d5598a62f6b9ae9c6968032858c7274052a105564736f6c63430008180033","linkReferences":{}},"methodIdentifiers":{"BPS_DENOMINATOR()":"e1a45218","DEFAULT_ADMIN_ROLE()":"a217fddf","LP_WITHDRAWAL_FEE_BPS_MAX()":"5fef4e2e","MATCH_AUTHORIZER_ROLE()":"ce2a55e3","MATCH_ROLE()":"90954345","MAX_BPS_SETTABLE()":"af421918","PAUSER_ROLE()":"e63ab1e9","ROUTER_ROLE()":"30d643b5","TREASURY_SHARE_BPS_MAX()":"9ddc7b54","UPGRADE_INTERFACE_VERSION()":"ad3cb1cc","acceptTreasury()":"e49d2a30","accruedTreasury()":"a6da894c","allowance(address,address)":"dd62ed3e","approve(address,uint256)":"095ea7b3","asset()":"38d52e0f","authorizeMatch(address)":"2020fe0e","balanceOf(address)":"70a08231","cancelTreasuryProposal()":"d920b5ef","convertToAssets(uint256)":"07a2d13a","convertToShares(uint256)":"c6e6f592","costBasis(address)":"005dfcbf","decimals()":"313ce567","deposit(uint256,address)":"6e553f65","depositCooldownSeconds()":"2c109f80","freeBalance()":"25185d3e","getRoleAdmin(bytes32)":"248a9ca3","grantRole(bytes32,address)":"2f2ff15d","hasRole(bytes32,address)":"91d14854","initialize(address,address,address,uint16,uint16,uint16,uint48)":"b27ce995","lastDepositAt(address)":"c31295d4","lpWithdrawalFeeBps()":"fb340640","marketLiability(address,uint256)":"e0634f65","matchLiability(address)":"7373e3d1","maxBetAmount()":"cab11d5d","maxDeposit(address)":"402d267d","maxLiabilityPerMarketBps()":"59fd9526","maxLiabilityPerMatchBps()":"8a4c3d4a","maxMint(address)":"c63d75b6","maxRedeem(address)":"d905777e","maxWithdraw(address)":"ce96cb77","mint(uint256,address)":"94bf804d","name()":"06fdde03","pause()":"8456cb59","paused()":"5c975abb","payRefund(address,uint256,address,uint256,uint256)":"43a555e6","payWinner(address,uint256,address,uint256,uint256)":"fd5e3148","pendingTreasury()":"2ed6b75d","previewDeposit(uint256)":"ef8b30f7","previewMint(uint256)":"b3d7f6b9","previewRedeem(uint256)":"4cdad506","previewWithdraw(uint256)":"0a28a477","proposeTreasury(address)":"f110ed67","protocolFeeBps()":"35659fb8","proxiableUUID()":"52d1902d","recordBet(address,uint256,address,uint256,uint256)":"2c262c66","redeem(uint256,address,address)":"ba087652","renounceRole(bytes32,address)":"36568abe","revokeMatch(address)":"8afacf03","revokeRole(bytes32,address)":"d547741f","setDepositCooldownSeconds(uint48)":"00a36a9e","setLpWithdrawalFeeBps(uint16)":"ca090dac","setMaxBetAmount(uint256)":"7cfbc7a5","setMaxLiabilityPerMarketBps(uint16)":"a279ec25","setMaxLiabilityPerMatchBps(uint16)":"17a791c0","setProtocolFeeBps(uint16)":"be37b12c","setTreasuryShareBps(uint16)":"91d6eacc","settleMarket(address,uint256,uint256,uint256)":"27687a34","supportsInterface(bytes4)":"01ffc9a7","symbol()":"95d89b41","totalAssets()":"01e1d114","totalLiabilities()":"f73579a9","totalSupply()":"18160ddd","transfer(address,uint256)":"a9059cbb","transferFrom(address,address,uint256)":"23b872dd","treasury()":"61d027b3","treasuryShareBps()":"30654a47","treasuryWithdrawable()":"13964ffa","unpause()":"3f4ba83a","upgradeToAndCall(address,bytes)":"4f1ef286","utilization()":"ea21cd92","withdraw(uint256,address,address)":"b460af94","withdrawTreasury(uint256)":"11f1fc99"},"id":72}