{"abi":[{"type":"constructor","inputs":[],"stateMutability":"nonpayable"},{"type":"function","name":"UPGRADE_INTERFACE_VERSION","inputs":[],"outputs":[{"name":"","type":"string","internalType":"string"}],"stateMutability":"view"},{"type":"function","name":"availableBalance","inputs":[],"outputs":[{"name":"","type":"uint256","internalType":"uint256"}],"stateMutability":"view"},{"type":"function","name":"donate","inputs":[{"name":"amount","type":"uint256","internalType":"uint256"},{"name":"message","type":"string","internalType":"string"},{"name":"amountOutMin","type":"uint256","internalType":"uint256"},{"name":"deadline","type":"uint256","internalType":"uint256"},{"name":"token","type":"address","internalType":"address"}],"outputs":[{"name":"platformFee","type":"uint256","internalType":"uint256"},{"name":"streamerAmount","type":"uint256","internalType":"uint256"}],"stateMutability":"nonpayable"},{"type":"function","name":"donateFor","inputs":[{"name":"donor","type":"address","internalType":"address"},{"name":"amount","type":"uint256","internalType":"uint256"},{"name":"message","type":"string","internalType":"string"},{"name":"amountOutMin","type":"uint256","internalType":"uint256"},{"name":"deadline","type":"uint256","internalType":"uint256"},{"name":"token","type":"address","internalType":"address"}],"outputs":[{"name":"platformFee","type":"uint256","internalType":"uint256"},{"name":"streamerAmount","type":"uint256","internalType":"uint256"}],"stateMutability":"nonpayable"},{"type":"function","name":"factory","inputs":[],"outputs":[{"name":"","type":"address","internalType":"address"}],"stateMutability":"view"},{"type":"function","name":"getDonationAmount","inputs":[{"name":"donor","type":"address","internalType":"address"}],"outputs":[{"name":"","type":"uint256","internalType":"uint256"}],"stateMutability":"view"},{"type":"function","name":"getSubscription","inputs":[{"name":"user","type":"address","internalType":"address"}],"outputs":[{"name":"","type":"tuple","internalType":"struct StreamWallet.Subscription","components":[{"name":"amount","type":"uint256","internalType":"uint256"},{"name":"startTime","type":"uint256","internalType":"uint256"},{"name":"expiryTime","type":"uint256","internalType":"uint256"},{"name":"active","type":"bool","internalType":"bool"}]}],"stateMutability":"view"},{"type":"function","name":"initialize","inputs":[{"name":"streamer_","type":"address","internalType":"address"},{"name":"treasury_","type":"address","internalType":"address"},{"name":"platformFeeBps_","type":"uint16","internalType":"uint16"},{"name":"kayenRouter_","type":"address","internalType":"address"},{"name":"usdc_","type":"address","internalType":"address"}],"outputs":[],"stateMutability":"nonpayable"},{"type":"function","name":"isSubscribed","inputs":[{"name":"user","type":"address","internalType":"address"}],"outputs":[{"name":"","type":"bool","internalType":"bool"}],"stateMutability":"view"},{"type":"function","name":"kayenRouter","inputs":[],"outputs":[{"name":"","type":"address","internalType":"address"}],"stateMutability":"view"},{"type":"function","name":"lifetimeDonations","inputs":[{"name":"","type":"address","internalType":"address"}],"outputs":[{"name":"","type":"uint256","internalType":"uint256"}],"stateMutability":"view"},{"type":"function","name":"owner","inputs":[],"outputs":[{"name":"","type":"address","internalType":"address"}],"stateMutability":"view"},{"type":"function","name":"platformFeeBps","inputs":[],"outputs":[{"name":"","type":"uint16","internalType":"uint16"}],"stateMutability":"view"},{"type":"function","name":"proxiableUUID","inputs":[],"outputs":[{"name":"","type":"bytes32","internalType":"bytes32"}],"stateMutability":"view"},{"type":"function","name":"recordDonationByRouter","inputs":[{"name":"donor","type":"address","internalType":"address"},{"name":"totalUsdcAmount","type":"uint256","internalType":"uint256"},{"name":"platformFee","type":"uint256","internalType":"uint256"},{"name":"streamerAmount","type":"uint256","internalType":"uint256"},{"name":"message","type":"string","internalType":"string"}],"outputs":[],"stateMutability":"nonpayable"},{"type":"function","name":"recordSubscription","inputs":[{"name":"subscriber","type":"address","internalType":"address"},{"name":"amount","type":"uint256","internalType":"uint256"},{"name":"duration","type":"uint256","internalType":"uint256"},{"name":"amountOutMin","type":"uint256","internalType":"uint256"},{"name":"deadline","type":"uint256","internalType":"uint256"},{"name":"token","type":"address","internalType":"address"}],"outputs":[{"name":"platformFee","type":"uint256","internalType":"uint256"},{"name":"streamerAmount","type":"uint256","internalType":"uint256"}],"stateMutability":"nonpayable"},{"type":"function","name":"recordSubscriptionByRouter","inputs":[{"name":"subscriber","type":"address","internalType":"address"},{"name":"totalUsdcAmount","type":"uint256","internalType":"uint256"},{"name":"duration","type":"uint256","internalType":"uint256"}],"outputs":[],"stateMutability":"nonpayable"},{"type":"function","name":"renounceOwnership","inputs":[],"outputs":[],"stateMutability":"nonpayable"},{"type":"function","name":"setSwapRouter","inputs":[{"name":"_swapRouter","type":"address","internalType":"address"}],"outputs":[],"stateMutability":"nonpayable"},{"type":"function","name":"streamer","inputs":[],"outputs":[{"name":"","type":"address","internalType":"address"}],"stateMutability":"view"},{"type":"function","name":"subscriptions","inputs":[{"name":"","type":"address","internalType":"address"}],"outputs":[{"name":"amount","type":"uint256","internalType":"uint256"},{"name":"startTime","type":"uint256","internalType":"uint256"},{"name":"expiryTime","type":"uint256","internalType":"uint256"},{"name":"active","type":"bool","internalType":"bool"}],"stateMutability":"view"},{"type":"function","name":"swapRouter","inputs":[],"outputs":[{"name":"","type":"address","internalType":"address"}],"stateMutability":"view"},{"type":"function","name":"totalRevenue","inputs":[],"outputs":[{"name":"","type":"uint256","internalType":"uint256"}],"stateMutability":"view"},{"type":"function","name":"totalSubscribers","inputs":[],"outputs":[{"name":"","type":"uint256","internalType":"uint256"}],"stateMutability":"view"},{"type":"function","name":"totalWithdrawn","inputs":[],"outputs":[{"name":"","type":"uint256","internalType":"uint256"}],"stateMutability":"view"},{"type":"function","name":"transferOwnership","inputs":[{"name":"newOwner","type":"address","internalType":"address"}],"outputs":[],"stateMutability":"nonpayable"},{"type":"function","name":"treasury","inputs":[],"outputs":[{"name":"","type":"address","internalType":"address"}],"stateMutability":"view"},{"type":"function","name":"upgradeToAndCall","inputs":[{"name":"newImplementation","type":"address","internalType":"address"},{"name":"data","type":"bytes","internalType":"bytes"}],"outputs":[],"stateMutability":"payable"},{"type":"function","name":"usdc","inputs":[],"outputs":[{"name":"","type":"address","internalType":"address"}],"stateMutability":"view"},{"type":"function","name":"withdrawRevenue","inputs":[{"name":"amount","type":"uint256","internalType":"uint256"}],"outputs":[],"stateMutability":"nonpayable"},{"type":"event","name":"DonationReceived","inputs":[{"name":"donor","type":"address","indexed":true,"internalType":"address"},{"name":"amount","type":"uint256","indexed":false,"internalType":"uint256"},{"name":"message","type":"string","indexed":false,"internalType":"string"},{"name":"platformFee","type":"uint256","indexed":false,"internalType":"uint256"},{"name":"streamerAmount","type":"uint256","indexed":false,"internalType":"uint256"}],"anonymous":false},{"type":"event","name":"Initialized","inputs":[{"name":"version","type":"uint64","indexed":false,"internalType":"uint64"}],"anonymous":false},{"type":"event","name":"OwnershipTransferred","inputs":[{"name":"previousOwner","type":"address","indexed":true,"internalType":"address"},{"name":"newOwner","type":"address","indexed":true,"internalType":"address"}],"anonymous":false},{"type":"event","name":"PlatformFeeCollected","inputs":[{"name":"amount","type":"uint256","indexed":false,"internalType":"uint256"},{"name":"treasury","type":"address","indexed":true,"internalType":"address"}],"anonymous":false},{"type":"event","name":"RevenueWithdrawn","inputs":[{"name":"streamer","type":"address","indexed":true,"internalType":"address"},{"name":"amount","type":"uint256","indexed":false,"internalType":"uint256"}],"anonymous":false},{"type":"event","name":"SubscriptionRecorded","inputs":[{"name":"subscriber","type":"address","indexed":true,"internalType":"address"},{"name":"amount","type":"uint256","indexed":false,"internalType":"uint256"},{"name":"duration","type":"uint256","indexed":false,"internalType":"uint256"},{"name":"expiryTime","type":"uint256","indexed":false,"internalType":"uint256"}],"anonymous":false},{"type":"event","name":"SwapRouterUpdated","inputs":[{"name":"oldRouter","type":"address","indexed":true,"internalType":"address"},{"name":"newRouter","type":"address","indexed":true,"internalType":"address"}],"anonymous":false},{"type":"event","name":"Upgraded","inputs":[{"name":"implementation","type":"address","indexed":true,"internalType":"address"}],"anonymous":false},{"type":"error","name":"AddressEmptyCode","inputs":[{"name":"target","type":"address","internalType":"address"}]},{"type":"error","name":"DeadlinePassed","inputs":[]},{"type":"error","name":"ERC1967InvalidImplementation","inputs":[{"name":"implementation","type":"address","internalType":"address"}]},{"type":"error","name":"ERC1967NonPayable","inputs":[]},{"type":"error","name":"FailedCall","inputs":[]},{"type":"error","name":"InsufficientBalance","inputs":[]},{"type":"error","name":"InvalidAddress","inputs":[]},{"type":"error","name":"InvalidAmount","inputs":[]},{"type":"error","name":"InvalidDuration","inputs":[]},{"type":"error","name":"InvalidFeeBps","inputs":[]},{"type":"error","name":"InvalidInitialization","inputs":[]},{"type":"error","name":"NotInitializing","inputs":[]},{"type":"error","name":"OnlyAuthorized","inputs":[]},{"type":"error","name":"OnlyFactory","inputs":[]},{"type":"error","name":"OnlyStreamer","inputs":[]},{"type":"error","name":"OwnableInvalidOwner","inputs":[{"name":"owner","type":"address","internalType":"address"}]},{"type":"error","name":"OwnableUnauthorizedAccount","inputs":[{"name":"account","type":"address","internalType":"address"}]},{"type":"error","name":"ReentrancyGuardReentrantCall","inputs":[]},{"type":"error","name":"SafeERC20FailedOperation","inputs":[{"name":"token","type":"address","internalType":"address"}]},{"type":"error","name":"SwapSlippageExceeded","inputs":[]},{"type":"error","name":"UUPSUnauthorizedCallContext","inputs":[]},{"type":"error","name":"UUPSUnsupportedProxiableUUID","inputs":[{"name":"slot","type":"bytes32","internalType":"bytes32"}]}],"bytecode":{"object":"0x60a080604052346100cc57306080527ff0c57e16840df040f15088dc2f81fe391c3923bec73e23a9662efc9c229c6a009081549060ff8260401c166100bd57506001600160401b036002600160401b031982821601610078575b604051611bcc90816100d18239608051818181610cda0152610da30152f35b6001600160401b031990911681179091556040519081527fc7f505b2f371ae2175ee4913f4499e1f2633a7b5936321eed1cdaeb6115181d290602090a15f8080610059565b63f92ee8a960e01b8152600490fd5b5f80fdfe6080604081815260049081361015610015575f80fd5b5f3560e01c9283630cbebc2414611141575082630ceff2041461106f5782631479197f1461079e57826315e2475f1461105257826322dcd13e1461102e5782633e413bee146110085782634127365714610f765782634b31971314610f595782634f1ef28614610d2b57826352d1902d14610cc857826361d027b314610ca15782636be90fca14610b72578263715018a614610b1e5782637e93a319146107d4578263886c250e1461079e5782638da5cb5b1461076b5782639a5c049b14610744578263a5c6d10814610568578263ab2f0e5114610546578263ad3cb1cc146104aa578263b92ae87c1461042f578263bf2d9e0b14610412578263c31c9c07146103eb578263c45a0155146103c4578263cecf13f51461039e578263d28f637a14610338578263e478f695146102c6578263f046395a14610269578263f04b74ab1461019a57505063f2fde38b1461016b575f80fd5b34610196576020366003190112610196576101946101876111e2565b61018f61166b565b611521565b005b5f80fd5b346101965760a0366003190112610196576101b36111e2565b602435906084356001600160401b038111610196576101d590369086016112ac565b9190946101e061162b565b6101e861157f565b831561025b57505f80516020611ab783398151915293946102459160018060a01b031695865f526007602052805f206102228682546112d9565b9055610230856008546112d9565b600855519384936064359260443592866114e6565b0390a260015f80516020611b3783398151915255005b845163162908e360e11b8152fd5b34610196576020366003190112610196576080906001600160a01b0361028d6111e2565b165f526006602052805f209081549160018101549160ff6003600284015493015416928151948552602085015283015215156060820152f35b90346101965760a036600319011261019657602435906001600160401b038211610196576102fa61031b92369083016112ac565b9161030361120e565b9261030c61157f565b606435926044359235336117b2565b60015f80516020611b378339815191525582519182526020820152f35b90346101965760c0366003190112610196576103526111e2565b6044356001600160401b0381116101965761031b92610373913691016112ac565b9161037c6111f8565b92610385611605565b61038d61157f565b6084359260643592602435906117b2565b34610196575f366003190112610196575f5490516001600160a01b039091168152602090f35b34610196575f3660031901126101965760025490516001600160a01b039091168152602090f35b34610196575f3660031901126101965760055490516001600160a01b039091168152602090f35b34610196575f366003190112610196576020906008549051908152f35b34610196576020366003190112610196576020906060906001600160a01b036104566111e2565b165f5260068352805f20815161046b81611224565b8154815260018201548582015260ff6003600284015493848685015201541615159384910152826104a0575b50519015158152f35b4210915083610497565b34610196575f36600319011261019657805191828201906001600160401b0382118483101761053357508152600582526020640352e302e360dc1b60208401528151928391602083528151918260208501525f5b83811061051d5750505f83830185015250601f01601f19168101030190f35b81810183015187820187015286945082016104fe565b604190634e487b7160e01b5f525260245ffd5b34610196575f36600319011261019657602090610561611473565b9051908152f35b90346101965760a0366003190112610196576105826111e2565b906001600160a01b036024358181169290839003610196576044359361ffff85169283860361019657606435818116809103610196576105c061120e565b905f80516020611b578339815191529788549760ff898c1c16159760018060401b038a16998a158061073d575b6001809c149081610733575b15908161072a575b5061071a576001600160401b031981168b178c5561271091908a6106ff575b50610629611a05565b610631611a05565b61063a88611521565b610642611a05565b61064a611a05565b610652611a05565b8a5f80516020611b3783398151915255116106ef578460018060a01b03199616865f5416175f5588549161ffff60a01b9060a01b169160018060b01b031916171787553384600254161760025583600354161760035516908254161790556106b657005b815460ff60401b191690915590519081527fc7f505b2f371ae2175ee4913f4499e1f2633a7b5936321eed1cdaeb6115181d290602090a1005b8a51638bff87cf60e01b81528790fd5b6001600160481b0319166001600160401b01178c558d610620565b8c5163f92ee8a960e01b81528990fd5b9050158e610601565b303b1591506105f9565b50896105ed565b34610196575f3660031901126101965760035490516001600160a01b039091168152602090f35b34610196575f366003190112610196575f80516020611ad78339815191525490516001600160a01b039091168152602090f35b34610196576020366003190112610196576020906001600160a01b036107c26111e2565b165f5260078252805f20549051908152f35b346101965760c0366003190112610196576107ed6111e2565b6084356024356044356064356108016111f8565b9461080a611605565b61081261157f565b8315610b0e578215610afe57844211610aee579596949587956001600160a01b0395868916928790610846883033886116a3565b1695865f526006602052885f2098899860038a019560ff875416968b8a89809a610ae1575b15610ad057600261087d9201546112d9565b975b15610abd575b805460ff811615610ab65760018d0154905b8960019e8f93848201556002015560ff19161790558a5460a01c61ffff166108bf908561131e565b61271090049c846108d18f8097611331565b9d81600854906108e0916112d9565b600855818154906108f0916112d9565b90556108fb916116fb565b82519061090782611253565b600282528336602084013761091b8261133e565b52818654166109298261135f565b5283610a2d575b5f8094508c61095c8460035416948354169551978896879586946338ed173960e01b86528c860161143a565b03925af1908115610a23575f91610a01575b5080515f198101919082116109ee57906109879161136f565b519280151590816109e4575b506109d65750906109b85f80516020611a978339815191529392895193849384611308565b0390a25f80516020611b378339815191525582519182526020820152f35b8851630d6368f760e01b8152fd5b905083108a610993565b601183634e487b7160e01b5f525260245ffd5b610a1d91503d805f833e610a15818361126e565b810190611383565b8a61096e565b8a513d5f823e3d90fd5b5f818c84806003541691541696838a610a5a8b8a519b8c97889687956338ed173960e01b8752860161143a565b03925af18015610aac575f80516020611b7783398151915260208f928e5f988792610a92575b505416928651908152a28c9350610930565b610aa5903d808c833e610a15818361126e565b505f610a80565b83513d5f823e3d90fd5b4290610897565b610ac8600a546112fa565b600a55610885565b610adb9150426112d9565b9761087f565b504260028301541161086b565b865163387b2e5560e11b81528890fd5b8651637616640160e01b81528890fd5b865163162908e360e11b81528890fd5b34610196575f36600319011261019657610b3661166b565b5f80516020611ad783398151915280546001600160a01b031981169091555f906001600160a01b03165f80516020611b178339815191528280a3005b3461019657606036600319011261019657610b8b6111e2565b9160243560443591610b9b61162b565b610ba361157f565b8115610c93578215610c8557506102455f80516020611a97833981519152939460018060a01b031694855f526006602052805f209060038201600160ff82541693848095610c78575b15610c6857610bff8860028301546112d9565b945b15610c55575b610c128782546112d9565b815584600284549260ff84165f14610c4f57848101545b85820155015560ff1916179055610c42846008546112d9565b6008555193849384611308565b42610c29565b610c60600a546112fa565b600a55610c07565b610c7288426112d9565b94610c01565b5060028101544210610bec565b8351637616640160e01b8152fd5b835163162908e360e11b8152fd5b34610196575f3660031901126101965760015490516001600160a01b039091168152602090f35b34610196575f366003190112610196577f00000000000000000000000000000000000000000000000000000000000000006001600160a01b03163003610d1e57602090515f80516020611af78339815191528152f35b5163703e46dd60e11b8152fd5b908160031936011261019657610d3f6111e2565b60249283356001600160401b03811161019657366023820112156101965780840135610d6a81611291565b93610d778451958661126e565b818552602091828601933689838301011161019657815f928a8693018737870101526001600160a01b037f00000000000000000000000000000000000000000000000000000000000000008116308114908115610f3e575b50610f2e57610ddc611605565b81169484516352d1902d60e01b8152838189818a5afa5f9181610eff575b50610e155750505050505191634c9c8ce360e01b8352820152fd5b9087878794938b5f80516020611af783398151915291828103610eea5750853b15610ed6575080546001600160a01b031916821790558451907fbc7cd75a20ee27fd9adebab32041f755214dbc6bffa90cc0225b39da2e5c2d3b5f80a2825115610ebc5750505f6101949581925190845af4913d15610eb2573d610ea4610e9b82611291565b9251928361126e565b81525f81943d92013e611a33565b5060609250611a33565b9450945050505034610eca57005b63b398979f60e01b8152fd5b8651634c9c8ce360e01b8152808501849052fd5b8751632a87526960e21b815280860191909152fd5b9091508481813d8311610f27575b610f17818361126e565b810103126101965751908a610dfa565b503d610f0d565b845163703e46dd60e11b81528790fd5b9050815f80516020611af78339815191525416141589610dcf565b34610196575f366003190112610196576020906009549051908152f35b903461019657602036600319011261019657610f906111e2565b6002546001600160a01b0392919083163303610ff9578216928315610fec575050600580546001600160a01b031981168417909155167fca394f95d8dbf1e8b2e76b9a8da90cacce1da85181a65508dab13212dc1df53b5f80a3005b5163e6c4247b60e01b8152fd5b508251637d7b71b560e01b8152fd5b34610196575f36600319011261019657905490516001600160a01b039091168152602090f35b34610196575f3660031901126101965760209061ffff60015460a01c169051908152f35b34610196575f36600319011261019657602090600a549051908152f35b34610196576020366003190112610196575f548235906001600160a01b0390811633036111325761109e61157f565b8115611123576110ac611473565b82116111145781816110f882602094886110e97f86a5cc8fe9af9ae68fb50f62885307a7755a30cbd290131644377f0bd94a7181986009546112d9565b6009555416835f5416906115c9565b5f54169351908152a260015f80516020611b3783398151915255005b505051631e9acf1760e31b8152fd5b50505163162908e360e11b8152fd5b5050516390742f2b60e01b8152fd5b9034610196576020366003190112610196576080915f60606111616111e2565b9261116b81611224565b8281528260208201528285820152015260018060a01b03165f526006602052805f209080519061119a82611224565b825492838352600181015460208401908152606060ff600360028501549486880195865201541694019315158452825194855251602085015251908301525115156060820152f35b600435906001600160a01b038216820361019657565b60a435906001600160a01b038216820361019657565b608435906001600160a01b038216820361019657565b608081019081106001600160401b0382111761123f57604052565b634e487b7160e01b5f52604160045260245ffd5b606081019081106001600160401b0382111761123f57604052565b601f909101601f19168101906001600160401b0382119082101761123f57604052565b6001600160401b03811161123f57601f01601f191660200190565b9181601f84011215610196578235916001600160401b038311610196576020838186019501011161019657565b919082018092116112e657565b634e487b7160e01b5f52601160045260245ffd5b5f1981146112e65760010190565b6040919493926060820195825260208201520152565b818102929181159184041417156112e657565b919082039182116112e657565b80511561134b5760200190565b634e487b7160e01b5f52603260045260245ffd5b80516001101561134b5760400190565b805182101561134b5760209160051b010190565b9060209081838203126101965782516001600160401b0393848211610196570181601f8201121561019657805193841161123f578360051b90604051946113cc8584018761126e565b85528380860192820101928311610196578301905b8282106113ef575050505090565b815181529083019083016113e1565b9081518082526020808093019301915f5b82811061141d575050505090565b83516001600160a01b03168552938101939281019260010161140f565b9060809261145f919695949683525f602084015260a0604084015260a08301906113fe565b6001600160a01b0390951660608201520152565b6024602060018060a01b0360045416604051928380926370a0823160e01b82523060048301525afa9081156114db575f916114ac575090565b90506020813d6020116114d3575b816114c76020938361126e565b81010312610196575190565b3d91506114ba565b6040513d5f823e3d90fd5b91928060609460a09398979698855260806020860152816080860152838501375f828285010152601f80199101168201019460408201520152565b6001600160a01b03908116908115611567575f80516020611ad783398151915280546001600160a01b031981168417909155165f80516020611b178339815191525f80a3565b604051631e4fbdf760e01b81525f6004820152602490fd5b5f80516020611b37833981519152600281541461159c5760029055565b604051633ee5aeb560e01b8152600490fd5b6001600160a01b039091168152602081019190915260400190565b6115fe61160393926115f060405194859263a9059cbb60e01b6020850152602484016115ae565b03601f19810184528361126e565b6119ab565b565b6002546001600160a01b0316330361161957565b604051630636a15760e11b8152600490fd5b600254336001600160a01b039182161415908161165c575b5061164a57565b604051637d7b71b560e01b8152600490fd5b9050600554163314155f611643565b5f80516020611ad7833981519152546001600160a01b0316330361168b57565b60405163118cdaa760e01b8152336004820152602490fd5b6040516323b872dd60e01b60208201526001600160a01b03928316602482015292909116604483015260648083019390935291815260a08101918183106001600160401b0384111761123f57611603926040526119ab565b60018060a01b038091169060035416906040519160205f8185016117408661173263095ea7b360e01b998a855287602484016115ae565b03601f19810188528761126e565b85519082865af15f513d82611796575b50501561175e575b50505050565b61178d936115fe9160405191602083015260248201525f60448201526044815261178781611224565b826119ab565b5f808080611758565b9091506117aa5750813b15155b5f80611750565b6001146117a3565b939592969481156119995780421161198757611853935f9160018060a01b03986117eb858b8516946117e6823033896116a3565b6116fb565b836040958651946117fb86611253565b600286528736602088013761180f8661133e565b528b6004541661181e8661135f565b528b60035416938751998a96879586946338ed173960e01b86526004860152602485015260a0604485015260a48401906113fe565b90306064840152608483015203925af192831561197d575f93611961575b5082515f1981019081116112e65761189a61190e915f80516020611ab78339815191529561136f565b51946127106118b261ffff60015460a01c168861131e565b048099896118e86118c3848b611331565b9b8c9516998a5f526007602052875f206118de8282546112d9565b90556008546112d9565b6008558261192d575b8380611913575b6119039150836112d9565b9451958695866114e6565b0390a2565b816119269260045416905f5416906115c9565b5f836118f8565b6119418382600454168360015416906115c9565b80600154165f80516020611b7783398151915260208851868152a26118f1565b6119769193503d805f833e610a15818361126e565b915f611871565b50513d5f823e3d90fd5b60405163387b2e5560e11b8152600490fd5b60405163162908e360e11b8152600490fd5b905f602091828151910182855af1156114db575f513d6119fc57506001600160a01b0381163b155b6119da5750565b604051635274afe760e01b81526001600160a01b039091166004820152602490fd5b600114156119d3565b60ff5f80516020611b578339815191525460401c1615611a2157565b604051631afcd79f60e31b8152600490fd5b90611a5a5750805115611a4857602081519101fd5b60405163d6bda27560e01b8152600490fd5b81511580611a8d575b611a6b575090565b604051639996b31560e01b81526001600160a01b039091166004820152602490fd5b50803b15611a6356fe7a13ebf2522940b2ac4f647cb0bf897ecdedcddf001cba0c28c40db4cbaf7abee6e76c147879ef2b39c47840a91c2aab43eb81a9ebb620f720d0671999eec4fc9016d09d72d40fdae2fd8ceac6b6234c7706214fd39c1cd1e609a0528c199300360894a13ba1a3210667c828492db98dca3e2076cc3735a920a3ca505d382bbc8be0079c531659141344cd1fd0a4f28419497f9722a3daafe3b4186f6b6457e09b779b17422d0df92223018b32b4d1fa46e071723d6817e2486d003becc55f00f0c57e16840df040f15088dc2f81fe391c3923bec73e23a9662efc9c229c6a00cf1bd34e586f4e12ef1c4c84c337b05dd3f7fc5409e16c5fea9063524eb77022a2646970667358221220e9bbacafc7f99456f0333cc0da8ec3dd8b3f0a8cff95dd102954f6620277bde564736f6c63430008180033","linkReferences":{}},"methodIdentifiers":{"UPGRADE_INTERFACE_VERSION()":"ad3cb1cc","availableBalance()":"ab2f0e51","donate(uint256,string,uint256,uint256,address)":"e478f695","donateFor(address,uint256,string,uint256,uint256,address)":"d28f637a","factory()":"c45a0155","getDonationAmount(address)":"1479197f","getSubscription(address)":"0cbebc24","initialize(address,address,uint16,address,address)":"a5c6d108","isSubscribed(address)":"b92ae87c","kayenRouter()":"9a5c049b","lifetimeDonations(address)":"886c250e","owner()":"8da5cb5b","platformFeeBps()":"22dcd13e","proxiableUUID()":"52d1902d","recordDonationByRouter(address,uint256,uint256,uint256,string)":"f04b74ab","recordSubscription(address,uint256,uint256,uint256,uint256,address)":"7e93a319","recordSubscriptionByRouter(address,uint256,uint256)":"6be90fca","renounceOwnership()":"715018a6","setSwapRouter(address)":"41273657","streamer()":"cecf13f5","subscriptions(address)":"f046395a","swapRouter()":"c31c9c07","totalRevenue()":"bf2d9e0b","totalSubscribers()":"15e2475f","totalWithdrawn()":"4b319713","transferOwnership(address)":"f2fde38b","treasury()":"61d027b3","upgradeToAndCall(address,bytes)":"4f1ef286","usdc()":"3e413bee","withdrawRevenue(uint256)":"0ceff204"},"id":60}